{
	"DoneeFactory.sol": {
		"DoneeFactory": {
			"abi": [
				{
					"anonymous": false,
					"inputs": [
						{
							"indexed": true,
							"internalType": "contract Donee",
							"name": "donee",
							"type": "address"
						},
						{
							"indexed": true,
							"internalType": "address",
							"name": "creator",
							"type": "address"
						}
					],
					"name": "DoneeCreated",
					"type": "event"
				},
				{
					"inputs": [],
					"name": "allDonees",
					"outputs": [
						{
							"internalType": "contract Donee[]",
							"name": "donees",
							"type": "address[]"
						}
					],
					"stateMutability": "view",
					"type": "function"
				},
				{
					"inputs": [
						{
							"internalType": "string",
							"name": "name",
							"type": "string"
						},
						{
							"internalType": "string",
							"name": "description",
							"type": "string"
						},
						{
							"internalType": "string",
							"name": "image",
							"type": "string"
						},
						{
							"internalType": "address payable",
							"name": "withdrawalAddress",
							"type": "address"
						}
					],
					"name": "createDonee",
					"outputs": [],
					"stateMutability": "nonpayable",
					"type": "function"
				},
				{
					"inputs": [],
					"name": "doneesCnt",
					"outputs": [
						{
							"internalType": "uint256",
							"name": "",
							"type": "uint256"
						}
					],
					"stateMutability": "view",
					"type": "function"
				}
			],
			"devdoc": {
				"kind": "dev",
				"methods": {},
				"version": 1
			},
			"evm": {
				"assembly": "    /* \"DoneeFactory.sol\":86:729  contract DoneeFactory {... */\n  mstore(0x40, 0x80)\n  callvalue\n  dup1\n  iszero\n  tag_1\n  jumpi\n  0x00\n  dup1\n  revert\ntag_1:\n  pop\n  dataSize(sub_0)\n  dup1\n  dataOffset(sub_0)\n  0x00\n  codecopy\n  0x00\n  return\nstop\n\nsub_0: assembly {\n        /* \"DoneeFactory.sol\":86:729  contract DoneeFactory {... */\n      mstore(0x40, 0x80)\n      callvalue\n      dup1\n      iszero\n      tag_1\n      jumpi\n      0x00\n      dup1\n      revert\n    tag_1:\n      pop\n      jumpi(tag_2, lt(calldatasize, 0x04))\n      shr(0xe0, calldataload(0x00))\n      dup1\n      0xaeda46a6\n      eq\n      tag_3\n      jumpi\n      dup1\n      0xc41b72c8\n      eq\n      tag_4\n      jumpi\n      dup1\n      0xf833baf4\n      eq\n      tag_5\n      jumpi\n    tag_2:\n      0x00\n      dup1\n      revert\n        /* \"DoneeFactory.sol\":629:726  function allDonees() public view returns(Donee[] memory donees) {... */\n    tag_3:\n      tag_6\n      tag_7\n      jump\t// in\n    tag_6:\n      mload(0x40)\n      tag_8\n      swap2\n      swap1\n      tag_9\n      jump\t// in\n    tag_8:\n      mload(0x40)\n      dup1\n      swap2\n      sub\n      swap1\n      return\n        /* \"DoneeFactory.sol\":314:621  function createDonee(string memory name, string memory description, string memory image, address payable withdrawalAddress) public {... */\n    tag_4:\n      tag_10\n      0x04\n      dup1\n      calldatasize\n      sub\n      dup2\n      add\n      swap1\n      tag_11\n      swap2\n      swap1\n      tag_12\n      jump\t// in\n    tag_11:\n      tag_13\n      jump\t// in\n    tag_10:\n      stop\n        /* \"DoneeFactory.sol\":216:306  function doneesCnt() public view returns(uint256) {... */\n    tag_5:\n      tag_14\n      tag_15\n      jump\t// in\n    tag_14:\n      mload(0x40)\n      tag_16\n      swap2\n      swap1\n      tag_17\n      jump\t// in\n    tag_16:\n      mload(0x40)\n      dup1\n      swap2\n      sub\n      swap1\n      return\n        /* \"DoneeFactory.sol\":629:726  function allDonees() public view returns(Donee[] memory donees) {... */\n    tag_7:\n        /* \"DoneeFactory.sol\":670:691  Donee[] memory donees */\n      0x60\n        /* \"DoneeFactory.sol\":711:718  _donees */\n      0x00\n        /* \"DoneeFactory.sol\":704:718  return _donees */\n      dup1\n      sload\n      dup1\n      0x20\n      mul\n      0x20\n      add\n      mload(0x40)\n      swap1\n      dup2\n      add\n      0x40\n      mstore\n      dup1\n      swap3\n      swap2\n      swap1\n      dup2\n      dup2\n      mstore\n      0x20\n      add\n      dup3\n      dup1\n      sload\n      dup1\n      iszero\n      tag_19\n      jumpi\n      0x20\n      mul\n      dup3\n      add\n      swap2\n      swap1\n      0x00\n      mstore\n      keccak256(0x00, 0x20)\n      swap1\n    tag_20:\n      dup2\n      0x00\n      swap1\n      sload\n      swap1\n      0x0100\n      exp\n      swap1\n      div\n      0xffffffffffffffffffffffffffffffffffffffff\n      and\n      0xffffffffffffffffffffffffffffffffffffffff\n      and\n      dup2\n      mstore\n      0x20\n      add\n      swap1\n      0x01\n      add\n      swap1\n      dup1\n      dup4\n      gt\n      tag_20\n      jumpi\n    tag_19:\n      pop\n      pop\n      pop\n      pop\n      pop\n      swap1\n      pop\n        /* \"DoneeFactory.sol\":629:726  function allDonees() public view returns(Donee[] memory donees) {... */\n      swap1\n      jump\t// out\n        /* \"DoneeFactory.sol\":314:621  function createDonee(string memory name, string memory description, string memory image, address payable withdrawalAddress) public {... */\n    tag_13:\n        /* \"DoneeFactory.sol\":456:467  Donee donee */\n      0x00\n        /* \"DoneeFactory.sol\":480:484  name */\n      dup5\n        /* \"DoneeFactory.sol\":486:497  description */\n      dup5\n        /* \"DoneeFactory.sol\":499:504  image */\n      dup5\n        /* \"DoneeFactory.sol\":506:523  withdrawalAddress */\n      dup5\n        /* \"DoneeFactory.sol\":525:535  msg.sender */\n      caller\n        /* \"DoneeFactory.sol\":470:536  new Donee(name, description, image, withdrawalAddress, msg.sender) */\n      mload(0x40)\n      tag_22\n      swap1\n      tag_23\n      jump\t// in\n    tag_22:\n      tag_24\n      swap6\n      swap5\n      swap4\n      swap3\n      swap2\n      swap1\n      tag_25\n      jump\t// in\n    tag_24:\n      mload(0x40)\n      dup1\n      swap2\n      sub\n      swap1\n      0x00\n      create\n      dup1\n      iszero\n      dup1\n      iszero\n      tag_26\n      jumpi\n      returndatasize\n      0x00\n      dup1\n      returndatacopy\n      revert(0x00, returndatasize)\n    tag_26:\n      pop\n        /* \"DoneeFactory.sol\":456:536  Donee donee = new Donee(name, description, image, withdrawalAddress, msg.sender) */\n      swap1\n      pop\n        /* \"DoneeFactory.sol\":547:554  _donees */\n      0x00\n        /* \"DoneeFactory.sol\":560:565  donee */\n      dup2\n        /* \"DoneeFactory.sol\":547:566  _donees.push(donee) */\n      swap1\n      dup1\n      0x01\n      dup2\n      sload\n      add\n      dup1\n      dup3\n      sstore\n      dup1\n      swap2\n      pop\n      pop\n      0x01\n      swap1\n      sub\n      swap1\n      0x00\n      mstore\n      keccak256(0x00, 0x20)\n      add\n      0x00\n      swap1\n      swap2\n      swap1\n      swap2\n      swap1\n      swap2\n      0x0100\n      exp\n      dup2\n      sload\n      dup2\n      0xffffffffffffffffffffffffffffffffffffffff\n      mul\n      not\n      and\n      swap1\n      dup4\n      0xffffffffffffffffffffffffffffffffffffffff\n      and\n      mul\n      or\n      swap1\n      sstore\n      pop\n        /* \"DoneeFactory.sol\":602:612  msg.sender */\n      caller\n        /* \"DoneeFactory.sol\":582:613  DoneeCreated(donee, msg.sender) */\n      0xffffffffffffffffffffffffffffffffffffffff\n      and\n        /* \"DoneeFactory.sol\":595:600  donee */\n      dup2\n        /* \"DoneeFactory.sol\":582:613  DoneeCreated(donee, msg.sender) */\n      0xffffffffffffffffffffffffffffffffffffffff\n      and\n      0xe15ed272952a6308ccb5a8a9e5bfc3fe502859d9be5492b99a413e6d0fab3a7d\n      mload(0x40)\n      mload(0x40)\n      dup1\n      swap2\n      sub\n      swap1\n      log3\n        /* \"DoneeFactory.sol\":445:621  {... */\n      pop\n        /* \"DoneeFactory.sol\":314:621  function createDonee(string memory name, string memory description, string memory image, address payable withdrawalAddress) public {... */\n      pop\n      pop\n      pop\n      pop\n      jump\t// out\n        /* \"DoneeFactory.sol\":216:306  function doneesCnt() public view returns(uint256) {... */\n    tag_15:\n        /* \"DoneeFactory.sol\":257:264  uint256 */\n      0x00\n        /* \"DoneeFactory.sol\":284:291  _donees */\n      dup1\n        /* \"DoneeFactory.sol\":284:298  _donees.length */\n      dup1\n      sload\n      swap1\n      pop\n        /* \"DoneeFactory.sol\":277:298  return _donees.length */\n      swap1\n      pop\n        /* \"DoneeFactory.sol\":216:306  function doneesCnt() public view returns(uint256) {... */\n      swap1\n      jump\t// out\n    tag_23:\n      dataSize(sub_0)\n      dup1\n      dataOffset(sub_0)\n      dup4\n      codecopy\n      add\n      swap1\n      jump\t// out\n        /* \"#utility.yul\":7:134   */\n    tag_29:\n        /* \"#utility.yul\":87:93   */\n      0x00\n        /* \"#utility.yul\":121:126   */\n      dup2\n        /* \"#utility.yul\":115:127   */\n      mload\n        /* \"#utility.yul\":105:127   */\n      swap1\n      pop\n        /* \"#utility.yul\":7:134   */\n      swap2\n      swap1\n      pop\n      jump\t// out\n        /* \"#utility.yul\":140:324   */\n    tag_30:\n        /* \"#utility.yul\":239:250   */\n      0x00\n        /* \"#utility.yul\":273:279   */\n      dup3\n        /* \"#utility.yul\":268:271   */\n      dup3\n        /* \"#utility.yul\":261:280   */\n      mstore\n        /* \"#utility.yul\":313:317   */\n      0x20\n        /* \"#utility.yul\":308:311   */\n      dup3\n        /* \"#utility.yul\":304:318   */\n      add\n        /* \"#utility.yul\":289:318   */\n      swap1\n      pop\n        /* \"#utility.yul\":140:324   */\n      swap3\n      swap2\n      pop\n      pop\n      jump\t// out\n        /* \"#utility.yul\":330:475   */\n    tag_31:\n        /* \"#utility.yul\":410:414   */\n      0x00\n        /* \"#utility.yul\":433:436   */\n      dup2\n        /* \"#utility.yul\":425:436   */\n      swap1\n      pop\n        /* \"#utility.yul\":463:467   */\n      0x20\n        /* \"#utility.yul\":458:461   */\n      dup3\n        /* \"#utility.yul\":454:468   */\n      add\n        /* \"#utility.yul\":446:468   */\n      swap1\n      pop\n        /* \"#utility.yul\":330:475   */\n      swap2\n      swap1\n      pop\n      jump\t// out\n        /* \"#utility.yul\":481:607   */\n    tag_32:\n        /* \"#utility.yul\":518:525   */\n      0x00\n        /* \"#utility.yul\":558:600   */\n      0xffffffffffffffffffffffffffffffffffffffff\n        /* \"#utility.yul\":551:556   */\n      dup3\n        /* \"#utility.yul\":547:601   */\n      and\n        /* \"#utility.yul\":536:601   */\n      swap1\n      pop\n        /* \"#utility.yul\":481:607   */\n      swap2\n      swap1\n      pop\n      jump\t// out\n        /* \"#utility.yul\":613:673   */\n    tag_33:\n        /* \"#utility.yul\":641:644   */\n      0x00\n        /* \"#utility.yul\":662:667   */\n      dup2\n        /* \"#utility.yul\":655:667   */\n      swap1\n      pop\n        /* \"#utility.yul\":613:673   */\n      swap2\n      swap1\n      pop\n      jump\t// out\n        /* \"#utility.yul\":679:821   */\n    tag_34:\n        /* \"#utility.yul\":729:738   */\n      0x00\n        /* \"#utility.yul\":762:815   */\n      tag_73\n        /* \"#utility.yul\":780:814   */\n      tag_74\n        /* \"#utility.yul\":789:813   */\n      tag_75\n        /* \"#utility.yul\":807:812   */\n      dup5\n        /* \"#utility.yul\":789:813   */\n      tag_32\n      jump\t// in\n    tag_75:\n        /* \"#utility.yul\":780:814   */\n      tag_33\n      jump\t// in\n    tag_74:\n        /* \"#utility.yul\":762:815   */\n      tag_32\n      jump\t// in\n    tag_73:\n        /* \"#utility.yul\":749:815   */\n      swap1\n      pop\n        /* \"#utility.yul\":679:821   */\n      swap2\n      swap1\n      pop\n      jump\t// out\n        /* \"#utility.yul\":827:953   */\n    tag_35:\n        /* \"#utility.yul\":877:886   */\n      0x00\n        /* \"#utility.yul\":910:947   */\n      tag_77\n        /* \"#utility.yul\":941:946   */\n      dup3\n        /* \"#utility.yul\":910:947   */\n      tag_34\n      jump\t// in\n    tag_77:\n        /* \"#utility.yul\":897:947   */\n      swap1\n      pop\n        /* \"#utility.yul\":827:953   */\n      swap2\n      swap1\n      pop\n      jump\t// out\n        /* \"#utility.yul\":959:1098   */\n    tag_36:\n        /* \"#utility.yul\":1022:1031   */\n      0x00\n        /* \"#utility.yul\":1055:1092   */\n      tag_79\n        /* \"#utility.yul\":1086:1091   */\n      dup3\n        /* \"#utility.yul\":1055:1092   */\n      tag_35\n      jump\t// in\n    tag_79:\n        /* \"#utility.yul\":1042:1092   */\n      swap1\n      pop\n        /* \"#utility.yul\":959:1098   */\n      swap2\n      swap1\n      pop\n      jump\t// out\n        /* \"#utility.yul\":1104:1251   */\n    tag_37:\n        /* \"#utility.yul\":1194:1244   */\n      tag_81\n        /* \"#utility.yul\":1238:1243   */\n      dup2\n        /* \"#utility.yul\":1194:1244   */\n      tag_36\n      jump\t// in\n    tag_81:\n        /* \"#utility.yul\":1189:1192   */\n      dup3\n        /* \"#utility.yul\":1182:1245   */\n      mstore\n        /* \"#utility.yul\":1104:1251   */\n      pop\n      pop\n      jump\t// out\n        /* \"#utility.yul\":1257:1462   */\n    tag_38:\n        /* \"#utility.yul\":1339:1349   */\n      0x00\n        /* \"#utility.yul\":1360:1419   */\n      tag_83\n        /* \"#utility.yul\":1415:1418   */\n      dup4\n        /* \"#utility.yul\":1407:1413   */\n      dup4\n        /* \"#utility.yul\":1360:1419   */\n      tag_37\n      jump\t// in\n    tag_83:\n        /* \"#utility.yul\":1451:1455   */\n      0x20\n        /* \"#utility.yul\":1446:1449   */\n      dup4\n        /* \"#utility.yul\":1442:1456   */\n      add\n        /* \"#utility.yul\":1428:1456   */\n      swap1\n      pop\n        /* \"#utility.yul\":1257:1462   */\n      swap3\n      swap2\n      pop\n      pop\n      jump\t// out\n        /* \"#utility.yul\":1468:1594   */\n    tag_39:\n        /* \"#utility.yul\":1551:1555   */\n      0x00\n        /* \"#utility.yul\":1583:1587   */\n      0x20\n        /* \"#utility.yul\":1578:1581   */\n      dup3\n        /* \"#utility.yul\":1574:1588   */\n      add\n        /* \"#utility.yul\":1566:1588   */\n      swap1\n      pop\n        /* \"#utility.yul\":1468:1594   */\n      swap2\n      swap1\n      pop\n      jump\t// out\n        /* \"#utility.yul\":1637:2434   */\n    tag_40:\n        /* \"#utility.yul\":1769:1772   */\n      0x00\n        /* \"#utility.yul\":1798:1865   */\n      tag_86\n        /* \"#utility.yul\":1859:1864   */\n      dup3\n        /* \"#utility.yul\":1798:1865   */\n      tag_29\n      jump\t// in\n    tag_86:\n        /* \"#utility.yul\":1881:1967   */\n      tag_87\n        /* \"#utility.yul\":1960:1966   */\n      dup2\n        /* \"#utility.yul\":1955:1958   */\n      dup6\n        /* \"#utility.yul\":1881:1967   */\n      tag_30\n      jump\t// in\n    tag_87:\n        /* \"#utility.yul\":1874:1967   */\n      swap4\n      pop\n        /* \"#utility.yul\":1991:2060   */\n      tag_88\n        /* \"#utility.yul\":2054:2059   */\n      dup4\n        /* \"#utility.yul\":1991:2060   */\n      tag_31\n      jump\t// in\n    tag_88:\n        /* \"#utility.yul\":2083:2090   */\n      dup1\n        /* \"#utility.yul\":2114:2115   */\n      0x00\n        /* \"#utility.yul\":2099:2409   */\n    tag_89:\n        /* \"#utility.yul\":2124:2130   */\n      dup4\n        /* \"#utility.yul\":2121:2122   */\n      dup2\n        /* \"#utility.yul\":2118:2131   */\n      lt\n        /* \"#utility.yul\":2099:2409   */\n      iszero\n      tag_91\n      jumpi\n        /* \"#utility.yul\":2200:2206   */\n      dup2\n        /* \"#utility.yul\":2194:2207   */\n      mload\n        /* \"#utility.yul\":2227:2303   */\n      tag_92\n        /* \"#utility.yul\":2299:2302   */\n      dup9\n        /* \"#utility.yul\":2284:2297   */\n      dup3\n        /* \"#utility.yul\":2227:2303   */\n      tag_38\n      jump\t// in\n    tag_92:\n        /* \"#utility.yul\":2220:2303   */\n      swap8\n      pop\n        /* \"#utility.yul\":2326:2399   */\n      tag_93\n        /* \"#utility.yul\":2392:2398   */\n      dup4\n        /* \"#utility.yul\":2326:2399   */\n      tag_39\n      jump\t// in\n    tag_93:\n        /* \"#utility.yul\":2316:2399   */\n      swap3\n      pop\n        /* \"#utility.yul\":2159:2409   */\n      pop\n        /* \"#utility.yul\":2146:2147   */\n      0x01\n        /* \"#utility.yul\":2143:2144   */\n      dup2\n        /* \"#utility.yul\":2139:2148   */\n      add\n        /* \"#utility.yul\":2134:2148   */\n      swap1\n      pop\n        /* \"#utility.yul\":2099:2409   */\n      jump(tag_89)\n    tag_91:\n        /* \"#utility.yul\":2103:2117   */\n      pop\n        /* \"#utility.yul\":2425:2428   */\n      dup6\n        /* \"#utility.yul\":2418:2428   */\n      swap4\n      pop\n        /* \"#utility.yul\":1774:2434   */\n      pop\n      pop\n      pop\n        /* \"#utility.yul\":1637:2434   */\n      swap3\n      swap2\n      pop\n      pop\n      jump\t// out\n        /* \"#utility.yul\":2440:2839   */\n    tag_9:\n        /* \"#utility.yul\":2596:2600   */\n      0x00\n        /* \"#utility.yul\":2634:2636   */\n      0x20\n        /* \"#utility.yul\":2623:2632   */\n      dup3\n        /* \"#utility.yul\":2619:2637   */\n      add\n        /* \"#utility.yul\":2611:2637   */\n      swap1\n      pop\n        /* \"#utility.yul\":2683:2692   */\n      dup2\n        /* \"#utility.yul\":2677:2681   */\n      dup2\n        /* \"#utility.yul\":2673:2693   */\n      sub\n        /* \"#utility.yul\":2669:2670   */\n      0x00\n        /* \"#utility.yul\":2658:2667   */\n      dup4\n        /* \"#utility.yul\":2654:2671   */\n      add\n        /* \"#utility.yul\":2647:2694   */\n      mstore\n        /* \"#utility.yul\":2711:2832   */\n      tag_95\n        /* \"#utility.yul\":2827:2831   */\n      dup2\n        /* \"#utility.yul\":2818:2824   */\n      dup5\n        /* \"#utility.yul\":2711:2832   */\n      tag_40\n      jump\t// in\n    tag_95:\n        /* \"#utility.yul\":2703:2832   */\n      swap1\n      pop\n        /* \"#utility.yul\":2440:2839   */\n      swap3\n      swap2\n      pop\n      pop\n      jump\t// out\n        /* \"#utility.yul\":2845:2920   */\n    tag_41:\n        /* \"#utility.yul\":2878:2884   */\n      0x00\n        /* \"#utility.yul\":2911:2913   */\n      0x40\n        /* \"#utility.yul\":2905:2914   */\n      mload\n        /* \"#utility.yul\":2895:2914   */\n      swap1\n      pop\n        /* \"#utility.yul\":2845:2920   */\n      swap1\n      jump\t// out\n        /* \"#utility.yul\":2926:3043   */\n    tag_42:\n        /* \"#utility.yul\":3035:3036   */\n      0x00\n        /* \"#utility.yul\":3032:3033   */\n      dup1\n        /* \"#utility.yul\":3025:3037   */\n      revert\n        /* \"#utility.yul\":3049:3166   */\n    tag_43:\n        /* \"#utility.yul\":3158:3159   */\n      0x00\n        /* \"#utility.yul\":3155:3156   */\n      dup1\n        /* \"#utility.yul\":3148:3160   */\n      revert\n        /* \"#utility.yul\":3172:3289   */\n    tag_44:\n        /* \"#utility.yul\":3281:3282   */\n      0x00\n        /* \"#utility.yul\":3278:3279   */\n      dup1\n        /* \"#utility.yul\":3271:3283   */\n      revert\n        /* \"#utility.yul\":3295:3412   */\n    tag_45:\n        /* \"#utility.yul\":3404:3405   */\n      0x00\n        /* \"#utility.yul\":3401:3402   */\n      dup1\n        /* \"#utility.yul\":3394:3406   */\n      revert\n        /* \"#utility.yul\":3418:3520   */\n    tag_46:\n        /* \"#utility.yul\":3459:3465   */\n      0x00\n        /* \"#utility.yul\":3510:3512   */\n      0x1f\n        /* \"#utility.yul\":3506:3513   */\n      not\n        /* \"#utility.yul\":3501:3503   */\n      0x1f\n        /* \"#utility.yul\":3494:3499   */\n      dup4\n        /* \"#utility.yul\":3490:3504   */\n      add\n        /* \"#utility.yul\":3486:3514   */\n      and\n        /* \"#utility.yul\":3476:3514   */\n      swap1\n      pop\n        /* \"#utility.yul\":3418:3520   */\n      swap2\n      swap1\n      pop\n      jump\t// out\n        /* \"#utility.yul\":3526:3706   */\n    tag_47:\n        /* \"#utility.yul\":3574:3651   */\n      0x4e487b7100000000000000000000000000000000000000000000000000000000\n        /* \"#utility.yul\":3571:3572   */\n      0x00\n        /* \"#utility.yul\":3564:3652   */\n      mstore\n        /* \"#utility.yul\":3671:3675   */\n      0x41\n        /* \"#utility.yul\":3668:3669   */\n      0x04\n        /* \"#utility.yul\":3661:3676   */\n      mstore\n        /* \"#utility.yul\":3695:3699   */\n      0x24\n        /* \"#utility.yul\":3692:3693   */\n      0x00\n        /* \"#utility.yul\":3685:3700   */\n      revert\n        /* \"#utility.yul\":3712:3993   */\n    tag_48:\n        /* \"#utility.yul\":3795:3822   */\n      tag_104\n        /* \"#utility.yul\":3817:3821   */\n      dup3\n        /* \"#utility.yul\":3795:3822   */\n      tag_46\n      jump\t// in\n    tag_104:\n        /* \"#utility.yul\":3787:3793   */\n      dup2\n        /* \"#utility.yul\":3783:3823   */\n      add\n        /* \"#utility.yul\":3925:3931   */\n      dup2\n        /* \"#utility.yul\":3913:3923   */\n      dup2\n        /* \"#utility.yul\":3910:3932   */\n      lt\n        /* \"#utility.yul\":3889:3907   */\n      0xffffffffffffffff\n        /* \"#utility.yul\":3877:3887   */\n      dup3\n        /* \"#utility.yul\":3874:3908   */\n      gt\n        /* \"#utility.yul\":3871:3933   */\n      or\n        /* \"#utility.yul\":3868:3956   */\n      iszero\n      tag_105\n      jumpi\n        /* \"#utility.yul\":3936:3954   */\n      tag_106\n      tag_47\n      jump\t// in\n    tag_106:\n        /* \"#utility.yul\":3868:3956   */\n    tag_105:\n        /* \"#utility.yul\":3976:3986   */\n      dup1\n        /* \"#utility.yul\":3972:3974   */\n      0x40\n        /* \"#utility.yul\":3965:3987   */\n      mstore\n        /* \"#utility.yul\":3755:3993   */\n      pop\n        /* \"#utility.yul\":3712:3993   */\n      pop\n      pop\n      jump\t// out\n        /* \"#utility.yul\":3999:4128   */\n    tag_49:\n        /* \"#utility.yul\":4033:4039   */\n      0x00\n        /* \"#utility.yul\":4060:4080   */\n      tag_108\n      tag_41\n      jump\t// in\n    tag_108:\n        /* \"#utility.yul\":4050:4080   */\n      swap1\n      pop\n        /* \"#utility.yul\":4089:4122   */\n      tag_109\n        /* \"#utility.yul\":4117:4121   */\n      dup3\n        /* \"#utility.yul\":4109:4115   */\n      dup3\n        /* \"#utility.yul\":4089:4122   */\n      tag_48\n      jump\t// in\n    tag_109:\n        /* \"#utility.yul\":3999:4128   */\n      swap2\n      swap1\n      pop\n      jump\t// out\n        /* \"#utility.yul\":4134:4442   */\n    tag_50:\n        /* \"#utility.yul\":4196:4200   */\n      0x00\n        /* \"#utility.yul\":4286:4304   */\n      0xffffffffffffffff\n        /* \"#utility.yul\":4278:4284   */\n      dup3\n        /* \"#utility.yul\":4275:4305   */\n      gt\n        /* \"#utility.yul\":4272:4328   */\n      iszero\n      tag_111\n      jumpi\n        /* \"#utility.yul\":4308:4326   */\n      tag_112\n      tag_47\n      jump\t// in\n    tag_112:\n        /* \"#utility.yul\":4272:4328   */\n    tag_111:\n        /* \"#utility.yul\":4346:4375   */\n      tag_113\n        /* \"#utility.yul\":4368:4374   */\n      dup3\n        /* \"#utility.yul\":4346:4375   */\n      tag_46\n      jump\t// in\n    tag_113:\n        /* \"#utility.yul\":4338:4375   */\n      swap1\n      pop\n        /* \"#utility.yul\":4430:4434   */\n      0x20\n        /* \"#utility.yul\":4424:4428   */\n      dup2\n        /* \"#utility.yul\":4420:4435   */\n      add\n        /* \"#utility.yul\":4412:4435   */\n      swap1\n      pop\n        /* \"#utility.yul\":4134:4442   */\n      swap2\n      swap1\n      pop\n      jump\t// out\n        /* \"#utility.yul\":4448:4594   */\n    tag_51:\n        /* \"#utility.yul\":4545:4551   */\n      dup3\n        /* \"#utility.yul\":4540:4543   */\n      dup2\n        /* \"#utility.yul\":4535:4538   */\n      dup4\n        /* \"#utility.yul\":4522:4552   */\n      calldatacopy\n        /* \"#utility.yul\":4586:4587   */\n      0x00\n        /* \"#utility.yul\":4577:4583   */\n      dup4\n        /* \"#utility.yul\":4572:4575   */\n      dup4\n        /* \"#utility.yul\":4568:4584   */\n      add\n        /* \"#utility.yul\":4561:4588   */\n      mstore\n        /* \"#utility.yul\":4448:4594   */\n      pop\n      pop\n      pop\n      jump\t// out\n        /* \"#utility.yul\":4600:5025   */\n    tag_52:\n        /* \"#utility.yul\":4678:4683   */\n      0x00\n        /* \"#utility.yul\":4703:4769   */\n      tag_116\n        /* \"#utility.yul\":4719:4768   */\n      tag_117\n        /* \"#utility.yul\":4761:4767   */\n      dup5\n        /* \"#utility.yul\":4719:4768   */\n      tag_50\n      jump\t// in\n    tag_117:\n        /* \"#utility.yul\":4703:4769   */\n      tag_49\n      jump\t// in\n    tag_116:\n        /* \"#utility.yul\":4694:4769   */\n      swap1\n      pop\n        /* \"#utility.yul\":4792:4798   */\n      dup3\n        /* \"#utility.yul\":4785:4790   */\n      dup2\n        /* \"#utility.yul\":4778:4799   */\n      mstore\n        /* \"#utility.yul\":4830:4834   */\n      0x20\n        /* \"#utility.yul\":4823:4828   */\n      dup2\n        /* \"#utility.yul\":4819:4835   */\n      add\n        /* \"#utility.yul\":4868:4871   */\n      dup5\n        /* \"#utility.yul\":4859:4865   */\n      dup5\n        /* \"#utility.yul\":4854:4857   */\n      dup5\n        /* \"#utility.yul\":4850:4866   */\n      add\n        /* \"#utility.yul\":4847:4872   */\n      gt\n        /* \"#utility.yul\":4844:4956   */\n      iszero\n      tag_118\n      jumpi\n        /* \"#utility.yul\":4875:4954   */\n      tag_119\n      tag_45\n      jump\t// in\n    tag_119:\n        /* \"#utility.yul\":4844:4956   */\n    tag_118:\n        /* \"#utility.yul\":4965:5019   */\n      tag_120\n        /* \"#utility.yul\":5012:5018   */\n      dup5\n        /* \"#utility.yul\":5007:5010   */\n      dup3\n        /* \"#utility.yul\":5002:5005   */\n      dup6\n        /* \"#utility.yul\":4965:5019   */\n      tag_51\n      jump\t// in\n    tag_120:\n        /* \"#utility.yul\":4684:5025   */\n      pop\n        /* \"#utility.yul\":4600:5025   */\n      swap4\n      swap3\n      pop\n      pop\n      pop\n      jump\t// out\n        /* \"#utility.yul\":5045:5385   */\n    tag_53:\n        /* \"#utility.yul\":5101:5106   */\n      0x00\n        /* \"#utility.yul\":5150:5153   */\n      dup3\n        /* \"#utility.yul\":5143:5147   */\n      0x1f\n        /* \"#utility.yul\":5135:5141   */\n      dup4\n        /* \"#utility.yul\":5131:5148   */\n      add\n        /* \"#utility.yul\":5127:5154   */\n      slt\n        /* \"#utility.yul\":5117:5239   */\n      tag_122\n      jumpi\n        /* \"#utility.yul\":5158:5237   */\n      tag_123\n      tag_44\n      jump\t// in\n    tag_123:\n        /* \"#utility.yul\":5117:5239   */\n    tag_122:\n        /* \"#utility.yul\":5275:5281   */\n      dup2\n        /* \"#utility.yul\":5262:5282   */\n      calldataload\n        /* \"#utility.yul\":5300:5379   */\n      tag_124\n        /* \"#utility.yul\":5375:5378   */\n      dup5\n        /* \"#utility.yul\":5367:5373   */\n      dup3\n        /* \"#utility.yul\":5360:5364   */\n      0x20\n        /* \"#utility.yul\":5352:5358   */\n      dup7\n        /* \"#utility.yul\":5348:5365   */\n      add\n        /* \"#utility.yul\":5300:5379   */\n      tag_52\n      jump\t// in\n    tag_124:\n        /* \"#utility.yul\":5291:5379   */\n      swap2\n      pop\n        /* \"#utility.yul\":5107:5385   */\n      pop\n        /* \"#utility.yul\":5045:5385   */\n      swap3\n      swap2\n      pop\n      pop\n      jump\t// out\n        /* \"#utility.yul\":5391:5495   */\n    tag_54:\n        /* \"#utility.yul\":5436:5443   */\n      0x00\n        /* \"#utility.yul\":5465:5489   */\n      tag_126\n        /* \"#utility.yul\":5483:5488   */\n      dup3\n        /* \"#utility.yul\":5465:5489   */\n      tag_32\n      jump\t// in\n    tag_126:\n        /* \"#utility.yul\":5454:5489   */\n      swap1\n      pop\n        /* \"#utility.yul\":5391:5495   */\n      swap2\n      swap1\n      pop\n      jump\t// out\n        /* \"#utility.yul\":5501:5639   */\n    tag_55:\n        /* \"#utility.yul\":5582:5614   */\n      tag_128\n        /* \"#utility.yul\":5608:5613   */\n      dup2\n        /* \"#utility.yul\":5582:5614   */\n      tag_54\n      jump\t// in\n    tag_128:\n        /* \"#utility.yul\":5575:5580   */\n      dup2\n        /* \"#utility.yul\":5572:5615   */\n      eq\n        /* \"#utility.yul\":5562:5633   */\n      tag_129\n      jumpi\n        /* \"#utility.yul\":5629:5630   */\n      0x00\n        /* \"#utility.yul\":5626:5627   */\n      dup1\n        /* \"#utility.yul\":5619:5631   */\n      revert\n        /* \"#utility.yul\":5562:5633   */\n    tag_129:\n        /* \"#utility.yul\":5501:5639   */\n      pop\n      jump\t// out\n        /* \"#utility.yul\":5645:5800   */\n    tag_56:\n        /* \"#utility.yul\":5699:5704   */\n      0x00\n        /* \"#utility.yul\":5737:5743   */\n      dup2\n        /* \"#utility.yul\":5724:5744   */\n      calldataload\n        /* \"#utility.yul\":5715:5744   */\n      swap1\n      pop\n        /* \"#utility.yul\":5753:5794   */\n      tag_131\n        /* \"#utility.yul\":5788:5793   */\n      dup2\n        /* \"#utility.yul\":5753:5794   */\n      tag_55\n      jump\t// in\n    tag_131:\n        /* \"#utility.yul\":5645:5800   */\n      swap3\n      swap2\n      pop\n      pop\n      jump\t// out\n        /* \"#utility.yul\":5806:7127   */\n    tag_12:\n        /* \"#utility.yul\":5930:5936   */\n      0x00\n        /* \"#utility.yul\":5938:5944   */\n      dup1\n        /* \"#utility.yul\":5946:5952   */\n      0x00\n        /* \"#utility.yul\":5954:5960   */\n      dup1\n        /* \"#utility.yul\":6003:6006   */\n      0x80\n        /* \"#utility.yul\":5991:6000   */\n      dup6\n        /* \"#utility.yul\":5982:5989   */\n      dup8\n        /* \"#utility.yul\":5978:6001   */\n      sub\n        /* \"#utility.yul\":5974:6007   */\n      slt\n        /* \"#utility.yul\":5971:6091   */\n      iszero\n      tag_133\n      jumpi\n        /* \"#utility.yul\":6010:6089   */\n      tag_134\n      tag_42\n      jump\t// in\n    tag_134:\n        /* \"#utility.yul\":5971:6091   */\n    tag_133:\n        /* \"#utility.yul\":6158:6159   */\n      0x00\n        /* \"#utility.yul\":6147:6156   */\n      dup6\n        /* \"#utility.yul\":6143:6160   */\n      add\n        /* \"#utility.yul\":6130:6161   */\n      calldataload\n        /* \"#utility.yul\":6188:6206   */\n      0xffffffffffffffff\n        /* \"#utility.yul\":6180:6186   */\n      dup2\n        /* \"#utility.yul\":6177:6207   */\n      gt\n        /* \"#utility.yul\":6174:6291   */\n      iszero\n      tag_135\n      jumpi\n        /* \"#utility.yul\":6210:6289   */\n      tag_136\n      tag_43\n      jump\t// in\n    tag_136:\n        /* \"#utility.yul\":6174:6291   */\n    tag_135:\n        /* \"#utility.yul\":6315:6378   */\n      tag_137\n        /* \"#utility.yul\":6370:6377   */\n      dup8\n        /* \"#utility.yul\":6361:6367   */\n      dup3\n        /* \"#utility.yul\":6350:6359   */\n      dup9\n        /* \"#utility.yul\":6346:6368   */\n      add\n        /* \"#utility.yul\":6315:6378   */\n      tag_53\n      jump\t// in\n    tag_137:\n        /* \"#utility.yul\":6305:6378   */\n      swap5\n      pop\n        /* \"#utility.yul\":6101:6388   */\n      pop\n        /* \"#utility.yul\":6455:6457   */\n      0x20\n        /* \"#utility.yul\":6444:6453   */\n      dup6\n        /* \"#utility.yul\":6440:6458   */\n      add\n        /* \"#utility.yul\":6427:6459   */\n      calldataload\n        /* \"#utility.yul\":6486:6504   */\n      0xffffffffffffffff\n        /* \"#utility.yul\":6478:6484   */\n      dup2\n        /* \"#utility.yul\":6475:6505   */\n      gt\n        /* \"#utility.yul\":6472:6589   */\n      iszero\n      tag_138\n      jumpi\n        /* \"#utility.yul\":6508:6587   */\n      tag_139\n      tag_43\n      jump\t// in\n    tag_139:\n        /* \"#utility.yul\":6472:6589   */\n    tag_138:\n        /* \"#utility.yul\":6613:6676   */\n      tag_140\n        /* \"#utility.yul\":6668:6675   */\n      dup8\n        /* \"#utility.yul\":6659:6665   */\n      dup3\n        /* \"#utility.yul\":6648:6657   */\n      dup9\n        /* \"#utility.yul\":6644:6666   */\n      add\n        /* \"#utility.yul\":6613:6676   */\n      tag_53\n      jump\t// in\n    tag_140:\n        /* \"#utility.yul\":6603:6676   */\n      swap4\n      pop\n        /* \"#utility.yul\":6398:6686   */\n      pop\n        /* \"#utility.yul\":6753:6755   */\n      0x40\n        /* \"#utility.yul\":6742:6751   */\n      dup6\n        /* \"#utility.yul\":6738:6756   */\n      add\n        /* \"#utility.yul\":6725:6757   */\n      calldataload\n        /* \"#utility.yul\":6784:6802   */\n      0xffffffffffffffff\n        /* \"#utility.yul\":6776:6782   */\n      dup2\n        /* \"#utility.yul\":6773:6803   */\n      gt\n        /* \"#utility.yul\":6770:6887   */\n      iszero\n      tag_141\n      jumpi\n        /* \"#utility.yul\":6806:6885   */\n      tag_142\n      tag_43\n      jump\t// in\n    tag_142:\n        /* \"#utility.yul\":6770:6887   */\n    tag_141:\n        /* \"#utility.yul\":6911:6974   */\n      tag_143\n        /* \"#utility.yul\":6966:6973   */\n      dup8\n        /* \"#utility.yul\":6957:6963   */\n      dup3\n        /* \"#utility.yul\":6946:6955   */\n      dup9\n        /* \"#utility.yul\":6942:6964   */\n      add\n        /* \"#utility.yul\":6911:6974   */\n      tag_53\n      jump\t// in\n    tag_143:\n        /* \"#utility.yul\":6901:6974   */\n      swap3\n      pop\n        /* \"#utility.yul\":6696:6984   */\n      pop\n        /* \"#utility.yul\":7023:7025   */\n      0x60\n        /* \"#utility.yul\":7049:7110   */\n      tag_144\n        /* \"#utility.yul\":7102:7109   */\n      dup8\n        /* \"#utility.yul\":7093:7099   */\n      dup3\n        /* \"#utility.yul\":7082:7091   */\n      dup9\n        /* \"#utility.yul\":7078:7100   */\n      add\n        /* \"#utility.yul\":7049:7110   */\n      tag_56\n      jump\t// in\n    tag_144:\n        /* \"#utility.yul\":7039:7110   */\n      swap2\n      pop\n        /* \"#utility.yul\":6994:7120   */\n      pop\n        /* \"#utility.yul\":5806:7127   */\n      swap3\n      swap6\n      swap2\n      swap5\n      pop\n      swap3\n      pop\n      jump\t// out\n        /* \"#utility.yul\":7133:7210   */\n    tag_57:\n        /* \"#utility.yul\":7170:7177   */\n      0x00\n        /* \"#utility.yul\":7199:7204   */\n      dup2\n        /* \"#utility.yul\":7188:7204   */\n      swap1\n      pop\n        /* \"#utility.yul\":7133:7210   */\n      swap2\n      swap1\n      pop\n      jump\t// out\n        /* \"#utility.yul\":7216:7334   */\n    tag_58:\n        /* \"#utility.yul\":7303:7327   */\n      tag_147\n        /* \"#utility.yul\":7321:7326   */\n      dup2\n        /* \"#utility.yul\":7303:7327   */\n      tag_57\n      jump\t// in\n    tag_147:\n        /* \"#utility.yul\":7298:7301   */\n      dup3\n        /* \"#utility.yul\":7291:7328   */\n      mstore\n        /* \"#utility.yul\":7216:7334   */\n      pop\n      pop\n      jump\t// out\n        /* \"#utility.yul\":7340:7562   */\n    tag_17:\n        /* \"#utility.yul\":7433:7437   */\n      0x00\n        /* \"#utility.yul\":7471:7473   */\n      0x20\n        /* \"#utility.yul\":7460:7469   */\n      dup3\n        /* \"#utility.yul\":7456:7474   */\n      add\n        /* \"#utility.yul\":7448:7474   */\n      swap1\n      pop\n        /* \"#utility.yul\":7484:7555   */\n      tag_149\n        /* \"#utility.yul\":7552:7553   */\n      0x00\n        /* \"#utility.yul\":7541:7550   */\n      dup4\n        /* \"#utility.yul\":7537:7554   */\n      add\n        /* \"#utility.yul\":7528:7534   */\n      dup5\n        /* \"#utility.yul\":7484:7555   */\n      tag_58\n      jump\t// in\n    tag_149:\n        /* \"#utility.yul\":7340:7562   */\n      swap3\n      swap2\n      pop\n      pop\n      jump\t// out\n        /* \"#utility.yul\":7568:7667   */\n    tag_59:\n        /* \"#utility.yul\":7620:7626   */\n      0x00\n        /* \"#utility.yul\":7654:7659   */\n      dup2\n        /* \"#utility.yul\":7648:7660   */\n      mload\n        /* \"#utility.yul\":7638:7660   */\n      swap1\n      pop\n        /* \"#utility.yul\":7568:7667   */\n      swap2\n      swap1\n      pop\n      jump\t// out\n        /* \"#utility.yul\":7673:7842   */\n    tag_60:\n        /* \"#utility.yul\":7757:7768   */\n      0x00\n        /* \"#utility.yul\":7791:7797   */\n      dup3\n        /* \"#utility.yul\":7786:7789   */\n      dup3\n        /* \"#utility.yul\":7779:7798   */\n      mstore\n        /* \"#utility.yul\":7831:7835   */\n      0x20\n        /* \"#utility.yul\":7826:7829   */\n      dup3\n        /* \"#utility.yul\":7822:7836   */\n      add\n        /* \"#utility.yul\":7807:7836   */\n      swap1\n      pop\n        /* \"#utility.yul\":7673:7842   */\n      swap3\n      swap2\n      pop\n      pop\n      jump\t// out\n        /* \"#utility.yul\":7848:8094   */\n    tag_61:\n        /* \"#utility.yul\":7929:7930   */\n      0x00\n        /* \"#utility.yul\":7939:8052   */\n    tag_153:\n        /* \"#utility.yul\":7953:7959   */\n      dup4\n        /* \"#utility.yul\":7950:7951   */\n      dup2\n        /* \"#utility.yul\":7947:7960   */\n      lt\n        /* \"#utility.yul\":7939:8052   */\n      iszero\n      tag_155\n      jumpi\n        /* \"#utility.yul\":8038:8039   */\n      dup1\n        /* \"#utility.yul\":8033:8036   */\n      dup3\n        /* \"#utility.yul\":8029:8040   */\n      add\n        /* \"#utility.yul\":8023:8041   */\n      mload\n        /* \"#utility.yul\":8019:8020   */\n      dup2\n        /* \"#utility.yul\":8014:8017   */\n      dup5\n        /* \"#utility.yul\":8010:8021   */\n      add\n        /* \"#utility.yul\":8003:8042   */\n      mstore\n        /* \"#utility.yul\":7975:7977   */\n      0x20\n        /* \"#utility.yul\":7972:7973   */\n      dup2\n        /* \"#utility.yul\":7968:7978   */\n      add\n        /* \"#utility.yul\":7963:7978   */\n      swap1\n      pop\n        /* \"#utility.yul\":7939:8052   */\n      jump(tag_153)\n    tag_155:\n        /* \"#utility.yul\":8086:8087   */\n      0x00\n        /* \"#utility.yul\":8077:8083   */\n      dup5\n        /* \"#utility.yul\":8072:8075   */\n      dup5\n        /* \"#utility.yul\":8068:8084   */\n      add\n        /* \"#utility.yul\":8061:8088   */\n      mstore\n        /* \"#utility.yul\":7910:8094   */\n      pop\n        /* \"#utility.yul\":7848:8094   */\n      pop\n      pop\n      pop\n      jump\t// out\n        /* \"#utility.yul\":8100:8477   */\n    tag_62:\n        /* \"#utility.yul\":8188:8191   */\n      0x00\n        /* \"#utility.yul\":8216:8255   */\n      tag_157\n        /* \"#utility.yul\":8249:8254   */\n      dup3\n        /* \"#utility.yul\":8216:8255   */\n      tag_59\n      jump\t// in\n    tag_157:\n        /* \"#utility.yul\":8271:8342   */\n      tag_158\n        /* \"#utility.yul\":8335:8341   */\n      dup2\n        /* \"#utility.yul\":8330:8333   */\n      dup6\n        /* \"#utility.yul\":8271:8342   */\n      tag_60\n      jump\t// in\n    tag_158:\n        /* \"#utility.yul\":8264:8342   */\n      swap4\n      pop\n        /* \"#utility.yul\":8351:8416   */\n      tag_159\n        /* \"#utility.yul\":8409:8415   */\n      dup2\n        /* \"#utility.yul\":8404:8407   */\n      dup6\n        /* \"#utility.yul\":8397:8401   */\n      0x20\n        /* \"#utility.yul\":8390:8395   */\n      dup7\n        /* \"#utility.yul\":8386:8402   */\n      add\n        /* \"#utility.yul\":8351:8416   */\n      tag_61\n      jump\t// in\n    tag_159:\n        /* \"#utility.yul\":8441:8470   */\n      tag_160\n        /* \"#utility.yul\":8463:8469   */\n      dup2\n        /* \"#utility.yul\":8441:8470   */\n      tag_46\n      jump\t// in\n    tag_160:\n        /* \"#utility.yul\":8436:8439   */\n      dup5\n        /* \"#utility.yul\":8432:8471   */\n      add\n        /* \"#utility.yul\":8425:8471   */\n      swap2\n      pop\n        /* \"#utility.yul\":8192:8477   */\n      pop\n        /* \"#utility.yul\":8100:8477   */\n      swap3\n      swap2\n      pop\n      pop\n      jump\t// out\n        /* \"#utility.yul\":8483:8625   */\n    tag_63:\n        /* \"#utility.yul\":8586:8618   */\n      tag_162\n        /* \"#utility.yul\":8612:8617   */\n      dup2\n        /* \"#utility.yul\":8586:8618   */\n      tag_54\n      jump\t// in\n    tag_162:\n        /* \"#utility.yul\":8581:8584   */\n      dup3\n        /* \"#utility.yul\":8574:8619   */\n      mstore\n        /* \"#utility.yul\":8483:8625   */\n      pop\n      pop\n      jump\t// out\n        /* \"#utility.yul\":8631:8727   */\n    tag_64:\n        /* \"#utility.yul\":8668:8675   */\n      0x00\n        /* \"#utility.yul\":8697:8721   */\n      tag_164\n        /* \"#utility.yul\":8715:8720   */\n      dup3\n        /* \"#utility.yul\":8697:8721   */\n      tag_32\n      jump\t// in\n    tag_164:\n        /* \"#utility.yul\":8686:8721   */\n      swap1\n      pop\n        /* \"#utility.yul\":8631:8727   */\n      swap2\n      swap1\n      pop\n      jump\t// out\n        /* \"#utility.yul\":8733:8851   */\n    tag_65:\n        /* \"#utility.yul\":8820:8844   */\n      tag_166\n        /* \"#utility.yul\":8838:8843   */\n      dup2\n        /* \"#utility.yul\":8820:8844   */\n      tag_64\n      jump\t// in\n    tag_166:\n        /* \"#utility.yul\":8815:8818   */\n      dup3\n        /* \"#utility.yul\":8808:8845   */\n      mstore\n        /* \"#utility.yul\":8733:8851   */\n      pop\n      pop\n      jump\t// out\n        /* \"#utility.yul\":8857:9826   */\n    tag_25:\n        /* \"#utility.yul\":9138:9142   */\n      0x00\n        /* \"#utility.yul\":9176:9179   */\n      0xa0\n        /* \"#utility.yul\":9165:9174   */\n      dup3\n        /* \"#utility.yul\":9161:9180   */\n      add\n        /* \"#utility.yul\":9153:9180   */\n      swap1\n      pop\n        /* \"#utility.yul\":9226:9235   */\n      dup2\n        /* \"#utility.yul\":9220:9224   */\n      dup2\n        /* \"#utility.yul\":9216:9236   */\n      sub\n        /* \"#utility.yul\":9212:9213   */\n      0x00\n        /* \"#utility.yul\":9201:9210   */\n      dup4\n        /* \"#utility.yul\":9197:9214   */\n      add\n        /* \"#utility.yul\":9190:9237   */\n      mstore\n        /* \"#utility.yul\":9254:9332   */\n      tag_168\n        /* \"#utility.yul\":9327:9331   */\n      dup2\n        /* \"#utility.yul\":9318:9324   */\n      dup9\n        /* \"#utility.yul\":9254:9332   */\n      tag_62\n      jump\t// in\n    tag_168:\n        /* \"#utility.yul\":9246:9332   */\n      swap1\n      pop\n        /* \"#utility.yul\":9379:9388   */\n      dup2\n        /* \"#utility.yul\":9373:9377   */\n      dup2\n        /* \"#utility.yul\":9369:9389   */\n      sub\n        /* \"#utility.yul\":9364:9366   */\n      0x20\n        /* \"#utility.yul\":9353:9362   */\n      dup4\n        /* \"#utility.yul\":9349:9367   */\n      add\n        /* \"#utility.yul\":9342:9390   */\n      mstore\n        /* \"#utility.yul\":9407:9485   */\n      tag_169\n        /* \"#utility.yul\":9480:9484   */\n      dup2\n        /* \"#utility.yul\":9471:9477   */\n      dup8\n        /* \"#utility.yul\":9407:9485   */\n      tag_62\n      jump\t// in\n    tag_169:\n        /* \"#utility.yul\":9399:9485   */\n      swap1\n      pop\n        /* \"#utility.yul\":9532:9541   */\n      dup2\n        /* \"#utility.yul\":9526:9530   */\n      dup2\n        /* \"#utility.yul\":9522:9542   */\n      sub\n        /* \"#utility.yul\":9517:9519   */\n      0x40\n        /* \"#utility.yul\":9506:9515   */\n      dup4\n        /* \"#utility.yul\":9502:9520   */\n      add\n        /* \"#utility.yul\":9495:9543   */\n      mstore\n        /* \"#utility.yul\":9560:9638   */\n      tag_170\n        /* \"#utility.yul\":9633:9637   */\n      dup2\n        /* \"#utility.yul\":9624:9630   */\n      dup7\n        /* \"#utility.yul\":9560:9638   */\n      tag_62\n      jump\t// in\n    tag_170:\n        /* \"#utility.yul\":9552:9638   */\n      swap1\n      pop\n        /* \"#utility.yul\":9648:9736   */\n      tag_171\n        /* \"#utility.yul\":9732:9734   */\n      0x60\n        /* \"#utility.yul\":9721:9730   */\n      dup4\n        /* \"#utility.yul\":9717:9735   */\n      add\n        /* \"#utility.yul\":9708:9714   */\n      dup6\n        /* \"#utility.yul\":9648:9736   */\n      tag_63\n      jump\t// in\n    tag_171:\n        /* \"#utility.yul\":9746:9819   */\n      tag_172\n        /* \"#utility.yul\":9814:9817   */\n      0x80\n        /* \"#utility.yul\":9803:9812   */\n      dup4\n        /* \"#utility.yul\":9799:9818   */\n      add\n        /* \"#utility.yul\":9790:9796   */\n      dup5\n        /* \"#utility.yul\":9746:9819   */\n      tag_65\n      jump\t// in\n    tag_172:\n        /* \"#utility.yul\":8857:9826   */\n      swap7\n      swap6\n      pop\n      pop\n      pop\n      pop\n      pop\n      pop\n      jump\t// out\n    stop\n\n    sub_0: assembly {\n            /* \"Donee.sol\":115:2111  contract Donee is Ownable{... */\n          mstore(0x40, 0x80)\n            /* \"Donee.sol\":585:909  constructor(string memory _name, string memory _description, string memory _image, address payable _donee_address, address creator) Ownable(msg.sender) {... */\n          callvalue\n          dup1\n          iszero\n          tag_1\n          jumpi\n          0x00\n          dup1\n          revert\n        tag_1:\n          pop\n          mload(0x40)\n          sub(codesize, bytecodeSize)\n          dup1\n          bytecodeSize\n          dup4\n          codecopy\n          dup2\n          dup2\n          add\n          0x40\n          mstore\n          dup2\n          add\n          swap1\n          tag_2\n          swap2\n          swap1\n          tag_3\n          jump\t// in\n        tag_2:\n            /* \"Donee.sol\":725:735  msg.sender */\n          caller\n            /* \"@openzeppelin/contracts/access/Ownable.sol\":1297:1298  0 */\n          0x00\n            /* \"@openzeppelin/contracts/access/Ownable.sol\":1273:1299  initialOwner == address(0) */\n          0xffffffffffffffffffffffffffffffffffffffff\n          and\n            /* \"@openzeppelin/contracts/access/Ownable.sol\":1273:1285  initialOwner */\n          dup2\n            /* \"@openzeppelin/contracts/access/Ownable.sol\":1273:1299  initialOwner == address(0) */\n          0xffffffffffffffffffffffffffffffffffffffff\n          and\n          sub\n            /* \"@openzeppelin/contracts/access/Ownable.sol\":1269:1364  if (initialOwner == address(0)) {... */\n          tag_7\n          jumpi\n            /* \"@openzeppelin/contracts/access/Ownable.sol\":1350:1351  0 */\n          0x00\n            /* \"@openzeppelin/contracts/access/Ownable.sol\":1322:1353  OwnableInvalidOwner(address(0)) */\n          mload(0x40)\n          0x1e4fbdf700000000000000000000000000000000000000000000000000000000\n          dup2\n          mstore\n          0x04\n          add\n          tag_8\n          swap2\n          swap1\n          tag_9\n          jump\t// in\n        tag_8:\n          mload(0x40)\n          dup1\n          swap2\n          sub\n          swap1\n          revert\n            /* \"@openzeppelin/contracts/access/Ownable.sol\":1269:1364  if (initialOwner == address(0)) {... */\n        tag_7:\n            /* \"@openzeppelin/contracts/access/Ownable.sol\":1373:1405  _transferOwnership(initialOwner) */\n          tag_10\n            /* \"@openzeppelin/contracts/access/Ownable.sol\":1392:1404  initialOwner */\n          dup2\n            /* \"@openzeppelin/contracts/access/Ownable.sol\":1373:1391  _transferOwnership */\n          shl(0x20, tag_11)\n            /* \"@openzeppelin/contracts/access/Ownable.sol\":1373:1405  _transferOwnership(initialOwner) */\n          0x20\n          shr\n          jump\t// in\n        tag_10:\n            /* \"@openzeppelin/contracts/access/Ownable.sol\":1225:1412  constructor(address initialOwner) {... */\n          pop\n            /* \"Donee.sol\":755:760  _name */\n          dup5\n            /* \"Donee.sol\":748:752  name */\n          0x04\n            /* \"Donee.sol\":748:760  name = _name */\n          swap1\n          dup2\n          tag_13\n          swap2\n          swap1\n          tag_14\n          jump\t// in\n        tag_13:\n          pop\n            /* \"Donee.sol\":785:797  _description */\n          dup4\n            /* \"Donee.sol\":771:782  description */\n          0x05\n            /* \"Donee.sol\":771:797  description = _description */\n          swap1\n          dup2\n          tag_15\n          swap2\n          swap1\n          tag_14\n          jump\t// in\n        tag_15:\n          pop\n            /* \"Donee.sol\":816:822  _image */\n          dup3\n            /* \"Donee.sol\":808:813  image */\n          0x06\n            /* \"Donee.sol\":808:822  image = _image */\n          swap1\n          dup2\n          tag_16\n          swap2\n          swap1\n          tag_14\n          jump\t// in\n        tag_16:\n          pop\n            /* \"Donee.sol\":849:863  _donee_address */\n          dup2\n            /* \"Donee.sol\":833:846  donee_address */\n          0x07\n          0x00\n            /* \"Donee.sol\":833:863  donee_address = _donee_address */\n          0x0100\n          exp\n          dup2\n          sload\n          dup2\n          0xffffffffffffffffffffffffffffffffffffffff\n          mul\n          not\n          and\n          swap1\n          dup4\n          0xffffffffffffffffffffffffffffffffffffffff\n          and\n          mul\n          or\n          swap1\n          sstore\n          pop\n            /* \"Donee.sol\":874:901  _transferOwnership(creator) */\n          tag_17\n            /* \"Donee.sol\":893:900  creator */\n          dup2\n            /* \"Donee.sol\":874:892  _transferOwnership */\n          shl(0x20, tag_11)\n            /* \"Donee.sol\":874:901  _transferOwnership(creator) */\n          0x20\n          shr\n          jump\t// in\n        tag_17:\n            /* \"Donee.sol\":585:909  constructor(string memory _name, string memory _description, string memory _image, address payable _donee_address, address creator) Ownable(msg.sender) {... */\n          pop\n          pop\n          pop\n          pop\n          pop\n            /* \"Donee.sol\":115:2111  contract Donee is Ownable{... */\n          jump(tag_18)\n            /* \"@openzeppelin/contracts/access/Ownable.sol\":2912:3099  function _transferOwnership(address newOwner) internal virtual {... */\n        tag_11:\n            /* \"@openzeppelin/contracts/access/Ownable.sol\":2985:3001  address oldOwner */\n          0x00\n            /* \"@openzeppelin/contracts/access/Ownable.sol\":3004:3010  _owner */\n          dup1\n          0x00\n          swap1\n          sload\n          swap1\n          0x0100\n          exp\n          swap1\n          div\n          0xffffffffffffffffffffffffffffffffffffffff\n          and\n            /* \"@openzeppelin/contracts/access/Ownable.sol\":2985:3010  address oldOwner = _owner */\n          swap1\n          pop\n            /* \"@openzeppelin/contracts/access/Ownable.sol\":3029:3037  newOwner */\n          dup2\n            /* \"@openzeppelin/contracts/access/Ownable.sol\":3020:3026  _owner */\n          0x00\n          dup1\n            /* \"@openzeppelin/contracts/access/Ownable.sol\":3020:3037  _owner = newOwner */\n          0x0100\n          exp\n          dup2\n          sload\n          dup2\n          0xffffffffffffffffffffffffffffffffffffffff\n          mul\n          not\n          and\n          swap1\n          dup4\n          0xffffffffffffffffffffffffffffffffffffffff\n          and\n          mul\n          or\n          swap1\n          sstore\n          pop\n            /* \"@openzeppelin/contracts/access/Ownable.sol\":3083:3091  newOwner */\n          dup2\n            /* \"@openzeppelin/contracts/access/Ownable.sol\":3052:3092  OwnershipTransferred(oldOwner, newOwner) */\n          0xffffffffffffffffffffffffffffffffffffffff\n          and\n            /* \"@openzeppelin/contracts/access/Ownable.sol\":3073:3081  oldOwner */\n          dup2\n            /* \"@openzeppelin/contracts/access/Ownable.sol\":3052:3092  OwnershipTransferred(oldOwner, newOwner) */\n          0xffffffffffffffffffffffffffffffffffffffff\n          and\n          0x8be0079c531659141344cd1fd0a4f28419497f9722a3daafe3b4186f6b6457e0\n          mload(0x40)\n          mload(0x40)\n          dup1\n          swap2\n          sub\n          swap1\n          log3\n            /* \"@openzeppelin/contracts/access/Ownable.sol\":2975:3099  {... */\n          pop\n            /* \"@openzeppelin/contracts/access/Ownable.sol\":2912:3099  function _transferOwnership(address newOwner) internal virtual {... */\n          pop\n          jump\t// out\n            /* \"#utility.yul\":7:82   */\n        tag_20:\n            /* \"#utility.yul\":40:46   */\n          0x00\n            /* \"#utility.yul\":73:75   */\n          0x40\n            /* \"#utility.yul\":67:76   */\n          mload\n            /* \"#utility.yul\":57:76   */\n          swap1\n          pop\n            /* \"#utility.yul\":7:82   */\n          swap1\n          jump\t// out\n            /* \"#utility.yul\":88:205   */\n        tag_21:\n            /* \"#utility.yul\":197:198   */\n          0x00\n            /* \"#utility.yul\":194:195   */\n          dup1\n            /* \"#utility.yul\":187:199   */\n          revert\n            /* \"#utility.yul\":211:328   */\n        tag_22:\n            /* \"#utility.yul\":320:321   */\n          0x00\n            /* \"#utility.yul\":317:318   */\n          dup1\n            /* \"#utility.yul\":310:322   */\n          revert\n            /* \"#utility.yul\":334:451   */\n        tag_23:\n            /* \"#utility.yul\":443:444   */\n          0x00\n            /* \"#utility.yul\":440:441   */\n          dup1\n            /* \"#utility.yul\":433:445   */\n          revert\n            /* \"#utility.yul\":457:574   */\n        tag_24:\n            /* \"#utility.yul\":566:567   */\n          0x00\n            /* \"#utility.yul\":563:564   */\n          dup1\n            /* \"#utility.yul\":556:568   */\n          revert\n            /* \"#utility.yul\":580:682   */\n        tag_25:\n            /* \"#utility.yul\":621:627   */\n          0x00\n            /* \"#utility.yul\":672:674   */\n          0x1f\n            /* \"#utility.yul\":668:675   */\n          not\n            /* \"#utility.yul\":663:665   */\n          0x1f\n            /* \"#utility.yul\":656:661   */\n          dup4\n            /* \"#utility.yul\":652:666   */\n          add\n            /* \"#utility.yul\":648:676   */\n          and\n            /* \"#utility.yul\":638:676   */\n          swap1\n          pop\n            /* \"#utility.yul\":580:682   */\n          swap2\n          swap1\n          pop\n          jump\t// out\n            /* \"#utility.yul\":688:868   */\n        tag_26:\n            /* \"#utility.yul\":736:813   */\n          0x4e487b7100000000000000000000000000000000000000000000000000000000\n            /* \"#utility.yul\":733:734   */\n          0x00\n            /* \"#utility.yul\":726:814   */\n          mstore\n            /* \"#utility.yul\":833:837   */\n          0x41\n            /* \"#utility.yul\":830:831   */\n          0x04\n            /* \"#utility.yul\":823:838   */\n          mstore\n            /* \"#utility.yul\":857:861   */\n          0x24\n            /* \"#utility.yul\":854:855   */\n          0x00\n            /* \"#utility.yul\":847:862   */\n          revert\n            /* \"#utility.yul\":874:1155   */\n        tag_27:\n            /* \"#utility.yul\":957:984   */\n          tag_69\n            /* \"#utility.yul\":979:983   */\n          dup3\n            /* \"#utility.yul\":957:984   */\n          tag_25\n          jump\t// in\n        tag_69:\n            /* \"#utility.yul\":949:955   */\n          dup2\n            /* \"#utility.yul\":945:985   */\n          add\n            /* \"#utility.yul\":1087:1093   */\n          dup2\n            /* \"#utility.yul\":1075:1085   */\n          dup2\n            /* \"#utility.yul\":1072:1094   */\n          lt\n            /* \"#utility.yul\":1051:1069   */\n          0xffffffffffffffff\n            /* \"#utility.yul\":1039:1049   */\n          dup3\n            /* \"#utility.yul\":1036:1070   */\n          gt\n            /* \"#utility.yul\":1033:1095   */\n          or\n            /* \"#utility.yul\":1030:1118   */\n          iszero\n          tag_70\n          jumpi\n            /* \"#utility.yul\":1098:1116   */\n          tag_71\n          tag_26\n          jump\t// in\n        tag_71:\n            /* \"#utility.yul\":1030:1118   */\n        tag_70:\n            /* \"#utility.yul\":1138:1148   */\n          dup1\n            /* \"#utility.yul\":1134:1136   */\n          0x40\n            /* \"#utility.yul\":1127:1149   */\n          mstore\n            /* \"#utility.yul\":917:1155   */\n          pop\n            /* \"#utility.yul\":874:1155   */\n          pop\n          pop\n          jump\t// out\n            /* \"#utility.yul\":1161:1290   */\n        tag_28:\n            /* \"#utility.yul\":1195:1201   */\n          0x00\n            /* \"#utility.yul\":1222:1242   */\n          tag_73\n          tag_20\n          jump\t// in\n        tag_73:\n            /* \"#utility.yul\":1212:1242   */\n          swap1\n          pop\n            /* \"#utility.yul\":1251:1284   */\n          tag_74\n            /* \"#utility.yul\":1279:1283   */\n          dup3\n            /* \"#utility.yul\":1271:1277   */\n          dup3\n            /* \"#utility.yul\":1251:1284   */\n          tag_27\n          jump\t// in\n        tag_74:\n            /* \"#utility.yul\":1161:1290   */\n          swap2\n          swap1\n          pop\n          jump\t// out\n            /* \"#utility.yul\":1296:1604   */\n        tag_29:\n            /* \"#utility.yul\":1358:1362   */\n          0x00\n            /* \"#utility.yul\":1448:1466   */\n          0xffffffffffffffff\n            /* \"#utility.yul\":1440:1446   */\n          dup3\n            /* \"#utility.yul\":1437:1467   */\n          gt\n            /* \"#utility.yul\":1434:1490   */\n          iszero\n          tag_76\n          jumpi\n            /* \"#utility.yul\":1470:1488   */\n          tag_77\n          tag_26\n          jump\t// in\n        tag_77:\n            /* \"#utility.yul\":1434:1490   */\n        tag_76:\n            /* \"#utility.yul\":1508:1537   */\n          tag_78\n            /* \"#utility.yul\":1530:1536   */\n          dup3\n            /* \"#utility.yul\":1508:1537   */\n          tag_25\n          jump\t// in\n        tag_78:\n            /* \"#utility.yul\":1500:1537   */\n          swap1\n          pop\n            /* \"#utility.yul\":1592:1596   */\n          0x20\n            /* \"#utility.yul\":1586:1590   */\n          dup2\n            /* \"#utility.yul\":1582:1597   */\n          add\n            /* \"#utility.yul\":1574:1597   */\n          swap1\n          pop\n            /* \"#utility.yul\":1296:1604   */\n          swap2\n          swap1\n          pop\n          jump\t// out\n            /* \"#utility.yul\":1610:1856   */\n        tag_30:\n            /* \"#utility.yul\":1691:1692   */\n          0x00\n            /* \"#utility.yul\":1701:1814   */\n        tag_80:\n            /* \"#utility.yul\":1715:1721   */\n          dup4\n            /* \"#utility.yul\":1712:1713   */\n          dup2\n            /* \"#utility.yul\":1709:1722   */\n          lt\n            /* \"#utility.yul\":1701:1814   */\n          iszero\n          tag_82\n          jumpi\n            /* \"#utility.yul\":1800:1801   */\n          dup1\n            /* \"#utility.yul\":1795:1798   */\n          dup3\n            /* \"#utility.yul\":1791:1802   */\n          add\n            /* \"#utility.yul\":1785:1803   */\n          mload\n            /* \"#utility.yul\":1781:1782   */\n          dup2\n            /* \"#utility.yul\":1776:1779   */\n          dup5\n            /* \"#utility.yul\":1772:1783   */\n          add\n            /* \"#utility.yul\":1765:1804   */\n          mstore\n            /* \"#utility.yul\":1737:1739   */\n          0x20\n            /* \"#utility.yul\":1734:1735   */\n          dup2\n            /* \"#utility.yul\":1730:1740   */\n          add\n            /* \"#utility.yul\":1725:1740   */\n          swap1\n          pop\n            /* \"#utility.yul\":1701:1814   */\n          jump(tag_80)\n        tag_82:\n            /* \"#utility.yul\":1848:1849   */\n          0x00\n            /* \"#utility.yul\":1839:1845   */\n          dup5\n            /* \"#utility.yul\":1834:1837   */\n          dup5\n            /* \"#utility.yul\":1830:1846   */\n          add\n            /* \"#utility.yul\":1823:1850   */\n          mstore\n            /* \"#utility.yul\":1672:1856   */\n          pop\n            /* \"#utility.yul\":1610:1856   */\n          pop\n          pop\n          pop\n          jump\t// out\n            /* \"#utility.yul\":1862:2296   */\n        tag_31:\n            /* \"#utility.yul\":1951:1956   */\n          0x00\n            /* \"#utility.yul\":1976:2042   */\n          tag_84\n            /* \"#utility.yul\":1992:2041   */\n          tag_85\n            /* \"#utility.yul\":2034:2040   */\n          dup5\n            /* \"#utility.yul\":1992:2041   */\n          tag_29\n          jump\t// in\n        tag_85:\n            /* \"#utility.yul\":1976:2042   */\n          tag_28\n          jump\t// in\n        tag_84:\n            /* \"#utility.yul\":1967:2042   */\n          swap1\n          pop\n            /* \"#utility.yul\":2065:2071   */\n          dup3\n            /* \"#utility.yul\":2058:2063   */\n          dup2\n            /* \"#utility.yul\":2051:2072   */\n          mstore\n            /* \"#utility.yul\":2103:2107   */\n          0x20\n            /* \"#utility.yul\":2096:2101   */\n          dup2\n            /* \"#utility.yul\":2092:2108   */\n          add\n            /* \"#utility.yul\":2141:2144   */\n          dup5\n            /* \"#utility.yul\":2132:2138   */\n          dup5\n            /* \"#utility.yul\":2127:2130   */\n          dup5\n            /* \"#utility.yul\":2123:2139   */\n          add\n            /* \"#utility.yul\":2120:2145   */\n          gt\n            /* \"#utility.yul\":2117:2229   */\n          iszero\n          tag_86\n          jumpi\n            /* \"#utility.yul\":2148:2227   */\n          tag_87\n          tag_24\n          jump\t// in\n        tag_87:\n            /* \"#utility.yul\":2117:2229   */\n        tag_86:\n            /* \"#utility.yul\":2238:2290   */\n          tag_88\n            /* \"#utility.yul\":2283:2289   */\n          dup5\n            /* \"#utility.yul\":2278:2281   */\n          dup3\n            /* \"#utility.yul\":2273:2276   */\n          dup6\n            /* \"#utility.yul\":2238:2290   */\n          tag_30\n          jump\t// in\n        tag_88:\n            /* \"#utility.yul\":1957:2296   */\n          pop\n            /* \"#utility.yul\":1862:2296   */\n          swap4\n          swap3\n          pop\n          pop\n          pop\n          jump\t// out\n            /* \"#utility.yul\":2316:2671   */\n        tag_32:\n            /* \"#utility.yul\":2383:2388   */\n          0x00\n            /* \"#utility.yul\":2432:2435   */\n          dup3\n            /* \"#utility.yul\":2425:2429   */\n          0x1f\n            /* \"#utility.yul\":2417:2423   */\n          dup4\n            /* \"#utility.yul\":2413:2430   */\n          add\n            /* \"#utility.yul\":2409:2436   */\n          slt\n            /* \"#utility.yul\":2399:2521   */\n          tag_90\n          jumpi\n            /* \"#utility.yul\":2440:2519   */\n          tag_91\n          tag_23\n          jump\t// in\n        tag_91:\n            /* \"#utility.yul\":2399:2521   */\n        tag_90:\n            /* \"#utility.yul\":2550:2556   */\n          dup2\n            /* \"#utility.yul\":2544:2557   */\n          mload\n            /* \"#utility.yul\":2575:2665   */\n          tag_92\n            /* \"#utility.yul\":2661:2664   */\n          dup5\n            /* \"#utility.yul\":2653:2659   */\n          dup3\n            /* \"#utility.yul\":2646:2650   */\n          0x20\n            /* \"#utility.yul\":2638:2644   */\n          dup7\n            /* \"#utility.yul\":2634:2651   */\n          add\n            /* \"#utility.yul\":2575:2665   */\n          tag_31\n          jump\t// in\n        tag_92:\n            /* \"#utility.yul\":2566:2665   */\n          swap2\n          pop\n            /* \"#utility.yul\":2389:2671   */\n          pop\n            /* \"#utility.yul\":2316:2671   */\n          swap3\n          swap2\n          pop\n          pop\n          jump\t// out\n            /* \"#utility.yul\":2677:2803   */\n        tag_33:\n            /* \"#utility.yul\":2714:2721   */\n          0x00\n            /* \"#utility.yul\":2754:2796   */\n          0xffffffffffffffffffffffffffffffffffffffff\n            /* \"#utility.yul\":2747:2752   */\n          dup3\n            /* \"#utility.yul\":2743:2797   */\n          and\n            /* \"#utility.yul\":2732:2797   */\n          swap1\n          pop\n            /* \"#utility.yul\":2677:2803   */\n          swap2\n          swap1\n          pop\n          jump\t// out\n            /* \"#utility.yul\":2809:2913   */\n        tag_34:\n            /* \"#utility.yul\":2854:2861   */\n          0x00\n            /* \"#utility.yul\":2883:2907   */\n          tag_95\n            /* \"#utility.yul\":2901:2906   */\n          dup3\n            /* \"#utility.yul\":2883:2907   */\n          tag_33\n          jump\t// in\n        tag_95:\n            /* \"#utility.yul\":2872:2907   */\n          swap1\n          pop\n            /* \"#utility.yul\":2809:2913   */\n          swap2\n          swap1\n          pop\n          jump\t// out\n            /* \"#utility.yul\":2919:3057   */\n        tag_35:\n            /* \"#utility.yul\":3000:3032   */\n          tag_97\n            /* \"#utility.yul\":3026:3031   */\n          dup2\n            /* \"#utility.yul\":3000:3032   */\n          tag_34\n          jump\t// in\n        tag_97:\n            /* \"#utility.yul\":2993:2998   */\n          dup2\n            /* \"#utility.yul\":2990:3033   */\n          eq\n            /* \"#utility.yul\":2980:3051   */\n          tag_98\n          jumpi\n            /* \"#utility.yul\":3047:3048   */\n          0x00\n            /* \"#utility.yul\":3044:3045   */\n          dup1\n            /* \"#utility.yul\":3037:3049   */\n          revert\n            /* \"#utility.yul\":2980:3051   */\n        tag_98:\n            /* \"#utility.yul\":2919:3057   */\n          pop\n          jump\t// out\n            /* \"#utility.yul\":3063:3222   */\n        tag_36:\n            /* \"#utility.yul\":3128:3133   */\n          0x00\n            /* \"#utility.yul\":3159:3165   */\n          dup2\n            /* \"#utility.yul\":3153:3166   */\n          mload\n            /* \"#utility.yul\":3144:3166   */\n          swap1\n          pop\n            /* \"#utility.yul\":3175:3216   */\n          tag_100\n            /* \"#utility.yul\":3210:3215   */\n          dup2\n            /* \"#utility.yul\":3175:3216   */\n          tag_35\n          jump\t// in\n        tag_100:\n            /* \"#utility.yul\":3063:3222   */\n          swap3\n          swap2\n          pop\n          pop\n          jump\t// out\n            /* \"#utility.yul\":3228:3324   */\n        tag_37:\n            /* \"#utility.yul\":3265:3272   */\n          0x00\n            /* \"#utility.yul\":3294:3318   */\n          tag_102\n            /* \"#utility.yul\":3312:3317   */\n          dup3\n            /* \"#utility.yul\":3294:3318   */\n          tag_33\n          jump\t// in\n        tag_102:\n            /* \"#utility.yul\":3283:3318   */\n          swap1\n          pop\n            /* \"#utility.yul\":3228:3324   */\n          swap2\n          swap1\n          pop\n          jump\t// out\n            /* \"#utility.yul\":3330:3452   */\n        tag_38:\n            /* \"#utility.yul\":3403:3427   */\n          tag_104\n            /* \"#utility.yul\":3421:3426   */\n          dup2\n            /* \"#utility.yul\":3403:3427   */\n          tag_37\n          jump\t// in\n        tag_104:\n            /* \"#utility.yul\":3396:3401   */\n          dup2\n            /* \"#utility.yul\":3393:3428   */\n          eq\n            /* \"#utility.yul\":3383:3446   */\n          tag_105\n          jumpi\n            /* \"#utility.yul\":3442:3443   */\n          0x00\n            /* \"#utility.yul\":3439:3440   */\n          dup1\n            /* \"#utility.yul\":3432:3444   */\n          revert\n            /* \"#utility.yul\":3383:3446   */\n        tag_105:\n            /* \"#utility.yul\":3330:3452   */\n          pop\n          jump\t// out\n            /* \"#utility.yul\":3458:3601   */\n        tag_39:\n            /* \"#utility.yul\":3515:3520   */\n          0x00\n            /* \"#utility.yul\":3546:3552   */\n          dup2\n            /* \"#utility.yul\":3540:3553   */\n          mload\n            /* \"#utility.yul\":3531:3553   */\n          swap1\n          pop\n            /* \"#utility.yul\":3562:3595   */\n          tag_107\n            /* \"#utility.yul\":3589:3594   */\n          dup2\n            /* \"#utility.yul\":3562:3595   */\n          tag_38\n          jump\t// in\n        tag_107:\n            /* \"#utility.yul\":3458:3601   */\n          swap3\n          swap2\n          pop\n          pop\n          jump\t// out\n            /* \"#utility.yul\":3607:5119   */\n        tag_3:\n            /* \"#utility.yul\":3751:3757   */\n          0x00\n            /* \"#utility.yul\":3759:3765   */\n          dup1\n            /* \"#utility.yul\":3767:3773   */\n          0x00\n            /* \"#utility.yul\":3775:3781   */\n          dup1\n            /* \"#utility.yul\":3783:3789   */\n          0x00\n            /* \"#utility.yul\":3832:3835   */\n          0xa0\n            /* \"#utility.yul\":3820:3829   */\n          dup7\n            /* \"#utility.yul\":3811:3818   */\n          dup9\n            /* \"#utility.yul\":3807:3830   */\n          sub\n            /* \"#utility.yul\":3803:3836   */\n          slt\n            /* \"#utility.yul\":3800:3920   */\n          iszero\n          tag_109\n          jumpi\n            /* \"#utility.yul\":3839:3918   */\n          tag_110\n          tag_21\n          jump\t// in\n        tag_110:\n            /* \"#utility.yul\":3800:3920   */\n        tag_109:\n            /* \"#utility.yul\":3980:3981   */\n          0x00\n            /* \"#utility.yul\":3969:3978   */\n          dup7\n            /* \"#utility.yul\":3965:3982   */\n          add\n            /* \"#utility.yul\":3959:3983   */\n          mload\n            /* \"#utility.yul\":4010:4028   */\n          0xffffffffffffffff\n            /* \"#utility.yul\":4002:4008   */\n          dup2\n            /* \"#utility.yul\":3999:4029   */\n          gt\n            /* \"#utility.yul\":3996:4113   */\n          iszero\n          tag_111\n          jumpi\n            /* \"#utility.yul\":4032:4111   */\n          tag_112\n          tag_22\n          jump\t// in\n        tag_112:\n            /* \"#utility.yul\":3996:4113   */\n        tag_111:\n            /* \"#utility.yul\":4137:4211   */\n          tag_113\n            /* \"#utility.yul\":4203:4210   */\n          dup9\n            /* \"#utility.yul\":4194:4200   */\n          dup3\n            /* \"#utility.yul\":4183:4192   */\n          dup10\n            /* \"#utility.yul\":4179:4201   */\n          add\n            /* \"#utility.yul\":4137:4211   */\n          tag_32\n          jump\t// in\n        tag_113:\n            /* \"#utility.yul\":4127:4211   */\n          swap6\n          pop\n            /* \"#utility.yul\":3930:4221   */\n          pop\n            /* \"#utility.yul\":4281:4283   */\n          0x20\n            /* \"#utility.yul\":4270:4279   */\n          dup7\n            /* \"#utility.yul\":4266:4284   */\n          add\n            /* \"#utility.yul\":4260:4285   */\n          mload\n            /* \"#utility.yul\":4312:4330   */\n          0xffffffffffffffff\n            /* \"#utility.yul\":4304:4310   */\n          dup2\n            /* \"#utility.yul\":4301:4331   */\n          gt\n            /* \"#utility.yul\":4298:4415   */\n          iszero\n          tag_114\n          jumpi\n            /* \"#utility.yul\":4334:4413   */\n          tag_115\n          tag_22\n          jump\t// in\n        tag_115:\n            /* \"#utility.yul\":4298:4415   */\n        tag_114:\n            /* \"#utility.yul\":4439:4513   */\n          tag_116\n            /* \"#utility.yul\":4505:4512   */\n          dup9\n            /* \"#utility.yul\":4496:4502   */\n          dup3\n            /* \"#utility.yul\":4485:4494   */\n          dup10\n            /* \"#utility.yul\":4481:4503   */\n          add\n            /* \"#utility.yul\":4439:4513   */\n          tag_32\n          jump\t// in\n        tag_116:\n            /* \"#utility.yul\":4429:4513   */\n          swap5\n          pop\n            /* \"#utility.yul\":4231:4523   */\n          pop\n            /* \"#utility.yul\":4583:4585   */\n          0x40\n            /* \"#utility.yul\":4572:4581   */\n          dup7\n            /* \"#utility.yul\":4568:4586   */\n          add\n            /* \"#utility.yul\":4562:4587   */\n          mload\n            /* \"#utility.yul\":4614:4632   */\n          0xffffffffffffffff\n            /* \"#utility.yul\":4606:4612   */\n          dup2\n            /* \"#utility.yul\":4603:4633   */\n          gt\n            /* \"#utility.yul\":4600:4717   */\n          iszero\n          tag_117\n          jumpi\n            /* \"#utility.yul\":4636:4715   */\n          tag_118\n          tag_22\n          jump\t// in\n        tag_118:\n            /* \"#utility.yul\":4600:4717   */\n        tag_117:\n            /* \"#utility.yul\":4741:4815   */\n          tag_119\n            /* \"#utility.yul\":4807:4814   */\n          dup9\n            /* \"#utility.yul\":4798:4804   */\n          dup3\n            /* \"#utility.yul\":4787:4796   */\n          dup10\n            /* \"#utility.yul\":4783:4805   */\n          add\n            /* \"#utility.yul\":4741:4815   */\n          tag_32\n          jump\t// in\n        tag_119:\n            /* \"#utility.yul\":4731:4815   */\n          swap4\n          pop\n            /* \"#utility.yul\":4533:4825   */\n          pop\n            /* \"#utility.yul\":4864:4866   */\n          0x60\n            /* \"#utility.yul\":4890:4962   */\n          tag_120\n            /* \"#utility.yul\":4954:4961   */\n          dup9\n            /* \"#utility.yul\":4945:4951   */\n          dup3\n            /* \"#utility.yul\":4934:4943   */\n          dup10\n            /* \"#utility.yul\":4930:4952   */\n          add\n            /* \"#utility.yul\":4890:4962   */\n          tag_36\n          jump\t// in\n        tag_120:\n            /* \"#utility.yul\":4880:4962   */\n          swap3\n          pop\n            /* \"#utility.yul\":4835:4972   */\n          pop\n            /* \"#utility.yul\":5011:5014   */\n          0x80\n            /* \"#utility.yul\":5038:5102   */\n          tag_121\n            /* \"#utility.yul\":5094:5101   */\n          dup9\n            /* \"#utility.yul\":5085:5091   */\n          dup3\n            /* \"#utility.yul\":5074:5083   */\n          dup10\n            /* \"#utility.yul\":5070:5092   */\n          add\n            /* \"#utility.yul\":5038:5102   */\n          tag_39\n          jump\t// in\n        tag_121:\n            /* \"#utility.yul\":5028:5102   */\n          swap2\n          pop\n            /* \"#utility.yul\":4982:5112   */\n          pop\n            /* \"#utility.yul\":3607:5119   */\n          swap3\n          swap6\n          pop\n          swap3\n          swap6\n          swap1\n          swap4\n          pop\n          jump\t// out\n            /* \"#utility.yul\":5125:5243   */\n        tag_40:\n            /* \"#utility.yul\":5212:5236   */\n          tag_123\n            /* \"#utility.yul\":5230:5235   */\n          dup2\n            /* \"#utility.yul\":5212:5236   */\n          tag_37\n          jump\t// in\n        tag_123:\n            /* \"#utility.yul\":5207:5210   */\n          dup3\n            /* \"#utility.yul\":5200:5237   */\n          mstore\n            /* \"#utility.yul\":5125:5243   */\n          pop\n          pop\n          jump\t// out\n            /* \"#utility.yul\":5249:5471   */\n        tag_9:\n            /* \"#utility.yul\":5342:5346   */\n          0x00\n            /* \"#utility.yul\":5380:5382   */\n          0x20\n            /* \"#utility.yul\":5369:5378   */\n          dup3\n            /* \"#utility.yul\":5365:5383   */\n          add\n            /* \"#utility.yul\":5357:5383   */\n          swap1\n          pop\n            /* \"#utility.yul\":5393:5464   */\n          tag_125\n            /* \"#utility.yul\":5461:5462   */\n          0x00\n            /* \"#utility.yul\":5450:5459   */\n          dup4\n            /* \"#utility.yul\":5446:5463   */\n          add\n            /* \"#utility.yul\":5437:5443   */\n          dup5\n            /* \"#utility.yul\":5393:5464   */\n          tag_40\n          jump\t// in\n        tag_125:\n            /* \"#utility.yul\":5249:5471   */\n          swap3\n          swap2\n          pop\n          pop\n          jump\t// out\n            /* \"#utility.yul\":5477:5576   */\n        tag_41:\n            /* \"#utility.yul\":5529:5535   */\n          0x00\n            /* \"#utility.yul\":5563:5568   */\n          dup2\n            /* \"#utility.yul\":5557:5569   */\n          mload\n            /* \"#utility.yul\":5547:5569   */\n          swap1\n          pop\n            /* \"#utility.yul\":5477:5576   */\n          swap2\n          swap1\n          pop\n          jump\t// out\n            /* \"#utility.yul\":5582:5762   */\n        tag_42:\n            /* \"#utility.yul\":5630:5707   */\n          0x4e487b7100000000000000000000000000000000000000000000000000000000\n            /* \"#utility.yul\":5627:5628   */\n          0x00\n            /* \"#utility.yul\":5620:5708   */\n          mstore\n            /* \"#utility.yul\":5727:5731   */\n          0x22\n            /* \"#utility.yul\":5724:5725   */\n          0x04\n            /* \"#utility.yul\":5717:5732   */\n          mstore\n            /* \"#utility.yul\":5751:5755   */\n          0x24\n            /* \"#utility.yul\":5748:5749   */\n          0x00\n            /* \"#utility.yul\":5741:5756   */\n          revert\n            /* \"#utility.yul\":5768:6088   */\n        tag_43:\n            /* \"#utility.yul\":5812:5818   */\n          0x00\n            /* \"#utility.yul\":5849:5850   */\n          0x02\n            /* \"#utility.yul\":5843:5847   */\n          dup3\n            /* \"#utility.yul\":5839:5851   */\n          div\n            /* \"#utility.yul\":5829:5851   */\n          swap1\n          pop\n            /* \"#utility.yul\":5896:5897   */\n          0x01\n            /* \"#utility.yul\":5890:5894   */\n          dup3\n            /* \"#utility.yul\":5886:5898   */\n          and\n            /* \"#utility.yul\":5917:5935   */\n          dup1\n            /* \"#utility.yul\":5907:5988   */\n          tag_129\n          jumpi\n            /* \"#utility.yul\":5973:5977   */\n          0x7f\n            /* \"#utility.yul\":5965:5971   */\n          dup3\n            /* \"#utility.yul\":5961:5978   */\n          and\n            /* \"#utility.yul\":5951:5978   */\n          swap2\n          pop\n            /* \"#utility.yul\":5907:5988   */\n        tag_129:\n            /* \"#utility.yul\":6035:6037   */\n          0x20\n            /* \"#utility.yul\":6027:6033   */\n          dup3\n            /* \"#utility.yul\":6024:6038   */\n          lt\n            /* \"#utility.yul\":6004:6022   */\n          dup2\n            /* \"#utility.yul\":6001:6039   */\n          sub\n            /* \"#utility.yul\":5998:6082   */\n          tag_130\n          jumpi\n            /* \"#utility.yul\":6054:6072   */\n          tag_131\n          tag_42\n          jump\t// in\n        tag_131:\n            /* \"#utility.yul\":5998:6082   */\n        tag_130:\n            /* \"#utility.yul\":5819:6088   */\n          pop\n            /* \"#utility.yul\":5768:6088   */\n          swap2\n          swap1\n          pop\n          jump\t// out\n            /* \"#utility.yul\":6094:6235   */\n        tag_44:\n            /* \"#utility.yul\":6143:6147   */\n          0x00\n            /* \"#utility.yul\":6166:6169   */\n          dup2\n            /* \"#utility.yul\":6158:6169   */\n          swap1\n          pop\n            /* \"#utility.yul\":6189:6192   */\n          dup2\n            /* \"#utility.yul\":6186:6187   */\n          0x00\n            /* \"#utility.yul\":6179:6193   */\n          mstore\n            /* \"#utility.yul\":6223:6227   */\n          0x20\n            /* \"#utility.yul\":6220:6221   */\n          0x00\n            /* \"#utility.yul\":6210:6228   */\n          keccak256\n            /* \"#utility.yul\":6202:6228   */\n          swap1\n          pop\n            /* \"#utility.yul\":6094:6235   */\n          swap2\n          swap1\n          pop\n          jump\t// out\n            /* \"#utility.yul\":6241:6334   */\n        tag_45:\n            /* \"#utility.yul\":6278:6284   */\n          0x00\n            /* \"#utility.yul\":6325:6327   */\n          0x20\n            /* \"#utility.yul\":6320:6322   */\n          0x1f\n            /* \"#utility.yul\":6313:6318   */\n          dup4\n            /* \"#utility.yul\":6309:6323   */\n          add\n            /* \"#utility.yul\":6305:6328   */\n          div\n            /* \"#utility.yul\":6295:6328   */\n          swap1\n          pop\n            /* \"#utility.yul\":6241:6334   */\n          swap2\n          swap1\n          pop\n          jump\t// out\n            /* \"#utility.yul\":6340:6447   */\n        tag_46:\n            /* \"#utility.yul\":6384:6392   */\n          0x00\n            /* \"#utility.yul\":6434:6439   */\n          dup3\n            /* \"#utility.yul\":6428:6432   */\n          dup3\n            /* \"#utility.yul\":6424:6440   */\n          shl\n            /* \"#utility.yul\":6403:6440   */\n          swap1\n          pop\n            /* \"#utility.yul\":6340:6447   */\n          swap3\n          swap2\n          pop\n          pop\n          jump\t// out\n            /* \"#utility.yul\":6453:6846   */\n        tag_47:\n            /* \"#utility.yul\":6522:6528   */\n          0x00\n            /* \"#utility.yul\":6572:6573   */\n          0x08\n            /* \"#utility.yul\":6560:6570   */\n          dup4\n            /* \"#utility.yul\":6556:6574   */\n          mul\n            /* \"#utility.yul\":6595:6692   */\n          tag_136\n            /* \"#utility.yul\":6625:6691   */\n          0xffffffffffffffffffffffffffffffffffffffffffffffffffffffffffffffff\n            /* \"#utility.yul\":6614:6623   */\n          dup3\n            /* \"#utility.yul\":6595:6692   */\n          tag_46\n          jump\t// in\n        tag_136:\n            /* \"#utility.yul\":6713:6752   */\n          tag_137\n            /* \"#utility.yul\":6743:6751   */\n          dup7\n            /* \"#utility.yul\":6732:6741   */\n          dup4\n            /* \"#utility.yul\":6713:6752   */\n          tag_46\n          jump\t// in\n        tag_137:\n            /* \"#utility.yul\":6701:6752   */\n          swap6\n          pop\n            /* \"#utility.yul\":6785:6789   */\n          dup1\n            /* \"#utility.yul\":6781:6790   */\n          not\n            /* \"#utility.yul\":6774:6779   */\n          dup5\n            /* \"#utility.yul\":6770:6791   */\n          and\n            /* \"#utility.yul\":6761:6791   */\n          swap4\n          pop\n            /* \"#utility.yul\":6834:6838   */\n          dup1\n            /* \"#utility.yul\":6824:6832   */\n          dup7\n            /* \"#utility.yul\":6820:6839   */\n          and\n            /* \"#utility.yul\":6813:6818   */\n          dup5\n            /* \"#utility.yul\":6810:6840   */\n          or\n            /* \"#utility.yul\":6800:6840   */\n          swap3\n          pop\n            /* \"#utility.yul\":6529:6846   */\n          pop\n          pop\n            /* \"#utility.yul\":6453:6846   */\n          swap4\n          swap3\n          pop\n          pop\n          pop\n          jump\t// out\n            /* \"#utility.yul\":6852:6929   */\n        tag_48:\n            /* \"#utility.yul\":6889:6896   */\n          0x00\n            /* \"#utility.yul\":6918:6923   */\n          dup2\n            /* \"#utility.yul\":6907:6923   */\n          swap1\n          pop\n            /* \"#utility.yul\":6852:6929   */\n          swap2\n          swap1\n          pop\n          jump\t// out\n            /* \"#utility.yul\":6935:6995   */\n        tag_49:\n            /* \"#utility.yul\":6963:6966   */\n          0x00\n            /* \"#utility.yul\":6984:6989   */\n          dup2\n            /* \"#utility.yul\":6977:6989   */\n          swap1\n          pop\n            /* \"#utility.yul\":6935:6995   */\n          swap2\n          swap1\n          pop\n          jump\t// out\n            /* \"#utility.yul\":7001:7143   */\n        tag_50:\n            /* \"#utility.yul\":7051:7060   */\n          0x00\n            /* \"#utility.yul\":7084:7137   */\n          tag_141\n            /* \"#utility.yul\":7102:7136   */\n          tag_142\n            /* \"#utility.yul\":7111:7135   */\n          tag_143\n            /* \"#utility.yul\":7129:7134   */\n          dup5\n            /* \"#utility.yul\":7111:7135   */\n          tag_48\n          jump\t// in\n        tag_143:\n            /* \"#utility.yul\":7102:7136   */\n          tag_49\n          jump\t// in\n        tag_142:\n            /* \"#utility.yul\":7084:7137   */\n          tag_48\n          jump\t// in\n        tag_141:\n            /* \"#utility.yul\":7071:7137   */\n          swap1\n          pop\n            /* \"#utility.yul\":7001:7143   */\n          swap2\n          swap1\n          pop\n          jump\t// out\n            /* \"#utility.yul\":7149:7224   */\n        tag_51:\n            /* \"#utility.yul\":7192:7195   */\n          0x00\n            /* \"#utility.yul\":7213:7218   */\n          dup2\n            /* \"#utility.yul\":7206:7218   */\n          swap1\n          pop\n            /* \"#utility.yul\":7149:7224   */\n          swap2\n          swap1\n          pop\n          jump\t// out\n            /* \"#utility.yul\":7230:7499   */\n        tag_52:\n            /* \"#utility.yul\":7340:7379   */\n          tag_146\n            /* \"#utility.yul\":7371:7378   */\n          dup4\n            /* \"#utility.yul\":7340:7379   */\n          tag_50\n          jump\t// in\n        tag_146:\n            /* \"#utility.yul\":7401:7492   */\n          tag_147\n            /* \"#utility.yul\":7450:7491   */\n          tag_148\n            /* \"#utility.yul\":7474:7490   */\n          dup3\n            /* \"#utility.yul\":7450:7491   */\n          tag_51\n          jump\t// in\n        tag_148:\n            /* \"#utility.yul\":7442:7448   */\n          dup5\n            /* \"#utility.yul\":7435:7439   */\n          dup5\n            /* \"#utility.yul\":7429:7440   */\n          sload\n            /* \"#utility.yul\":7401:7492   */\n          tag_47\n          jump\t// in\n        tag_147:\n            /* \"#utility.yul\":7395:7399   */\n          dup3\n            /* \"#utility.yul\":7388:7493   */\n          sstore\n            /* \"#utility.yul\":7306:7499   */\n          pop\n            /* \"#utility.yul\":7230:7499   */\n          pop\n          pop\n          pop\n          jump\t// out\n            /* \"#utility.yul\":7505:7578   */\n        tag_53:\n            /* \"#utility.yul\":7550:7553   */\n          0x00\n            /* \"#utility.yul\":7505:7578   */\n          swap1\n          jump\t// out\n            /* \"#utility.yul\":7584:7773   */\n        tag_54:\n            /* \"#utility.yul\":7661:7693   */\n          tag_151\n          tag_53\n          jump\t// in\n        tag_151:\n            /* \"#utility.yul\":7702:7767   */\n          tag_152\n            /* \"#utility.yul\":7760:7766   */\n          dup2\n            /* \"#utility.yul\":7752:7758   */\n          dup5\n            /* \"#utility.yul\":7746:7750   */\n          dup5\n            /* \"#utility.yul\":7702:7767   */\n          tag_52\n          jump\t// in\n        tag_152:\n            /* \"#utility.yul\":7637:7773   */\n          pop\n            /* \"#utility.yul\":7584:7773   */\n          pop\n          pop\n          jump\t// out\n            /* \"#utility.yul\":7779:7965   */\n        tag_55:\n            /* \"#utility.yul\":7839:7959   */\n        tag_154:\n            /* \"#utility.yul\":7856:7859   */\n          dup2\n            /* \"#utility.yul\":7849:7854   */\n          dup2\n            /* \"#utility.yul\":7846:7860   */\n          lt\n            /* \"#utility.yul\":7839:7959   */\n          iszero\n          tag_156\n          jumpi\n            /* \"#utility.yul\":7910:7949   */\n          tag_157\n            /* \"#utility.yul\":7947:7948   */\n          0x00\n            /* \"#utility.yul\":7940:7945   */\n          dup3\n            /* \"#utility.yul\":7910:7949   */\n          tag_54\n          jump\t// in\n        tag_157:\n            /* \"#utility.yul\":7883:7884   */\n          0x01\n            /* \"#utility.yul\":7876:7881   */\n          dup2\n            /* \"#utility.yul\":7872:7885   */\n          add\n            /* \"#utility.yul\":7863:7885   */\n          swap1\n          pop\n            /* \"#utility.yul\":7839:7959   */\n          jump(tag_154)\n        tag_156:\n            /* \"#utility.yul\":7779:7965   */\n          pop\n          pop\n          jump\t// out\n            /* \"#utility.yul\":7971:8514   */\n        tag_56:\n            /* \"#utility.yul\":8072:8074   */\n          0x1f\n            /* \"#utility.yul\":8067:8070   */\n          dup3\n            /* \"#utility.yul\":8064:8075   */\n          gt\n            /* \"#utility.yul\":8061:8507   */\n          iszero\n          tag_159\n          jumpi\n            /* \"#utility.yul\":8106:8144   */\n          tag_160\n            /* \"#utility.yul\":8138:8143   */\n          dup2\n            /* \"#utility.yul\":8106:8144   */\n          tag_44\n          jump\t// in\n        tag_160:\n            /* \"#utility.yul\":8190:8219   */\n          tag_161\n            /* \"#utility.yul\":8208:8218   */\n          dup5\n            /* \"#utility.yul\":8190:8219   */\n          tag_45\n          jump\t// in\n        tag_161:\n            /* \"#utility.yul\":8180:8188   */\n          dup2\n            /* \"#utility.yul\":8176:8220   */\n          add\n            /* \"#utility.yul\":8373:8375   */\n          0x20\n            /* \"#utility.yul\":8361:8371   */\n          dup6\n            /* \"#utility.yul\":8358:8376   */\n          lt\n            /* \"#utility.yul\":8355:8404   */\n          iszero\n          tag_162\n          jumpi\n            /* \"#utility.yul\":8394:8402   */\n          dup2\n            /* \"#utility.yul\":8379:8402   */\n          swap1\n          pop\n            /* \"#utility.yul\":8355:8404   */\n        tag_162:\n            /* \"#utility.yul\":8417:8497   */\n          tag_163\n            /* \"#utility.yul\":8473:8495   */\n          tag_164\n            /* \"#utility.yul\":8491:8494   */\n          dup6\n            /* \"#utility.yul\":8473:8495   */\n          tag_45\n          jump\t// in\n        tag_164:\n            /* \"#utility.yul\":8463:8471   */\n          dup4\n            /* \"#utility.yul\":8459:8496   */\n          add\n            /* \"#utility.yul\":8446:8457   */\n          dup3\n            /* \"#utility.yul\":8417:8497   */\n          tag_55\n          jump\t// in\n        tag_163:\n            /* \"#utility.yul\":8076:8507   */\n          pop\n          pop\n            /* \"#utility.yul\":8061:8507   */\n        tag_159:\n            /* \"#utility.yul\":7971:8514   */\n          pop\n          pop\n          pop\n          jump\t// out\n            /* \"#utility.yul\":8520:8637   */\n        tag_57:\n            /* \"#utility.yul\":8574:8582   */\n          0x00\n            /* \"#utility.yul\":8624:8629   */\n          dup3\n            /* \"#utility.yul\":8618:8622   */\n          dup3\n            /* \"#utility.yul\":8614:8630   */\n          shr\n            /* \"#utility.yul\":8593:8630   */\n          swap1\n          pop\n            /* \"#utility.yul\":8520:8637   */\n          swap3\n          swap2\n          pop\n          pop\n          jump\t// out\n            /* \"#utility.yul\":8643:8812   */\n        tag_58:\n            /* \"#utility.yul\":8687:8693   */\n          0x00\n            /* \"#utility.yul\":8720:8771   */\n          tag_167\n            /* \"#utility.yul\":8768:8769   */\n          0x00\n            /* \"#utility.yul\":8764:8770   */\n          not\n            /* \"#utility.yul\":8756:8761   */\n          dup5\n            /* \"#utility.yul\":8753:8754   */\n          0x08\n            /* \"#utility.yul\":8749:8762   */\n          mul\n            /* \"#utility.yul\":8720:8771   */\n          tag_57\n          jump\t// in\n        tag_167:\n            /* \"#utility.yul\":8716:8772   */\n          not\n            /* \"#utility.yul\":8801:8805   */\n          dup1\n            /* \"#utility.yul\":8795:8799   */\n          dup4\n            /* \"#utility.yul\":8791:8806   */\n          and\n            /* \"#utility.yul\":8781:8806   */\n          swap2\n          pop\n            /* \"#utility.yul\":8694:8812   */\n          pop\n            /* \"#utility.yul\":8643:8812   */\n          swap3\n          swap2\n          pop\n          pop\n          jump\t// out\n            /* \"#utility.yul\":8817:9112   */\n        tag_59:\n            /* \"#utility.yul\":8893:8897   */\n          0x00\n            /* \"#utility.yul\":9039:9068   */\n          tag_169\n            /* \"#utility.yul\":9064:9067   */\n          dup4\n            /* \"#utility.yul\":9058:9062   */\n          dup4\n            /* \"#utility.yul\":9039:9068   */\n          tag_58\n          jump\t// in\n        tag_169:\n            /* \"#utility.yul\":9031:9068   */\n          swap2\n          pop\n            /* \"#utility.yul\":9101:9104   */\n          dup3\n            /* \"#utility.yul\":9098:9099   */\n          0x02\n            /* \"#utility.yul\":9094:9105   */\n          mul\n            /* \"#utility.yul\":9088:9092   */\n          dup3\n            /* \"#utility.yul\":9085:9106   */\n          or\n            /* \"#utility.yul\":9077:9106   */\n          swap1\n          pop\n            /* \"#utility.yul\":8817:9112   */\n          swap3\n          swap2\n          pop\n          pop\n          jump\t// out\n            /* \"#utility.yul\":9117:10512   */\n        tag_14:\n            /* \"#utility.yul\":9234:9271   */\n          tag_171\n            /* \"#utility.yul\":9267:9270   */\n          dup3\n            /* \"#utility.yul\":9234:9271   */\n          tag_41\n          jump\t// in\n        tag_171:\n            /* \"#utility.yul\":9336:9354   */\n          0xffffffffffffffff\n            /* \"#utility.yul\":9328:9334   */\n          dup2\n            /* \"#utility.yul\":9325:9355   */\n          gt\n            /* \"#utility.yul\":9322:9378   */\n          iszero\n          tag_172\n          jumpi\n            /* \"#utility.yul\":9358:9376   */\n          tag_173\n          tag_26\n          jump\t// in\n        tag_173:\n            /* \"#utility.yul\":9322:9378   */\n        tag_172:\n            /* \"#utility.yul\":9402:9440   */\n          tag_174\n            /* \"#utility.yul\":9434:9438   */\n          dup3\n            /* \"#utility.yul\":9428:9439   */\n          sload\n            /* \"#utility.yul\":9402:9440   */\n          tag_43\n          jump\t// in\n        tag_174:\n            /* \"#utility.yul\":9487:9554   */\n          tag_175\n            /* \"#utility.yul\":9547:9553   */\n          dup3\n            /* \"#utility.yul\":9539:9545   */\n          dup3\n            /* \"#utility.yul\":9533:9537   */\n          dup6\n            /* \"#utility.yul\":9487:9554   */\n          tag_56\n          jump\t// in\n        tag_175:\n            /* \"#utility.yul\":9581:9582   */\n          0x00\n            /* \"#utility.yul\":9605:9609   */\n          0x20\n            /* \"#utility.yul\":9592:9609   */\n          swap1\n          pop\n            /* \"#utility.yul\":9637:9639   */\n          0x1f\n            /* \"#utility.yul\":9629:9635   */\n          dup4\n            /* \"#utility.yul\":9626:9640   */\n          gt\n            /* \"#utility.yul\":9654:9655   */\n          0x01\n            /* \"#utility.yul\":9649:10267   */\n          dup2\n          eq\n          tag_177\n          jumpi\n            /* \"#utility.yul\":10311:10312   */\n          0x00\n            /* \"#utility.yul\":10328:10334   */\n          dup5\n            /* \"#utility.yul\":10325:10402   */\n          iszero\n          tag_178\n          jumpi\n            /* \"#utility.yul\":10377:10386   */\n          dup3\n            /* \"#utility.yul\":10372:10375   */\n          dup8\n            /* \"#utility.yul\":10368:10387   */\n          add\n            /* \"#utility.yul\":10362:10388   */\n          mload\n            /* \"#utility.yul\":10353:10388   */\n          swap1\n          pop\n            /* \"#utility.yul\":10325:10402   */\n        tag_178:\n            /* \"#utility.yul\":10428:10495   */\n          tag_179\n            /* \"#utility.yul\":10488:10494   */\n          dup6\n            /* \"#utility.yul\":10481:10486   */\n          dup3\n            /* \"#utility.yul\":10428:10495   */\n          tag_59\n          jump\t// in\n        tag_179:\n            /* \"#utility.yul\":10422:10426   */\n          dup7\n            /* \"#utility.yul\":10415:10496   */\n          sstore\n            /* \"#utility.yul\":10284:10506   */\n          pop\n            /* \"#utility.yul\":9619:10506   */\n          jump(tag_176)\n            /* \"#utility.yul\":9649:10267   */\n        tag_177:\n            /* \"#utility.yul\":9701:9705   */\n          0x1f\n            /* \"#utility.yul\":9697:9706   */\n          not\n            /* \"#utility.yul\":9689:9695   */\n          dup5\n            /* \"#utility.yul\":9685:9707   */\n          and\n            /* \"#utility.yul\":9735:9772   */\n          tag_180\n            /* \"#utility.yul\":9767:9771   */\n          dup7\n            /* \"#utility.yul\":9735:9772   */\n          tag_44\n          jump\t// in\n        tag_180:\n            /* \"#utility.yul\":9794:9795   */\n          0x00\n            /* \"#utility.yul\":9808:10016   */\n        tag_181:\n            /* \"#utility.yul\":9822:9829   */\n          dup3\n            /* \"#utility.yul\":9819:9820   */\n          dup2\n            /* \"#utility.yul\":9816:9830   */\n          lt\n            /* \"#utility.yul\":9808:10016   */\n          iszero\n          tag_183\n          jumpi\n            /* \"#utility.yul\":9901:9910   */\n          dup5\n            /* \"#utility.yul\":9896:9899   */\n          dup10\n            /* \"#utility.yul\":9892:9911   */\n          add\n            /* \"#utility.yul\":9886:9912   */\n          mload\n            /* \"#utility.yul\":9878:9884   */\n          dup3\n            /* \"#utility.yul\":9871:9913   */\n          sstore\n            /* \"#utility.yul\":9952:9953   */\n          0x01\n            /* \"#utility.yul\":9944:9950   */\n          dup3\n            /* \"#utility.yul\":9940:9954   */\n          add\n            /* \"#utility.yul\":9930:9954   */\n          swap2\n          pop\n            /* \"#utility.yul\":9999:10001   */\n          0x20\n            /* \"#utility.yul\":9988:9997   */\n          dup6\n            /* \"#utility.yul\":9984:10002   */\n          add\n            /* \"#utility.yul\":9971:10002   */\n          swap5\n          pop\n            /* \"#utility.yul\":9845:9849   */\n          0x20\n            /* \"#utility.yul\":9842:9843   */\n          dup2\n            /* \"#utility.yul\":9838:9850   */\n          add\n            /* \"#utility.yul\":9833:9850   */\n          swap1\n          pop\n            /* \"#utility.yul\":9808:10016   */\n          jump(tag_181)\n        tag_183:\n            /* \"#utility.yul\":10044:10050   */\n          dup7\n            /* \"#utility.yul\":10035:10042   */\n          dup4\n            /* \"#utility.yul\":10032:10051   */\n          lt\n            /* \"#utility.yul\":10029:10208   */\n          iszero\n          tag_184\n          jumpi\n            /* \"#utility.yul\":10102:10111   */\n          dup5\n            /* \"#utility.yul\":10097:10100   */\n          dup10\n            /* \"#utility.yul\":10093:10112   */\n          add\n            /* \"#utility.yul\":10087:10113   */\n          mload\n            /* \"#utility.yul\":10145:10193   */\n          tag_185\n            /* \"#utility.yul\":10187:10191   */\n          0x1f\n            /* \"#utility.yul\":10179:10185   */\n          dup10\n            /* \"#utility.yul\":10175:10192   */\n          and\n            /* \"#utility.yul\":10164:10173   */\n          dup3\n            /* \"#utility.yul\":10145:10193   */\n          tag_58\n          jump\t// in\n        tag_185:\n            /* \"#utility.yul\":10137:10143   */\n          dup4\n            /* \"#utility.yul\":10130:10194   */\n          sstore\n            /* \"#utility.yul\":10052:10208   */\n          pop\n            /* \"#utility.yul\":10029:10208   */\n        tag_184:\n            /* \"#utility.yul\":10254:10255   */\n          0x01\n            /* \"#utility.yul\":10250:10251   */\n          0x02\n            /* \"#utility.yul\":10242:10248   */\n          dup9\n            /* \"#utility.yul\":10238:10252   */\n          mul\n            /* \"#utility.yul\":10234:10256   */\n          add\n            /* \"#utility.yul\":10228:10232   */\n          dup9\n            /* \"#utility.yul\":10221:10257   */\n          sstore\n            /* \"#utility.yul\":9656:10267   */\n          pop\n          pop\n          pop\n            /* \"#utility.yul\":9619:10506   */\n        tag_176:\n          pop\n            /* \"#utility.yul\":9209:10512   */\n          pop\n          pop\n          pop\n            /* \"#utility.yul\":9117:10512   */\n          pop\n          pop\n          jump\t// out\n            /* \"Donee.sol\":115:2111  contract Donee is Ownable{... */\n        tag_18:\n          dataSize(sub_0)\n          dup1\n          dataOffset(sub_0)\n          0x00\n          codecopy\n          0x00\n          return\n        stop\n\n        sub_0: assembly {\n                /* \"Donee.sol\":115:2111  contract Donee is Ownable{... */\n              mstore(0x40, 0x80)\n              jumpi(tag_1, lt(calldatasize, 0x04))\n              shr(0xe0, calldataload(0x00))\n              dup1\n              0x7284e416\n              gt\n              tag_16\n              jumpi\n              dup1\n              0xf0ea4bfc\n              gt\n              tag_17\n              jumpi\n              dup1\n              0xf0ea4bfc\n              eq\n              tag_12\n              jumpi\n              dup1\n              0xf2fde38b\n              eq\n              tag_13\n              jumpi\n              dup1\n              0xf3ccaac0\n              eq\n              tag_14\n              jumpi\n              dup1\n              0xfea49837\n              eq\n              tag_15\n              jumpi\n              jump(tag_1)\n            tag_17:\n              dup1\n              0x7284e416\n              eq\n              tag_9\n              jumpi\n              dup1\n              0x8da5cb5b\n              eq\n              tag_10\n              jumpi\n              dup1\n              0xed88c68e\n              eq\n              tag_11\n              jumpi\n              jump(tag_1)\n            tag_16:\n              dup1\n              0x2abfab4d\n              gt\n              tag_18\n              jumpi\n              dup1\n              0x2abfab4d\n              eq\n              tag_5\n              jumpi\n              dup1\n              0x3ccfd60b\n              eq\n              tag_6\n              jumpi\n              dup1\n              0x6ad9c45c\n              eq\n              tag_7\n              jumpi\n              dup1\n              0x715018a6\n              eq\n              tag_8\n              jumpi\n              jump(tag_1)\n            tag_18:\n              dup1\n              0x06fdde03\n              eq\n              tag_2\n              jumpi\n              dup1\n              0x0b024f87\n              eq\n              tag_3\n              jumpi\n              dup1\n              0x21b8092e\n              eq\n              tag_4\n              jumpi\n            tag_1:\n              0x00\n              dup1\n              revert\n                /* \"Donee.sol\":457:475  string public name */\n            tag_2:\n              callvalue\n              dup1\n              iszero\n              tag_19\n              jumpi\n              0x00\n              dup1\n              revert\n            tag_19:\n              pop\n              tag_20\n              tag_21\n              jump\t// in\n            tag_20:\n              mload(0x40)\n              tag_22\n              swap2\n              swap1\n              tag_23\n              jump\t// in\n            tag_22:\n              mload(0x40)\n              dup1\n              swap2\n              sub\n              swap1\n              return\n                /* \"Donee.sol\":310:343  uint256 public totalDonationCount */\n            tag_3:\n              callvalue\n              dup1\n              iszero\n              tag_24\n              jumpi\n              0x00\n              dup1\n              revert\n            tag_24:\n              pop\n              tag_25\n              tag_26\n              jump\t// in\n            tag_25:\n              mload(0x40)\n              tag_27\n              swap2\n              swap1\n              tag_28\n              jump\t// in\n            tag_27:\n              mload(0x40)\n              dup1\n              swap2\n              sub\n              swap1\n              return\n                /* \"Donee.sol\":1986:2108  function setWithdrawalAddress(address payable new_address) public onlyOwner {... */\n            tag_4:\n              callvalue\n              dup1\n              iszero\n              tag_29\n              jumpi\n              0x00\n              dup1\n              revert\n            tag_29:\n              pop\n              tag_30\n              0x04\n              dup1\n              calldatasize\n              sub\n              dup2\n              add\n              swap1\n              tag_31\n              swap2\n              swap1\n              tag_32\n              jump\t// in\n            tag_31:\n              tag_33\n              jump\t// in\n            tag_30:\n              stop\n                /* \"Donee.sol\":917:1026  function donationCount() public view returns(uint256) {... */\n            tag_5:\n              callvalue\n              dup1\n              iszero\n              tag_34\n              jumpi\n              0x00\n              dup1\n              revert\n            tag_34:\n              pop\n              tag_35\n              tag_36\n              jump\t// in\n            tag_35:\n              mload(0x40)\n              tag_37\n              swap2\n              swap1\n              tag_28\n              jump\t// in\n            tag_37:\n              mload(0x40)\n              dup1\n              swap2\n              sub\n              swap1\n              return\n                /* \"Donee.sol\":1808:1978  function withdraw() public onlyOwner {... */\n            tag_6:\n              callvalue\n              dup1\n              iszero\n              tag_38\n              jumpi\n              0x00\n              dup1\n              revert\n            tag_38:\n              pop\n              tag_39\n              tag_40\n              jump\t// in\n            tag_39:\n              stop\n                /* \"Donee.sol\":540:576  address payable public donee_address */\n            tag_7:\n              callvalue\n              dup1\n              iszero\n              tag_41\n              jumpi\n              0x00\n              dup1\n              revert\n            tag_41:\n              pop\n              tag_42\n              tag_43\n              jump\t// in\n            tag_42:\n              mload(0x40)\n              tag_44\n              swap2\n              swap1\n              tag_45\n              jump\t// in\n            tag_44:\n              mload(0x40)\n              dup1\n              swap2\n              sub\n              swap1\n              return\n                /* \"@openzeppelin/contracts/access/Ownable.sol\":2293:2394  function renounceOwnership() public virtual onlyOwner {... */\n            tag_8:\n              callvalue\n              dup1\n              iszero\n              tag_46\n              jumpi\n              0x00\n              dup1\n              revert\n            tag_46:\n              pop\n              tag_47\n              tag_48\n              jump\t// in\n            tag_47:\n              stop\n                /* \"Donee.sol\":482:507  string public description */\n            tag_9:\n              callvalue\n              dup1\n              iszero\n              tag_49\n              jumpi\n              0x00\n              dup1\n              revert\n            tag_49:\n              pop\n              tag_50\n              tag_51\n              jump\t// in\n            tag_50:\n              mload(0x40)\n              tag_52\n              swap2\n              swap1\n              tag_23\n              jump\t// in\n            tag_52:\n              mload(0x40)\n              dup1\n              swap2\n              sub\n              swap1\n              return\n                /* \"@openzeppelin/contracts/access/Ownable.sol\":1638:1723  function owner() public view virtual returns (address) {... */\n            tag_10:\n              callvalue\n              dup1\n              iszero\n              tag_53\n              jumpi\n              0x00\n              dup1\n              revert\n            tag_53:\n              pop\n              tag_54\n              tag_55\n              jump\t// in\n            tag_54:\n              mload(0x40)\n              tag_56\n              swap2\n              swap1\n              tag_57\n              jump\t// in\n            tag_56:\n              mload(0x40)\n              dup1\n              swap2\n              sub\n              swap1\n              return\n                /* \"Donee.sol\":1034:1329  function donate() public payable {... */\n            tag_11:\n              tag_58\n              tag_59\n              jump\t// in\n            tag_58:\n              stop\n                /* \"Donee.sol\":282:303  uint256 public raised */\n            tag_12:\n              callvalue\n              dup1\n              iszero\n              tag_60\n              jumpi\n              0x00\n              dup1\n              revert\n            tag_60:\n              pop\n              tag_61\n              tag_62\n              jump\t// in\n            tag_61:\n              mload(0x40)\n              tag_63\n              swap2\n              swap1\n              tag_28\n              jump\t// in\n            tag_63:\n              mload(0x40)\n              dup1\n              swap2\n              sub\n              swap1\n              return\n                /* \"@openzeppelin/contracts/access/Ownable.sol\":2543:2758  function transferOwnership(address newOwner) public virtual onlyOwner {... */\n            tag_13:\n              callvalue\n              dup1\n              iszero\n              tag_64\n              jumpi\n              0x00\n              dup1\n              revert\n            tag_64:\n              pop\n              tag_65\n              0x04\n              dup1\n              calldatasize\n              sub\n              dup2\n              add\n              swap1\n              tag_66\n              swap2\n              swap1\n              tag_67\n              jump\t// in\n            tag_66:\n              tag_68\n              jump\t// in\n            tag_65:\n              stop\n                /* \"Donee.sol\":514:533  string public image */\n            tag_14:\n              callvalue\n              dup1\n              iszero\n              tag_69\n              jumpi\n              0x00\n              dup1\n              revert\n            tag_69:\n              pop\n              tag_70\n              tag_71\n              jump\t// in\n            tag_70:\n              mload(0x40)\n              tag_72\n              swap2\n              swap1\n              tag_23\n              jump\t// in\n            tag_72:\n              mload(0x40)\n              dup1\n              swap2\n              sub\n              swap1\n              return\n                /* \"Donee.sol\":1337:1800  function myHistory() public view returns (uint256[] memory values, uint256[] memory dates) {... */\n            tag_15:\n              callvalue\n              dup1\n              iszero\n              tag_73\n              jumpi\n              0x00\n              dup1\n              revert\n            tag_73:\n              pop\n              tag_74\n              tag_75\n              jump\t// in\n            tag_74:\n              mload(0x40)\n              tag_76\n              swap3\n              swap2\n              swap1\n              tag_77\n              jump\t// in\n            tag_76:\n              mload(0x40)\n              dup1\n              swap2\n              sub\n              swap1\n              return\n                /* \"Donee.sol\":457:475  string public name */\n            tag_21:\n              0x04\n              dup1\n              sload\n              tag_78\n              swap1\n              tag_79\n              jump\t// in\n            tag_78:\n              dup1\n              0x1f\n              add\n              0x20\n              dup1\n              swap2\n              div\n              mul\n              0x20\n              add\n              mload(0x40)\n              swap1\n              dup2\n              add\n              0x40\n              mstore\n              dup1\n              swap3\n              swap2\n              swap1\n              dup2\n              dup2\n              mstore\n              0x20\n              add\n              dup3\n              dup1\n              sload\n              tag_80\n              swap1\n              tag_79\n              jump\t// in\n            tag_80:\n              dup1\n              iszero\n              tag_81\n              jumpi\n              dup1\n              0x1f\n              lt\n              tag_82\n              jumpi\n              0x0100\n              dup1\n              dup4\n              sload\n              div\n              mul\n              dup4\n              mstore\n              swap2\n              0x20\n              add\n              swap2\n              jump(tag_81)\n            tag_82:\n              dup3\n              add\n              swap2\n              swap1\n              0x00\n              mstore\n              keccak256(0x00, 0x20)\n              swap1\n            tag_83:\n              dup2\n              sload\n              dup2\n              mstore\n              swap1\n              0x01\n              add\n              swap1\n              0x20\n              add\n              dup1\n              dup4\n              gt\n              tag_83\n              jumpi\n              dup3\n              swap1\n              sub\n              0x1f\n              and\n              dup3\n              add\n              swap2\n            tag_81:\n              pop\n              pop\n              pop\n              pop\n              pop\n              dup2\n              jump\t// out\n                /* \"Donee.sol\":310:343  uint256 public totalDonationCount */\n            tag_26:\n              sload(0x03)\n              dup2\n              jump\t// out\n                /* \"Donee.sol\":1986:2108  function setWithdrawalAddress(address payable new_address) public onlyOwner {... */\n            tag_33:\n                /* \"@openzeppelin/contracts/access/Ownable.sol\":1531:1544  _checkOwner() */\n              tag_85\n                /* \"@openzeppelin/contracts/access/Ownable.sol\":1531:1542  _checkOwner */\n              tag_86\n                /* \"@openzeppelin/contracts/access/Ownable.sol\":1531:1544  _checkOwner() */\n              jump\t// in\n            tag_85:\n                /* \"Donee.sol\":2089:2100  new_address */\n              dup1\n                /* \"Donee.sol\":2073:2086  donee_address */\n              0x07\n              0x00\n                /* \"Donee.sol\":2073:2100  donee_address = new_address */\n              0x0100\n              exp\n              dup2\n              sload\n              dup2\n              0xffffffffffffffffffffffffffffffffffffffff\n              mul\n              not\n              and\n              swap1\n              dup4\n              0xffffffffffffffffffffffffffffffffffffffff\n              and\n              mul\n              or\n              swap1\n              sstore\n              pop\n                /* \"Donee.sol\":1986:2108  function setWithdrawalAddress(address payable new_address) public onlyOwner {... */\n              pop\n              jump\t// out\n                /* \"Donee.sol\":917:1026  function donationCount() public view returns(uint256) {... */\n            tag_36:\n                /* \"Donee.sol\":962:969  uint256 */\n              0x00\n                /* \"Donee.sol\":989:999  _donations */\n              0x01\n                /* \"Donee.sol\":989:1011  _donations[msg.sender] */\n              0x00\n                /* \"Donee.sol\":1000:1010  msg.sender */\n              caller\n                /* \"Donee.sol\":989:1011  _donations[msg.sender] */\n              0xffffffffffffffffffffffffffffffffffffffff\n              and\n              0xffffffffffffffffffffffffffffffffffffffff\n              and\n              dup2\n              mstore\n              0x20\n              add\n              swap1\n              dup2\n              mstore\n              0x20\n              add\n              0x00\n              keccak256\n                /* \"Donee.sol\":989:1018  _donations[msg.sender].length */\n              dup1\n              sload\n              swap1\n              pop\n                /* \"Donee.sol\":982:1018  return _donations[msg.sender].length */\n              swap1\n              pop\n                /* \"Donee.sol\":917:1026  function donationCount() public view returns(uint256) {... */\n              swap1\n              jump\t// out\n                /* \"Donee.sol\":1808:1978  function withdraw() public onlyOwner {... */\n            tag_40:\n                /* \"@openzeppelin/contracts/access/Ownable.sol\":1531:1544  _checkOwner() */\n              tag_90\n                /* \"@openzeppelin/contracts/access/Ownable.sol\":1531:1542  _checkOwner */\n              tag_86\n                /* \"@openzeppelin/contracts/access/Ownable.sol\":1531:1544  _checkOwner() */\n              jump\t// in\n            tag_90:\n                /* \"Donee.sol\":1856:1871  uint256 balance */\n              0x00\n                /* \"Donee.sol\":1874:1895  address(this).balance */\n              selfbalance\n                /* \"Donee.sol\":1856:1895  uint256 balance = address(this).balance */\n              swap1\n              pop\n                /* \"Donee.sol\":1906:1919  donee_address */\n              0x07\n              0x00\n              swap1\n              sload\n              swap1\n              0x0100\n              exp\n              swap1\n              div\n              0xffffffffffffffffffffffffffffffffffffffff\n              and\n                /* \"Donee.sol\":1906:1928  donee_address.transfer */\n              0xffffffffffffffffffffffffffffffffffffffff\n              and\n                /* \"Donee.sol\":1906:1937  donee_address.transfer(balance) */\n              0x08fc\n                /* \"Donee.sol\":1929:1936  balance */\n              dup3\n                /* \"Donee.sol\":1906:1937  donee_address.transfer(balance) */\n              swap1\n              dup2\n              iszero\n              mul\n              swap1\n              mload(0x40)\n              0x00\n              mload(0x40)\n              dup1\n              dup4\n              sub\n              dup2\n              dup6\n              dup9\n              dup9\n              call\n              swap4\n              pop\n              pop\n              pop\n              pop\n              iszero\n              dup1\n              iszero\n              tag_93\n              jumpi\n              returndatasize\n              0x00\n              dup1\n              returndatacopy\n              revert(0x00, returndatasize)\n            tag_93:\n              pop\n                /* \"Donee.sol\":1953:1970  Withdraw(balance) */\n              0x5b6b431d4476a211bb7d41c20d1aab9ae2321deee0d20be3d9fc9b1093fa6e3d\n                /* \"Donee.sol\":1962:1969  balance */\n              dup2\n                /* \"Donee.sol\":1953:1970  Withdraw(balance) */\n              mload(0x40)\n              tag_94\n              swap2\n              swap1\n              tag_28\n              jump\t// in\n            tag_94:\n              mload(0x40)\n              dup1\n              swap2\n              sub\n              swap1\n              log1\n                /* \"Donee.sol\":1845:1978  {... */\n              pop\n                /* \"Donee.sol\":1808:1978  function withdraw() public onlyOwner {... */\n              jump\t// out\n                /* \"Donee.sol\":540:576  address payable public donee_address */\n            tag_43:\n              0x07\n              0x00\n              swap1\n              sload\n              swap1\n              0x0100\n              exp\n              swap1\n              div\n              0xffffffffffffffffffffffffffffffffffffffff\n              and\n              dup2\n              jump\t// out\n                /* \"@openzeppelin/contracts/access/Ownable.sol\":2293:2394  function renounceOwnership() public virtual onlyOwner {... */\n            tag_48:\n                /* \"@openzeppelin/contracts/access/Ownable.sol\":1531:1544  _checkOwner() */\n              tag_96\n                /* \"@openzeppelin/contracts/access/Ownable.sol\":1531:1542  _checkOwner */\n              tag_86\n                /* \"@openzeppelin/contracts/access/Ownable.sol\":1531:1544  _checkOwner() */\n              jump\t// in\n            tag_96:\n                /* \"@openzeppelin/contracts/access/Ownable.sol\":2357:2387  _transferOwnership(address(0)) */\n              tag_98\n                /* \"@openzeppelin/contracts/access/Ownable.sol\":2384:2385  0 */\n              0x00\n                /* \"@openzeppelin/contracts/access/Ownable.sol\":2357:2375  _transferOwnership */\n              tag_99\n                /* \"@openzeppelin/contracts/access/Ownable.sol\":2357:2387  _transferOwnership(address(0)) */\n              jump\t// in\n            tag_98:\n                /* \"@openzeppelin/contracts/access/Ownable.sol\":2293:2394  function renounceOwnership() public virtual onlyOwner {... */\n              jump\t// out\n                /* \"Donee.sol\":482:507  string public description */\n            tag_51:\n              0x05\n              dup1\n              sload\n              tag_100\n              swap1\n              tag_79\n              jump\t// in\n            tag_100:\n              dup1\n              0x1f\n              add\n              0x20\n              dup1\n              swap2\n              div\n              mul\n              0x20\n              add\n              mload(0x40)\n              swap1\n              dup2\n              add\n              0x40\n              mstore\n              dup1\n              swap3\n              swap2\n              swap1\n              dup2\n              dup2\n              mstore\n              0x20\n              add\n              dup3\n              dup1\n              sload\n              tag_101\n              swap1\n              tag_79\n              jump\t// in\n            tag_101:\n              dup1\n              iszero\n              tag_102\n              jumpi\n              dup1\n              0x1f\n              lt\n              tag_103\n              jumpi\n              0x0100\n              dup1\n              dup4\n              sload\n              div\n              mul\n              dup4\n              mstore\n              swap2\n              0x20\n              add\n              swap2\n              jump(tag_102)\n            tag_103:\n              dup3\n              add\n              swap2\n              swap1\n              0x00\n              mstore\n              keccak256(0x00, 0x20)\n              swap1\n            tag_104:\n              dup2\n              sload\n              dup2\n              mstore\n              swap1\n              0x01\n              add\n              swap1\n              0x20\n              add\n              dup1\n              dup4\n              gt\n              tag_104\n              jumpi\n              dup3\n              swap1\n              sub\n              0x1f\n              and\n              dup3\n              add\n              swap2\n            tag_102:\n              pop\n              pop\n              pop\n              pop\n              pop\n              dup2\n              jump\t// out\n                /* \"@openzeppelin/contracts/access/Ownable.sol\":1638:1723  function owner() public view virtual returns (address) {... */\n            tag_55:\n                /* \"@openzeppelin/contracts/access/Ownable.sol\":1684:1691  address */\n              0x00\n                /* \"@openzeppelin/contracts/access/Ownable.sol\":1710:1716  _owner */\n              dup1\n              0x00\n              swap1\n              sload\n              swap1\n              0x0100\n              exp\n              swap1\n              div\n              0xffffffffffffffffffffffffffffffffffffffff\n              and\n                /* \"@openzeppelin/contracts/access/Ownable.sol\":1703:1716  return _owner */\n              swap1\n              pop\n                /* \"@openzeppelin/contracts/access/Ownable.sol\":1638:1723  function owner() public view virtual returns (address) {... */\n              swap1\n              jump\t// out\n                /* \"Donee.sol\":1034:1329  function donate() public payable {... */\n            tag_59:\n                /* \"Donee.sol\":1078:1102  Donation memory donation */\n              0x00\n                /* \"Donee.sol\":1105:1154  Donation({value:msg.value, date:block.timestamp}) */\n              mload(0x40)\n              dup1\n              0x40\n              add\n              0x40\n              mstore\n              dup1\n                /* \"Donee.sol\":1121:1130  msg.value */\n              callvalue\n                /* \"Donee.sol\":1105:1154  Donation({value:msg.value, date:block.timestamp}) */\n              dup2\n              mstore\n              0x20\n              add\n                /* \"Donee.sol\":1137:1152  block.timestamp */\n              timestamp\n                /* \"Donee.sol\":1105:1154  Donation({value:msg.value, date:block.timestamp}) */\n              dup2\n              mstore\n              pop\n                /* \"Donee.sol\":1078:1154  Donation memory donation = Donation({value:msg.value, date:block.timestamp}) */\n              swap1\n              pop\n                /* \"Donee.sol\":1165:1175  _donations */\n              0x01\n                /* \"Donee.sol\":1165:1187  _donations[msg.sender] */\n              0x00\n                /* \"Donee.sol\":1176:1186  msg.sender */\n              caller\n                /* \"Donee.sol\":1165:1187  _donations[msg.sender] */\n              0xffffffffffffffffffffffffffffffffffffffff\n              and\n              0xffffffffffffffffffffffffffffffffffffffff\n              and\n              dup2\n              mstore\n              0x20\n              add\n              swap1\n              dup2\n              mstore\n              0x20\n              add\n              0x00\n              keccak256\n                /* \"Donee.sol\":1193:1201  donation */\n              dup2\n                /* \"Donee.sol\":1165:1202  _donations[msg.sender].push(donation) */\n              swap1\n              dup1\n              0x01\n              dup2\n              sload\n              add\n              dup1\n              dup3\n              sstore\n              dup1\n              swap2\n              pop\n              pop\n              0x01\n              swap1\n              sub\n              swap1\n              0x00\n              mstore\n              keccak256(0x00, 0x20)\n              swap1\n              0x02\n              mul\n              add\n              0x00\n              swap1\n              swap2\n              swap1\n              swap2\n              swap1\n              swap2\n              pop\n              0x00\n              dup3\n              add\n              mload\n              dup2\n              0x00\n              add\n              sstore\n              0x20\n              dup3\n              add\n              mload\n              dup2\n              0x01\n              add\n              sstore\n              pop\n              pop\n                /* \"Donee.sol\":1223:1232  msg.value */\n              callvalue\n                /* \"Donee.sol\":1213:1219  raised */\n              0x02\n              0x00\n                /* \"Donee.sol\":1213:1232  raised += msg.value */\n              dup3\n              dup3\n              sload\n              tag_108\n              swap2\n              swap1\n              tag_109\n              jump\t// in\n            tag_108:\n              swap3\n              pop\n              pop\n              dup2\n              swap1\n              sstore\n              pop\n                /* \"Donee.sol\":1265:1266  1 */\n              0x01\n                /* \"Donee.sol\":1243:1261  totalDonationCount */\n              0x03\n              0x00\n                /* \"Donee.sol\":1243:1266  totalDonationCount += 1 */\n              dup3\n              dup3\n              sload\n              tag_110\n              swap2\n              swap1\n              tag_109\n              jump\t// in\n            tag_110:\n              swap3\n              pop\n              pop\n              dup2\n              swap1\n              sstore\n              pop\n                /* \"Donee.sol\":1299:1309  msg.sender */\n              caller\n                /* \"Donee.sol\":1282:1321  donationReceived(msg.sender, msg.value) */\n              0xffffffffffffffffffffffffffffffffffffffff\n              and\n              0xe2639ef551ad89950da1145fe1fd600e818336d6e8aa88426efe387c49accebb\n                /* \"Donee.sol\":1311:1320  msg.value */\n              callvalue\n                /* \"Donee.sol\":1282:1321  donationReceived(msg.sender, msg.value) */\n              mload(0x40)\n              tag_111\n              swap2\n              swap1\n              tag_28\n              jump\t// in\n            tag_111:\n              mload(0x40)\n              dup1\n              swap2\n              sub\n              swap1\n              log2\n                /* \"Donee.sol\":1067:1329  {... */\n              pop\n                /* \"Donee.sol\":1034:1329  function donate() public payable {... */\n              jump\t// out\n                /* \"Donee.sol\":282:303  uint256 public raised */\n            tag_62:\n              sload(0x02)\n              dup2\n              jump\t// out\n                /* \"@openzeppelin/contracts/access/Ownable.sol\":2543:2758  function transferOwnership(address newOwner) public virtual onlyOwner {... */\n            tag_68:\n                /* \"@openzeppelin/contracts/access/Ownable.sol\":1531:1544  _checkOwner() */\n              tag_113\n                /* \"@openzeppelin/contracts/access/Ownable.sol\":1531:1542  _checkOwner */\n              tag_86\n                /* \"@openzeppelin/contracts/access/Ownable.sol\":1531:1544  _checkOwner() */\n              jump\t// in\n            tag_113:\n                /* \"@openzeppelin/contracts/access/Ownable.sol\":2647:2648  0 */\n              0x00\n                /* \"@openzeppelin/contracts/access/Ownable.sol\":2627:2649  newOwner == address(0) */\n              0xffffffffffffffffffffffffffffffffffffffff\n              and\n                /* \"@openzeppelin/contracts/access/Ownable.sol\":2627:2635  newOwner */\n              dup2\n                /* \"@openzeppelin/contracts/access/Ownable.sol\":2627:2649  newOwner == address(0) */\n              0xffffffffffffffffffffffffffffffffffffffff\n              and\n              sub\n                /* \"@openzeppelin/contracts/access/Ownable.sol\":2623:2714  if (newOwner == address(0)) {... */\n              tag_115\n              jumpi\n                /* \"@openzeppelin/contracts/access/Ownable.sol\":2700:2701  0 */\n              0x00\n                /* \"@openzeppelin/contracts/access/Ownable.sol\":2672:2703  OwnableInvalidOwner(address(0)) */\n              mload(0x40)\n              0x1e4fbdf700000000000000000000000000000000000000000000000000000000\n              dup2\n              mstore\n              0x04\n              add\n              tag_116\n              swap2\n              swap1\n              tag_57\n              jump\t// in\n            tag_116:\n              mload(0x40)\n              dup1\n              swap2\n              sub\n              swap1\n              revert\n                /* \"@openzeppelin/contracts/access/Ownable.sol\":2623:2714  if (newOwner == address(0)) {... */\n            tag_115:\n                /* \"@openzeppelin/contracts/access/Ownable.sol\":2723:2751  _transferOwnership(newOwner) */\n              tag_117\n                /* \"@openzeppelin/contracts/access/Ownable.sol\":2742:2750  newOwner */\n              dup2\n                /* \"@openzeppelin/contracts/access/Ownable.sol\":2723:2741  _transferOwnership */\n              tag_99\n                /* \"@openzeppelin/contracts/access/Ownable.sol\":2723:2751  _transferOwnership(newOwner) */\n              jump\t// in\n            tag_117:\n                /* \"@openzeppelin/contracts/access/Ownable.sol\":2543:2758  function transferOwnership(address newOwner) public virtual onlyOwner {... */\n              pop\n              jump\t// out\n                /* \"Donee.sol\":514:533  string public image */\n            tag_71:\n              0x06\n              dup1\n              sload\n              tag_118\n              swap1\n              tag_79\n              jump\t// in\n            tag_118:\n              dup1\n              0x1f\n              add\n              0x20\n              dup1\n              swap2\n              div\n              mul\n              0x20\n              add\n              mload(0x40)\n              swap1\n              dup2\n              add\n              0x40\n              mstore\n              dup1\n              swap3\n              swap2\n              swap1\n              dup2\n              dup2\n              mstore\n              0x20\n              add\n              dup3\n              dup1\n              sload\n              tag_119\n              swap1\n              tag_79\n              jump\t// in\n            tag_119:\n              dup1\n              iszero\n              tag_120\n              jumpi\n              dup1\n              0x1f\n              lt\n              tag_121\n              jumpi\n              0x0100\n              dup1\n              dup4\n              sload\n              div\n              mul\n              dup4\n              mstore\n              swap2\n              0x20\n              add\n              swap2\n              jump(tag_120)\n            tag_121:\n              dup3\n              add\n              swap2\n              swap1\n              0x00\n              mstore\n              keccak256(0x00, 0x20)\n              swap1\n            tag_122:\n              dup2\n              sload\n              dup2\n              mstore\n              swap1\n              0x01\n              add\n              swap1\n              0x20\n              add\n              dup1\n              dup4\n              gt\n              tag_122\n              jumpi\n              dup3\n              swap1\n              sub\n              0x1f\n              and\n              dup3\n              add\n              swap2\n            tag_120:\n              pop\n              pop\n              pop\n              pop\n              pop\n              dup2\n              jump\t// out\n                /* \"Donee.sol\":1337:1800  function myHistory() public view returns (uint256[] memory values, uint256[] memory dates) {... */\n            tag_75:\n                /* \"Donee.sol\":1379:1402  uint256[] memory values */\n              0x60\n                /* \"Donee.sol\":1404:1426  uint256[] memory dates */\n              dup1\n                /* \"Donee.sol\":1439:1452  uint256 count */\n              0x00\n                /* \"Donee.sol\":1455:1470  donationCount() */\n              tag_124\n                /* \"Donee.sol\":1455:1468  donationCount */\n              tag_36\n                /* \"Donee.sol\":1455:1470  donationCount() */\n              jump\t// in\n            tag_124:\n                /* \"Donee.sol\":1439:1470  uint256 count = donationCount() */\n              swap1\n              pop\n                /* \"Donee.sol\":1504:1509  count */\n              dup1\n                /* \"Donee.sol\":1490:1510  new uint256[](count) */\n              0xffffffffffffffff\n              dup2\n              gt\n              iszero\n              tag_125\n              jumpi\n              tag_126\n              tag_127\n              jump\t// in\n            tag_126:\n            tag_125:\n              mload(0x40)\n              swap1\n              dup1\n              dup3\n              mstore\n              dup1\n              0x20\n              mul\n              0x20\n              add\n              dup3\n              add\n              0x40\n              mstore\n              dup1\n              iszero\n              tag_128\n              jumpi\n              dup2\n              0x20\n              add\n              0x20\n              dup3\n              mul\n              dup1\n              calldatasize\n              dup4\n              calldatacopy\n              dup1\n              dup3\n              add\n              swap2\n              pop\n              pop\n              swap1\n              pop\n            tag_128:\n              pop\n                /* \"Donee.sol\":1481:1510  values = new uint256[](count) */\n              swap3\n              pop\n                /* \"Donee.sol\":1543:1548  count */\n              dup1\n                /* \"Donee.sol\":1529:1549  new uint256[](count) */\n              0xffffffffffffffff\n              dup2\n              gt\n              iszero\n              tag_129\n              jumpi\n              tag_130\n              tag_127\n              jump\t// in\n            tag_130:\n            tag_129:\n              mload(0x40)\n              swap1\n              dup1\n              dup3\n              mstore\n              dup1\n              0x20\n              mul\n              0x20\n              add\n              dup3\n              add\n              0x40\n              mstore\n              dup1\n              iszero\n              tag_131\n              jumpi\n              dup2\n              0x20\n              add\n              0x20\n              dup3\n              mul\n              dup1\n              calldatasize\n              dup4\n              calldatacopy\n              dup1\n              dup3\n              add\n              swap2\n              pop\n              pop\n              swap1\n              pop\n            tag_131:\n              pop\n                /* \"Donee.sol\":1521:1549  dates = new uint256[](count) */\n              swap2\n              pop\n                /* \"Donee.sol\":1567:1576  uint256 i */\n              0x00\n                /* \"Donee.sol\":1562:1758  for (uint256 i = 0; i < count; i++) {... */\n            tag_132:\n                /* \"Donee.sol\":1586:1591  count */\n              dup2\n                /* \"Donee.sol\":1582:1583  i */\n              dup2\n                /* \"Donee.sol\":1582:1591  i < count */\n              lt\n                /* \"Donee.sol\":1562:1758  for (uint256 i = 0; i < count; i++) {... */\n              iszero\n              tag_133\n              jumpi\n                /* \"Donee.sol\":1613:1638  Donation storage donation */\n              0x00\n                /* \"Donee.sol\":1641:1651  _donations */\n              0x01\n                /* \"Donee.sol\":1641:1663  _donations[msg.sender] */\n              0x00\n                /* \"Donee.sol\":1652:1662  msg.sender */\n              caller\n                /* \"Donee.sol\":1641:1663  _donations[msg.sender] */\n              0xffffffffffffffffffffffffffffffffffffffff\n              and\n              0xffffffffffffffffffffffffffffffffffffffff\n              and\n              dup2\n              mstore\n              0x20\n              add\n              swap1\n              dup2\n              mstore\n              0x20\n              add\n              0x00\n              keccak256\n                /* \"Donee.sol\":1664:1665  i */\n              dup3\n                /* \"Donee.sol\":1641:1666  _donations[msg.sender][i] */\n              dup2\n              sload\n              dup2\n              lt\n              tag_135\n              jumpi\n              tag_136\n              tag_137\n              jump\t// in\n            tag_136:\n            tag_135:\n              swap1\n              0x00\n              mstore\n              keccak256(0x00, 0x20)\n              swap1\n              0x02\n              mul\n              add\n                /* \"Donee.sol\":1613:1666  Donation storage donation = _donations[msg.sender][i] */\n              swap1\n              pop\n                /* \"Donee.sol\":1693:1701  donation */\n              dup1\n                /* \"Donee.sol\":1693:1707  donation.value */\n              0x00\n              add\n              sload\n                /* \"Donee.sol\":1681:1687  values */\n              dup6\n                /* \"Donee.sol\":1688:1689  i */\n              dup4\n                /* \"Donee.sol\":1681:1690  values[i] */\n              dup2\n              mload\n              dup2\n              lt\n              tag_139\n              jumpi\n              tag_140\n              tag_137\n              jump\t// in\n            tag_140:\n            tag_139:\n              0x20\n              mul\n              0x20\n              add\n              add\n                /* \"Donee.sol\":1681:1707  values[i] = donation.value */\n              dup2\n              dup2\n              mstore\n              pop\n              pop\n                /* \"Donee.sol\":1733:1741  donation */\n              dup1\n                /* \"Donee.sol\":1733:1746  donation.date */\n              0x01\n              add\n              sload\n                /* \"Donee.sol\":1722:1727  dates */\n              dup5\n                /* \"Donee.sol\":1728:1729  i */\n              dup4\n                /* \"Donee.sol\":1722:1730  dates[i] */\n              dup2\n              mload\n              dup2\n              lt\n              tag_141\n              jumpi\n              tag_142\n              tag_137\n              jump\t// in\n            tag_142:\n            tag_141:\n              0x20\n              mul\n              0x20\n              add\n              add\n                /* \"Donee.sol\":1722:1746  dates[i] = donation.date */\n              dup2\n              dup2\n              mstore\n              pop\n              pop\n                /* \"Donee.sol\":1598:1758  {... */\n              pop\n                /* \"Donee.sol\":1593:1596  i++ */\n              dup1\n              dup1\n              0x01\n              add\n              swap2\n              pop\n              pop\n                /* \"Donee.sol\":1562:1758  for (uint256 i = 0; i < count; i++) {... */\n              jump(tag_132)\n            tag_133:\n              pop\n                /* \"Donee.sol\":1770:1792  return (values, dates) */\n              pop\n                /* \"Donee.sol\":1337:1800  function myHistory() public view returns (uint256[] memory values, uint256[] memory dates) {... */\n              swap1\n              swap2\n              jump\t// out\n                /* \"@openzeppelin/contracts/access/Ownable.sol\":1796:1958  function _checkOwner() internal view virtual {... */\n            tag_86:\n                /* \"@openzeppelin/contracts/access/Ownable.sol\":1866:1878  _msgSender() */\n              tag_144\n                /* \"@openzeppelin/contracts/access/Ownable.sol\":1866:1876  _msgSender */\n              tag_145\n                /* \"@openzeppelin/contracts/access/Ownable.sol\":1866:1878  _msgSender() */\n              jump\t// in\n            tag_144:\n                /* \"@openzeppelin/contracts/access/Ownable.sol\":1855:1878  owner() != _msgSender() */\n              0xffffffffffffffffffffffffffffffffffffffff\n              and\n                /* \"@openzeppelin/contracts/access/Ownable.sol\":1855:1862  owner() */\n              tag_146\n                /* \"@openzeppelin/contracts/access/Ownable.sol\":1855:1860  owner */\n              tag_55\n                /* \"@openzeppelin/contracts/access/Ownable.sol\":1855:1862  owner() */\n              jump\t// in\n            tag_146:\n                /* \"@openzeppelin/contracts/access/Ownable.sol\":1855:1878  owner() != _msgSender() */\n              0xffffffffffffffffffffffffffffffffffffffff\n              and\n              eq\n                /* \"@openzeppelin/contracts/access/Ownable.sol\":1851:1952  if (owner() != _msgSender()) {... */\n              tag_147\n              jumpi\n                /* \"@openzeppelin/contracts/access/Ownable.sol\":1928:1940  _msgSender() */\n              tag_148\n                /* \"@openzeppelin/contracts/access/Ownable.sol\":1928:1938  _msgSender */\n              tag_145\n                /* \"@openzeppelin/contracts/access/Ownable.sol\":1928:1940  _msgSender() */\n              jump\t// in\n            tag_148:\n                /* \"@openzeppelin/contracts/access/Ownable.sol\":1901:1941  OwnableUnauthorizedAccount(_msgSender()) */\n              mload(0x40)\n              0x118cdaa700000000000000000000000000000000000000000000000000000000\n              dup2\n              mstore\n              0x04\n              add\n              tag_149\n              swap2\n              swap1\n              tag_57\n              jump\t// in\n            tag_149:\n              mload(0x40)\n              dup1\n              swap2\n              sub\n              swap1\n              revert\n                /* \"@openzeppelin/contracts/access/Ownable.sol\":1851:1952  if (owner() != _msgSender()) {... */\n            tag_147:\n                /* \"@openzeppelin/contracts/access/Ownable.sol\":1796:1958  function _checkOwner() internal view virtual {... */\n              jump\t// out\n                /* \"@openzeppelin/contracts/access/Ownable.sol\":2912:3099  function _transferOwnership(address newOwner) internal virtual {... */\n            tag_99:\n                /* \"@openzeppelin/contracts/access/Ownable.sol\":2985:3001  address oldOwner */\n              0x00\n                /* \"@openzeppelin/contracts/access/Ownable.sol\":3004:3010  _owner */\n              dup1\n              0x00\n              swap1\n              sload\n              swap1\n              0x0100\n              exp\n              swap1\n              div\n              0xffffffffffffffffffffffffffffffffffffffff\n              and\n                /* \"@openzeppelin/contracts/access/Ownable.sol\":2985:3010  address oldOwner = _owner */\n              swap1\n              pop\n                /* \"@openzeppelin/contracts/access/Ownable.sol\":3029:3037  newOwner */\n              dup2\n                /* \"@openzeppelin/contracts/access/Ownable.sol\":3020:3026  _owner */\n              0x00\n              dup1\n                /* \"@openzeppelin/contracts/access/Ownable.sol\":3020:3037  _owner = newOwner */\n              0x0100\n              exp\n              dup2\n              sload\n              dup2\n              0xffffffffffffffffffffffffffffffffffffffff\n              mul\n              not\n              and\n              swap1\n              dup4\n              0xffffffffffffffffffffffffffffffffffffffff\n              and\n              mul\n              or\n              swap1\n              sstore\n              pop\n                /* \"@openzeppelin/contracts/access/Ownable.sol\":3083:3091  newOwner */\n              dup2\n                /* \"@openzeppelin/contracts/access/Ownable.sol\":3052:3092  OwnershipTransferred(oldOwner, newOwner) */\n              0xffffffffffffffffffffffffffffffffffffffff\n              and\n                /* \"@openzeppelin/contracts/access/Ownable.sol\":3073:3081  oldOwner */\n              dup2\n                /* \"@openzeppelin/contracts/access/Ownable.sol\":3052:3092  OwnershipTransferred(oldOwner, newOwner) */\n              0xffffffffffffffffffffffffffffffffffffffff\n              and\n              0x8be0079c531659141344cd1fd0a4f28419497f9722a3daafe3b4186f6b6457e0\n              mload(0x40)\n              mload(0x40)\n              dup1\n              swap2\n              sub\n              swap1\n              log3\n                /* \"@openzeppelin/contracts/access/Ownable.sol\":2975:3099  {... */\n              pop\n                /* \"@openzeppelin/contracts/access/Ownable.sol\":2912:3099  function _transferOwnership(address newOwner) internal virtual {... */\n              pop\n              jump\t// out\n                /* \"@openzeppelin/contracts/utils/Context.sol\":656:752  function _msgSender() internal view virtual returns (address) {... */\n            tag_145:\n                /* \"@openzeppelin/contracts/utils/Context.sol\":709:716  address */\n              0x00\n                /* \"@openzeppelin/contracts/utils/Context.sol\":735:745  msg.sender */\n              caller\n                /* \"@openzeppelin/contracts/utils/Context.sol\":728:745  return msg.sender */\n              swap1\n              pop\n                /* \"@openzeppelin/contracts/utils/Context.sol\":656:752  function _msgSender() internal view virtual returns (address) {... */\n              swap1\n              jump\t// out\n                /* \"#utility.yul\":7:106   */\n            tag_152:\n                /* \"#utility.yul\":59:65   */\n              0x00\n                /* \"#utility.yul\":93:98   */\n              dup2\n                /* \"#utility.yul\":87:99   */\n              mload\n                /* \"#utility.yul\":77:99   */\n              swap1\n              pop\n                /* \"#utility.yul\":7:106   */\n              swap2\n              swap1\n              pop\n              jump\t// out\n                /* \"#utility.yul\":112:281   */\n            tag_153:\n                /* \"#utility.yul\":196:207   */\n              0x00\n                /* \"#utility.yul\":230:236   */\n              dup3\n                /* \"#utility.yul\":225:228   */\n              dup3\n                /* \"#utility.yul\":218:237   */\n              mstore\n                /* \"#utility.yul\":270:274   */\n              0x20\n                /* \"#utility.yul\":265:268   */\n              dup3\n                /* \"#utility.yul\":261:275   */\n              add\n                /* \"#utility.yul\":246:275   */\n              swap1\n              pop\n                /* \"#utility.yul\":112:281   */\n              swap3\n              swap2\n              pop\n              pop\n              jump\t// out\n                /* \"#utility.yul\":287:533   */\n            tag_154:\n                /* \"#utility.yul\":368:369   */\n              0x00\n                /* \"#utility.yul\":378:491   */\n            tag_184:\n                /* \"#utility.yul\":392:398   */\n              dup4\n                /* \"#utility.yul\":389:390   */\n              dup2\n                /* \"#utility.yul\":386:399   */\n              lt\n                /* \"#utility.yul\":378:491   */\n              iszero\n              tag_186\n              jumpi\n                /* \"#utility.yul\":477:478   */\n              dup1\n                /* \"#utility.yul\":472:475   */\n              dup3\n                /* \"#utility.yul\":468:479   */\n              add\n                /* \"#utility.yul\":462:480   */\n              mload\n                /* \"#utility.yul\":458:459   */\n              dup2\n                /* \"#utility.yul\":453:456   */\n              dup5\n                /* \"#utility.yul\":449:460   */\n              add\n                /* \"#utility.yul\":442:481   */\n              mstore\n                /* \"#utility.yul\":414:416   */\n              0x20\n                /* \"#utility.yul\":411:412   */\n              dup2\n                /* \"#utility.yul\":407:417   */\n              add\n                /* \"#utility.yul\":402:417   */\n              swap1\n              pop\n                /* \"#utility.yul\":378:491   */\n              jump(tag_184)\n            tag_186:\n                /* \"#utility.yul\":525:526   */\n              0x00\n                /* \"#utility.yul\":516:522   */\n              dup5\n                /* \"#utility.yul\":511:514   */\n              dup5\n                /* \"#utility.yul\":507:523   */\n              add\n                /* \"#utility.yul\":500:527   */\n              mstore\n                /* \"#utility.yul\":349:533   */\n              pop\n                /* \"#utility.yul\":287:533   */\n              pop\n              pop\n              pop\n              jump\t// out\n                /* \"#utility.yul\":539:641   */\n            tag_155:\n                /* \"#utility.yul\":580:586   */\n              0x00\n                /* \"#utility.yul\":631:633   */\n              0x1f\n                /* \"#utility.yul\":627:634   */\n              not\n                /* \"#utility.yul\":622:624   */\n              0x1f\n                /* \"#utility.yul\":615:620   */\n              dup4\n                /* \"#utility.yul\":611:625   */\n              add\n                /* \"#utility.yul\":607:635   */\n              and\n                /* \"#utility.yul\":597:635   */\n              swap1\n              pop\n                /* \"#utility.yul\":539:641   */\n              swap2\n              swap1\n              pop\n              jump\t// out\n                /* \"#utility.yul\":647:1024   */\n            tag_156:\n                /* \"#utility.yul\":735:738   */\n              0x00\n                /* \"#utility.yul\":763:802   */\n              tag_189\n                /* \"#utility.yul\":796:801   */\n              dup3\n                /* \"#utility.yul\":763:802   */\n              tag_152\n              jump\t// in\n            tag_189:\n                /* \"#utility.yul\":818:889   */\n              tag_190\n                /* \"#utility.yul\":882:888   */\n              dup2\n                /* \"#utility.yul\":877:880   */\n              dup6\n                /* \"#utility.yul\":818:889   */\n              tag_153\n              jump\t// in\n            tag_190:\n                /* \"#utility.yul\":811:889   */\n              swap4\n              pop\n                /* \"#utility.yul\":898:963   */\n              tag_191\n                /* \"#utility.yul\":956:962   */\n              dup2\n                /* \"#utility.yul\":951:954   */\n              dup6\n                /* \"#utility.yul\":944:948   */\n              0x20\n                /* \"#utility.yul\":937:942   */\n              dup7\n                /* \"#utility.yul\":933:949   */\n              add\n                /* \"#utility.yul\":898:963   */\n              tag_154\n              jump\t// in\n            tag_191:\n                /* \"#utility.yul\":988:1017   */\n              tag_192\n                /* \"#utility.yul\":1010:1016   */\n              dup2\n                /* \"#utility.yul\":988:1017   */\n              tag_155\n              jump\t// in\n            tag_192:\n                /* \"#utility.yul\":983:986   */\n              dup5\n                /* \"#utility.yul\":979:1018   */\n              add\n                /* \"#utility.yul\":972:1018   */\n              swap2\n              pop\n                /* \"#utility.yul\":739:1024   */\n              pop\n                /* \"#utility.yul\":647:1024   */\n              swap3\n              swap2\n              pop\n              pop\n              jump\t// out\n                /* \"#utility.yul\":1030:1343   */\n            tag_23:\n                /* \"#utility.yul\":1143:1147   */\n              0x00\n                /* \"#utility.yul\":1181:1183   */\n              0x20\n                /* \"#utility.yul\":1170:1179   */\n              dup3\n                /* \"#utility.yul\":1166:1184   */\n              add\n                /* \"#utility.yul\":1158:1184   */\n              swap1\n              pop\n                /* \"#utility.yul\":1230:1239   */\n              dup2\n                /* \"#utility.yul\":1224:1228   */\n              dup2\n                /* \"#utility.yul\":1220:1240   */\n              sub\n                /* \"#utility.yul\":1216:1217   */\n              0x00\n                /* \"#utility.yul\":1205:1214   */\n              dup4\n                /* \"#utility.yul\":1201:1218   */\n              add\n                /* \"#utility.yul\":1194:1241   */\n              mstore\n                /* \"#utility.yul\":1258:1336   */\n              tag_194\n                /* \"#utility.yul\":1331:1335   */\n              dup2\n                /* \"#utility.yul\":1322:1328   */\n              dup5\n                /* \"#utility.yul\":1258:1336   */\n              tag_156\n              jump\t// in\n            tag_194:\n                /* \"#utility.yul\":1250:1336   */\n              swap1\n              pop\n                /* \"#utility.yul\":1030:1343   */\n              swap3\n              swap2\n              pop\n              pop\n              jump\t// out\n                /* \"#utility.yul\":1349:1426   */\n            tag_157:\n                /* \"#utility.yul\":1386:1393   */\n              0x00\n                /* \"#utility.yul\":1415:1420   */\n              dup2\n                /* \"#utility.yul\":1404:1420   */\n              swap1\n              pop\n                /* \"#utility.yul\":1349:1426   */\n              swap2\n              swap1\n              pop\n              jump\t// out\n                /* \"#utility.yul\":1432:1550   */\n            tag_158:\n                /* \"#utility.yul\":1519:1543   */\n              tag_197\n                /* \"#utility.yul\":1537:1542   */\n              dup2\n                /* \"#utility.yul\":1519:1543   */\n              tag_157\n              jump\t// in\n            tag_197:\n                /* \"#utility.yul\":1514:1517   */\n              dup3\n                /* \"#utility.yul\":1507:1544   */\n              mstore\n                /* \"#utility.yul\":1432:1550   */\n              pop\n              pop\n              jump\t// out\n                /* \"#utility.yul\":1556:1778   */\n            tag_28:\n                /* \"#utility.yul\":1649:1653   */\n              0x00\n                /* \"#utility.yul\":1687:1689   */\n              0x20\n                /* \"#utility.yul\":1676:1685   */\n              dup3\n                /* \"#utility.yul\":1672:1690   */\n              add\n                /* \"#utility.yul\":1664:1690   */\n              swap1\n              pop\n                /* \"#utility.yul\":1700:1771   */\n              tag_199\n                /* \"#utility.yul\":1768:1769   */\n              0x00\n                /* \"#utility.yul\":1757:1766   */\n              dup4\n                /* \"#utility.yul\":1753:1770   */\n              add\n                /* \"#utility.yul\":1744:1750   */\n              dup5\n                /* \"#utility.yul\":1700:1771   */\n              tag_158\n              jump\t// in\n            tag_199:\n                /* \"#utility.yul\":1556:1778   */\n              swap3\n              swap2\n              pop\n              pop\n              jump\t// out\n                /* \"#utility.yul\":1865:1982   */\n            tag_160:\n                /* \"#utility.yul\":1974:1975   */\n              0x00\n                /* \"#utility.yul\":1971:1972   */\n              dup1\n                /* \"#utility.yul\":1964:1976   */\n              revert\n                /* \"#utility.yul\":2111:2237   */\n            tag_162:\n                /* \"#utility.yul\":2148:2155   */\n              0x00\n                /* \"#utility.yul\":2188:2230   */\n              0xffffffffffffffffffffffffffffffffffffffff\n                /* \"#utility.yul\":2181:2186   */\n              dup3\n                /* \"#utility.yul\":2177:2231   */\n              and\n                /* \"#utility.yul\":2166:2231   */\n              swap1\n              pop\n                /* \"#utility.yul\":2111:2237   */\n              swap2\n              swap1\n              pop\n              jump\t// out\n                /* \"#utility.yul\":2243:2347   */\n            tag_163:\n                /* \"#utility.yul\":2288:2295   */\n              0x00\n                /* \"#utility.yul\":2317:2341   */\n              tag_205\n                /* \"#utility.yul\":2335:2340   */\n              dup3\n                /* \"#utility.yul\":2317:2341   */\n              tag_162\n              jump\t// in\n            tag_205:\n                /* \"#utility.yul\":2306:2341   */\n              swap1\n              pop\n                /* \"#utility.yul\":2243:2347   */\n              swap2\n              swap1\n              pop\n              jump\t// out\n                /* \"#utility.yul\":2353:2491   */\n            tag_164:\n                /* \"#utility.yul\":2434:2466   */\n              tag_207\n                /* \"#utility.yul\":2460:2465   */\n              dup2\n                /* \"#utility.yul\":2434:2466   */\n              tag_163\n              jump\t// in\n            tag_207:\n                /* \"#utility.yul\":2427:2432   */\n              dup2\n                /* \"#utility.yul\":2424:2467   */\n              eq\n                /* \"#utility.yul\":2414:2485   */\n              tag_208\n              jumpi\n                /* \"#utility.yul\":2481:2482   */\n              0x00\n                /* \"#utility.yul\":2478:2479   */\n              dup1\n                /* \"#utility.yul\":2471:2483   */\n              revert\n                /* \"#utility.yul\":2414:2485   */\n            tag_208:\n                /* \"#utility.yul\":2353:2491   */\n              pop\n              jump\t// out\n                /* \"#utility.yul\":2497:2652   */\n            tag_165:\n                /* \"#utility.yul\":2551:2556   */\n              0x00\n                /* \"#utility.yul\":2589:2595   */\n              dup2\n                /* \"#utility.yul\":2576:2596   */\n              calldataload\n                /* \"#utility.yul\":2567:2596   */\n              swap1\n              pop\n                /* \"#utility.yul\":2605:2646   */\n              tag_210\n                /* \"#utility.yul\":2640:2645   */\n              dup2\n                /* \"#utility.yul\":2605:2646   */\n              tag_164\n              jump\t// in\n            tag_210:\n                /* \"#utility.yul\":2497:2652   */\n              swap3\n              swap2\n              pop\n              pop\n              jump\t// out\n                /* \"#utility.yul\":2658:3003   */\n            tag_32:\n                /* \"#utility.yul\":2725:2731   */\n              0x00\n                /* \"#utility.yul\":2774:2776   */\n              0x20\n                /* \"#utility.yul\":2762:2771   */\n              dup3\n                /* \"#utility.yul\":2753:2760   */\n              dup5\n                /* \"#utility.yul\":2749:2772   */\n              sub\n                /* \"#utility.yul\":2745:2777   */\n              slt\n                /* \"#utility.yul\":2742:2861   */\n              iszero\n              tag_212\n              jumpi\n                /* \"#utility.yul\":2780:2859   */\n              tag_213\n              tag_160\n              jump\t// in\n            tag_213:\n                /* \"#utility.yul\":2742:2861   */\n            tag_212:\n                /* \"#utility.yul\":2900:2901   */\n              0x00\n                /* \"#utility.yul\":2925:2986   */\n              tag_214\n                /* \"#utility.yul\":2978:2985   */\n              dup5\n                /* \"#utility.yul\":2969:2975   */\n              dup3\n                /* \"#utility.yul\":2958:2967   */\n              dup6\n                /* \"#utility.yul\":2954:2976   */\n              add\n                /* \"#utility.yul\":2925:2986   */\n              tag_165\n              jump\t// in\n            tag_214:\n                /* \"#utility.yul\":2915:2986   */\n              swap2\n              pop\n                /* \"#utility.yul\":2871:2996   */\n              pop\n                /* \"#utility.yul\":2658:3003   */\n              swap3\n              swap2\n              pop\n              pop\n              jump\t// out\n                /* \"#utility.yul\":3009:3151   */\n            tag_166:\n                /* \"#utility.yul\":3112:3144   */\n              tag_216\n                /* \"#utility.yul\":3138:3143   */\n              dup2\n                /* \"#utility.yul\":3112:3144   */\n              tag_163\n              jump\t// in\n            tag_216:\n                /* \"#utility.yul\":3107:3110   */\n              dup3\n                /* \"#utility.yul\":3100:3145   */\n              mstore\n                /* \"#utility.yul\":3009:3151   */\n              pop\n              pop\n              jump\t// out\n                /* \"#utility.yul\":3157:3411   */\n            tag_45:\n                /* \"#utility.yul\":3266:3270   */\n              0x00\n                /* \"#utility.yul\":3304:3306   */\n              0x20\n                /* \"#utility.yul\":3293:3302   */\n              dup3\n                /* \"#utility.yul\":3289:3307   */\n              add\n                /* \"#utility.yul\":3281:3307   */\n              swap1\n              pop\n                /* \"#utility.yul\":3317:3404   */\n              tag_218\n                /* \"#utility.yul\":3401:3402   */\n              0x00\n                /* \"#utility.yul\":3390:3399   */\n              dup4\n                /* \"#utility.yul\":3386:3403   */\n              add\n                /* \"#utility.yul\":3377:3383   */\n              dup5\n                /* \"#utility.yul\":3317:3404   */\n              tag_166\n              jump\t// in\n            tag_218:\n                /* \"#utility.yul\":3157:3411   */\n              swap3\n              swap2\n              pop\n              pop\n              jump\t// out\n                /* \"#utility.yul\":3417:3513   */\n            tag_167:\n                /* \"#utility.yul\":3454:3461   */\n              0x00\n                /* \"#utility.yul\":3483:3507   */\n              tag_220\n                /* \"#utility.yul\":3501:3506   */\n              dup3\n                /* \"#utility.yul\":3483:3507   */\n              tag_162\n              jump\t// in\n            tag_220:\n                /* \"#utility.yul\":3472:3507   */\n              swap1\n              pop\n                /* \"#utility.yul\":3417:3513   */\n              swap2\n              swap1\n              pop\n              jump\t// out\n                /* \"#utility.yul\":3519:3637   */\n            tag_168:\n                /* \"#utility.yul\":3606:3630   */\n              tag_222\n                /* \"#utility.yul\":3624:3629   */\n              dup2\n                /* \"#utility.yul\":3606:3630   */\n              tag_167\n              jump\t// in\n            tag_222:\n                /* \"#utility.yul\":3601:3604   */\n              dup3\n                /* \"#utility.yul\":3594:3631   */\n              mstore\n                /* \"#utility.yul\":3519:3637   */\n              pop\n              pop\n              jump\t// out\n                /* \"#utility.yul\":3643:3865   */\n            tag_57:\n                /* \"#utility.yul\":3736:3740   */\n              0x00\n                /* \"#utility.yul\":3774:3776   */\n              0x20\n                /* \"#utility.yul\":3763:3772   */\n              dup3\n                /* \"#utility.yul\":3759:3777   */\n              add\n                /* \"#utility.yul\":3751:3777   */\n              swap1\n              pop\n                /* \"#utility.yul\":3787:3858   */\n              tag_224\n                /* \"#utility.yul\":3855:3856   */\n              0x00\n                /* \"#utility.yul\":3844:3853   */\n              dup4\n                /* \"#utility.yul\":3840:3857   */\n              add\n                /* \"#utility.yul\":3831:3837   */\n              dup5\n                /* \"#utility.yul\":3787:3858   */\n              tag_168\n              jump\t// in\n            tag_224:\n                /* \"#utility.yul\":3643:3865   */\n              swap3\n              swap2\n              pop\n              pop\n              jump\t// out\n                /* \"#utility.yul\":3871:3993   */\n            tag_169:\n                /* \"#utility.yul\":3944:3968   */\n              tag_226\n                /* \"#utility.yul\":3962:3967   */\n              dup2\n                /* \"#utility.yul\":3944:3968   */\n              tag_167\n              jump\t// in\n            tag_226:\n                /* \"#utility.yul\":3937:3942   */\n              dup2\n                /* \"#utility.yul\":3934:3969   */\n              eq\n                /* \"#utility.yul\":3924:3987   */\n              tag_227\n              jumpi\n                /* \"#utility.yul\":3983:3984   */\n              0x00\n                /* \"#utility.yul\":3980:3981   */\n              dup1\n                /* \"#utility.yul\":3973:3985   */\n              revert\n                /* \"#utility.yul\":3924:3987   */\n            tag_227:\n                /* \"#utility.yul\":3871:3993   */\n              pop\n              jump\t// out\n                /* \"#utility.yul\":3999:4138   */\n            tag_170:\n                /* \"#utility.yul\":4045:4050   */\n              0x00\n                /* \"#utility.yul\":4083:4089   */\n              dup2\n                /* \"#utility.yul\":4070:4090   */\n              calldataload\n                /* \"#utility.yul\":4061:4090   */\n              swap1\n              pop\n                /* \"#utility.yul\":4099:4132   */\n              tag_229\n                /* \"#utility.yul\":4126:4131   */\n              dup2\n                /* \"#utility.yul\":4099:4132   */\n              tag_169\n              jump\t// in\n            tag_229:\n                /* \"#utility.yul\":3999:4138   */\n              swap3\n              swap2\n              pop\n              pop\n              jump\t// out\n                /* \"#utility.yul\":4144:4473   */\n            tag_67:\n                /* \"#utility.yul\":4203:4209   */\n              0x00\n                /* \"#utility.yul\":4252:4254   */\n              0x20\n                /* \"#utility.yul\":4240:4249   */\n              dup3\n                /* \"#utility.yul\":4231:4238   */\n              dup5\n                /* \"#utility.yul\":4227:4250   */\n              sub\n                /* \"#utility.yul\":4223:4255   */\n              slt\n                /* \"#utility.yul\":4220:4339   */\n              iszero\n              tag_231\n              jumpi\n                /* \"#utility.yul\":4258:4337   */\n              tag_232\n              tag_160\n              jump\t// in\n            tag_232:\n                /* \"#utility.yul\":4220:4339   */\n            tag_231:\n                /* \"#utility.yul\":4378:4379   */\n              0x00\n                /* \"#utility.yul\":4403:4456   */\n              tag_233\n                /* \"#utility.yul\":4448:4455   */\n              dup5\n                /* \"#utility.yul\":4439:4445   */\n              dup3\n                /* \"#utility.yul\":4428:4437   */\n              dup6\n                /* \"#utility.yul\":4424:4446   */\n              add\n                /* \"#utility.yul\":4403:4456   */\n              tag_170\n              jump\t// in\n            tag_233:\n                /* \"#utility.yul\":4393:4456   */\n              swap2\n              pop\n                /* \"#utility.yul\":4349:4466   */\n              pop\n                /* \"#utility.yul\":4144:4473   */\n              swap3\n              swap2\n              pop\n              pop\n              jump\t// out\n                /* \"#utility.yul\":4479:4593   */\n            tag_171:\n                /* \"#utility.yul\":4546:4552   */\n              0x00\n                /* \"#utility.yul\":4580:4585   */\n              dup2\n                /* \"#utility.yul\":4574:4586   */\n              mload\n                /* \"#utility.yul\":4564:4586   */\n              swap1\n              pop\n                /* \"#utility.yul\":4479:4593   */\n              swap2\n              swap1\n              pop\n              jump\t// out\n                /* \"#utility.yul\":4599:4783   */\n            tag_172:\n                /* \"#utility.yul\":4698:4709   */\n              0x00\n                /* \"#utility.yul\":4732:4738   */\n              dup3\n                /* \"#utility.yul\":4727:4730   */\n              dup3\n                /* \"#utility.yul\":4720:4739   */\n              mstore\n                /* \"#utility.yul\":4772:4776   */\n              0x20\n                /* \"#utility.yul\":4767:4770   */\n              dup3\n                /* \"#utility.yul\":4763:4777   */\n              add\n                /* \"#utility.yul\":4748:4777   */\n              swap1\n              pop\n                /* \"#utility.yul\":4599:4783   */\n              swap3\n              swap2\n              pop\n              pop\n              jump\t// out\n                /* \"#utility.yul\":4789:4921   */\n            tag_173:\n                /* \"#utility.yul\":4856:4860   */\n              0x00\n                /* \"#utility.yul\":4879:4882   */\n              dup2\n                /* \"#utility.yul\":4871:4882   */\n              swap1\n              pop\n                /* \"#utility.yul\":4909:4913   */\n              0x20\n                /* \"#utility.yul\":4904:4907   */\n              dup3\n                /* \"#utility.yul\":4900:4914   */\n              add\n                /* \"#utility.yul\":4892:4914   */\n              swap1\n              pop\n                /* \"#utility.yul\":4789:4921   */\n              swap2\n              swap1\n              pop\n              jump\t// out\n                /* \"#utility.yul\":4927:5035   */\n            tag_174:\n                /* \"#utility.yul\":5004:5028   */\n              tag_238\n                /* \"#utility.yul\":5022:5027   */\n              dup2\n                /* \"#utility.yul\":5004:5028   */\n              tag_157\n              jump\t// in\n            tag_238:\n                /* \"#utility.yul\":4999:5002   */\n              dup3\n                /* \"#utility.yul\":4992:5029   */\n              mstore\n                /* \"#utility.yul\":4927:5035   */\n              pop\n              pop\n              jump\t// out\n                /* \"#utility.yul\":5041:5220   */\n            tag_175:\n                /* \"#utility.yul\":5110:5120   */\n              0x00\n                /* \"#utility.yul\":5131:5177   */\n              tag_240\n                /* \"#utility.yul\":5173:5176   */\n              dup4\n                /* \"#utility.yul\":5165:5171   */\n              dup4\n                /* \"#utility.yul\":5131:5177   */\n              tag_174\n              jump\t// in\n            tag_240:\n                /* \"#utility.yul\":5209:5213   */\n              0x20\n                /* \"#utility.yul\":5204:5207   */\n              dup4\n                /* \"#utility.yul\":5200:5214   */\n              add\n                /* \"#utility.yul\":5186:5214   */\n              swap1\n              pop\n                /* \"#utility.yul\":5041:5220   */\n              swap3\n              swap2\n              pop\n              pop\n              jump\t// out\n                /* \"#utility.yul\":5226:5339   */\n            tag_176:\n                /* \"#utility.yul\":5296:5300   */\n              0x00\n                /* \"#utility.yul\":5328:5332   */\n              0x20\n                /* \"#utility.yul\":5323:5326   */\n              dup3\n                /* \"#utility.yul\":5319:5333   */\n              add\n                /* \"#utility.yul\":5311:5333   */\n              swap1\n              pop\n                /* \"#utility.yul\":5226:5339   */\n              swap2\n              swap1\n              pop\n              jump\t// out\n                /* \"#utility.yul\":5375:6107   */\n            tag_177:\n                /* \"#utility.yul\":5494:5497   */\n              0x00\n                /* \"#utility.yul\":5523:5577   */\n              tag_243\n                /* \"#utility.yul\":5571:5576   */\n              dup3\n                /* \"#utility.yul\":5523:5577   */\n              tag_171\n              jump\t// in\n            tag_243:\n                /* \"#utility.yul\":5593:5679   */\n              tag_244\n                /* \"#utility.yul\":5672:5678   */\n              dup2\n                /* \"#utility.yul\":5667:5670   */\n              dup6\n                /* \"#utility.yul\":5593:5679   */\n              tag_172\n              jump\t// in\n            tag_244:\n                /* \"#utility.yul\":5586:5679   */\n              swap4\n              pop\n                /* \"#utility.yul\":5703:5759   */\n              tag_245\n                /* \"#utility.yul\":5753:5758   */\n              dup4\n                /* \"#utility.yul\":5703:5759   */\n              tag_173\n              jump\t// in\n            tag_245:\n                /* \"#utility.yul\":5782:5789   */\n              dup1\n                /* \"#utility.yul\":5813:5814   */\n              0x00\n                /* \"#utility.yul\":5798:6082   */\n            tag_246:\n                /* \"#utility.yul\":5823:5829   */\n              dup4\n                /* \"#utility.yul\":5820:5821   */\n              dup2\n                /* \"#utility.yul\":5817:5830   */\n              lt\n                /* \"#utility.yul\":5798:6082   */\n              iszero\n              tag_248\n              jumpi\n                /* \"#utility.yul\":5899:5905   */\n              dup2\n                /* \"#utility.yul\":5893:5906   */\n              mload\n                /* \"#utility.yul\":5926:5989   */\n              tag_249\n                /* \"#utility.yul\":5985:5988   */\n              dup9\n                /* \"#utility.yul\":5970:5983   */\n              dup3\n                /* \"#utility.yul\":5926:5989   */\n              tag_175\n              jump\t// in\n            tag_249:\n                /* \"#utility.yul\":5919:5989   */\n              swap8\n              pop\n                /* \"#utility.yul\":6012:6072   */\n              tag_250\n                /* \"#utility.yul\":6065:6071   */\n              dup4\n                /* \"#utility.yul\":6012:6072   */\n              tag_176\n              jump\t// in\n            tag_250:\n                /* \"#utility.yul\":6002:6072   */\n              swap3\n              pop\n                /* \"#utility.yul\":5858:6082   */\n              pop\n                /* \"#utility.yul\":5845:5846   */\n              0x01\n                /* \"#utility.yul\":5842:5843   */\n              dup2\n                /* \"#utility.yul\":5838:5847   */\n              add\n                /* \"#utility.yul\":5833:5847   */\n              swap1\n              pop\n                /* \"#utility.yul\":5798:6082   */\n              jump(tag_246)\n            tag_248:\n                /* \"#utility.yul\":5802:5816   */\n              pop\n                /* \"#utility.yul\":6098:6101   */\n              dup6\n                /* \"#utility.yul\":6091:6101   */\n              swap4\n              pop\n                /* \"#utility.yul\":5499:6107   */\n              pop\n              pop\n              pop\n                /* \"#utility.yul\":5375:6107   */\n              swap3\n              swap2\n              pop\n              pop\n              jump\t// out\n                /* \"#utility.yul\":6113:6747   */\n            tag_77:\n                /* \"#utility.yul\":6334:6338   */\n              0x00\n                /* \"#utility.yul\":6372:6374   */\n              0x40\n                /* \"#utility.yul\":6361:6370   */\n              dup3\n                /* \"#utility.yul\":6357:6375   */\n              add\n                /* \"#utility.yul\":6349:6375   */\n              swap1\n              pop\n                /* \"#utility.yul\":6421:6430   */\n              dup2\n                /* \"#utility.yul\":6415:6419   */\n              dup2\n                /* \"#utility.yul\":6411:6431   */\n              sub\n                /* \"#utility.yul\":6407:6408   */\n              0x00\n                /* \"#utility.yul\":6396:6405   */\n              dup4\n                /* \"#utility.yul\":6392:6409   */\n              add\n                /* \"#utility.yul\":6385:6432   */\n              mstore\n                /* \"#utility.yul\":6449:6557   */\n              tag_252\n                /* \"#utility.yul\":6552:6556   */\n              dup2\n                /* \"#utility.yul\":6543:6549   */\n              dup6\n                /* \"#utility.yul\":6449:6557   */\n              tag_177\n              jump\t// in\n            tag_252:\n                /* \"#utility.yul\":6441:6557   */\n              swap1\n              pop\n                /* \"#utility.yul\":6604:6613   */\n              dup2\n                /* \"#utility.yul\":6598:6602   */\n              dup2\n                /* \"#utility.yul\":6594:6614   */\n              sub\n                /* \"#utility.yul\":6589:6591   */\n              0x20\n                /* \"#utility.yul\":6578:6587   */\n              dup4\n                /* \"#utility.yul\":6574:6592   */\n              add\n                /* \"#utility.yul\":6567:6615   */\n              mstore\n                /* \"#utility.yul\":6632:6740   */\n              tag_253\n                /* \"#utility.yul\":6735:6739   */\n              dup2\n                /* \"#utility.yul\":6726:6732   */\n              dup5\n                /* \"#utility.yul\":6632:6740   */\n              tag_177\n              jump\t// in\n            tag_253:\n                /* \"#utility.yul\":6624:6740   */\n              swap1\n              pop\n                /* \"#utility.yul\":6113:6747   */\n              swap4\n              swap3\n              pop\n              pop\n              pop\n              jump\t// out\n                /* \"#utility.yul\":6753:6933   */\n            tag_178:\n                /* \"#utility.yul\":6801:6878   */\n              0x4e487b7100000000000000000000000000000000000000000000000000000000\n                /* \"#utility.yul\":6798:6799   */\n              0x00\n                /* \"#utility.yul\":6791:6879   */\n              mstore\n                /* \"#utility.yul\":6898:6902   */\n              0x22\n                /* \"#utility.yul\":6895:6896   */\n              0x04\n                /* \"#utility.yul\":6888:6903   */\n              mstore\n                /* \"#utility.yul\":6922:6926   */\n              0x24\n                /* \"#utility.yul\":6919:6920   */\n              0x00\n                /* \"#utility.yul\":6912:6927   */\n              revert\n                /* \"#utility.yul\":6939:7259   */\n            tag_79:\n                /* \"#utility.yul\":6983:6989   */\n              0x00\n                /* \"#utility.yul\":7020:7021   */\n              0x02\n                /* \"#utility.yul\":7014:7018   */\n              dup3\n                /* \"#utility.yul\":7010:7022   */\n              div\n                /* \"#utility.yul\":7000:7022   */\n              swap1\n              pop\n                /* \"#utility.yul\":7067:7068   */\n              0x01\n                /* \"#utility.yul\":7061:7065   */\n              dup3\n                /* \"#utility.yul\":7057:7069   */\n              and\n                /* \"#utility.yul\":7088:7106   */\n              dup1\n                /* \"#utility.yul\":7078:7159   */\n              tag_256\n              jumpi\n                /* \"#utility.yul\":7144:7148   */\n              0x7f\n                /* \"#utility.yul\":7136:7142   */\n              dup3\n                /* \"#utility.yul\":7132:7149   */\n              and\n                /* \"#utility.yul\":7122:7149   */\n              swap2\n              pop\n                /* \"#utility.yul\":7078:7159   */\n            tag_256:\n                /* \"#utility.yul\":7206:7208   */\n              0x20\n                /* \"#utility.yul\":7198:7204   */\n              dup3\n                /* \"#utility.yul\":7195:7209   */\n              lt\n                /* \"#utility.yul\":7175:7193   */\n              dup2\n                /* \"#utility.yul\":7172:7210   */\n              sub\n                /* \"#utility.yul\":7169:7253   */\n              tag_257\n              jumpi\n                /* \"#utility.yul\":7225:7243   */\n              tag_258\n              tag_178\n              jump\t// in\n            tag_258:\n                /* \"#utility.yul\":7169:7253   */\n            tag_257:\n                /* \"#utility.yul\":6990:7259   */\n              pop\n                /* \"#utility.yul\":6939:7259   */\n              swap2\n              swap1\n              pop\n              jump\t// out\n                /* \"#utility.yul\":7265:7445   */\n            tag_179:\n                /* \"#utility.yul\":7313:7390   */\n              0x4e487b7100000000000000000000000000000000000000000000000000000000\n                /* \"#utility.yul\":7310:7311   */\n              0x00\n                /* \"#utility.yul\":7303:7391   */\n              mstore\n                /* \"#utility.yul\":7410:7414   */\n              0x11\n                /* \"#utility.yul\":7407:7408   */\n              0x04\n                /* \"#utility.yul\":7400:7415   */\n              mstore\n                /* \"#utility.yul\":7434:7438   */\n              0x24\n                /* \"#utility.yul\":7431:7432   */\n              0x00\n                /* \"#utility.yul\":7424:7439   */\n              revert\n                /* \"#utility.yul\":7451:7642   */\n            tag_109:\n                /* \"#utility.yul\":7491:7494   */\n              0x00\n                /* \"#utility.yul\":7510:7530   */\n              tag_261\n                /* \"#utility.yul\":7528:7529   */\n              dup3\n                /* \"#utility.yul\":7510:7530   */\n              tag_157\n              jump\t// in\n            tag_261:\n                /* \"#utility.yul\":7505:7530   */\n              swap2\n              pop\n                /* \"#utility.yul\":7544:7564   */\n              tag_262\n                /* \"#utility.yul\":7562:7563   */\n              dup4\n                /* \"#utility.yul\":7544:7564   */\n              tag_157\n              jump\t// in\n            tag_262:\n                /* \"#utility.yul\":7539:7564   */\n              swap3\n              pop\n                /* \"#utility.yul\":7587:7588   */\n              dup3\n                /* \"#utility.yul\":7584:7585   */\n              dup3\n                /* \"#utility.yul\":7580:7589   */\n              add\n                /* \"#utility.yul\":7573:7589   */\n              swap1\n              pop\n                /* \"#utility.yul\":7608:7611   */\n              dup1\n                /* \"#utility.yul\":7605:7606   */\n              dup3\n                /* \"#utility.yul\":7602:7612   */\n              gt\n                /* \"#utility.yul\":7599:7635   */\n              iszero\n              tag_263\n              jumpi\n                /* \"#utility.yul\":7615:7633   */\n              tag_264\n              tag_179\n              jump\t// in\n            tag_264:\n                /* \"#utility.yul\":7599:7635   */\n            tag_263:\n                /* \"#utility.yul\":7451:7642   */\n              swap3\n              swap2\n              pop\n              pop\n              jump\t// out\n                /* \"#utility.yul\":7648:7828   */\n            tag_127:\n                /* \"#utility.yul\":7696:7773   */\n              0x4e487b7100000000000000000000000000000000000000000000000000000000\n                /* \"#utility.yul\":7693:7694   */\n              0x00\n                /* \"#utility.yul\":7686:7774   */\n              mstore\n                /* \"#utility.yul\":7793:7797   */\n              0x41\n                /* \"#utility.yul\":7790:7791   */\n              0x04\n                /* \"#utility.yul\":7783:7798   */\n              mstore\n                /* \"#utility.yul\":7817:7821   */\n              0x24\n                /* \"#utility.yul\":7814:7815   */\n              0x00\n                /* \"#utility.yul\":7807:7822   */\n              revert\n                /* \"#utility.yul\":7834:8014   */\n            tag_137:\n                /* \"#utility.yul\":7882:7959   */\n              0x4e487b7100000000000000000000000000000000000000000000000000000000\n                /* \"#utility.yul\":7879:7880   */\n              0x00\n                /* \"#utility.yul\":7872:7960   */\n              mstore\n                /* \"#utility.yul\":7979:7983   */\n              0x32\n                /* \"#utility.yul\":7976:7977   */\n              0x04\n                /* \"#utility.yul\":7969:7984   */\n              mstore\n                /* \"#utility.yul\":8003:8007   */\n              0x24\n                /* \"#utility.yul\":8000:8001   */\n              0x00\n                /* \"#utility.yul\":7993:8008   */\n              revert\n\n            auxdata: 0xa264697066735822122082fea2d4e276ac9d279cddabbe36f585e0b79e14b31ca496c5eca0b7860eb79564736f6c63430008160033\n        }\n    }\n\n    auxdata: 0xa2646970667358221220a40d73dc79e40c21478871f50f3cc0408e897d232833ac3af047663e51d6181664736f6c63430008160033\n}\n",
				"bytecode": {
					"linkReferences": {},
					"object": "608060405234801561000f575f80fd5b50611ef48061001d5f395ff3fe608060405234801562000010575f80fd5b506004361062000044575f3560e01c8063aeda46a61462000048578063c41b72c8146200006a578063f833baf4146200008a575b5f80fd5b62000052620000ac565b6040516200006191906200038e565b60405180910390f35b6200008860048036038101906200008291906200055b565b62000138565b005b6200009462000239565b604051620000a3919062000641565b60405180910390f35b60605f8054806020026020016040519081016040528092919081815260200182805480156200012e57602002820191905f5260205f20905b815f9054906101000a900473ffffffffffffffffffffffffffffffffffffffff1673ffffffffffffffffffffffffffffffffffffffff1681526020019060010190808311620000e4575b5050505050905090565b5f84848484336040516200014c9062000244565b6200015c95949392919062000715565b604051809103905ff08015801562000176573d5f803e3d5ffd5b5090505f81908060018154018082558091505060019003905f5260205f20015f9091909190916101000a81548173ffffffffffffffffffffffffffffffffffffffff021916908373ffffffffffffffffffffffffffffffffffffffff1602179055503373ffffffffffffffffffffffffffffffffffffffff168173ffffffffffffffffffffffffffffffffffffffff167fe15ed272952a6308ccb5a8a9e5bfc3fe502859d9be5492b99a413e6d0fab3a7d60405160405180910390a35050505050565b5f8080549050905090565b611739806200078683390190565b5f81519050919050565b5f82825260208201905092915050565b5f819050602082019050919050565b5f73ffffffffffffffffffffffffffffffffffffffff82169050919050565b5f819050919050565b5f620002c3620002bd620002b7846200027b565b6200029a565b6200027b565b9050919050565b5f620002d682620002a3565b9050919050565b5f620002e982620002ca565b9050919050565b620002fb81620002dd565b82525050565b5f6200030e8383620002f0565b60208301905092915050565b5f602082019050919050565b5f620003328262000252565b6200033e81856200025c565b93506200034b836200026c565b805f5b838110156200038157815162000365888262000301565b975062000372836200031a565b9250506001810190506200034e565b5085935050505092915050565b5f6020820190508181035f830152620003a8818462000326565b905092915050565b5f604051905090565b5f80fd5b5f80fd5b5f80fd5b5f80fd5b5f601f19601f8301169050919050565b7f4e487b71000000000000000000000000000000000000000000000000000000005f52604160045260245ffd5b6200041182620003c9565b810181811067ffffffffffffffff82111715620004335762000432620003d9565b5b80604052505050565b5f62000447620003b0565b905062000455828262000406565b919050565b5f67ffffffffffffffff821115620004775762000476620003d9565b5b6200048282620003c9565b9050602081019050919050565b828183375f83830152505050565b5f620004b3620004ad846200045a565b6200043c565b905082815260208101848484011115620004d257620004d1620003c5565b5b620004df8482856200048f565b509392505050565b5f82601f830112620004fe57620004fd620003c1565b5b8135620005108482602086016200049d565b91505092915050565b5f62000525826200027b565b9050919050565b620005378162000519565b811462000542575f80fd5b50565b5f8135905062000555816200052c565b92915050565b5f805f8060808587031215620005765762000575620003b9565b5b5f85013567ffffffffffffffff811115620005965762000595620003bd565b5b620005a487828801620004e7565b945050602085013567ffffffffffffffff811115620005c857620005c7620003bd565b5b620005d687828801620004e7565b935050604085013567ffffffffffffffff811115620005fa57620005f9620003bd565b5b6200060887828801620004e7565b92505060606200061b8782880162000545565b91505092959194509250565b5f819050919050565b6200063b8162000627565b82525050565b5f602082019050620006565f83018462000630565b92915050565b5f81519050919050565b5f82825260208201905092915050565b5f5b838110156200069557808201518184015260208101905062000678565b5f8484015250505050565b5f620006ac826200065c565b620006b8818562000666565b9350620006ca81856020860162000676565b620006d581620003c9565b840191505092915050565b620006eb8162000519565b82525050565b5f620006fd826200027b565b9050919050565b6200070f81620006f1565b82525050565b5f60a0820190508181035f8301526200072f8188620006a0565b90508181036020830152620007458187620006a0565b905081810360408301526200075b8186620006a0565b90506200076c6060830185620006e0565b6200077b608083018462000704565b969550505050505056fe608060405234801562000010575f80fd5b506040516200173938038062001739833981810160405281019062000036919062000437565b335f73ffffffffffffffffffffffffffffffffffffffff168173ffffffffffffffffffffffffffffffffffffffff1603620000aa575f6040517f1e4fbdf7000000000000000000000000000000000000000000000000000000008152600401620000a1919062000529565b60405180910390fd5b620000bb816200014e60201b60201c565b508460049081620000cd91906200077b565b508360059081620000df91906200077b565b508260069081620000f191906200077b565b508160075f6101000a81548173ffffffffffffffffffffffffffffffffffffffff021916908373ffffffffffffffffffffffffffffffffffffffff16021790555062000143816200014e60201b60201c565b50505050506200085f565b5f805f9054906101000a900473ffffffffffffffffffffffffffffffffffffffff169050815f806101000a81548173ffffffffffffffffffffffffffffffffffffffff021916908373ffffffffffffffffffffffffffffffffffffffff1602179055508173ffffffffffffffffffffffffffffffffffffffff168173ffffffffffffffffffffffffffffffffffffffff167f8be0079c531659141344cd1fd0a4f28419497f9722a3daafe3b4186f6b6457e060405160405180910390a35050565b5f604051905090565b5f80fd5b5f80fd5b5f80fd5b5f80fd5b5f601f19601f8301169050919050565b7f4e487b71000000000000000000000000000000000000000000000000000000005f52604160045260245ffd5b620002708262000228565b810181811067ffffffffffffffff8211171562000292576200029162000238565b5b80604052505050565b5f620002a66200020f565b9050620002b4828262000265565b919050565b5f67ffffffffffffffff821115620002d657620002d562000238565b5b620002e18262000228565b9050602081019050919050565b5f5b838110156200030d578082015181840152602081019050620002f0565b5f8484015250505050565b5f6200032e6200032884620002b9565b6200029b565b9050828152602081018484840111156200034d576200034c62000224565b5b6200035a848285620002ee565b509392505050565b5f82601f83011262000379576200037862000220565b5b81516200038b84826020860162000318565b91505092915050565b5f73ffffffffffffffffffffffffffffffffffffffff82169050919050565b5f620003bf8262000394565b9050919050565b620003d181620003b3565b8114620003dc575f80fd5b50565b5f81519050620003ef81620003c6565b92915050565b5f620004018262000394565b9050919050565b6200041381620003f5565b81146200041e575f80fd5b50565b5f81519050620004318162000408565b92915050565b5f805f805f60a0868803121562000453576200045262000218565b5b5f86015167ffffffffffffffff8111156200047357620004726200021c565b5b620004818882890162000362565b955050602086015167ffffffffffffffff811115620004a557620004a46200021c565b5b620004b38882890162000362565b945050604086015167ffffffffffffffff811115620004d757620004d66200021c565b5b620004e58882890162000362565b9350506060620004f888828901620003df565b92505060806200050b8882890162000421565b9150509295509295909350565b6200052381620003f5565b82525050565b5f6020820190506200053e5f83018462000518565b92915050565b5f81519050919050565b7f4e487b71000000000000000000000000000000000000000000000000000000005f52602260045260245ffd5b5f60028204905060018216806200059357607f821691505b602082108103620005a957620005a86200054e565b5b50919050565b5f819050815f5260205f209050919050565b5f6020601f8301049050919050565b5f82821b905092915050565b5f600883026200060d7fffffffffffffffffffffffffffffffffffffffffffffffffffffffffffffffff82620005d0565b620006198683620005d0565b95508019841693508086168417925050509392505050565b5f819050919050565b5f819050919050565b5f620006636200065d620006578462000631565b6200063a565b62000631565b9050919050565b5f819050919050565b6200067e8362000643565b620006966200068d826200066a565b848454620005dc565b825550505050565b5f90565b620006ac6200069e565b620006b981848462000673565b505050565b5b81811015620006e057620006d45f82620006a2565b600181019050620006bf565b5050565b601f8211156200072f57620006f981620005af565b6200070484620005c1565b8101602085101562000714578190505b6200072c6200072385620005c1565b830182620006be565b50505b505050565b5f82821c905092915050565b5f620007515f198460080262000734565b1980831691505092915050565b5f6200076b838362000740565b9150826002028217905092915050565b620007868262000544565b67ffffffffffffffff811115620007a257620007a162000238565b5b620007ae82546200057b565b620007bb828285620006e4565b5f60209050601f831160018114620007f1575f8415620007dc578287015190505b620007e885826200075e565b86555062000857565b601f1984166200080186620005af565b5f5b828110156200082a5784890151825560018201915060208501945060208101905062000803565b868310156200084a578489015162000846601f89168262000740565b8355505b6001600288020188555050505b505050505050565b610ecc806200086d5f395ff3fe6080604052600436106100dc575f3560e01c80637284e4161161007e578063f0ea4bfc11610058578063f0ea4bfc1461023a578063f2fde38b14610264578063f3ccaac01461028c578063fea49837146102b6576100dc565b80637284e416146101dc5780638da5cb5b14610206578063ed88c68e14610230576100dc565b80632abfab4d116100ba5780632abfab4d1461015c5780633ccfd60b146101865780636ad9c45c1461019c578063715018a6146101c6576100dc565b806306fdde03146100e05780630b024f871461010a57806321b8092e14610134575b5f80fd5b3480156100eb575f80fd5b506100f46102e1565b6040516101019190610b03565b60405180910390f35b348015610115575f80fd5b5061011e61036d565b60405161012b9190610b3b565b60405180910390f35b34801561013f575f80fd5b5061015a60048036038101906101559190610bb2565b610373565b005b348015610167575f80fd5b506101706103be565b60405161017d9190610b3b565b60405180910390f35b348015610191575f80fd5b5061019a610405565b005b3480156101a7575f80fd5b506101b06104b0565b6040516101bd9190610bec565b60405180910390f35b3480156101d1575f80fd5b506101da6104d5565b005b3480156101e7575f80fd5b506101f06104e8565b6040516101fd9190610b03565b60405180910390f35b348015610211575f80fd5b5061021a610574565b6040516102279190610c25565b60405180910390f35b61023861059b565b005b348015610245575f80fd5b5061024e6106ad565b60405161025b9190610b3b565b60405180910390f35b34801561026f575f80fd5b5061028a60048036038101906102859190610c68565b6106b3565b005b348015610297575f80fd5b506102a0610737565b6040516102ad9190610b03565b60405180910390f35b3480156102c1575f80fd5b506102ca6107c3565b6040516102d8929190610d4a565b60405180910390f35b600480546102ee90610dac565b80601f016020809104026020016040519081016040528092919081815260200182805461031a90610dac565b80156103655780601f1061033c57610100808354040283529160200191610365565b820191905f5260205f20905b81548152906001019060200180831161034857829003601f168201915b505050505081565b60035481565b61037b61092a565b8060075f6101000a81548173ffffffffffffffffffffffffffffffffffffffff021916908373ffffffffffffffffffffffffffffffffffffffff16021790555050565b5f60015f3373ffffffffffffffffffffffffffffffffffffffff1673ffffffffffffffffffffffffffffffffffffffff1681526020019081526020015f2080549050905090565b61040d61092a565b5f47905060075f9054906101000a900473ffffffffffffffffffffffffffffffffffffffff1673ffffffffffffffffffffffffffffffffffffffff166108fc8290811502906040515f60405180830381858888f19350505050158015610475573d5f803e3d5ffd5b507f5b6b431d4476a211bb7d41c20d1aab9ae2321deee0d20be3d9fc9b1093fa6e3d816040516104a59190610b3b565b60405180910390a150565b60075f9054906101000a900473ffffffffffffffffffffffffffffffffffffffff1681565b6104dd61092a565b6104e65f6109b1565b565b600580546104f590610dac565b80601f016020809104026020016040519081016040528092919081815260200182805461052190610dac565b801561056c5780601f106105435761010080835404028352916020019161056c565b820191905f5260205f20905b81548152906001019060200180831161054f57829003601f168201915b505050505081565b5f805f9054906101000a900473ffffffffffffffffffffffffffffffffffffffff16905090565b5f604051806040016040528034815260200142815250905060015f3373ffffffffffffffffffffffffffffffffffffffff1673ffffffffffffffffffffffffffffffffffffffff1681526020019081526020015f2081908060018154018082558091505060019003905f5260205f2090600202015f909190919091505f820151815f01556020820151816001015550503460025f82825461063c9190610e09565b92505081905550600160035f8282546106559190610e09565b925050819055503373ffffffffffffffffffffffffffffffffffffffff167fe2639ef551ad89950da1145fe1fd600e818336d6e8aa88426efe387c49accebb346040516106a29190610b3b565b60405180910390a250565b60025481565b6106bb61092a565b5f73ffffffffffffffffffffffffffffffffffffffff168173ffffffffffffffffffffffffffffffffffffffff160361072b575f6040517f1e4fbdf70000000000000000000000000000000000000000000000000000000081526004016107229190610c25565b60405180910390fd5b610734816109b1565b50565b6006805461074490610dac565b80601f016020809104026020016040519081016040528092919081815260200182805461077090610dac565b80156107bb5780601f10610792576101008083540402835291602001916107bb565b820191905f5260205f20905b81548152906001019060200180831161079e57829003601f168201915b505050505081565b6060805f6107cf6103be565b90508067ffffffffffffffff8111156107eb576107ea610e3c565b5b6040519080825280602002602001820160405280156108195781602001602082028036833780820191505090505b5092508067ffffffffffffffff81111561083657610835610e3c565b5b6040519080825280602002602001820160405280156108645781602001602082028036833780820191505090505b5091505f5b81811015610924575f60015f3373ffffffffffffffffffffffffffffffffffffffff1673ffffffffffffffffffffffffffffffffffffffff1681526020019081526020015f2082815481106108c1576108c0610e69565b5b905f5260205f2090600202019050805f01548583815181106108e6576108e5610e69565b5b602002602001018181525050806001015484838151811061090a57610909610e69565b5b602002602001018181525050508080600101915050610869565b50509091565b610932610a72565b73ffffffffffffffffffffffffffffffffffffffff16610950610574565b73ffffffffffffffffffffffffffffffffffffffff16146109af57610973610a72565b6040517f118cdaa70000000000000000000000000000000000000000000000000000000081526004016109a69190610c25565b60405180910390fd5b565b5f805f9054906101000a900473ffffffffffffffffffffffffffffffffffffffff169050815f806101000a81548173ffffffffffffffffffffffffffffffffffffffff021916908373ffffffffffffffffffffffffffffffffffffffff1602179055508173ffffffffffffffffffffffffffffffffffffffff168173ffffffffffffffffffffffffffffffffffffffff167f8be0079c531659141344cd1fd0a4f28419497f9722a3daafe3b4186f6b6457e060405160405180910390a35050565b5f33905090565b5f81519050919050565b5f82825260208201905092915050565b5f5b83811015610ab0578082015181840152602081019050610a95565b5f8484015250505050565b5f601f19601f8301169050919050565b5f610ad582610a79565b610adf8185610a83565b9350610aef818560208601610a93565b610af881610abb565b840191505092915050565b5f6020820190508181035f830152610b1b8184610acb565b905092915050565b5f819050919050565b610b3581610b23565b82525050565b5f602082019050610b4e5f830184610b2c565b92915050565b5f80fd5b5f73ffffffffffffffffffffffffffffffffffffffff82169050919050565b5f610b8182610b58565b9050919050565b610b9181610b77565b8114610b9b575f80fd5b50565b5f81359050610bac81610b88565b92915050565b5f60208284031215610bc757610bc6610b54565b5b5f610bd484828501610b9e565b91505092915050565b610be681610b77565b82525050565b5f602082019050610bff5f830184610bdd565b92915050565b5f610c0f82610b58565b9050919050565b610c1f81610c05565b82525050565b5f602082019050610c385f830184610c16565b92915050565b610c4781610c05565b8114610c51575f80fd5b50565b5f81359050610c6281610c3e565b92915050565b5f60208284031215610c7d57610c7c610b54565b5b5f610c8a84828501610c54565b91505092915050565b5f81519050919050565b5f82825260208201905092915050565b5f819050602082019050919050565b610cc581610b23565b82525050565b5f610cd68383610cbc565b60208301905092915050565b5f602082019050919050565b5f610cf882610c93565b610d028185610c9d565b9350610d0d83610cad565b805f5b83811015610d3d578151610d248882610ccb565b9750610d2f83610ce2565b925050600181019050610d10565b5085935050505092915050565b5f6040820190508181035f830152610d628185610cee565b90508181036020830152610d768184610cee565b90509392505050565b7f4e487b71000000000000000000000000000000000000000000000000000000005f52602260045260245ffd5b5f6002820490506001821680610dc357607f821691505b602082108103610dd657610dd5610d7f565b5b50919050565b7f4e487b71000000000000000000000000000000000000000000000000000000005f52601160045260245ffd5b5f610e1382610b23565b9150610e1e83610b23565b9250828201905080821115610e3657610e35610ddc565b5b92915050565b7f4e487b71000000000000000000000000000000000000000000000000000000005f52604160045260245ffd5b7f4e487b71000000000000000000000000000000000000000000000000000000005f52603260045260245ffdfea264697066735822122082fea2d4e276ac9d279cddabbe36f585e0b79e14b31ca496c5eca0b7860eb79564736f6c63430008160033a2646970667358221220a40d73dc79e40c21478871f50f3cc0408e897d232833ac3af047663e51d6181664736f6c63430008160033",
					"opcodes": "PUSH1 0x80 PUSH1 0x40 MSTORE CALLVALUE DUP1 ISZERO PUSH2 0xF JUMPI PUSH0 DUP1 REVERT JUMPDEST POP PUSH2 0x1EF4 DUP1 PUSH2 0x1D PUSH0 CODECOPY PUSH0 RETURN INVALID PUSH1 0x80 PUSH1 0x40 MSTORE CALLVALUE DUP1 ISZERO PUSH3 0x10 JUMPI PUSH0 DUP1 REVERT JUMPDEST POP PUSH1 0x4 CALLDATASIZE LT PUSH3 0x44 JUMPI PUSH0 CALLDATALOAD PUSH1 0xE0 SHR DUP1 PUSH4 0xAEDA46A6 EQ PUSH3 0x48 JUMPI DUP1 PUSH4 0xC41B72C8 EQ PUSH3 0x6A JUMPI DUP1 PUSH4 0xF833BAF4 EQ PUSH3 0x8A JUMPI JUMPDEST PUSH0 DUP1 REVERT JUMPDEST PUSH3 0x52 PUSH3 0xAC JUMP JUMPDEST PUSH1 0x40 MLOAD PUSH3 0x61 SWAP2 SWAP1 PUSH3 0x38E JUMP JUMPDEST PUSH1 0x40 MLOAD DUP1 SWAP2 SUB SWAP1 RETURN JUMPDEST PUSH3 0x88 PUSH1 0x4 DUP1 CALLDATASIZE SUB DUP2 ADD SWAP1 PUSH3 0x82 SWAP2 SWAP1 PUSH3 0x55B JUMP JUMPDEST PUSH3 0x138 JUMP JUMPDEST STOP JUMPDEST PUSH3 0x94 PUSH3 0x239 JUMP JUMPDEST PUSH1 0x40 MLOAD PUSH3 0xA3 SWAP2 SWAP1 PUSH3 0x641 JUMP JUMPDEST PUSH1 0x40 MLOAD DUP1 SWAP2 SUB SWAP1 RETURN JUMPDEST PUSH1 0x60 PUSH0 DUP1 SLOAD DUP1 PUSH1 0x20 MUL PUSH1 0x20 ADD PUSH1 0x40 MLOAD SWAP1 DUP2 ADD PUSH1 0x40 MSTORE DUP1 SWAP3 SWAP2 SWAP1 DUP2 DUP2 MSTORE PUSH1 0x20 ADD DUP3 DUP1 SLOAD DUP1 ISZERO PUSH3 0x12E JUMPI PUSH1 0x20 MUL DUP3 ADD SWAP2 SWAP1 PUSH0 MSTORE PUSH1 0x20 PUSH0 KECCAK256 SWAP1 JUMPDEST DUP2 PUSH0 SWAP1 SLOAD SWAP1 PUSH2 0x100 EXP SWAP1 DIV PUSH20 0xFFFFFFFFFFFFFFFFFFFFFFFFFFFFFFFFFFFFFFFF AND PUSH20 0xFFFFFFFFFFFFFFFFFFFFFFFFFFFFFFFFFFFFFFFF AND DUP2 MSTORE PUSH1 0x20 ADD SWAP1 PUSH1 0x1 ADD SWAP1 DUP1 DUP4 GT PUSH3 0xE4 JUMPI JUMPDEST POP POP POP POP POP SWAP1 POP SWAP1 JUMP JUMPDEST PUSH0 DUP5 DUP5 DUP5 DUP5 CALLER PUSH1 0x40 MLOAD PUSH3 0x14C SWAP1 PUSH3 0x244 JUMP JUMPDEST PUSH3 0x15C SWAP6 SWAP5 SWAP4 SWAP3 SWAP2 SWAP1 PUSH3 0x715 JUMP JUMPDEST PUSH1 0x40 MLOAD DUP1 SWAP2 SUB SWAP1 PUSH0 CREATE DUP1 ISZERO DUP1 ISZERO PUSH3 0x176 JUMPI RETURNDATASIZE PUSH0 DUP1 RETURNDATACOPY RETURNDATASIZE PUSH0 REVERT JUMPDEST POP SWAP1 POP PUSH0 DUP2 SWAP1 DUP1 PUSH1 0x1 DUP2 SLOAD ADD DUP1 DUP3 SSTORE DUP1 SWAP2 POP POP PUSH1 0x1 SWAP1 SUB SWAP1 PUSH0 MSTORE PUSH1 0x20 PUSH0 KECCAK256 ADD PUSH0 SWAP1 SWAP2 SWAP1 SWAP2 SWAP1 SWAP2 PUSH2 0x100 EXP DUP2 SLOAD DUP2 PUSH20 0xFFFFFFFFFFFFFFFFFFFFFFFFFFFFFFFFFFFFFFFF MUL NOT AND SWAP1 DUP4 PUSH20 0xFFFFFFFFFFFFFFFFFFFFFFFFFFFFFFFFFFFFFFFF AND MUL OR SWAP1 SSTORE POP CALLER PUSH20 0xFFFFFFFFFFFFFFFFFFFFFFFFFFFFFFFFFFFFFFFF AND DUP2 PUSH20 0xFFFFFFFFFFFFFFFFFFFFFFFFFFFFFFFFFFFFFFFF AND PUSH32 0xE15ED272952A6308CCB5A8A9E5BFC3FE502859D9BE5492B99A413E6D0FAB3A7D PUSH1 0x40 MLOAD PUSH1 0x40 MLOAD DUP1 SWAP2 SUB SWAP1 LOG3 POP POP POP POP POP JUMP JUMPDEST PUSH0 DUP1 DUP1 SLOAD SWAP1 POP SWAP1 POP SWAP1 JUMP JUMPDEST PUSH2 0x1739 DUP1 PUSH3 0x786 DUP4 CODECOPY ADD SWAP1 JUMP JUMPDEST PUSH0 DUP2 MLOAD SWAP1 POP SWAP2 SWAP1 POP JUMP JUMPDEST PUSH0 DUP3 DUP3 MSTORE PUSH1 0x20 DUP3 ADD SWAP1 POP SWAP3 SWAP2 POP POP JUMP JUMPDEST PUSH0 DUP2 SWAP1 POP PUSH1 0x20 DUP3 ADD SWAP1 POP SWAP2 SWAP1 POP JUMP JUMPDEST PUSH0 PUSH20 0xFFFFFFFFFFFFFFFFFFFFFFFFFFFFFFFFFFFFFFFF DUP3 AND SWAP1 POP SWAP2 SWAP1 POP JUMP JUMPDEST PUSH0 DUP2 SWAP1 POP SWAP2 SWAP1 POP JUMP JUMPDEST PUSH0 PUSH3 0x2C3 PUSH3 0x2BD PUSH3 0x2B7 DUP5 PUSH3 0x27B JUMP JUMPDEST PUSH3 0x29A JUMP JUMPDEST PUSH3 0x27B JUMP JUMPDEST SWAP1 POP SWAP2 SWAP1 POP JUMP JUMPDEST PUSH0 PUSH3 0x2D6 DUP3 PUSH3 0x2A3 JUMP JUMPDEST SWAP1 POP SWAP2 SWAP1 POP JUMP JUMPDEST PUSH0 PUSH3 0x2E9 DUP3 PUSH3 0x2CA JUMP JUMPDEST SWAP1 POP SWAP2 SWAP1 POP JUMP JUMPDEST PUSH3 0x2FB DUP2 PUSH3 0x2DD JUMP JUMPDEST DUP3 MSTORE POP POP JUMP JUMPDEST PUSH0 PUSH3 0x30E DUP4 DUP4 PUSH3 0x2F0 JUMP JUMPDEST PUSH1 0x20 DUP4 ADD SWAP1 POP SWAP3 SWAP2 POP POP JUMP JUMPDEST PUSH0 PUSH1 0x20 DUP3 ADD SWAP1 POP SWAP2 SWAP1 POP JUMP JUMPDEST PUSH0 PUSH3 0x332 DUP3 PUSH3 0x252 JUMP JUMPDEST PUSH3 0x33E DUP2 DUP6 PUSH3 0x25C JUMP JUMPDEST SWAP4 POP PUSH3 0x34B DUP4 PUSH3 0x26C JUMP JUMPDEST DUP1 PUSH0 JUMPDEST DUP4 DUP2 LT ISZERO PUSH3 0x381 JUMPI DUP2 MLOAD PUSH3 0x365 DUP9 DUP3 PUSH3 0x301 JUMP JUMPDEST SWAP8 POP PUSH3 0x372 DUP4 PUSH3 0x31A JUMP JUMPDEST SWAP3 POP POP PUSH1 0x1 DUP2 ADD SWAP1 POP PUSH3 0x34E JUMP JUMPDEST POP DUP6 SWAP4 POP POP POP POP SWAP3 SWAP2 POP POP JUMP JUMPDEST PUSH0 PUSH1 0x20 DUP3 ADD SWAP1 POP DUP2 DUP2 SUB PUSH0 DUP4 ADD MSTORE PUSH3 0x3A8 DUP2 DUP5 PUSH3 0x326 JUMP JUMPDEST SWAP1 POP SWAP3 SWAP2 POP POP JUMP JUMPDEST PUSH0 PUSH1 0x40 MLOAD SWAP1 POP SWAP1 JUMP JUMPDEST PUSH0 DUP1 REVERT JUMPDEST PUSH0 DUP1 REVERT JUMPDEST PUSH0 DUP1 REVERT JUMPDEST PUSH0 DUP1 REVERT JUMPDEST PUSH0 PUSH1 0x1F NOT PUSH1 0x1F DUP4 ADD AND SWAP1 POP SWAP2 SWAP1 POP JUMP JUMPDEST PUSH32 0x4E487B7100000000000000000000000000000000000000000000000000000000 PUSH0 MSTORE PUSH1 0x41 PUSH1 0x4 MSTORE PUSH1 0x24 PUSH0 REVERT JUMPDEST PUSH3 0x411 DUP3 PUSH3 0x3C9 JUMP JUMPDEST DUP2 ADD DUP2 DUP2 LT PUSH8 0xFFFFFFFFFFFFFFFF DUP3 GT OR ISZERO PUSH3 0x433 JUMPI PUSH3 0x432 PUSH3 0x3D9 JUMP JUMPDEST JUMPDEST DUP1 PUSH1 0x40 MSTORE POP POP POP JUMP JUMPDEST PUSH0 PUSH3 0x447 PUSH3 0x3B0 JUMP JUMPDEST SWAP1 POP PUSH3 0x455 DUP3 DUP3 PUSH3 0x406 JUMP JUMPDEST SWAP2 SWAP1 POP JUMP JUMPDEST PUSH0 PUSH8 0xFFFFFFFFFFFFFFFF DUP3 GT ISZERO PUSH3 0x477 JUMPI PUSH3 0x476 PUSH3 0x3D9 JUMP JUMPDEST JUMPDEST PUSH3 0x482 DUP3 PUSH3 0x3C9 JUMP JUMPDEST SWAP1 POP PUSH1 0x20 DUP2 ADD SWAP1 POP SWAP2 SWAP1 POP JUMP JUMPDEST DUP3 DUP2 DUP4 CALLDATACOPY PUSH0 DUP4 DUP4 ADD MSTORE POP POP POP JUMP JUMPDEST PUSH0 PUSH3 0x4B3 PUSH3 0x4AD DUP5 PUSH3 0x45A JUMP JUMPDEST PUSH3 0x43C JUMP JUMPDEST SWAP1 POP DUP3 DUP2 MSTORE PUSH1 0x20 DUP2 ADD DUP5 DUP5 DUP5 ADD GT ISZERO PUSH3 0x4D2 JUMPI PUSH3 0x4D1 PUSH3 0x3C5 JUMP JUMPDEST JUMPDEST PUSH3 0x4DF DUP5 DUP3 DUP6 PUSH3 0x48F JUMP JUMPDEST POP SWAP4 SWAP3 POP POP POP JUMP JUMPDEST PUSH0 DUP3 PUSH1 0x1F DUP4 ADD SLT PUSH3 0x4FE JUMPI PUSH3 0x4FD PUSH3 0x3C1 JUMP JUMPDEST JUMPDEST DUP2 CALLDATALOAD PUSH3 0x510 DUP5 DUP3 PUSH1 0x20 DUP7 ADD PUSH3 0x49D JUMP JUMPDEST SWAP2 POP POP SWAP3 SWAP2 POP POP JUMP JUMPDEST PUSH0 PUSH3 0x525 DUP3 PUSH3 0x27B JUMP JUMPDEST SWAP1 POP SWAP2 SWAP1 POP JUMP JUMPDEST PUSH3 0x537 DUP2 PUSH3 0x519 JUMP JUMPDEST DUP2 EQ PUSH3 0x542 JUMPI PUSH0 DUP1 REVERT JUMPDEST POP JUMP JUMPDEST PUSH0 DUP2 CALLDATALOAD SWAP1 POP PUSH3 0x555 DUP2 PUSH3 0x52C JUMP JUMPDEST SWAP3 SWAP2 POP POP JUMP JUMPDEST PUSH0 DUP1 PUSH0 DUP1 PUSH1 0x80 DUP6 DUP8 SUB SLT ISZERO PUSH3 0x576 JUMPI PUSH3 0x575 PUSH3 0x3B9 JUMP JUMPDEST JUMPDEST PUSH0 DUP6 ADD CALLDATALOAD PUSH8 0xFFFFFFFFFFFFFFFF DUP2 GT ISZERO PUSH3 0x596 JUMPI PUSH3 0x595 PUSH3 0x3BD JUMP JUMPDEST JUMPDEST PUSH3 0x5A4 DUP8 DUP3 DUP9 ADD PUSH3 0x4E7 JUMP JUMPDEST SWAP5 POP POP PUSH1 0x20 DUP6 ADD CALLDATALOAD PUSH8 0xFFFFFFFFFFFFFFFF DUP2 GT ISZERO PUSH3 0x5C8 JUMPI PUSH3 0x5C7 PUSH3 0x3BD JUMP JUMPDEST JUMPDEST PUSH3 0x5D6 DUP8 DUP3 DUP9 ADD PUSH3 0x4E7 JUMP JUMPDEST SWAP4 POP POP PUSH1 0x40 DUP6 ADD CALLDATALOAD PUSH8 0xFFFFFFFFFFFFFFFF DUP2 GT ISZERO PUSH3 0x5FA JUMPI PUSH3 0x5F9 PUSH3 0x3BD JUMP JUMPDEST JUMPDEST PUSH3 0x608 DUP8 DUP3 DUP9 ADD PUSH3 0x4E7 JUMP JUMPDEST SWAP3 POP POP PUSH1 0x60 PUSH3 0x61B DUP8 DUP3 DUP9 ADD PUSH3 0x545 JUMP JUMPDEST SWAP2 POP POP SWAP3 SWAP6 SWAP2 SWAP5 POP SWAP3 POP JUMP JUMPDEST PUSH0 DUP2 SWAP1 POP SWAP2 SWAP1 POP JUMP JUMPDEST PUSH3 0x63B DUP2 PUSH3 0x627 JUMP JUMPDEST DUP3 MSTORE POP POP JUMP JUMPDEST PUSH0 PUSH1 0x20 DUP3 ADD SWAP1 POP PUSH3 0x656 PUSH0 DUP4 ADD DUP5 PUSH3 0x630 JUMP JUMPDEST SWAP3 SWAP2 POP POP JUMP JUMPDEST PUSH0 DUP2 MLOAD SWAP1 POP SWAP2 SWAP1 POP JUMP JUMPDEST PUSH0 DUP3 DUP3 MSTORE PUSH1 0x20 DUP3 ADD SWAP1 POP SWAP3 SWAP2 POP POP JUMP JUMPDEST PUSH0 JUMPDEST DUP4 DUP2 LT ISZERO PUSH3 0x695 JUMPI DUP1 DUP3 ADD MLOAD DUP2 DUP5 ADD MSTORE PUSH1 0x20 DUP2 ADD SWAP1 POP PUSH3 0x678 JUMP JUMPDEST PUSH0 DUP5 DUP5 ADD MSTORE POP POP POP POP JUMP JUMPDEST PUSH0 PUSH3 0x6AC DUP3 PUSH3 0x65C JUMP JUMPDEST PUSH3 0x6B8 DUP2 DUP6 PUSH3 0x666 JUMP JUMPDEST SWAP4 POP PUSH3 0x6CA DUP2 DUP6 PUSH1 0x20 DUP7 ADD PUSH3 0x676 JUMP JUMPDEST PUSH3 0x6D5 DUP2 PUSH3 0x3C9 JUMP JUMPDEST DUP5 ADD SWAP2 POP POP SWAP3 SWAP2 POP POP JUMP JUMPDEST PUSH3 0x6EB DUP2 PUSH3 0x519 JUMP JUMPDEST DUP3 MSTORE POP POP JUMP JUMPDEST PUSH0 PUSH3 0x6FD DUP3 PUSH3 0x27B JUMP JUMPDEST SWAP1 POP SWAP2 SWAP1 POP JUMP JUMPDEST PUSH3 0x70F DUP2 PUSH3 0x6F1 JUMP JUMPDEST DUP3 MSTORE POP POP JUMP JUMPDEST PUSH0 PUSH1 0xA0 DUP3 ADD SWAP1 POP DUP2 DUP2 SUB PUSH0 DUP4 ADD MSTORE PUSH3 0x72F DUP2 DUP9 PUSH3 0x6A0 JUMP JUMPDEST SWAP1 POP DUP2 DUP2 SUB PUSH1 0x20 DUP4 ADD MSTORE PUSH3 0x745 DUP2 DUP8 PUSH3 0x6A0 JUMP JUMPDEST SWAP1 POP DUP2 DUP2 SUB PUSH1 0x40 DUP4 ADD MSTORE PUSH3 0x75B DUP2 DUP7 PUSH3 0x6A0 JUMP JUMPDEST SWAP1 POP PUSH3 0x76C PUSH1 0x60 DUP4 ADD DUP6 PUSH3 0x6E0 JUMP JUMPDEST PUSH3 0x77B PUSH1 0x80 DUP4 ADD DUP5 PUSH3 0x704 JUMP JUMPDEST SWAP7 SWAP6 POP POP POP POP POP POP JUMP INVALID PUSH1 0x80 PUSH1 0x40 MSTORE CALLVALUE DUP1 ISZERO PUSH3 0x10 JUMPI PUSH0 DUP1 REVERT JUMPDEST POP PUSH1 0x40 MLOAD PUSH3 0x1739 CODESIZE SUB DUP1 PUSH3 0x1739 DUP4 CODECOPY DUP2 DUP2 ADD PUSH1 0x40 MSTORE DUP2 ADD SWAP1 PUSH3 0x36 SWAP2 SWAP1 PUSH3 0x437 JUMP JUMPDEST CALLER PUSH0 PUSH20 0xFFFFFFFFFFFFFFFFFFFFFFFFFFFFFFFFFFFFFFFF AND DUP2 PUSH20 0xFFFFFFFFFFFFFFFFFFFFFFFFFFFFFFFFFFFFFFFF AND SUB PUSH3 0xAA JUMPI PUSH0 PUSH1 0x40 MLOAD PUSH32 0x1E4FBDF700000000000000000000000000000000000000000000000000000000 DUP2 MSTORE PUSH1 0x4 ADD PUSH3 0xA1 SWAP2 SWAP1 PUSH3 0x529 JUMP JUMPDEST PUSH1 0x40 MLOAD DUP1 SWAP2 SUB SWAP1 REVERT JUMPDEST PUSH3 0xBB DUP2 PUSH3 0x14E PUSH1 0x20 SHL PUSH1 0x20 SHR JUMP JUMPDEST POP DUP5 PUSH1 0x4 SWAP1 DUP2 PUSH3 0xCD SWAP2 SWAP1 PUSH3 0x77B JUMP JUMPDEST POP DUP4 PUSH1 0x5 SWAP1 DUP2 PUSH3 0xDF SWAP2 SWAP1 PUSH3 0x77B JUMP JUMPDEST POP DUP3 PUSH1 0x6 SWAP1 DUP2 PUSH3 0xF1 SWAP2 SWAP1 PUSH3 0x77B JUMP JUMPDEST POP DUP2 PUSH1 0x7 PUSH0 PUSH2 0x100 EXP DUP2 SLOAD DUP2 PUSH20 0xFFFFFFFFFFFFFFFFFFFFFFFFFFFFFFFFFFFFFFFF MUL NOT AND SWAP1 DUP4 PUSH20 0xFFFFFFFFFFFFFFFFFFFFFFFFFFFFFFFFFFFFFFFF AND MUL OR SWAP1 SSTORE POP PUSH3 0x143 DUP2 PUSH3 0x14E PUSH1 0x20 SHL PUSH1 0x20 SHR JUMP JUMPDEST POP POP POP POP POP PUSH3 0x85F JUMP JUMPDEST PUSH0 DUP1 PUSH0 SWAP1 SLOAD SWAP1 PUSH2 0x100 EXP SWAP1 DIV PUSH20 0xFFFFFFFFFFFFFFFFFFFFFFFFFFFFFFFFFFFFFFFF AND SWAP1 POP DUP2 PUSH0 DUP1 PUSH2 0x100 EXP DUP2 SLOAD DUP2 PUSH20 0xFFFFFFFFFFFFFFFFFFFFFFFFFFFFFFFFFFFFFFFF MUL NOT AND SWAP1 DUP4 PUSH20 0xFFFFFFFFFFFFFFFFFFFFFFFFFFFFFFFFFFFFFFFF AND MUL OR SWAP1 SSTORE POP DUP2 PUSH20 0xFFFFFFFFFFFFFFFFFFFFFFFFFFFFFFFFFFFFFFFF AND DUP2 PUSH20 0xFFFFFFFFFFFFFFFFFFFFFFFFFFFFFFFFFFFFFFFF AND PUSH32 0x8BE0079C531659141344CD1FD0A4F28419497F9722A3DAAFE3B4186F6B6457E0 PUSH1 0x40 MLOAD PUSH1 0x40 MLOAD DUP1 SWAP2 SUB SWAP1 LOG3 POP POP JUMP JUMPDEST PUSH0 PUSH1 0x40 MLOAD SWAP1 POP SWAP1 JUMP JUMPDEST PUSH0 DUP1 REVERT JUMPDEST PUSH0 DUP1 REVERT JUMPDEST PUSH0 DUP1 REVERT JUMPDEST PUSH0 DUP1 REVERT JUMPDEST PUSH0 PUSH1 0x1F NOT PUSH1 0x1F DUP4 ADD AND SWAP1 POP SWAP2 SWAP1 POP JUMP JUMPDEST PUSH32 0x4E487B7100000000000000000000000000000000000000000000000000000000 PUSH0 MSTORE PUSH1 0x41 PUSH1 0x4 MSTORE PUSH1 0x24 PUSH0 REVERT JUMPDEST PUSH3 0x270 DUP3 PUSH3 0x228 JUMP JUMPDEST DUP2 ADD DUP2 DUP2 LT PUSH8 0xFFFFFFFFFFFFFFFF DUP3 GT OR ISZERO PUSH3 0x292 JUMPI PUSH3 0x291 PUSH3 0x238 JUMP JUMPDEST JUMPDEST DUP1 PUSH1 0x40 MSTORE POP POP POP JUMP JUMPDEST PUSH0 PUSH3 0x2A6 PUSH3 0x20F JUMP JUMPDEST SWAP1 POP PUSH3 0x2B4 DUP3 DUP3 PUSH3 0x265 JUMP JUMPDEST SWAP2 SWAP1 POP JUMP JUMPDEST PUSH0 PUSH8 0xFFFFFFFFFFFFFFFF DUP3 GT ISZERO PUSH3 0x2D6 JUMPI PUSH3 0x2D5 PUSH3 0x238 JUMP JUMPDEST JUMPDEST PUSH3 0x2E1 DUP3 PUSH3 0x228 JUMP JUMPDEST SWAP1 POP PUSH1 0x20 DUP2 ADD SWAP1 POP SWAP2 SWAP1 POP JUMP JUMPDEST PUSH0 JUMPDEST DUP4 DUP2 LT ISZERO PUSH3 0x30D JUMPI DUP1 DUP3 ADD MLOAD DUP2 DUP5 ADD MSTORE PUSH1 0x20 DUP2 ADD SWAP1 POP PUSH3 0x2F0 JUMP JUMPDEST PUSH0 DUP5 DUP5 ADD MSTORE POP POP POP POP JUMP JUMPDEST PUSH0 PUSH3 0x32E PUSH3 0x328 DUP5 PUSH3 0x2B9 JUMP JUMPDEST PUSH3 0x29B JUMP JUMPDEST SWAP1 POP DUP3 DUP2 MSTORE PUSH1 0x20 DUP2 ADD DUP5 DUP5 DUP5 ADD GT ISZERO PUSH3 0x34D JUMPI PUSH3 0x34C PUSH3 0x224 JUMP JUMPDEST JUMPDEST PUSH3 0x35A DUP5 DUP3 DUP6 PUSH3 0x2EE JUMP JUMPDEST POP SWAP4 SWAP3 POP POP POP JUMP JUMPDEST PUSH0 DUP3 PUSH1 0x1F DUP4 ADD SLT PUSH3 0x379 JUMPI PUSH3 0x378 PUSH3 0x220 JUMP JUMPDEST JUMPDEST DUP2 MLOAD PUSH3 0x38B DUP5 DUP3 PUSH1 0x20 DUP7 ADD PUSH3 0x318 JUMP JUMPDEST SWAP2 POP POP SWAP3 SWAP2 POP POP JUMP JUMPDEST PUSH0 PUSH20 0xFFFFFFFFFFFFFFFFFFFFFFFFFFFFFFFFFFFFFFFF DUP3 AND SWAP1 POP SWAP2 SWAP1 POP JUMP JUMPDEST PUSH0 PUSH3 0x3BF DUP3 PUSH3 0x394 JUMP JUMPDEST SWAP1 POP SWAP2 SWAP1 POP JUMP JUMPDEST PUSH3 0x3D1 DUP2 PUSH3 0x3B3 JUMP JUMPDEST DUP2 EQ PUSH3 0x3DC JUMPI PUSH0 DUP1 REVERT JUMPDEST POP JUMP JUMPDEST PUSH0 DUP2 MLOAD SWAP1 POP PUSH3 0x3EF DUP2 PUSH3 0x3C6 JUMP JUMPDEST SWAP3 SWAP2 POP POP JUMP JUMPDEST PUSH0 PUSH3 0x401 DUP3 PUSH3 0x394 JUMP JUMPDEST SWAP1 POP SWAP2 SWAP1 POP JUMP JUMPDEST PUSH3 0x413 DUP2 PUSH3 0x3F5 JUMP JUMPDEST DUP2 EQ PUSH3 0x41E JUMPI PUSH0 DUP1 REVERT JUMPDEST POP JUMP JUMPDEST PUSH0 DUP2 MLOAD SWAP1 POP PUSH3 0x431 DUP2 PUSH3 0x408 JUMP JUMPDEST SWAP3 SWAP2 POP POP JUMP JUMPDEST PUSH0 DUP1 PUSH0 DUP1 PUSH0 PUSH1 0xA0 DUP7 DUP9 SUB SLT ISZERO PUSH3 0x453 JUMPI PUSH3 0x452 PUSH3 0x218 JUMP JUMPDEST JUMPDEST PUSH0 DUP7 ADD MLOAD PUSH8 0xFFFFFFFFFFFFFFFF DUP2 GT ISZERO PUSH3 0x473 JUMPI PUSH3 0x472 PUSH3 0x21C JUMP JUMPDEST JUMPDEST PUSH3 0x481 DUP9 DUP3 DUP10 ADD PUSH3 0x362 JUMP JUMPDEST SWAP6 POP POP PUSH1 0x20 DUP7 ADD MLOAD PUSH8 0xFFFFFFFFFFFFFFFF DUP2 GT ISZERO PUSH3 0x4A5 JUMPI PUSH3 0x4A4 PUSH3 0x21C JUMP JUMPDEST JUMPDEST PUSH3 0x4B3 DUP9 DUP3 DUP10 ADD PUSH3 0x362 JUMP JUMPDEST SWAP5 POP POP PUSH1 0x40 DUP7 ADD MLOAD PUSH8 0xFFFFFFFFFFFFFFFF DUP2 GT ISZERO PUSH3 0x4D7 JUMPI PUSH3 0x4D6 PUSH3 0x21C JUMP JUMPDEST JUMPDEST PUSH3 0x4E5 DUP9 DUP3 DUP10 ADD PUSH3 0x362 JUMP JUMPDEST SWAP4 POP POP PUSH1 0x60 PUSH3 0x4F8 DUP9 DUP3 DUP10 ADD PUSH3 0x3DF JUMP JUMPDEST SWAP3 POP POP PUSH1 0x80 PUSH3 0x50B DUP9 DUP3 DUP10 ADD PUSH3 0x421 JUMP JUMPDEST SWAP2 POP POP SWAP3 SWAP6 POP SWAP3 SWAP6 SWAP1 SWAP4 POP JUMP JUMPDEST PUSH3 0x523 DUP2 PUSH3 0x3F5 JUMP JUMPDEST DUP3 MSTORE POP POP JUMP JUMPDEST PUSH0 PUSH1 0x20 DUP3 ADD SWAP1 POP PUSH3 0x53E PUSH0 DUP4 ADD DUP5 PUSH3 0x518 JUMP JUMPDEST SWAP3 SWAP2 POP POP JUMP JUMPDEST PUSH0 DUP2 MLOAD SWAP1 POP SWAP2 SWAP1 POP JUMP JUMPDEST PUSH32 0x4E487B7100000000000000000000000000000000000000000000000000000000 PUSH0 MSTORE PUSH1 0x22 PUSH1 0x4 MSTORE PUSH1 0x24 PUSH0 REVERT JUMPDEST PUSH0 PUSH1 0x2 DUP3 DIV SWAP1 POP PUSH1 0x1 DUP3 AND DUP1 PUSH3 0x593 JUMPI PUSH1 0x7F DUP3 AND SWAP2 POP JUMPDEST PUSH1 0x20 DUP3 LT DUP2 SUB PUSH3 0x5A9 JUMPI PUSH3 0x5A8 PUSH3 0x54E JUMP JUMPDEST JUMPDEST POP SWAP2 SWAP1 POP JUMP JUMPDEST PUSH0 DUP2 SWAP1 POP DUP2 PUSH0 MSTORE PUSH1 0x20 PUSH0 KECCAK256 SWAP1 POP SWAP2 SWAP1 POP JUMP JUMPDEST PUSH0 PUSH1 0x20 PUSH1 0x1F DUP4 ADD DIV SWAP1 POP SWAP2 SWAP1 POP JUMP JUMPDEST PUSH0 DUP3 DUP3 SHL SWAP1 POP SWAP3 SWAP2 POP POP JUMP JUMPDEST PUSH0 PUSH1 0x8 DUP4 MUL PUSH3 0x60D PUSH32 0xFFFFFFFFFFFFFFFFFFFFFFFFFFFFFFFFFFFFFFFFFFFFFFFFFFFFFFFFFFFFFFFF DUP3 PUSH3 0x5D0 JUMP JUMPDEST PUSH3 0x619 DUP7 DUP4 PUSH3 0x5D0 JUMP JUMPDEST SWAP6 POP DUP1 NOT DUP5 AND SWAP4 POP DUP1 DUP7 AND DUP5 OR SWAP3 POP POP POP SWAP4 SWAP3 POP POP POP JUMP JUMPDEST PUSH0 DUP2 SWAP1 POP SWAP2 SWAP1 POP JUMP JUMPDEST PUSH0 DUP2 SWAP1 POP SWAP2 SWAP1 POP JUMP JUMPDEST PUSH0 PUSH3 0x663 PUSH3 0x65D PUSH3 0x657 DUP5 PUSH3 0x631 JUMP JUMPDEST PUSH3 0x63A JUMP JUMPDEST PUSH3 0x631 JUMP JUMPDEST SWAP1 POP SWAP2 SWAP1 POP JUMP JUMPDEST PUSH0 DUP2 SWAP1 POP SWAP2 SWAP1 POP JUMP JUMPDEST PUSH3 0x67E DUP4 PUSH3 0x643 JUMP JUMPDEST PUSH3 0x696 PUSH3 0x68D DUP3 PUSH3 0x66A JUMP JUMPDEST DUP5 DUP5 SLOAD PUSH3 0x5DC JUMP JUMPDEST DUP3 SSTORE POP POP POP POP JUMP JUMPDEST PUSH0 SWAP1 JUMP JUMPDEST PUSH3 0x6AC PUSH3 0x69E JUMP JUMPDEST PUSH3 0x6B9 DUP2 DUP5 DUP5 PUSH3 0x673 JUMP JUMPDEST POP POP POP JUMP JUMPDEST JUMPDEST DUP2 DUP2 LT ISZERO PUSH3 0x6E0 JUMPI PUSH3 0x6D4 PUSH0 DUP3 PUSH3 0x6A2 JUMP JUMPDEST PUSH1 0x1 DUP2 ADD SWAP1 POP PUSH3 0x6BF JUMP JUMPDEST POP POP JUMP JUMPDEST PUSH1 0x1F DUP3 GT ISZERO PUSH3 0x72F JUMPI PUSH3 0x6F9 DUP2 PUSH3 0x5AF JUMP JUMPDEST PUSH3 0x704 DUP5 PUSH3 0x5C1 JUMP JUMPDEST DUP2 ADD PUSH1 0x20 DUP6 LT ISZERO PUSH3 0x714 JUMPI DUP2 SWAP1 POP JUMPDEST PUSH3 0x72C PUSH3 0x723 DUP6 PUSH3 0x5C1 JUMP JUMPDEST DUP4 ADD DUP3 PUSH3 0x6BE JUMP JUMPDEST POP POP JUMPDEST POP POP POP JUMP JUMPDEST PUSH0 DUP3 DUP3 SHR SWAP1 POP SWAP3 SWAP2 POP POP JUMP JUMPDEST PUSH0 PUSH3 0x751 PUSH0 NOT DUP5 PUSH1 0x8 MUL PUSH3 0x734 JUMP JUMPDEST NOT DUP1 DUP4 AND SWAP2 POP POP SWAP3 SWAP2 POP POP JUMP JUMPDEST PUSH0 PUSH3 0x76B DUP4 DUP4 PUSH3 0x740 JUMP JUMPDEST SWAP2 POP DUP3 PUSH1 0x2 MUL DUP3 OR SWAP1 POP SWAP3 SWAP2 POP POP JUMP JUMPDEST PUSH3 0x786 DUP3 PUSH3 0x544 JUMP JUMPDEST PUSH8 0xFFFFFFFFFFFFFFFF DUP2 GT ISZERO PUSH3 0x7A2 JUMPI PUSH3 0x7A1 PUSH3 0x238 JUMP JUMPDEST JUMPDEST PUSH3 0x7AE DUP3 SLOAD PUSH3 0x57B JUMP JUMPDEST PUSH3 0x7BB DUP3 DUP3 DUP6 PUSH3 0x6E4 JUMP JUMPDEST PUSH0 PUSH1 0x20 SWAP1 POP PUSH1 0x1F DUP4 GT PUSH1 0x1 DUP2 EQ PUSH3 0x7F1 JUMPI PUSH0 DUP5 ISZERO PUSH3 0x7DC JUMPI DUP3 DUP8 ADD MLOAD SWAP1 POP JUMPDEST PUSH3 0x7E8 DUP6 DUP3 PUSH3 0x75E JUMP JUMPDEST DUP7 SSTORE POP PUSH3 0x857 JUMP JUMPDEST PUSH1 0x1F NOT DUP5 AND PUSH3 0x801 DUP7 PUSH3 0x5AF JUMP JUMPDEST PUSH0 JUMPDEST DUP3 DUP2 LT ISZERO PUSH3 0x82A JUMPI DUP5 DUP10 ADD MLOAD DUP3 SSTORE PUSH1 0x1 DUP3 ADD SWAP2 POP PUSH1 0x20 DUP6 ADD SWAP5 POP PUSH1 0x20 DUP2 ADD SWAP1 POP PUSH3 0x803 JUMP JUMPDEST DUP7 DUP4 LT ISZERO PUSH3 0x84A JUMPI DUP5 DUP10 ADD MLOAD PUSH3 0x846 PUSH1 0x1F DUP10 AND DUP3 PUSH3 0x740 JUMP JUMPDEST DUP4 SSTORE POP JUMPDEST PUSH1 0x1 PUSH1 0x2 DUP9 MUL ADD DUP9 SSTORE POP POP POP JUMPDEST POP POP POP POP POP POP JUMP JUMPDEST PUSH2 0xECC DUP1 PUSH3 0x86D PUSH0 CODECOPY PUSH0 RETURN INVALID PUSH1 0x80 PUSH1 0x40 MSTORE PUSH1 0x4 CALLDATASIZE LT PUSH2 0xDC JUMPI PUSH0 CALLDATALOAD PUSH1 0xE0 SHR DUP1 PUSH4 0x7284E416 GT PUSH2 0x7E JUMPI DUP1 PUSH4 0xF0EA4BFC GT PUSH2 0x58 JUMPI DUP1 PUSH4 0xF0EA4BFC EQ PUSH2 0x23A JUMPI DUP1 PUSH4 0xF2FDE38B EQ PUSH2 0x264 JUMPI DUP1 PUSH4 0xF3CCAAC0 EQ PUSH2 0x28C JUMPI DUP1 PUSH4 0xFEA49837 EQ PUSH2 0x2B6 JUMPI PUSH2 0xDC JUMP JUMPDEST DUP1 PUSH4 0x7284E416 EQ PUSH2 0x1DC JUMPI DUP1 PUSH4 0x8DA5CB5B EQ PUSH2 0x206 JUMPI DUP1 PUSH4 0xED88C68E EQ PUSH2 0x230 JUMPI PUSH2 0xDC JUMP JUMPDEST DUP1 PUSH4 0x2ABFAB4D GT PUSH2 0xBA JUMPI DUP1 PUSH4 0x2ABFAB4D EQ PUSH2 0x15C JUMPI DUP1 PUSH4 0x3CCFD60B EQ PUSH2 0x186 JUMPI DUP1 PUSH4 0x6AD9C45C EQ PUSH2 0x19C JUMPI DUP1 PUSH4 0x715018A6 EQ PUSH2 0x1C6 JUMPI PUSH2 0xDC JUMP JUMPDEST DUP1 PUSH4 0x6FDDE03 EQ PUSH2 0xE0 JUMPI DUP1 PUSH4 0xB024F87 EQ PUSH2 0x10A JUMPI DUP1 PUSH4 0x21B8092E EQ PUSH2 0x134 JUMPI JUMPDEST PUSH0 DUP1 REVERT JUMPDEST CALLVALUE DUP1 ISZERO PUSH2 0xEB JUMPI PUSH0 DUP1 REVERT JUMPDEST POP PUSH2 0xF4 PUSH2 0x2E1 JUMP JUMPDEST PUSH1 0x40 MLOAD PUSH2 0x101 SWAP2 SWAP1 PUSH2 0xB03 JUMP JUMPDEST PUSH1 0x40 MLOAD DUP1 SWAP2 SUB SWAP1 RETURN JUMPDEST CALLVALUE DUP1 ISZERO PUSH2 0x115 JUMPI PUSH0 DUP1 REVERT JUMPDEST POP PUSH2 0x11E PUSH2 0x36D JUMP JUMPDEST PUSH1 0x40 MLOAD PUSH2 0x12B SWAP2 SWAP1 PUSH2 0xB3B JUMP JUMPDEST PUSH1 0x40 MLOAD DUP1 SWAP2 SUB SWAP1 RETURN JUMPDEST CALLVALUE DUP1 ISZERO PUSH2 0x13F JUMPI PUSH0 DUP1 REVERT JUMPDEST POP PUSH2 0x15A PUSH1 0x4 DUP1 CALLDATASIZE SUB DUP2 ADD SWAP1 PUSH2 0x155 SWAP2 SWAP1 PUSH2 0xBB2 JUMP JUMPDEST PUSH2 0x373 JUMP JUMPDEST STOP JUMPDEST CALLVALUE DUP1 ISZERO PUSH2 0x167 JUMPI PUSH0 DUP1 REVERT JUMPDEST POP PUSH2 0x170 PUSH2 0x3BE JUMP JUMPDEST PUSH1 0x40 MLOAD PUSH2 0x17D SWAP2 SWAP1 PUSH2 0xB3B JUMP JUMPDEST PUSH1 0x40 MLOAD DUP1 SWAP2 SUB SWAP1 RETURN JUMPDEST CALLVALUE DUP1 ISZERO PUSH2 0x191 JUMPI PUSH0 DUP1 REVERT JUMPDEST POP PUSH2 0x19A PUSH2 0x405 JUMP JUMPDEST STOP JUMPDEST CALLVALUE DUP1 ISZERO PUSH2 0x1A7 JUMPI PUSH0 DUP1 REVERT JUMPDEST POP PUSH2 0x1B0 PUSH2 0x4B0 JUMP JUMPDEST PUSH1 0x40 MLOAD PUSH2 0x1BD SWAP2 SWAP1 PUSH2 0xBEC JUMP JUMPDEST PUSH1 0x40 MLOAD DUP1 SWAP2 SUB SWAP1 RETURN JUMPDEST CALLVALUE DUP1 ISZERO PUSH2 0x1D1 JUMPI PUSH0 DUP1 REVERT JUMPDEST POP PUSH2 0x1DA PUSH2 0x4D5 JUMP JUMPDEST STOP JUMPDEST CALLVALUE DUP1 ISZERO PUSH2 0x1E7 JUMPI PUSH0 DUP1 REVERT JUMPDEST POP PUSH2 0x1F0 PUSH2 0x4E8 JUMP JUMPDEST PUSH1 0x40 MLOAD PUSH2 0x1FD SWAP2 SWAP1 PUSH2 0xB03 JUMP JUMPDEST PUSH1 0x40 MLOAD DUP1 SWAP2 SUB SWAP1 RETURN JUMPDEST CALLVALUE DUP1 ISZERO PUSH2 0x211 JUMPI PUSH0 DUP1 REVERT JUMPDEST POP PUSH2 0x21A PUSH2 0x574 JUMP JUMPDEST PUSH1 0x40 MLOAD PUSH2 0x227 SWAP2 SWAP1 PUSH2 0xC25 JUMP JUMPDEST PUSH1 0x40 MLOAD DUP1 SWAP2 SUB SWAP1 RETURN JUMPDEST PUSH2 0x238 PUSH2 0x59B JUMP JUMPDEST STOP JUMPDEST CALLVALUE DUP1 ISZERO PUSH2 0x245 JUMPI PUSH0 DUP1 REVERT JUMPDEST POP PUSH2 0x24E PUSH2 0x6AD JUMP JUMPDEST PUSH1 0x40 MLOAD PUSH2 0x25B SWAP2 SWAP1 PUSH2 0xB3B JUMP JUMPDEST PUSH1 0x40 MLOAD DUP1 SWAP2 SUB SWAP1 RETURN JUMPDEST CALLVALUE DUP1 ISZERO PUSH2 0x26F JUMPI PUSH0 DUP1 REVERT JUMPDEST POP PUSH2 0x28A PUSH1 0x4 DUP1 CALLDATASIZE SUB DUP2 ADD SWAP1 PUSH2 0x285 SWAP2 SWAP1 PUSH2 0xC68 JUMP JUMPDEST PUSH2 0x6B3 JUMP JUMPDEST STOP JUMPDEST CALLVALUE DUP1 ISZERO PUSH2 0x297 JUMPI PUSH0 DUP1 REVERT JUMPDEST POP PUSH2 0x2A0 PUSH2 0x737 JUMP JUMPDEST PUSH1 0x40 MLOAD PUSH2 0x2AD SWAP2 SWAP1 PUSH2 0xB03 JUMP JUMPDEST PUSH1 0x40 MLOAD DUP1 SWAP2 SUB SWAP1 RETURN JUMPDEST CALLVALUE DUP1 ISZERO PUSH2 0x2C1 JUMPI PUSH0 DUP1 REVERT JUMPDEST POP PUSH2 0x2CA PUSH2 0x7C3 JUMP JUMPDEST PUSH1 0x40 MLOAD PUSH2 0x2D8 SWAP3 SWAP2 SWAP1 PUSH2 0xD4A JUMP JUMPDEST PUSH1 0x40 MLOAD DUP1 SWAP2 SUB SWAP1 RETURN JUMPDEST PUSH1 0x4 DUP1 SLOAD PUSH2 0x2EE SWAP1 PUSH2 0xDAC JUMP JUMPDEST DUP1 PUSH1 0x1F ADD PUSH1 0x20 DUP1 SWAP2 DIV MUL PUSH1 0x20 ADD PUSH1 0x40 MLOAD SWAP1 DUP2 ADD PUSH1 0x40 MSTORE DUP1 SWAP3 SWAP2 SWAP1 DUP2 DUP2 MSTORE PUSH1 0x20 ADD DUP3 DUP1 SLOAD PUSH2 0x31A SWAP1 PUSH2 0xDAC JUMP JUMPDEST DUP1 ISZERO PUSH2 0x365 JUMPI DUP1 PUSH1 0x1F LT PUSH2 0x33C JUMPI PUSH2 0x100 DUP1 DUP4 SLOAD DIV MUL DUP4 MSTORE SWAP2 PUSH1 0x20 ADD SWAP2 PUSH2 0x365 JUMP JUMPDEST DUP3 ADD SWAP2 SWAP1 PUSH0 MSTORE PUSH1 0x20 PUSH0 KECCAK256 SWAP1 JUMPDEST DUP2 SLOAD DUP2 MSTORE SWAP1 PUSH1 0x1 ADD SWAP1 PUSH1 0x20 ADD DUP1 DUP4 GT PUSH2 0x348 JUMPI DUP3 SWAP1 SUB PUSH1 0x1F AND DUP3 ADD SWAP2 JUMPDEST POP POP POP POP POP DUP2 JUMP JUMPDEST PUSH1 0x3 SLOAD DUP2 JUMP JUMPDEST PUSH2 0x37B PUSH2 0x92A JUMP JUMPDEST DUP1 PUSH1 0x7 PUSH0 PUSH2 0x100 EXP DUP2 SLOAD DUP2 PUSH20 0xFFFFFFFFFFFFFFFFFFFFFFFFFFFFFFFFFFFFFFFF MUL NOT AND SWAP1 DUP4 PUSH20 0xFFFFFFFFFFFFFFFFFFFFFFFFFFFFFFFFFFFFFFFF AND MUL OR SWAP1 SSTORE POP POP JUMP JUMPDEST PUSH0 PUSH1 0x1 PUSH0 CALLER PUSH20 0xFFFFFFFFFFFFFFFFFFFFFFFFFFFFFFFFFFFFFFFF AND PUSH20 0xFFFFFFFFFFFFFFFFFFFFFFFFFFFFFFFFFFFFFFFF AND DUP2 MSTORE PUSH1 0x20 ADD SWAP1 DUP2 MSTORE PUSH1 0x20 ADD PUSH0 KECCAK256 DUP1 SLOAD SWAP1 POP SWAP1 POP SWAP1 JUMP JUMPDEST PUSH2 0x40D PUSH2 0x92A JUMP JUMPDEST PUSH0 SELFBALANCE SWAP1 POP PUSH1 0x7 PUSH0 SWAP1 SLOAD SWAP1 PUSH2 0x100 EXP SWAP1 DIV PUSH20 0xFFFFFFFFFFFFFFFFFFFFFFFFFFFFFFFFFFFFFFFF AND PUSH20 0xFFFFFFFFFFFFFFFFFFFFFFFFFFFFFFFFFFFFFFFF AND PUSH2 0x8FC DUP3 SWAP1 DUP2 ISZERO MUL SWAP1 PUSH1 0x40 MLOAD PUSH0 PUSH1 0x40 MLOAD DUP1 DUP4 SUB DUP2 DUP6 DUP9 DUP9 CALL SWAP4 POP POP POP POP ISZERO DUP1 ISZERO PUSH2 0x475 JUMPI RETURNDATASIZE PUSH0 DUP1 RETURNDATACOPY RETURNDATASIZE PUSH0 REVERT JUMPDEST POP PUSH32 0x5B6B431D4476A211BB7D41C20D1AAB9AE2321DEEE0D20BE3D9FC9B1093FA6E3D DUP2 PUSH1 0x40 MLOAD PUSH2 0x4A5 SWAP2 SWAP1 PUSH2 0xB3B JUMP JUMPDEST PUSH1 0x40 MLOAD DUP1 SWAP2 SUB SWAP1 LOG1 POP JUMP JUMPDEST PUSH1 0x7 PUSH0 SWAP1 SLOAD SWAP1 PUSH2 0x100 EXP SWAP1 DIV PUSH20 0xFFFFFFFFFFFFFFFFFFFFFFFFFFFFFFFFFFFFFFFF AND DUP2 JUMP JUMPDEST PUSH2 0x4DD PUSH2 0x92A JUMP JUMPDEST PUSH2 0x4E6 PUSH0 PUSH2 0x9B1 JUMP JUMPDEST JUMP JUMPDEST PUSH1 0x5 DUP1 SLOAD PUSH2 0x4F5 SWAP1 PUSH2 0xDAC JUMP JUMPDEST DUP1 PUSH1 0x1F ADD PUSH1 0x20 DUP1 SWAP2 DIV MUL PUSH1 0x20 ADD PUSH1 0x40 MLOAD SWAP1 DUP2 ADD PUSH1 0x40 MSTORE DUP1 SWAP3 SWAP2 SWAP1 DUP2 DUP2 MSTORE PUSH1 0x20 ADD DUP3 DUP1 SLOAD PUSH2 0x521 SWAP1 PUSH2 0xDAC JUMP JUMPDEST DUP1 ISZERO PUSH2 0x56C JUMPI DUP1 PUSH1 0x1F LT PUSH2 0x543 JUMPI PUSH2 0x100 DUP1 DUP4 SLOAD DIV MUL DUP4 MSTORE SWAP2 PUSH1 0x20 ADD SWAP2 PUSH2 0x56C JUMP JUMPDEST DUP3 ADD SWAP2 SWAP1 PUSH0 MSTORE PUSH1 0x20 PUSH0 KECCAK256 SWAP1 JUMPDEST DUP2 SLOAD DUP2 MSTORE SWAP1 PUSH1 0x1 ADD SWAP1 PUSH1 0x20 ADD DUP1 DUP4 GT PUSH2 0x54F JUMPI DUP3 SWAP1 SUB PUSH1 0x1F AND DUP3 ADD SWAP2 JUMPDEST POP POP POP POP POP DUP2 JUMP JUMPDEST PUSH0 DUP1 PUSH0 SWAP1 SLOAD SWAP1 PUSH2 0x100 EXP SWAP1 DIV PUSH20 0xFFFFFFFFFFFFFFFFFFFFFFFFFFFFFFFFFFFFFFFF AND SWAP1 POP SWAP1 JUMP JUMPDEST PUSH0 PUSH1 0x40 MLOAD DUP1 PUSH1 0x40 ADD PUSH1 0x40 MSTORE DUP1 CALLVALUE DUP2 MSTORE PUSH1 0x20 ADD TIMESTAMP DUP2 MSTORE POP SWAP1 POP PUSH1 0x1 PUSH0 CALLER PUSH20 0xFFFFFFFFFFFFFFFFFFFFFFFFFFFFFFFFFFFFFFFF AND PUSH20 0xFFFFFFFFFFFFFFFFFFFFFFFFFFFFFFFFFFFFFFFF AND DUP2 MSTORE PUSH1 0x20 ADD SWAP1 DUP2 MSTORE PUSH1 0x20 ADD PUSH0 KECCAK256 DUP2 SWAP1 DUP1 PUSH1 0x1 DUP2 SLOAD ADD DUP1 DUP3 SSTORE DUP1 SWAP2 POP POP PUSH1 0x1 SWAP1 SUB SWAP1 PUSH0 MSTORE PUSH1 0x20 PUSH0 KECCAK256 SWAP1 PUSH1 0x2 MUL ADD PUSH0 SWAP1 SWAP2 SWAP1 SWAP2 SWAP1 SWAP2 POP PUSH0 DUP3 ADD MLOAD DUP2 PUSH0 ADD SSTORE PUSH1 0x20 DUP3 ADD MLOAD DUP2 PUSH1 0x1 ADD SSTORE POP POP CALLVALUE PUSH1 0x2 PUSH0 DUP3 DUP3 SLOAD PUSH2 0x63C SWAP2 SWAP1 PUSH2 0xE09 JUMP JUMPDEST SWAP3 POP POP DUP2 SWAP1 SSTORE POP PUSH1 0x1 PUSH1 0x3 PUSH0 DUP3 DUP3 SLOAD PUSH2 0x655 SWAP2 SWAP1 PUSH2 0xE09 JUMP JUMPDEST SWAP3 POP POP DUP2 SWAP1 SSTORE POP CALLER PUSH20 0xFFFFFFFFFFFFFFFFFFFFFFFFFFFFFFFFFFFFFFFF AND PUSH32 0xE2639EF551AD89950DA1145FE1FD600E818336D6E8AA88426EFE387C49ACCEBB CALLVALUE PUSH1 0x40 MLOAD PUSH2 0x6A2 SWAP2 SWAP1 PUSH2 0xB3B JUMP JUMPDEST PUSH1 0x40 MLOAD DUP1 SWAP2 SUB SWAP1 LOG2 POP JUMP JUMPDEST PUSH1 0x2 SLOAD DUP2 JUMP JUMPDEST PUSH2 0x6BB PUSH2 0x92A JUMP JUMPDEST PUSH0 PUSH20 0xFFFFFFFFFFFFFFFFFFFFFFFFFFFFFFFFFFFFFFFF AND DUP2 PUSH20 0xFFFFFFFFFFFFFFFFFFFFFFFFFFFFFFFFFFFFFFFF AND SUB PUSH2 0x72B JUMPI PUSH0 PUSH1 0x40 MLOAD PUSH32 0x1E4FBDF700000000000000000000000000000000000000000000000000000000 DUP2 MSTORE PUSH1 0x4 ADD PUSH2 0x722 SWAP2 SWAP1 PUSH2 0xC25 JUMP JUMPDEST PUSH1 0x40 MLOAD DUP1 SWAP2 SUB SWAP1 REVERT JUMPDEST PUSH2 0x734 DUP2 PUSH2 0x9B1 JUMP JUMPDEST POP JUMP JUMPDEST PUSH1 0x6 DUP1 SLOAD PUSH2 0x744 SWAP1 PUSH2 0xDAC JUMP JUMPDEST DUP1 PUSH1 0x1F ADD PUSH1 0x20 DUP1 SWAP2 DIV MUL PUSH1 0x20 ADD PUSH1 0x40 MLOAD SWAP1 DUP2 ADD PUSH1 0x40 MSTORE DUP1 SWAP3 SWAP2 SWAP1 DUP2 DUP2 MSTORE PUSH1 0x20 ADD DUP3 DUP1 SLOAD PUSH2 0x770 SWAP1 PUSH2 0xDAC JUMP JUMPDEST DUP1 ISZERO PUSH2 0x7BB JUMPI DUP1 PUSH1 0x1F LT PUSH2 0x792 JUMPI PUSH2 0x100 DUP1 DUP4 SLOAD DIV MUL DUP4 MSTORE SWAP2 PUSH1 0x20 ADD SWAP2 PUSH2 0x7BB JUMP JUMPDEST DUP3 ADD SWAP2 SWAP1 PUSH0 MSTORE PUSH1 0x20 PUSH0 KECCAK256 SWAP1 JUMPDEST DUP2 SLOAD DUP2 MSTORE SWAP1 PUSH1 0x1 ADD SWAP1 PUSH1 0x20 ADD DUP1 DUP4 GT PUSH2 0x79E JUMPI DUP3 SWAP1 SUB PUSH1 0x1F AND DUP3 ADD SWAP2 JUMPDEST POP POP POP POP POP DUP2 JUMP JUMPDEST PUSH1 0x60 DUP1 PUSH0 PUSH2 0x7CF PUSH2 0x3BE JUMP JUMPDEST SWAP1 POP DUP1 PUSH8 0xFFFFFFFFFFFFFFFF DUP2 GT ISZERO PUSH2 0x7EB JUMPI PUSH2 0x7EA PUSH2 0xE3C JUMP JUMPDEST JUMPDEST PUSH1 0x40 MLOAD SWAP1 DUP1 DUP3 MSTORE DUP1 PUSH1 0x20 MUL PUSH1 0x20 ADD DUP3 ADD PUSH1 0x40 MSTORE DUP1 ISZERO PUSH2 0x819 JUMPI DUP2 PUSH1 0x20 ADD PUSH1 0x20 DUP3 MUL DUP1 CALLDATASIZE DUP4 CALLDATACOPY DUP1 DUP3 ADD SWAP2 POP POP SWAP1 POP JUMPDEST POP SWAP3 POP DUP1 PUSH8 0xFFFFFFFFFFFFFFFF DUP2 GT ISZERO PUSH2 0x836 JUMPI PUSH2 0x835 PUSH2 0xE3C JUMP JUMPDEST JUMPDEST PUSH1 0x40 MLOAD SWAP1 DUP1 DUP3 MSTORE DUP1 PUSH1 0x20 MUL PUSH1 0x20 ADD DUP3 ADD PUSH1 0x40 MSTORE DUP1 ISZERO PUSH2 0x864 JUMPI DUP2 PUSH1 0x20 ADD PUSH1 0x20 DUP3 MUL DUP1 CALLDATASIZE DUP4 CALLDATACOPY DUP1 DUP3 ADD SWAP2 POP POP SWAP1 POP JUMPDEST POP SWAP2 POP PUSH0 JUMPDEST DUP2 DUP2 LT ISZERO PUSH2 0x924 JUMPI PUSH0 PUSH1 0x1 PUSH0 CALLER PUSH20 0xFFFFFFFFFFFFFFFFFFFFFFFFFFFFFFFFFFFFFFFF AND PUSH20 0xFFFFFFFFFFFFFFFFFFFFFFFFFFFFFFFFFFFFFFFF AND DUP2 MSTORE PUSH1 0x20 ADD SWAP1 DUP2 MSTORE PUSH1 0x20 ADD PUSH0 KECCAK256 DUP3 DUP2 SLOAD DUP2 LT PUSH2 0x8C1 JUMPI PUSH2 0x8C0 PUSH2 0xE69 JUMP JUMPDEST JUMPDEST SWAP1 PUSH0 MSTORE PUSH1 0x20 PUSH0 KECCAK256 SWAP1 PUSH1 0x2 MUL ADD SWAP1 POP DUP1 PUSH0 ADD SLOAD DUP6 DUP4 DUP2 MLOAD DUP2 LT PUSH2 0x8E6 JUMPI PUSH2 0x8E5 PUSH2 0xE69 JUMP JUMPDEST JUMPDEST PUSH1 0x20 MUL PUSH1 0x20 ADD ADD DUP2 DUP2 MSTORE POP POP DUP1 PUSH1 0x1 ADD SLOAD DUP5 DUP4 DUP2 MLOAD DUP2 LT PUSH2 0x90A JUMPI PUSH2 0x909 PUSH2 0xE69 JUMP JUMPDEST JUMPDEST PUSH1 0x20 MUL PUSH1 0x20 ADD ADD DUP2 DUP2 MSTORE POP POP POP DUP1 DUP1 PUSH1 0x1 ADD SWAP2 POP POP PUSH2 0x869 JUMP JUMPDEST POP POP SWAP1 SWAP2 JUMP JUMPDEST PUSH2 0x932 PUSH2 0xA72 JUMP JUMPDEST PUSH20 0xFFFFFFFFFFFFFFFFFFFFFFFFFFFFFFFFFFFFFFFF AND PUSH2 0x950 PUSH2 0x574 JUMP JUMPDEST PUSH20 0xFFFFFFFFFFFFFFFFFFFFFFFFFFFFFFFFFFFFFFFF AND EQ PUSH2 0x9AF JUMPI PUSH2 0x973 PUSH2 0xA72 JUMP JUMPDEST PUSH1 0x40 MLOAD PUSH32 0x118CDAA700000000000000000000000000000000000000000000000000000000 DUP2 MSTORE PUSH1 0x4 ADD PUSH2 0x9A6 SWAP2 SWAP1 PUSH2 0xC25 JUMP JUMPDEST PUSH1 0x40 MLOAD DUP1 SWAP2 SUB SWAP1 REVERT JUMPDEST JUMP JUMPDEST PUSH0 DUP1 PUSH0 SWAP1 SLOAD SWAP1 PUSH2 0x100 EXP SWAP1 DIV PUSH20 0xFFFFFFFFFFFFFFFFFFFFFFFFFFFFFFFFFFFFFFFF AND SWAP1 POP DUP2 PUSH0 DUP1 PUSH2 0x100 EXP DUP2 SLOAD DUP2 PUSH20 0xFFFFFFFFFFFFFFFFFFFFFFFFFFFFFFFFFFFFFFFF MUL NOT AND SWAP1 DUP4 PUSH20 0xFFFFFFFFFFFFFFFFFFFFFFFFFFFFFFFFFFFFFFFF AND MUL OR SWAP1 SSTORE POP DUP2 PUSH20 0xFFFFFFFFFFFFFFFFFFFFFFFFFFFFFFFFFFFFFFFF AND DUP2 PUSH20 0xFFFFFFFFFFFFFFFFFFFFFFFFFFFFFFFFFFFFFFFF AND PUSH32 0x8BE0079C531659141344CD1FD0A4F28419497F9722A3DAAFE3B4186F6B6457E0 PUSH1 0x40 MLOAD PUSH1 0x40 MLOAD DUP1 SWAP2 SUB SWAP1 LOG3 POP POP JUMP JUMPDEST PUSH0 CALLER SWAP1 POP SWAP1 JUMP JUMPDEST PUSH0 DUP2 MLOAD SWAP1 POP SWAP2 SWAP1 POP JUMP JUMPDEST PUSH0 DUP3 DUP3 MSTORE PUSH1 0x20 DUP3 ADD SWAP1 POP SWAP3 SWAP2 POP POP JUMP JUMPDEST PUSH0 JUMPDEST DUP4 DUP2 LT ISZERO PUSH2 0xAB0 JUMPI DUP1 DUP3 ADD MLOAD DUP2 DUP5 ADD MSTORE PUSH1 0x20 DUP2 ADD SWAP1 POP PUSH2 0xA95 JUMP JUMPDEST PUSH0 DUP5 DUP5 ADD MSTORE POP POP POP POP JUMP JUMPDEST PUSH0 PUSH1 0x1F NOT PUSH1 0x1F DUP4 ADD AND SWAP1 POP SWAP2 SWAP1 POP JUMP JUMPDEST PUSH0 PUSH2 0xAD5 DUP3 PUSH2 0xA79 JUMP JUMPDEST PUSH2 0xADF DUP2 DUP6 PUSH2 0xA83 JUMP JUMPDEST SWAP4 POP PUSH2 0xAEF DUP2 DUP6 PUSH1 0x20 DUP7 ADD PUSH2 0xA93 JUMP JUMPDEST PUSH2 0xAF8 DUP2 PUSH2 0xABB JUMP JUMPDEST DUP5 ADD SWAP2 POP POP SWAP3 SWAP2 POP POP JUMP JUMPDEST PUSH0 PUSH1 0x20 DUP3 ADD SWAP1 POP DUP2 DUP2 SUB PUSH0 DUP4 ADD MSTORE PUSH2 0xB1B DUP2 DUP5 PUSH2 0xACB JUMP JUMPDEST SWAP1 POP SWAP3 SWAP2 POP POP JUMP JUMPDEST PUSH0 DUP2 SWAP1 POP SWAP2 SWAP1 POP JUMP JUMPDEST PUSH2 0xB35 DUP2 PUSH2 0xB23 JUMP JUMPDEST DUP3 MSTORE POP POP JUMP JUMPDEST PUSH0 PUSH1 0x20 DUP3 ADD SWAP1 POP PUSH2 0xB4E PUSH0 DUP4 ADD DUP5 PUSH2 0xB2C JUMP JUMPDEST SWAP3 SWAP2 POP POP JUMP JUMPDEST PUSH0 DUP1 REVERT JUMPDEST PUSH0 PUSH20 0xFFFFFFFFFFFFFFFFFFFFFFFFFFFFFFFFFFFFFFFF DUP3 AND SWAP1 POP SWAP2 SWAP1 POP JUMP JUMPDEST PUSH0 PUSH2 0xB81 DUP3 PUSH2 0xB58 JUMP JUMPDEST SWAP1 POP SWAP2 SWAP1 POP JUMP JUMPDEST PUSH2 0xB91 DUP2 PUSH2 0xB77 JUMP JUMPDEST DUP2 EQ PUSH2 0xB9B JUMPI PUSH0 DUP1 REVERT JUMPDEST POP JUMP JUMPDEST PUSH0 DUP2 CALLDATALOAD SWAP1 POP PUSH2 0xBAC DUP2 PUSH2 0xB88 JUMP JUMPDEST SWAP3 SWAP2 POP POP JUMP JUMPDEST PUSH0 PUSH1 0x20 DUP3 DUP5 SUB SLT ISZERO PUSH2 0xBC7 JUMPI PUSH2 0xBC6 PUSH2 0xB54 JUMP JUMPDEST JUMPDEST PUSH0 PUSH2 0xBD4 DUP5 DUP3 DUP6 ADD PUSH2 0xB9E JUMP JUMPDEST SWAP2 POP POP SWAP3 SWAP2 POP POP JUMP JUMPDEST PUSH2 0xBE6 DUP2 PUSH2 0xB77 JUMP JUMPDEST DUP3 MSTORE POP POP JUMP JUMPDEST PUSH0 PUSH1 0x20 DUP3 ADD SWAP1 POP PUSH2 0xBFF PUSH0 DUP4 ADD DUP5 PUSH2 0xBDD JUMP JUMPDEST SWAP3 SWAP2 POP POP JUMP JUMPDEST PUSH0 PUSH2 0xC0F DUP3 PUSH2 0xB58 JUMP JUMPDEST SWAP1 POP SWAP2 SWAP1 POP JUMP JUMPDEST PUSH2 0xC1F DUP2 PUSH2 0xC05 JUMP JUMPDEST DUP3 MSTORE POP POP JUMP JUMPDEST PUSH0 PUSH1 0x20 DUP3 ADD SWAP1 POP PUSH2 0xC38 PUSH0 DUP4 ADD DUP5 PUSH2 0xC16 JUMP JUMPDEST SWAP3 SWAP2 POP POP JUMP JUMPDEST PUSH2 0xC47 DUP2 PUSH2 0xC05 JUMP JUMPDEST DUP2 EQ PUSH2 0xC51 JUMPI PUSH0 DUP1 REVERT JUMPDEST POP JUMP JUMPDEST PUSH0 DUP2 CALLDATALOAD SWAP1 POP PUSH2 0xC62 DUP2 PUSH2 0xC3E JUMP JUMPDEST SWAP3 SWAP2 POP POP JUMP JUMPDEST PUSH0 PUSH1 0x20 DUP3 DUP5 SUB SLT ISZERO PUSH2 0xC7D JUMPI PUSH2 0xC7C PUSH2 0xB54 JUMP JUMPDEST JUMPDEST PUSH0 PUSH2 0xC8A DUP5 DUP3 DUP6 ADD PUSH2 0xC54 JUMP JUMPDEST SWAP2 POP POP SWAP3 SWAP2 POP POP JUMP JUMPDEST PUSH0 DUP2 MLOAD SWAP1 POP SWAP2 SWAP1 POP JUMP JUMPDEST PUSH0 DUP3 DUP3 MSTORE PUSH1 0x20 DUP3 ADD SWAP1 POP SWAP3 SWAP2 POP POP JUMP JUMPDEST PUSH0 DUP2 SWAP1 POP PUSH1 0x20 DUP3 ADD SWAP1 POP SWAP2 SWAP1 POP JUMP JUMPDEST PUSH2 0xCC5 DUP2 PUSH2 0xB23 JUMP JUMPDEST DUP3 MSTORE POP POP JUMP JUMPDEST PUSH0 PUSH2 0xCD6 DUP4 DUP4 PUSH2 0xCBC JUMP JUMPDEST PUSH1 0x20 DUP4 ADD SWAP1 POP SWAP3 SWAP2 POP POP JUMP JUMPDEST PUSH0 PUSH1 0x20 DUP3 ADD SWAP1 POP SWAP2 SWAP1 POP JUMP JUMPDEST PUSH0 PUSH2 0xCF8 DUP3 PUSH2 0xC93 JUMP JUMPDEST PUSH2 0xD02 DUP2 DUP6 PUSH2 0xC9D JUMP JUMPDEST SWAP4 POP PUSH2 0xD0D DUP4 PUSH2 0xCAD JUMP JUMPDEST DUP1 PUSH0 JUMPDEST DUP4 DUP2 LT ISZERO PUSH2 0xD3D JUMPI DUP2 MLOAD PUSH2 0xD24 DUP9 DUP3 PUSH2 0xCCB JUMP JUMPDEST SWAP8 POP PUSH2 0xD2F DUP4 PUSH2 0xCE2 JUMP JUMPDEST SWAP3 POP POP PUSH1 0x1 DUP2 ADD SWAP1 POP PUSH2 0xD10 JUMP JUMPDEST POP DUP6 SWAP4 POP POP POP POP SWAP3 SWAP2 POP POP JUMP JUMPDEST PUSH0 PUSH1 0x40 DUP3 ADD SWAP1 POP DUP2 DUP2 SUB PUSH0 DUP4 ADD MSTORE PUSH2 0xD62 DUP2 DUP6 PUSH2 0xCEE JUMP JUMPDEST SWAP1 POP DUP2 DUP2 SUB PUSH1 0x20 DUP4 ADD MSTORE PUSH2 0xD76 DUP2 DUP5 PUSH2 0xCEE JUMP JUMPDEST SWAP1 POP SWAP4 SWAP3 POP POP POP JUMP JUMPDEST PUSH32 0x4E487B7100000000000000000000000000000000000000000000000000000000 PUSH0 MSTORE PUSH1 0x22 PUSH1 0x4 MSTORE PUSH1 0x24 PUSH0 REVERT JUMPDEST PUSH0 PUSH1 0x2 DUP3 DIV SWAP1 POP PUSH1 0x1 DUP3 AND DUP1 PUSH2 0xDC3 JUMPI PUSH1 0x7F DUP3 AND SWAP2 POP JUMPDEST PUSH1 0x20 DUP3 LT DUP2 SUB PUSH2 0xDD6 JUMPI PUSH2 0xDD5 PUSH2 0xD7F JUMP JUMPDEST JUMPDEST POP SWAP2 SWAP1 POP JUMP JUMPDEST PUSH32 0x4E487B7100000000000000000000000000000000000000000000000000000000 PUSH0 MSTORE PUSH1 0x11 PUSH1 0x4 MSTORE PUSH1 0x24 PUSH0 REVERT JUMPDEST PUSH0 PUSH2 0xE13 DUP3 PUSH2 0xB23 JUMP JUMPDEST SWAP2 POP PUSH2 0xE1E DUP4 PUSH2 0xB23 JUMP JUMPDEST SWAP3 POP DUP3 DUP3 ADD SWAP1 POP DUP1 DUP3 GT ISZERO PUSH2 0xE36 JUMPI PUSH2 0xE35 PUSH2 0xDDC JUMP JUMPDEST JUMPDEST SWAP3 SWAP2 POP POP JUMP JUMPDEST PUSH32 0x4E487B7100000000000000000000000000000000000000000000000000000000 PUSH0 MSTORE PUSH1 0x41 PUSH1 0x4 MSTORE PUSH1 0x24 PUSH0 REVERT JUMPDEST PUSH32 0x4E487B7100000000000000000000000000000000000000000000000000000000 PUSH0 MSTORE PUSH1 0x32 PUSH1 0x4 MSTORE PUSH1 0x24 PUSH0 REVERT INVALID LOG2 PUSH5 0x6970667358 0x22 SLT KECCAK256 DUP3 INVALID LOG2 0xD4 0xE2 PUSH23 0xAC9D279CDDABBE36F585E0B79E14B31CA496C5ECA0B786 0xE 0xB7 SWAP6 PUSH5 0x736F6C6343 STOP ADDMOD AND STOP CALLER LOG2 PUSH5 0x6970667358 0x22 SLT KECCAK256 LOG4 0xD PUSH20 0xDC79E40C21478871F50F3CC0408E897D232833AC GASPRICE CREATE SELFBALANCE PUSH7 0x3E51D618166473 PUSH16 0x6C634300081600330000000000000000 "
				},
				"gasEstimates": {
					"creation": {
						"codeDepositCost": "1584800",
						"executionCost": "1657",
						"totalCost": "1586457"
					},
					"external": {
						"allDonees()": "infinite",
						"createDonee(string,string,string,address)": "infinite",
						"doneesCnt()": "2462"
					}
				},
				"methodIdentifiers": {
					"allDonees()": "aeda46a6",
					"createDonee(string,string,string,address)": "c41b72c8",
					"doneesCnt()": "f833baf4"
				}
			},
			"storageLayout": {
				"storage": [
					{
						"astId": 418,
						"contract": "DoneeFactory.sol:DoneeFactory",
						"label": "_donees",
						"offset": 0,
						"slot": "0",
						"type": "t_array(t_contract(Donee)411)dyn_storage"
					}
				],
				"types": {
					"t_array(t_contract(Donee)411)dyn_storage": {
						"base": "t_contract(Donee)411",
						"encoding": "dynamic_array",
						"label": "contract Donee[]",
						"numberOfBytes": "32"
					},
					"t_contract(Donee)411": {
						"encoding": "inplace",
						"label": "contract Donee",
						"numberOfBytes": "20"
					}
				}
			},
			"userdoc": {
				"kind": "user",
				"methods": {},
				"version": 1
			}
		}
	}
}