{
	"contracts/Donee.sol": {
		"Donee": {
			"abi": [
				{
					"inputs": [
						{
							"internalType": "string",
							"name": "_name",
							"type": "string"
						},
						{
							"internalType": "string",
							"name": "_description",
							"type": "string"
						},
						{
							"internalType": "string",
							"name": "_image",
							"type": "string"
						},
						{
							"internalType": "address payable",
							"name": "_donee_address",
							"type": "address"
						}
					],
					"stateMutability": "nonpayable",
					"type": "constructor"
				},
				{
					"inputs": [
						{
							"internalType": "address",
							"name": "owner",
							"type": "address"
						}
					],
					"name": "OwnableInvalidOwner",
					"type": "error"
				},
				{
					"inputs": [
						{
							"internalType": "address",
							"name": "account",
							"type": "address"
						}
					],
					"name": "OwnableUnauthorizedAccount",
					"type": "error"
				},
				{
					"anonymous": false,
					"inputs": [
						{
							"indexed": true,
							"internalType": "address",
							"name": "previousOwner",
							"type": "address"
						},
						{
							"indexed": true,
							"internalType": "address",
							"name": "newOwner",
							"type": "address"
						}
					],
					"name": "OwnershipTransferred",
					"type": "event"
				},
				{
					"anonymous": false,
					"inputs": [
						{
							"indexed": false,
							"internalType": "uint256",
							"name": "ammount",
							"type": "uint256"
						}
					],
					"name": "Withdraw",
					"type": "event"
				},
				{
					"anonymous": false,
					"inputs": [
						{
							"indexed": true,
							"internalType": "address",
							"name": "donor",
							"type": "address"
						},
						{
							"indexed": false,
							"internalType": "uint256",
							"name": "value",
							"type": "uint256"
						}
					],
					"name": "donationReceived",
					"type": "event"
				},
				{
					"inputs": [],
					"name": "description",
					"outputs": [
						{
							"internalType": "string",
							"name": "",
							"type": "string"
						}
					],
					"stateMutability": "view",
					"type": "function"
				},
				{
					"inputs": [],
					"name": "donate",
					"outputs": [],
					"stateMutability": "payable",
					"type": "function"
				},
				{
					"inputs": [],
					"name": "donationCount",
					"outputs": [
						{
							"internalType": "uint256",
							"name": "",
							"type": "uint256"
						}
					],
					"stateMutability": "view",
					"type": "function"
				},
				{
					"inputs": [],
					"name": "donee_address",
					"outputs": [
						{
							"internalType": "address payable",
							"name": "",
							"type": "address"
						}
					],
					"stateMutability": "view",
					"type": "function"
				},
				{
					"inputs": [],
					"name": "image",
					"outputs": [
						{
							"internalType": "string",
							"name": "",
							"type": "string"
						}
					],
					"stateMutability": "view",
					"type": "function"
				},
				{
					"inputs": [],
					"name": "myHistory",
					"outputs": [
						{
							"internalType": "uint256[]",
							"name": "values",
							"type": "uint256[]"
						},
						{
							"internalType": "uint256[]",
							"name": "dates",
							"type": "uint256[]"
						}
					],
					"stateMutability": "view",
					"type": "function"
				},
				{
					"inputs": [],
					"name": "name",
					"outputs": [
						{
							"internalType": "string",
							"name": "",
							"type": "string"
						}
					],
					"stateMutability": "view",
					"type": "function"
				},
				{
					"inputs": [],
					"name": "owner",
					"outputs": [
						{
							"internalType": "address",
							"name": "",
							"type": "address"
						}
					],
					"stateMutability": "view",
					"type": "function"
				},
				{
					"inputs": [],
					"name": "raised",
					"outputs": [
						{
							"internalType": "uint256",
							"name": "",
							"type": "uint256"
						}
					],
					"stateMutability": "view",
					"type": "function"
				},
				{
					"inputs": [],
					"name": "renounceOwnership",
					"outputs": [],
					"stateMutability": "nonpayable",
					"type": "function"
				},
				{
					"inputs": [
						{
							"internalType": "address payable",
							"name": "new_address",
							"type": "address"
						}
					],
					"name": "setWithdrawalAddress",
					"outputs": [],
					"stateMutability": "nonpayable",
					"type": "function"
				},
				{
					"inputs": [],
					"name": "totalDonationCount",
					"outputs": [
						{
							"internalType": "uint256",
							"name": "",
							"type": "uint256"
						}
					],
					"stateMutability": "view",
					"type": "function"
				},
				{
					"inputs": [
						{
							"internalType": "address",
							"name": "newOwner",
							"type": "address"
						}
					],
					"name": "transferOwnership",
					"outputs": [],
					"stateMutability": "nonpayable",
					"type": "function"
				},
				{
					"inputs": [],
					"name": "withdraw",
					"outputs": [],
					"stateMutability": "nonpayable",
					"type": "function"
				}
			],
			"devdoc": {
				"errors": {
					"OwnableInvalidOwner(address)": [
						{
							"details": "The owner is not a valid owner account. (eg. `address(0)`)"
						}
					],
					"OwnableUnauthorizedAccount(address)": [
						{
							"details": "The caller account is not authorized to perform an operation."
						}
					]
				},
				"kind": "dev",
				"methods": {
					"owner()": {
						"details": "Returns the address of the current owner."
					},
					"renounceOwnership()": {
						"details": "Leaves the contract without owner. It will not be possible to call `onlyOwner` functions. Can only be called by the current owner. NOTE: Renouncing ownership will leave the contract without an owner, thereby disabling any functionality that is only available to the owner."
					},
					"transferOwnership(address)": {
						"details": "Transfers ownership of the contract to a new account (`newOwner`). Can only be called by the current owner."
					}
				},
				"version": 1
			},
			"evm": {
				"assembly": "    /* \"contracts/Donee.sol\":115:2056  contract Donee is Ownable{... */\n  mstore(0x40, 0x80)\n    /* \"contracts/Donee.sol\":585:854  constructor(string memory _name, string memory _description, string memory _image, address payable _donee_address) Ownable(msg.sender) {... */\n  callvalue\n  dup1\n  iszero\n  tag_1\n  jumpi\n  0x00\n  dup1\n  revert\ntag_1:\n  pop\n  mload(0x40)\n  sub(codesize, bytecodeSize)\n  dup1\n  bytecodeSize\n  dup4\n  codecopy\n  dup2\n  dup2\n  add\n  0x40\n  mstore\n  dup2\n  add\n  swap1\n  tag_2\n  swap2\n  swap1\n  tag_3\n  jump\t// in\ntag_2:\n    /* \"contracts/Donee.sol\":708:718  msg.sender */\n  caller\n    /* \"@openzeppelin/contracts/access/Ownable.sol\":1297:1298  0 */\n  0x00\n    /* \"@openzeppelin/contracts/access/Ownable.sol\":1273:1299  initialOwner == address(0) */\n  0xffffffffffffffffffffffffffffffffffffffff\n  and\n    /* \"@openzeppelin/contracts/access/Ownable.sol\":1273:1285  initialOwner */\n  dup2\n    /* \"@openzeppelin/contracts/access/Ownable.sol\":1273:1299  initialOwner == address(0) */\n  0xffffffffffffffffffffffffffffffffffffffff\n  and\n  sub\n    /* \"@openzeppelin/contracts/access/Ownable.sol\":1269:1364  if (initialOwner == address(0)) {... */\n  tag_7\n  jumpi\n    /* \"@openzeppelin/contracts/access/Ownable.sol\":1350:1351  0 */\n  0x00\n    /* \"@openzeppelin/contracts/access/Ownable.sol\":1322:1353  OwnableInvalidOwner(address(0)) */\n  mload(0x40)\n  0x1e4fbdf700000000000000000000000000000000000000000000000000000000\n  dup2\n  mstore\n  0x04\n  add\n  tag_8\n  swap2\n  swap1\n  tag_9\n  jump\t// in\ntag_8:\n  mload(0x40)\n  dup1\n  swap2\n  sub\n  swap1\n  revert\n    /* \"@openzeppelin/contracts/access/Ownable.sol\":1269:1364  if (initialOwner == address(0)) {... */\ntag_7:\n    /* \"@openzeppelin/contracts/access/Ownable.sol\":1373:1405  _transferOwnership(initialOwner) */\n  tag_10\n    /* \"@openzeppelin/contracts/access/Ownable.sol\":1392:1404  initialOwner */\n  dup2\n    /* \"@openzeppelin/contracts/access/Ownable.sol\":1373:1391  _transferOwnership */\n  shl(0x20, tag_11)\n    /* \"@openzeppelin/contracts/access/Ownable.sol\":1373:1405  _transferOwnership(initialOwner) */\n  0x20\n  shr\n  jump\t// in\ntag_10:\n    /* \"@openzeppelin/contracts/access/Ownable.sol\":1225:1412  constructor(address initialOwner) {... */\n  pop\n    /* \"contracts/Donee.sol\":738:743  _name */\n  dup4\n    /* \"contracts/Donee.sol\":731:735  name */\n  0x04\n    /* \"contracts/Donee.sol\":731:743  name = _name */\n  swap1\n  dup2\n  tag_13\n  swap2\n  swap1\n  tag_14\n  jump\t// in\ntag_13:\n  pop\n    /* \"contracts/Donee.sol\":768:780  _description */\n  dup3\n    /* \"contracts/Donee.sol\":754:765  description */\n  0x05\n    /* \"contracts/Donee.sol\":754:780  description = _description */\n  swap1\n  dup2\n  tag_15\n  swap2\n  swap1\n  tag_14\n  jump\t// in\ntag_15:\n  pop\n    /* \"contracts/Donee.sol\":799:805  _image */\n  dup2\n    /* \"contracts/Donee.sol\":791:796  image */\n  0x06\n    /* \"contracts/Donee.sol\":791:805  image = _image */\n  swap1\n  dup2\n  tag_16\n  swap2\n  swap1\n  tag_14\n  jump\t// in\ntag_16:\n  pop\n    /* \"contracts/Donee.sol\":832:846  _donee_address */\n  dup1\n    /* \"contracts/Donee.sol\":816:829  donee_address */\n  0x07\n  0x00\n    /* \"contracts/Donee.sol\":816:846  donee_address = _donee_address */\n  0x0100\n  exp\n  dup2\n  sload\n  dup2\n  0xffffffffffffffffffffffffffffffffffffffff\n  mul\n  not\n  and\n  swap1\n  dup4\n  0xffffffffffffffffffffffffffffffffffffffff\n  and\n  mul\n  or\n  swap1\n  sstore\n  pop\n    /* \"contracts/Donee.sol\":585:854  constructor(string memory _name, string memory _description, string memory _image, address payable _donee_address) Ownable(msg.sender) {... */\n  pop\n  pop\n  pop\n  pop\n    /* \"contracts/Donee.sol\":115:2056  contract Donee is Ownable{... */\n  jump(tag_17)\n    /* \"@openzeppelin/contracts/access/Ownable.sol\":2912:3099  function _transferOwnership(address newOwner) internal virtual {... */\ntag_11:\n    /* \"@openzeppelin/contracts/access/Ownable.sol\":2985:3001  address oldOwner */\n  0x00\n    /* \"@openzeppelin/contracts/access/Ownable.sol\":3004:3010  _owner */\n  dup1\n  0x00\n  swap1\n  sload\n  swap1\n  0x0100\n  exp\n  swap1\n  div\n  0xffffffffffffffffffffffffffffffffffffffff\n  and\n    /* \"@openzeppelin/contracts/access/Ownable.sol\":2985:3010  address oldOwner = _owner */\n  swap1\n  pop\n    /* \"@openzeppelin/contracts/access/Ownable.sol\":3029:3037  newOwner */\n  dup2\n    /* \"@openzeppelin/contracts/access/Ownable.sol\":3020:3026  _owner */\n  0x00\n  dup1\n    /* \"@openzeppelin/contracts/access/Ownable.sol\":3020:3037  _owner = newOwner */\n  0x0100\n  exp\n  dup2\n  sload\n  dup2\n  0xffffffffffffffffffffffffffffffffffffffff\n  mul\n  not\n  and\n  swap1\n  dup4\n  0xffffffffffffffffffffffffffffffffffffffff\n  and\n  mul\n  or\n  swap1\n  sstore\n  pop\n    /* \"@openzeppelin/contracts/access/Ownable.sol\":3083:3091  newOwner */\n  dup2\n    /* \"@openzeppelin/contracts/access/Ownable.sol\":3052:3092  OwnershipTransferred(oldOwner, newOwner) */\n  0xffffffffffffffffffffffffffffffffffffffff\n  and\n    /* \"@openzeppelin/contracts/access/Ownable.sol\":3073:3081  oldOwner */\n  dup2\n    /* \"@openzeppelin/contracts/access/Ownable.sol\":3052:3092  OwnershipTransferred(oldOwner, newOwner) */\n  0xffffffffffffffffffffffffffffffffffffffff\n  and\n  0x8be0079c531659141344cd1fd0a4f28419497f9722a3daafe3b4186f6b6457e0\n  mload(0x40)\n  mload(0x40)\n  dup1\n  swap2\n  sub\n  swap1\n  log3\n    /* \"@openzeppelin/contracts/access/Ownable.sol\":2975:3099  {... */\n  pop\n    /* \"@openzeppelin/contracts/access/Ownable.sol\":2912:3099  function _transferOwnership(address newOwner) internal virtual {... */\n  pop\n  jump\t// out\n    /* \"#utility.yul\":7:82   */\ntag_19:\n    /* \"#utility.yul\":40:46   */\n  0x00\n    /* \"#utility.yul\":73:75   */\n  0x40\n    /* \"#utility.yul\":67:76   */\n  mload\n    /* \"#utility.yul\":57:76   */\n  swap1\n  pop\n    /* \"#utility.yul\":7:82   */\n  swap1\n  jump\t// out\n    /* \"#utility.yul\":88:205   */\ntag_20:\n    /* \"#utility.yul\":197:198   */\n  0x00\n    /* \"#utility.yul\":194:195   */\n  dup1\n    /* \"#utility.yul\":187:199   */\n  revert\n    /* \"#utility.yul\":211:328   */\ntag_21:\n    /* \"#utility.yul\":320:321   */\n  0x00\n    /* \"#utility.yul\":317:318   */\n  dup1\n    /* \"#utility.yul\":310:322   */\n  revert\n    /* \"#utility.yul\":334:451   */\ntag_22:\n    /* \"#utility.yul\":443:444   */\n  0x00\n    /* \"#utility.yul\":440:441   */\n  dup1\n    /* \"#utility.yul\":433:445   */\n  revert\n    /* \"#utility.yul\":457:574   */\ntag_23:\n    /* \"#utility.yul\":566:567   */\n  0x00\n    /* \"#utility.yul\":563:564   */\n  dup1\n    /* \"#utility.yul\":556:568   */\n  revert\n    /* \"#utility.yul\":580:682   */\ntag_24:\n    /* \"#utility.yul\":621:627   */\n  0x00\n    /* \"#utility.yul\":672:674   */\n  0x1f\n    /* \"#utility.yul\":668:675   */\n  not\n    /* \"#utility.yul\":663:665   */\n  0x1f\n    /* \"#utility.yul\":656:661   */\n  dup4\n    /* \"#utility.yul\":652:666   */\n  add\n    /* \"#utility.yul\":648:676   */\n  and\n    /* \"#utility.yul\":638:676   */\n  swap1\n  pop\n    /* \"#utility.yul\":580:682   */\n  swap2\n  swap1\n  pop\n  jump\t// out\n    /* \"#utility.yul\":688:868   */\ntag_25:\n    /* \"#utility.yul\":736:813   */\n  0x4e487b7100000000000000000000000000000000000000000000000000000000\n    /* \"#utility.yul\":733:734   */\n  0x00\n    /* \"#utility.yul\":726:814   */\n  mstore\n    /* \"#utility.yul\":833:837   */\n  0x41\n    /* \"#utility.yul\":830:831   */\n  0x04\n    /* \"#utility.yul\":823:838   */\n  mstore\n    /* \"#utility.yul\":857:861   */\n  0x24\n    /* \"#utility.yul\":854:855   */\n  0x00\n    /* \"#utility.yul\":847:862   */\n  revert\n    /* \"#utility.yul\":874:1155   */\ntag_26:\n    /* \"#utility.yul\":957:984   */\n  tag_66\n    /* \"#utility.yul\":979:983   */\n  dup3\n    /* \"#utility.yul\":957:984   */\n  tag_24\n  jump\t// in\ntag_66:\n    /* \"#utility.yul\":949:955   */\n  dup2\n    /* \"#utility.yul\":945:985   */\n  add\n    /* \"#utility.yul\":1087:1093   */\n  dup2\n    /* \"#utility.yul\":1075:1085   */\n  dup2\n    /* \"#utility.yul\":1072:1094   */\n  lt\n    /* \"#utility.yul\":1051:1069   */\n  0xffffffffffffffff\n    /* \"#utility.yul\":1039:1049   */\n  dup3\n    /* \"#utility.yul\":1036:1070   */\n  gt\n    /* \"#utility.yul\":1033:1095   */\n  or\n    /* \"#utility.yul\":1030:1118   */\n  iszero\n  tag_67\n  jumpi\n    /* \"#utility.yul\":1098:1116   */\n  tag_68\n  tag_25\n  jump\t// in\ntag_68:\n    /* \"#utility.yul\":1030:1118   */\ntag_67:\n    /* \"#utility.yul\":1138:1148   */\n  dup1\n    /* \"#utility.yul\":1134:1136   */\n  0x40\n    /* \"#utility.yul\":1127:1149   */\n  mstore\n    /* \"#utility.yul\":917:1155   */\n  pop\n    /* \"#utility.yul\":874:1155   */\n  pop\n  pop\n  jump\t// out\n    /* \"#utility.yul\":1161:1290   */\ntag_27:\n    /* \"#utility.yul\":1195:1201   */\n  0x00\n    /* \"#utility.yul\":1222:1242   */\n  tag_70\n  tag_19\n  jump\t// in\ntag_70:\n    /* \"#utility.yul\":1212:1242   */\n  swap1\n  pop\n    /* \"#utility.yul\":1251:1284   */\n  tag_71\n    /* \"#utility.yul\":1279:1283   */\n  dup3\n    /* \"#utility.yul\":1271:1277   */\n  dup3\n    /* \"#utility.yul\":1251:1284   */\n  tag_26\n  jump\t// in\ntag_71:\n    /* \"#utility.yul\":1161:1290   */\n  swap2\n  swap1\n  pop\n  jump\t// out\n    /* \"#utility.yul\":1296:1604   */\ntag_28:\n    /* \"#utility.yul\":1358:1362   */\n  0x00\n    /* \"#utility.yul\":1448:1466   */\n  0xffffffffffffffff\n    /* \"#utility.yul\":1440:1446   */\n  dup3\n    /* \"#utility.yul\":1437:1467   */\n  gt\n    /* \"#utility.yul\":1434:1490   */\n  iszero\n  tag_73\n  jumpi\n    /* \"#utility.yul\":1470:1488   */\n  tag_74\n  tag_25\n  jump\t// in\ntag_74:\n    /* \"#utility.yul\":1434:1490   */\ntag_73:\n    /* \"#utility.yul\":1508:1537   */\n  tag_75\n    /* \"#utility.yul\":1530:1536   */\n  dup3\n    /* \"#utility.yul\":1508:1537   */\n  tag_24\n  jump\t// in\ntag_75:\n    /* \"#utility.yul\":1500:1537   */\n  swap1\n  pop\n    /* \"#utility.yul\":1592:1596   */\n  0x20\n    /* \"#utility.yul\":1586:1590   */\n  dup2\n    /* \"#utility.yul\":1582:1597   */\n  add\n    /* \"#utility.yul\":1574:1597   */\n  swap1\n  pop\n    /* \"#utility.yul\":1296:1604   */\n  swap2\n  swap1\n  pop\n  jump\t// out\n    /* \"#utility.yul\":1610:1856   */\ntag_29:\n    /* \"#utility.yul\":1691:1692   */\n  0x00\n    /* \"#utility.yul\":1701:1814   */\ntag_77:\n    /* \"#utility.yul\":1715:1721   */\n  dup4\n    /* \"#utility.yul\":1712:1713   */\n  dup2\n    /* \"#utility.yul\":1709:1722   */\n  lt\n    /* \"#utility.yul\":1701:1814   */\n  iszero\n  tag_79\n  jumpi\n    /* \"#utility.yul\":1800:1801   */\n  dup1\n    /* \"#utility.yul\":1795:1798   */\n  dup3\n    /* \"#utility.yul\":1791:1802   */\n  add\n    /* \"#utility.yul\":1785:1803   */\n  mload\n    /* \"#utility.yul\":1781:1782   */\n  dup2\n    /* \"#utility.yul\":1776:1779   */\n  dup5\n    /* \"#utility.yul\":1772:1783   */\n  add\n    /* \"#utility.yul\":1765:1804   */\n  mstore\n    /* \"#utility.yul\":1737:1739   */\n  0x20\n    /* \"#utility.yul\":1734:1735   */\n  dup2\n    /* \"#utility.yul\":1730:1740   */\n  add\n    /* \"#utility.yul\":1725:1740   */\n  swap1\n  pop\n    /* \"#utility.yul\":1701:1814   */\n  jump(tag_77)\ntag_79:\n    /* \"#utility.yul\":1848:1849   */\n  0x00\n    /* \"#utility.yul\":1839:1845   */\n  dup5\n    /* \"#utility.yul\":1834:1837   */\n  dup5\n    /* \"#utility.yul\":1830:1846   */\n  add\n    /* \"#utility.yul\":1823:1850   */\n  mstore\n    /* \"#utility.yul\":1672:1856   */\n  pop\n    /* \"#utility.yul\":1610:1856   */\n  pop\n  pop\n  pop\n  jump\t// out\n    /* \"#utility.yul\":1862:2296   */\ntag_30:\n    /* \"#utility.yul\":1951:1956   */\n  0x00\n    /* \"#utility.yul\":1976:2042   */\n  tag_81\n    /* \"#utility.yul\":1992:2041   */\n  tag_82\n    /* \"#utility.yul\":2034:2040   */\n  dup5\n    /* \"#utility.yul\":1992:2041   */\n  tag_28\n  jump\t// in\ntag_82:\n    /* \"#utility.yul\":1976:2042   */\n  tag_27\n  jump\t// in\ntag_81:\n    /* \"#utility.yul\":1967:2042   */\n  swap1\n  pop\n    /* \"#utility.yul\":2065:2071   */\n  dup3\n    /* \"#utility.yul\":2058:2063   */\n  dup2\n    /* \"#utility.yul\":2051:2072   */\n  mstore\n    /* \"#utility.yul\":2103:2107   */\n  0x20\n    /* \"#utility.yul\":2096:2101   */\n  dup2\n    /* \"#utility.yul\":2092:2108   */\n  add\n    /* \"#utility.yul\":2141:2144   */\n  dup5\n    /* \"#utility.yul\":2132:2138   */\n  dup5\n    /* \"#utility.yul\":2127:2130   */\n  dup5\n    /* \"#utility.yul\":2123:2139   */\n  add\n    /* \"#utility.yul\":2120:2145   */\n  gt\n    /* \"#utility.yul\":2117:2229   */\n  iszero\n  tag_83\n  jumpi\n    /* \"#utility.yul\":2148:2227   */\n  tag_84\n  tag_23\n  jump\t// in\ntag_84:\n    /* \"#utility.yul\":2117:2229   */\ntag_83:\n    /* \"#utility.yul\":2238:2290   */\n  tag_85\n    /* \"#utility.yul\":2283:2289   */\n  dup5\n    /* \"#utility.yul\":2278:2281   */\n  dup3\n    /* \"#utility.yul\":2273:2276   */\n  dup6\n    /* \"#utility.yul\":2238:2290   */\n  tag_29\n  jump\t// in\ntag_85:\n    /* \"#utility.yul\":1957:2296   */\n  pop\n    /* \"#utility.yul\":1862:2296   */\n  swap4\n  swap3\n  pop\n  pop\n  pop\n  jump\t// out\n    /* \"#utility.yul\":2316:2671   */\ntag_31:\n    /* \"#utility.yul\":2383:2388   */\n  0x00\n    /* \"#utility.yul\":2432:2435   */\n  dup3\n    /* \"#utility.yul\":2425:2429   */\n  0x1f\n    /* \"#utility.yul\":2417:2423   */\n  dup4\n    /* \"#utility.yul\":2413:2430   */\n  add\n    /* \"#utility.yul\":2409:2436   */\n  slt\n    /* \"#utility.yul\":2399:2521   */\n  tag_87\n  jumpi\n    /* \"#utility.yul\":2440:2519   */\n  tag_88\n  tag_22\n  jump\t// in\ntag_88:\n    /* \"#utility.yul\":2399:2521   */\ntag_87:\n    /* \"#utility.yul\":2550:2556   */\n  dup2\n    /* \"#utility.yul\":2544:2557   */\n  mload\n    /* \"#utility.yul\":2575:2665   */\n  tag_89\n    /* \"#utility.yul\":2661:2664   */\n  dup5\n    /* \"#utility.yul\":2653:2659   */\n  dup3\n    /* \"#utility.yul\":2646:2650   */\n  0x20\n    /* \"#utility.yul\":2638:2644   */\n  dup7\n    /* \"#utility.yul\":2634:2651   */\n  add\n    /* \"#utility.yul\":2575:2665   */\n  tag_30\n  jump\t// in\ntag_89:\n    /* \"#utility.yul\":2566:2665   */\n  swap2\n  pop\n    /* \"#utility.yul\":2389:2671   */\n  pop\n    /* \"#utility.yul\":2316:2671   */\n  swap3\n  swap2\n  pop\n  pop\n  jump\t// out\n    /* \"#utility.yul\":2677:2803   */\ntag_32:\n    /* \"#utility.yul\":2714:2721   */\n  0x00\n    /* \"#utility.yul\":2754:2796   */\n  0xffffffffffffffffffffffffffffffffffffffff\n    /* \"#utility.yul\":2747:2752   */\n  dup3\n    /* \"#utility.yul\":2743:2797   */\n  and\n    /* \"#utility.yul\":2732:2797   */\n  swap1\n  pop\n    /* \"#utility.yul\":2677:2803   */\n  swap2\n  swap1\n  pop\n  jump\t// out\n    /* \"#utility.yul\":2809:2913   */\ntag_33:\n    /* \"#utility.yul\":2854:2861   */\n  0x00\n    /* \"#utility.yul\":2883:2907   */\n  tag_92\n    /* \"#utility.yul\":2901:2906   */\n  dup3\n    /* \"#utility.yul\":2883:2907   */\n  tag_32\n  jump\t// in\ntag_92:\n    /* \"#utility.yul\":2872:2907   */\n  swap1\n  pop\n    /* \"#utility.yul\":2809:2913   */\n  swap2\n  swap1\n  pop\n  jump\t// out\n    /* \"#utility.yul\":2919:3057   */\ntag_34:\n    /* \"#utility.yul\":3000:3032   */\n  tag_94\n    /* \"#utility.yul\":3026:3031   */\n  dup2\n    /* \"#utility.yul\":3000:3032   */\n  tag_33\n  jump\t// in\ntag_94:\n    /* \"#utility.yul\":2993:2998   */\n  dup2\n    /* \"#utility.yul\":2990:3033   */\n  eq\n    /* \"#utility.yul\":2980:3051   */\n  tag_95\n  jumpi\n    /* \"#utility.yul\":3047:3048   */\n  0x00\n    /* \"#utility.yul\":3044:3045   */\n  dup1\n    /* \"#utility.yul\":3037:3049   */\n  revert\n    /* \"#utility.yul\":2980:3051   */\ntag_95:\n    /* \"#utility.yul\":2919:3057   */\n  pop\n  jump\t// out\n    /* \"#utility.yul\":3063:3222   */\ntag_35:\n    /* \"#utility.yul\":3128:3133   */\n  0x00\n    /* \"#utility.yul\":3159:3165   */\n  dup2\n    /* \"#utility.yul\":3153:3166   */\n  mload\n    /* \"#utility.yul\":3144:3166   */\n  swap1\n  pop\n    /* \"#utility.yul\":3175:3216   */\n  tag_97\n    /* \"#utility.yul\":3210:3215   */\n  dup2\n    /* \"#utility.yul\":3175:3216   */\n  tag_34\n  jump\t// in\ntag_97:\n    /* \"#utility.yul\":3063:3222   */\n  swap3\n  swap2\n  pop\n  pop\n  jump\t// out\n    /* \"#utility.yul\":3228:4583   */\ntag_3:\n    /* \"#utility.yul\":3363:3369   */\n  0x00\n    /* \"#utility.yul\":3371:3377   */\n  dup1\n    /* \"#utility.yul\":3379:3385   */\n  0x00\n    /* \"#utility.yul\":3387:3393   */\n  dup1\n    /* \"#utility.yul\":3436:3439   */\n  0x80\n    /* \"#utility.yul\":3424:3433   */\n  dup6\n    /* \"#utility.yul\":3415:3422   */\n  dup8\n    /* \"#utility.yul\":3411:3434   */\n  sub\n    /* \"#utility.yul\":3407:3440   */\n  slt\n    /* \"#utility.yul\":3404:3524   */\n  iszero\n  tag_99\n  jumpi\n    /* \"#utility.yul\":3443:3522   */\n  tag_100\n  tag_20\n  jump\t// in\ntag_100:\n    /* \"#utility.yul\":3404:3524   */\ntag_99:\n    /* \"#utility.yul\":3584:3585   */\n  0x00\n    /* \"#utility.yul\":3573:3582   */\n  dup6\n    /* \"#utility.yul\":3569:3586   */\n  add\n    /* \"#utility.yul\":3563:3587   */\n  mload\n    /* \"#utility.yul\":3614:3632   */\n  0xffffffffffffffff\n    /* \"#utility.yul\":3606:3612   */\n  dup2\n    /* \"#utility.yul\":3603:3633   */\n  gt\n    /* \"#utility.yul\":3600:3717   */\n  iszero\n  tag_101\n  jumpi\n    /* \"#utility.yul\":3636:3715   */\n  tag_102\n  tag_21\n  jump\t// in\ntag_102:\n    /* \"#utility.yul\":3600:3717   */\ntag_101:\n    /* \"#utility.yul\":3741:3815   */\n  tag_103\n    /* \"#utility.yul\":3807:3814   */\n  dup8\n    /* \"#utility.yul\":3798:3804   */\n  dup3\n    /* \"#utility.yul\":3787:3796   */\n  dup9\n    /* \"#utility.yul\":3783:3805   */\n  add\n    /* \"#utility.yul\":3741:3815   */\n  tag_31\n  jump\t// in\ntag_103:\n    /* \"#utility.yul\":3731:3815   */\n  swap5\n  pop\n    /* \"#utility.yul\":3534:3825   */\n  pop\n    /* \"#utility.yul\":3885:3887   */\n  0x20\n    /* \"#utility.yul\":3874:3883   */\n  dup6\n    /* \"#utility.yul\":3870:3888   */\n  add\n    /* \"#utility.yul\":3864:3889   */\n  mload\n    /* \"#utility.yul\":3916:3934   */\n  0xffffffffffffffff\n    /* \"#utility.yul\":3908:3914   */\n  dup2\n    /* \"#utility.yul\":3905:3935   */\n  gt\n    /* \"#utility.yul\":3902:4019   */\n  iszero\n  tag_104\n  jumpi\n    /* \"#utility.yul\":3938:4017   */\n  tag_105\n  tag_21\n  jump\t// in\ntag_105:\n    /* \"#utility.yul\":3902:4019   */\ntag_104:\n    /* \"#utility.yul\":4043:4117   */\n  tag_106\n    /* \"#utility.yul\":4109:4116   */\n  dup8\n    /* \"#utility.yul\":4100:4106   */\n  dup3\n    /* \"#utility.yul\":4089:4098   */\n  dup9\n    /* \"#utility.yul\":4085:4107   */\n  add\n    /* \"#utility.yul\":4043:4117   */\n  tag_31\n  jump\t// in\ntag_106:\n    /* \"#utility.yul\":4033:4117   */\n  swap4\n  pop\n    /* \"#utility.yul\":3835:4127   */\n  pop\n    /* \"#utility.yul\":4187:4189   */\n  0x40\n    /* \"#utility.yul\":4176:4185   */\n  dup6\n    /* \"#utility.yul\":4172:4190   */\n  add\n    /* \"#utility.yul\":4166:4191   */\n  mload\n    /* \"#utility.yul\":4218:4236   */\n  0xffffffffffffffff\n    /* \"#utility.yul\":4210:4216   */\n  dup2\n    /* \"#utility.yul\":4207:4237   */\n  gt\n    /* \"#utility.yul\":4204:4321   */\n  iszero\n  tag_107\n  jumpi\n    /* \"#utility.yul\":4240:4319   */\n  tag_108\n  tag_21\n  jump\t// in\ntag_108:\n    /* \"#utility.yul\":4204:4321   */\ntag_107:\n    /* \"#utility.yul\":4345:4419   */\n  tag_109\n    /* \"#utility.yul\":4411:4418   */\n  dup8\n    /* \"#utility.yul\":4402:4408   */\n  dup3\n    /* \"#utility.yul\":4391:4400   */\n  dup9\n    /* \"#utility.yul\":4387:4409   */\n  add\n    /* \"#utility.yul\":4345:4419   */\n  tag_31\n  jump\t// in\ntag_109:\n    /* \"#utility.yul\":4335:4419   */\n  swap3\n  pop\n    /* \"#utility.yul\":4137:4429   */\n  pop\n    /* \"#utility.yul\":4468:4470   */\n  0x60\n    /* \"#utility.yul\":4494:4566   */\n  tag_110\n    /* \"#utility.yul\":4558:4565   */\n  dup8\n    /* \"#utility.yul\":4549:4555   */\n  dup3\n    /* \"#utility.yul\":4538:4547   */\n  dup9\n    /* \"#utility.yul\":4534:4556   */\n  add\n    /* \"#utility.yul\":4494:4566   */\n  tag_35\n  jump\t// in\ntag_110:\n    /* \"#utility.yul\":4484:4566   */\n  swap2\n  pop\n    /* \"#utility.yul\":4439:4576   */\n  pop\n    /* \"#utility.yul\":3228:4583   */\n  swap3\n  swap6\n  swap2\n  swap5\n  pop\n  swap3\n  pop\n  jump\t// out\n    /* \"#utility.yul\":4589:4685   */\ntag_36:\n    /* \"#utility.yul\":4626:4633   */\n  0x00\n    /* \"#utility.yul\":4655:4679   */\n  tag_112\n    /* \"#utility.yul\":4673:4678   */\n  dup3\n    /* \"#utility.yul\":4655:4679   */\n  tag_32\n  jump\t// in\ntag_112:\n    /* \"#utility.yul\":4644:4679   */\n  swap1\n  pop\n    /* \"#utility.yul\":4589:4685   */\n  swap2\n  swap1\n  pop\n  jump\t// out\n    /* \"#utility.yul\":4691:4809   */\ntag_37:\n    /* \"#utility.yul\":4778:4802   */\n  tag_114\n    /* \"#utility.yul\":4796:4801   */\n  dup2\n    /* \"#utility.yul\":4778:4802   */\n  tag_36\n  jump\t// in\ntag_114:\n    /* \"#utility.yul\":4773:4776   */\n  dup3\n    /* \"#utility.yul\":4766:4803   */\n  mstore\n    /* \"#utility.yul\":4691:4809   */\n  pop\n  pop\n  jump\t// out\n    /* \"#utility.yul\":4815:5037   */\ntag_9:\n    /* \"#utility.yul\":4908:4912   */\n  0x00\n    /* \"#utility.yul\":4946:4948   */\n  0x20\n    /* \"#utility.yul\":4935:4944   */\n  dup3\n    /* \"#utility.yul\":4931:4949   */\n  add\n    /* \"#utility.yul\":4923:4949   */\n  swap1\n  pop\n    /* \"#utility.yul\":4959:5030   */\n  tag_116\n    /* \"#utility.yul\":5027:5028   */\n  0x00\n    /* \"#utility.yul\":5016:5025   */\n  dup4\n    /* \"#utility.yul\":5012:5029   */\n  add\n    /* \"#utility.yul\":5003:5009   */\n  dup5\n    /* \"#utility.yul\":4959:5030   */\n  tag_37\n  jump\t// in\ntag_116:\n    /* \"#utility.yul\":4815:5037   */\n  swap3\n  swap2\n  pop\n  pop\n  jump\t// out\n    /* \"#utility.yul\":5043:5142   */\ntag_38:\n    /* \"#utility.yul\":5095:5101   */\n  0x00\n    /* \"#utility.yul\":5129:5134   */\n  dup2\n    /* \"#utility.yul\":5123:5135   */\n  mload\n    /* \"#utility.yul\":5113:5135   */\n  swap1\n  pop\n    /* \"#utility.yul\":5043:5142   */\n  swap2\n  swap1\n  pop\n  jump\t// out\n    /* \"#utility.yul\":5148:5328   */\ntag_39:\n    /* \"#utility.yul\":5196:5273   */\n  0x4e487b7100000000000000000000000000000000000000000000000000000000\n    /* \"#utility.yul\":5193:5194   */\n  0x00\n    /* \"#utility.yul\":5186:5274   */\n  mstore\n    /* \"#utility.yul\":5293:5297   */\n  0x22\n    /* \"#utility.yul\":5290:5291   */\n  0x04\n    /* \"#utility.yul\":5283:5298   */\n  mstore\n    /* \"#utility.yul\":5317:5321   */\n  0x24\n    /* \"#utility.yul\":5314:5315   */\n  0x00\n    /* \"#utility.yul\":5307:5322   */\n  revert\n    /* \"#utility.yul\":5334:5654   */\ntag_40:\n    /* \"#utility.yul\":5378:5384   */\n  0x00\n    /* \"#utility.yul\":5415:5416   */\n  0x02\n    /* \"#utility.yul\":5409:5413   */\n  dup3\n    /* \"#utility.yul\":5405:5417   */\n  div\n    /* \"#utility.yul\":5395:5417   */\n  swap1\n  pop\n    /* \"#utility.yul\":5462:5463   */\n  0x01\n    /* \"#utility.yul\":5456:5460   */\n  dup3\n    /* \"#utility.yul\":5452:5464   */\n  and\n    /* \"#utility.yul\":5483:5501   */\n  dup1\n    /* \"#utility.yul\":5473:5554   */\n  tag_120\n  jumpi\n    /* \"#utility.yul\":5539:5543   */\n  0x7f\n    /* \"#utility.yul\":5531:5537   */\n  dup3\n    /* \"#utility.yul\":5527:5544   */\n  and\n    /* \"#utility.yul\":5517:5544   */\n  swap2\n  pop\n    /* \"#utility.yul\":5473:5554   */\ntag_120:\n    /* \"#utility.yul\":5601:5603   */\n  0x20\n    /* \"#utility.yul\":5593:5599   */\n  dup3\n    /* \"#utility.yul\":5590:5604   */\n  lt\n    /* \"#utility.yul\":5570:5588   */\n  dup2\n    /* \"#utility.yul\":5567:5605   */\n  sub\n    /* \"#utility.yul\":5564:5648   */\n  tag_121\n  jumpi\n    /* \"#utility.yul\":5620:5638   */\n  tag_122\n  tag_39\n  jump\t// in\ntag_122:\n    /* \"#utility.yul\":5564:5648   */\ntag_121:\n    /* \"#utility.yul\":5385:5654   */\n  pop\n    /* \"#utility.yul\":5334:5654   */\n  swap2\n  swap1\n  pop\n  jump\t// out\n    /* \"#utility.yul\":5660:5801   */\ntag_41:\n    /* \"#utility.yul\":5709:5713   */\n  0x00\n    /* \"#utility.yul\":5732:5735   */\n  dup2\n    /* \"#utility.yul\":5724:5735   */\n  swap1\n  pop\n    /* \"#utility.yul\":5755:5758   */\n  dup2\n    /* \"#utility.yul\":5752:5753   */\n  0x00\n    /* \"#utility.yul\":5745:5759   */\n  mstore\n    /* \"#utility.yul\":5789:5793   */\n  0x20\n    /* \"#utility.yul\":5786:5787   */\n  0x00\n    /* \"#utility.yul\":5776:5794   */\n  keccak256\n    /* \"#utility.yul\":5768:5794   */\n  swap1\n  pop\n    /* \"#utility.yul\":5660:5801   */\n  swap2\n  swap1\n  pop\n  jump\t// out\n    /* \"#utility.yul\":5807:5900   */\ntag_42:\n    /* \"#utility.yul\":5844:5850   */\n  0x00\n    /* \"#utility.yul\":5891:5893   */\n  0x20\n    /* \"#utility.yul\":5886:5888   */\n  0x1f\n    /* \"#utility.yul\":5879:5884   */\n  dup4\n    /* \"#utility.yul\":5875:5889   */\n  add\n    /* \"#utility.yul\":5871:5894   */\n  div\n    /* \"#utility.yul\":5861:5894   */\n  swap1\n  pop\n    /* \"#utility.yul\":5807:5900   */\n  swap2\n  swap1\n  pop\n  jump\t// out\n    /* \"#utility.yul\":5906:6013   */\ntag_43:\n    /* \"#utility.yul\":5950:5958   */\n  0x00\n    /* \"#utility.yul\":6000:6005   */\n  dup3\n    /* \"#utility.yul\":5994:5998   */\n  dup3\n    /* \"#utility.yul\":5990:6006   */\n  shl\n    /* \"#utility.yul\":5969:6006   */\n  swap1\n  pop\n    /* \"#utility.yul\":5906:6013   */\n  swap3\n  swap2\n  pop\n  pop\n  jump\t// out\n    /* \"#utility.yul\":6019:6412   */\ntag_44:\n    /* \"#utility.yul\":6088:6094   */\n  0x00\n    /* \"#utility.yul\":6138:6139   */\n  0x08\n    /* \"#utility.yul\":6126:6136   */\n  dup4\n    /* \"#utility.yul\":6122:6140   */\n  mul\n    /* \"#utility.yul\":6161:6258   */\n  tag_127\n    /* \"#utility.yul\":6191:6257   */\n  0xffffffffffffffffffffffffffffffffffffffffffffffffffffffffffffffff\n    /* \"#utility.yul\":6180:6189   */\n  dup3\n    /* \"#utility.yul\":6161:6258   */\n  tag_43\n  jump\t// in\ntag_127:\n    /* \"#utility.yul\":6279:6318   */\n  tag_128\n    /* \"#utility.yul\":6309:6317   */\n  dup7\n    /* \"#utility.yul\":6298:6307   */\n  dup4\n    /* \"#utility.yul\":6279:6318   */\n  tag_43\n  jump\t// in\ntag_128:\n    /* \"#utility.yul\":6267:6318   */\n  swap6\n  pop\n    /* \"#utility.yul\":6351:6355   */\n  dup1\n    /* \"#utility.yul\":6347:6356   */\n  not\n    /* \"#utility.yul\":6340:6345   */\n  dup5\n    /* \"#utility.yul\":6336:6357   */\n  and\n    /* \"#utility.yul\":6327:6357   */\n  swap4\n  pop\n    /* \"#utility.yul\":6400:6404   */\n  dup1\n    /* \"#utility.yul\":6390:6398   */\n  dup7\n    /* \"#utility.yul\":6386:6405   */\n  and\n    /* \"#utility.yul\":6379:6384   */\n  dup5\n    /* \"#utility.yul\":6376:6406   */\n  or\n    /* \"#utility.yul\":6366:6406   */\n  swap3\n  pop\n    /* \"#utility.yul\":6095:6412   */\n  pop\n  pop\n    /* \"#utility.yul\":6019:6412   */\n  swap4\n  swap3\n  pop\n  pop\n  pop\n  jump\t// out\n    /* \"#utility.yul\":6418:6495   */\ntag_45:\n    /* \"#utility.yul\":6455:6462   */\n  0x00\n    /* \"#utility.yul\":6484:6489   */\n  dup2\n    /* \"#utility.yul\":6473:6489   */\n  swap1\n  pop\n    /* \"#utility.yul\":6418:6495   */\n  swap2\n  swap1\n  pop\n  jump\t// out\n    /* \"#utility.yul\":6501:6561   */\ntag_46:\n    /* \"#utility.yul\":6529:6532   */\n  0x00\n    /* \"#utility.yul\":6550:6555   */\n  dup2\n    /* \"#utility.yul\":6543:6555   */\n  swap1\n  pop\n    /* \"#utility.yul\":6501:6561   */\n  swap2\n  swap1\n  pop\n  jump\t// out\n    /* \"#utility.yul\":6567:6709   */\ntag_47:\n    /* \"#utility.yul\":6617:6626   */\n  0x00\n    /* \"#utility.yul\":6650:6703   */\n  tag_132\n    /* \"#utility.yul\":6668:6702   */\n  tag_133\n    /* \"#utility.yul\":6677:6701   */\n  tag_134\n    /* \"#utility.yul\":6695:6700   */\n  dup5\n    /* \"#utility.yul\":6677:6701   */\n  tag_45\n  jump\t// in\ntag_134:\n    /* \"#utility.yul\":6668:6702   */\n  tag_46\n  jump\t// in\ntag_133:\n    /* \"#utility.yul\":6650:6703   */\n  tag_45\n  jump\t// in\ntag_132:\n    /* \"#utility.yul\":6637:6703   */\n  swap1\n  pop\n    /* \"#utility.yul\":6567:6709   */\n  swap2\n  swap1\n  pop\n  jump\t// out\n    /* \"#utility.yul\":6715:6790   */\ntag_48:\n    /* \"#utility.yul\":6758:6761   */\n  0x00\n    /* \"#utility.yul\":6779:6784   */\n  dup2\n    /* \"#utility.yul\":6772:6784   */\n  swap1\n  pop\n    /* \"#utility.yul\":6715:6790   */\n  swap2\n  swap1\n  pop\n  jump\t// out\n    /* \"#utility.yul\":6796:7065   */\ntag_49:\n    /* \"#utility.yul\":6906:6945   */\n  tag_137\n    /* \"#utility.yul\":6937:6944   */\n  dup4\n    /* \"#utility.yul\":6906:6945   */\n  tag_47\n  jump\t// in\ntag_137:\n    /* \"#utility.yul\":6967:7058   */\n  tag_138\n    /* \"#utility.yul\":7016:7057   */\n  tag_139\n    /* \"#utility.yul\":7040:7056   */\n  dup3\n    /* \"#utility.yul\":7016:7057   */\n  tag_48\n  jump\t// in\ntag_139:\n    /* \"#utility.yul\":7008:7014   */\n  dup5\n    /* \"#utility.yul\":7001:7005   */\n  dup5\n    /* \"#utility.yul\":6995:7006   */\n  sload\n    /* \"#utility.yul\":6967:7058   */\n  tag_44\n  jump\t// in\ntag_138:\n    /* \"#utility.yul\":6961:6965   */\n  dup3\n    /* \"#utility.yul\":6954:7059   */\n  sstore\n    /* \"#utility.yul\":6872:7065   */\n  pop\n    /* \"#utility.yul\":6796:7065   */\n  pop\n  pop\n  pop\n  jump\t// out\n    /* \"#utility.yul\":7071:7144   */\ntag_50:\n    /* \"#utility.yul\":7116:7119   */\n  0x00\n    /* \"#utility.yul\":7071:7144   */\n  swap1\n  jump\t// out\n    /* \"#utility.yul\":7150:7339   */\ntag_51:\n    /* \"#utility.yul\":7227:7259   */\n  tag_142\n  tag_50\n  jump\t// in\ntag_142:\n    /* \"#utility.yul\":7268:7333   */\n  tag_143\n    /* \"#utility.yul\":7326:7332   */\n  dup2\n    /* \"#utility.yul\":7318:7324   */\n  dup5\n    /* \"#utility.yul\":7312:7316   */\n  dup5\n    /* \"#utility.yul\":7268:7333   */\n  tag_49\n  jump\t// in\ntag_143:\n    /* \"#utility.yul\":7203:7339   */\n  pop\n    /* \"#utility.yul\":7150:7339   */\n  pop\n  pop\n  jump\t// out\n    /* \"#utility.yul\":7345:7531   */\ntag_52:\n    /* \"#utility.yul\":7405:7525   */\ntag_145:\n    /* \"#utility.yul\":7422:7425   */\n  dup2\n    /* \"#utility.yul\":7415:7420   */\n  dup2\n    /* \"#utility.yul\":7412:7426   */\n  lt\n    /* \"#utility.yul\":7405:7525   */\n  iszero\n  tag_147\n  jumpi\n    /* \"#utility.yul\":7476:7515   */\n  tag_148\n    /* \"#utility.yul\":7513:7514   */\n  0x00\n    /* \"#utility.yul\":7506:7511   */\n  dup3\n    /* \"#utility.yul\":7476:7515   */\n  tag_51\n  jump\t// in\ntag_148:\n    /* \"#utility.yul\":7449:7450   */\n  0x01\n    /* \"#utility.yul\":7442:7447   */\n  dup2\n    /* \"#utility.yul\":7438:7451   */\n  add\n    /* \"#utility.yul\":7429:7451   */\n  swap1\n  pop\n    /* \"#utility.yul\":7405:7525   */\n  jump(tag_145)\ntag_147:\n    /* \"#utility.yul\":7345:7531   */\n  pop\n  pop\n  jump\t// out\n    /* \"#utility.yul\":7537:8080   */\ntag_53:\n    /* \"#utility.yul\":7638:7640   */\n  0x1f\n    /* \"#utility.yul\":7633:7636   */\n  dup3\n    /* \"#utility.yul\":7630:7641   */\n  gt\n    /* \"#utility.yul\":7627:8073   */\n  iszero\n  tag_150\n  jumpi\n    /* \"#utility.yul\":7672:7710   */\n  tag_151\n    /* \"#utility.yul\":7704:7709   */\n  dup2\n    /* \"#utility.yul\":7672:7710   */\n  tag_41\n  jump\t// in\ntag_151:\n    /* \"#utility.yul\":7756:7785   */\n  tag_152\n    /* \"#utility.yul\":7774:7784   */\n  dup5\n    /* \"#utility.yul\":7756:7785   */\n  tag_42\n  jump\t// in\ntag_152:\n    /* \"#utility.yul\":7746:7754   */\n  dup2\n    /* \"#utility.yul\":7742:7786   */\n  add\n    /* \"#utility.yul\":7939:7941   */\n  0x20\n    /* \"#utility.yul\":7927:7937   */\n  dup6\n    /* \"#utility.yul\":7924:7942   */\n  lt\n    /* \"#utility.yul\":7921:7970   */\n  iszero\n  tag_153\n  jumpi\n    /* \"#utility.yul\":7960:7968   */\n  dup2\n    /* \"#utility.yul\":7945:7968   */\n  swap1\n  pop\n    /* \"#utility.yul\":7921:7970   */\ntag_153:\n    /* \"#utility.yul\":7983:8063   */\n  tag_154\n    /* \"#utility.yul\":8039:8061   */\n  tag_155\n    /* \"#utility.yul\":8057:8060   */\n  dup6\n    /* \"#utility.yul\":8039:8061   */\n  tag_42\n  jump\t// in\ntag_155:\n    /* \"#utility.yul\":8029:8037   */\n  dup4\n    /* \"#utility.yul\":8025:8062   */\n  add\n    /* \"#utility.yul\":8012:8023   */\n  dup3\n    /* \"#utility.yul\":7983:8063   */\n  tag_52\n  jump\t// in\ntag_154:\n    /* \"#utility.yul\":7642:8073   */\n  pop\n  pop\n    /* \"#utility.yul\":7627:8073   */\ntag_150:\n    /* \"#utility.yul\":7537:8080   */\n  pop\n  pop\n  pop\n  jump\t// out\n    /* \"#utility.yul\":8086:8203   */\ntag_54:\n    /* \"#utility.yul\":8140:8148   */\n  0x00\n    /* \"#utility.yul\":8190:8195   */\n  dup3\n    /* \"#utility.yul\":8184:8188   */\n  dup3\n    /* \"#utility.yul\":8180:8196   */\n  shr\n    /* \"#utility.yul\":8159:8196   */\n  swap1\n  pop\n    /* \"#utility.yul\":8086:8203   */\n  swap3\n  swap2\n  pop\n  pop\n  jump\t// out\n    /* \"#utility.yul\":8209:8378   */\ntag_55:\n    /* \"#utility.yul\":8253:8259   */\n  0x00\n    /* \"#utility.yul\":8286:8337   */\n  tag_158\n    /* \"#utility.yul\":8334:8335   */\n  0x00\n    /* \"#utility.yul\":8330:8336   */\n  not\n    /* \"#utility.yul\":8322:8327   */\n  dup5\n    /* \"#utility.yul\":8319:8320   */\n  0x08\n    /* \"#utility.yul\":8315:8328   */\n  mul\n    /* \"#utility.yul\":8286:8337   */\n  tag_54\n  jump\t// in\ntag_158:\n    /* \"#utility.yul\":8282:8338   */\n  not\n    /* \"#utility.yul\":8367:8371   */\n  dup1\n    /* \"#utility.yul\":8361:8365   */\n  dup4\n    /* \"#utility.yul\":8357:8372   */\n  and\n    /* \"#utility.yul\":8347:8372   */\n  swap2\n  pop\n    /* \"#utility.yul\":8260:8378   */\n  pop\n    /* \"#utility.yul\":8209:8378   */\n  swap3\n  swap2\n  pop\n  pop\n  jump\t// out\n    /* \"#utility.yul\":8383:8678   */\ntag_56:\n    /* \"#utility.yul\":8459:8463   */\n  0x00\n    /* \"#utility.yul\":8605:8634   */\n  tag_160\n    /* \"#utility.yul\":8630:8633   */\n  dup4\n    /* \"#utility.yul\":8624:8628   */\n  dup4\n    /* \"#utility.yul\":8605:8634   */\n  tag_55\n  jump\t// in\ntag_160:\n    /* \"#utility.yul\":8597:8634   */\n  swap2\n  pop\n    /* \"#utility.yul\":8667:8670   */\n  dup3\n    /* \"#utility.yul\":8664:8665   */\n  0x02\n    /* \"#utility.yul\":8660:8671   */\n  mul\n    /* \"#utility.yul\":8654:8658   */\n  dup3\n    /* \"#utility.yul\":8651:8672   */\n  or\n    /* \"#utility.yul\":8643:8672   */\n  swap1\n  pop\n    /* \"#utility.yul\":8383:8678   */\n  swap3\n  swap2\n  pop\n  pop\n  jump\t// out\n    /* \"#utility.yul\":8683:10078   */\ntag_14:\n    /* \"#utility.yul\":8800:8837   */\n  tag_162\n    /* \"#utility.yul\":8833:8836   */\n  dup3\n    /* \"#utility.yul\":8800:8837   */\n  tag_38\n  jump\t// in\ntag_162:\n    /* \"#utility.yul\":8902:8920   */\n  0xffffffffffffffff\n    /* \"#utility.yul\":8894:8900   */\n  dup2\n    /* \"#utility.yul\":8891:8921   */\n  gt\n    /* \"#utility.yul\":8888:8944   */\n  iszero\n  tag_163\n  jumpi\n    /* \"#utility.yul\":8924:8942   */\n  tag_164\n  tag_25\n  jump\t// in\ntag_164:\n    /* \"#utility.yul\":8888:8944   */\ntag_163:\n    /* \"#utility.yul\":8968:9006   */\n  tag_165\n    /* \"#utility.yul\":9000:9004   */\n  dup3\n    /* \"#utility.yul\":8994:9005   */\n  sload\n    /* \"#utility.yul\":8968:9006   */\n  tag_40\n  jump\t// in\ntag_165:\n    /* \"#utility.yul\":9053:9120   */\n  tag_166\n    /* \"#utility.yul\":9113:9119   */\n  dup3\n    /* \"#utility.yul\":9105:9111   */\n  dup3\n    /* \"#utility.yul\":9099:9103   */\n  dup6\n    /* \"#utility.yul\":9053:9120   */\n  tag_53\n  jump\t// in\ntag_166:\n    /* \"#utility.yul\":9147:9148   */\n  0x00\n    /* \"#utility.yul\":9171:9175   */\n  0x20\n    /* \"#utility.yul\":9158:9175   */\n  swap1\n  pop\n    /* \"#utility.yul\":9203:9205   */\n  0x1f\n    /* \"#utility.yul\":9195:9201   */\n  dup4\n    /* \"#utility.yul\":9192:9206   */\n  gt\n    /* \"#utility.yul\":9220:9221   */\n  0x01\n    /* \"#utility.yul\":9215:9833   */\n  dup2\n  eq\n  tag_168\n  jumpi\n    /* \"#utility.yul\":9877:9878   */\n  0x00\n    /* \"#utility.yul\":9894:9900   */\n  dup5\n    /* \"#utility.yul\":9891:9968   */\n  iszero\n  tag_169\n  jumpi\n    /* \"#utility.yul\":9943:9952   */\n  dup3\n    /* \"#utility.yul\":9938:9941   */\n  dup8\n    /* \"#utility.yul\":9934:9953   */\n  add\n    /* \"#utility.yul\":9928:9954   */\n  mload\n    /* \"#utility.yul\":9919:9954   */\n  swap1\n  pop\n    /* \"#utility.yul\":9891:9968   */\ntag_169:\n    /* \"#utility.yul\":9994:10061   */\n  tag_170\n    /* \"#utility.yul\":10054:10060   */\n  dup6\n    /* \"#utility.yul\":10047:10052   */\n  dup3\n    /* \"#utility.yul\":9994:10061   */\n  tag_56\n  jump\t// in\ntag_170:\n    /* \"#utility.yul\":9988:9992   */\n  dup7\n    /* \"#utility.yul\":9981:10062   */\n  sstore\n    /* \"#utility.yul\":9850:10072   */\n  pop\n    /* \"#utility.yul\":9185:10072   */\n  jump(tag_167)\n    /* \"#utility.yul\":9215:9833   */\ntag_168:\n    /* \"#utility.yul\":9267:9271   */\n  0x1f\n    /* \"#utility.yul\":9263:9272   */\n  not\n    /* \"#utility.yul\":9255:9261   */\n  dup5\n    /* \"#utility.yul\":9251:9273   */\n  and\n    /* \"#utility.yul\":9301:9338   */\n  tag_171\n    /* \"#utility.yul\":9333:9337   */\n  dup7\n    /* \"#utility.yul\":9301:9338   */\n  tag_41\n  jump\t// in\ntag_171:\n    /* \"#utility.yul\":9360:9361   */\n  0x00\n    /* \"#utility.yul\":9374:9582   */\ntag_172:\n    /* \"#utility.yul\":9388:9395   */\n  dup3\n    /* \"#utility.yul\":9385:9386   */\n  dup2\n    /* \"#utility.yul\":9382:9396   */\n  lt\n    /* \"#utility.yul\":9374:9582   */\n  iszero\n  tag_174\n  jumpi\n    /* \"#utility.yul\":9467:9476   */\n  dup5\n    /* \"#utility.yul\":9462:9465   */\n  dup10\n    /* \"#utility.yul\":9458:9477   */\n  add\n    /* \"#utility.yul\":9452:9478   */\n  mload\n    /* \"#utility.yul\":9444:9450   */\n  dup3\n    /* \"#utility.yul\":9437:9479   */\n  sstore\n    /* \"#utility.yul\":9518:9519   */\n  0x01\n    /* \"#utility.yul\":9510:9516   */\n  dup3\n    /* \"#utility.yul\":9506:9520   */\n  add\n    /* \"#utility.yul\":9496:9520   */\n  swap2\n  pop\n    /* \"#utility.yul\":9565:9567   */\n  0x20\n    /* \"#utility.yul\":9554:9563   */\n  dup6\n    /* \"#utility.yul\":9550:9568   */\n  add\n    /* \"#utility.yul\":9537:9568   */\n  swap5\n  pop\n    /* \"#utility.yul\":9411:9415   */\n  0x20\n    /* \"#utility.yul\":9408:9409   */\n  dup2\n    /* \"#utility.yul\":9404:9416   */\n  add\n    /* \"#utility.yul\":9399:9416   */\n  swap1\n  pop\n    /* \"#utility.yul\":9374:9582   */\n  jump(tag_172)\ntag_174:\n    /* \"#utility.yul\":9610:9616   */\n  dup7\n    /* \"#utility.yul\":9601:9608   */\n  dup4\n    /* \"#utility.yul\":9598:9617   */\n  lt\n    /* \"#utility.yul\":9595:9774   */\n  iszero\n  tag_175\n  jumpi\n    /* \"#utility.yul\":9668:9677   */\n  dup5\n    /* \"#utility.yul\":9663:9666   */\n  dup10\n    /* \"#utility.yul\":9659:9678   */\n  add\n    /* \"#utility.yul\":9653:9679   */\n  mload\n    /* \"#utility.yul\":9711:9759   */\n  tag_176\n    /* \"#utility.yul\":9753:9757   */\n  0x1f\n    /* \"#utility.yul\":9745:9751   */\n  dup10\n    /* \"#utility.yul\":9741:9758   */\n  and\n    /* \"#utility.yul\":9730:9739   */\n  dup3\n    /* \"#utility.yul\":9711:9759   */\n  tag_55\n  jump\t// in\ntag_176:\n    /* \"#utility.yul\":9703:9709   */\n  dup4\n    /* \"#utility.yul\":9696:9760   */\n  sstore\n    /* \"#utility.yul\":9618:9774   */\n  pop\n    /* \"#utility.yul\":9595:9774   */\ntag_175:\n    /* \"#utility.yul\":9820:9821   */\n  0x01\n    /* \"#utility.yul\":9816:9817   */\n  0x02\n    /* \"#utility.yul\":9808:9814   */\n  dup9\n    /* \"#utility.yul\":9804:9818   */\n  mul\n    /* \"#utility.yul\":9800:9822   */\n  add\n    /* \"#utility.yul\":9794:9798   */\n  dup9\n    /* \"#utility.yul\":9787:9823   */\n  sstore\n    /* \"#utility.yul\":9222:9833   */\n  pop\n  pop\n  pop\n    /* \"#utility.yul\":9185:10072   */\ntag_167:\n  pop\n    /* \"#utility.yul\":8775:10078   */\n  pop\n  pop\n  pop\n    /* \"#utility.yul\":8683:10078   */\n  pop\n  pop\n  jump\t// out\n    /* \"contracts/Donee.sol\":115:2056  contract Donee is Ownable{... */\ntag_17:\n  dataSize(sub_0)\n  dup1\n  dataOffset(sub_0)\n  0x00\n  codecopy\n  0x00\n  return\nstop\n\nsub_0: assembly {\n        /* \"contracts/Donee.sol\":115:2056  contract Donee is Ownable{... */\n      mstore(0x40, 0x80)\n      jumpi(tag_1, lt(calldatasize, 0x04))\n      shr(0xe0, calldataload(0x00))\n      dup1\n      0x7284e416\n      gt\n      tag_16\n      jumpi\n      dup1\n      0xf0ea4bfc\n      gt\n      tag_17\n      jumpi\n      dup1\n      0xf0ea4bfc\n      eq\n      tag_12\n      jumpi\n      dup1\n      0xf2fde38b\n      eq\n      tag_13\n      jumpi\n      dup1\n      0xf3ccaac0\n      eq\n      tag_14\n      jumpi\n      dup1\n      0xfea49837\n      eq\n      tag_15\n      jumpi\n      jump(tag_1)\n    tag_17:\n      dup1\n      0x7284e416\n      eq\n      tag_9\n      jumpi\n      dup1\n      0x8da5cb5b\n      eq\n      tag_10\n      jumpi\n      dup1\n      0xed88c68e\n      eq\n      tag_11\n      jumpi\n      jump(tag_1)\n    tag_16:\n      dup1\n      0x2abfab4d\n      gt\n      tag_18\n      jumpi\n      dup1\n      0x2abfab4d\n      eq\n      tag_5\n      jumpi\n      dup1\n      0x3ccfd60b\n      eq\n      tag_6\n      jumpi\n      dup1\n      0x6ad9c45c\n      eq\n      tag_7\n      jumpi\n      dup1\n      0x715018a6\n      eq\n      tag_8\n      jumpi\n      jump(tag_1)\n    tag_18:\n      dup1\n      0x06fdde03\n      eq\n      tag_2\n      jumpi\n      dup1\n      0x0b024f87\n      eq\n      tag_3\n      jumpi\n      dup1\n      0x21b8092e\n      eq\n      tag_4\n      jumpi\n    tag_1:\n      0x00\n      dup1\n      revert\n        /* \"contracts/Donee.sol\":457:475  string public name */\n    tag_2:\n      callvalue\n      dup1\n      iszero\n      tag_19\n      jumpi\n      0x00\n      dup1\n      revert\n    tag_19:\n      pop\n      tag_20\n      tag_21\n      jump\t// in\n    tag_20:\n      mload(0x40)\n      tag_22\n      swap2\n      swap1\n      tag_23\n      jump\t// in\n    tag_22:\n      mload(0x40)\n      dup1\n      swap2\n      sub\n      swap1\n      return\n        /* \"contracts/Donee.sol\":310:343  uint256 public totalDonationCount */\n    tag_3:\n      callvalue\n      dup1\n      iszero\n      tag_24\n      jumpi\n      0x00\n      dup1\n      revert\n    tag_24:\n      pop\n      tag_25\n      tag_26\n      jump\t// in\n    tag_25:\n      mload(0x40)\n      tag_27\n      swap2\n      swap1\n      tag_28\n      jump\t// in\n    tag_27:\n      mload(0x40)\n      dup1\n      swap2\n      sub\n      swap1\n      return\n        /* \"contracts/Donee.sol\":1931:2053  function setWithdrawalAddress(address payable new_address) public onlyOwner {... */\n    tag_4:\n      callvalue\n      dup1\n      iszero\n      tag_29\n      jumpi\n      0x00\n      dup1\n      revert\n    tag_29:\n      pop\n      tag_30\n      0x04\n      dup1\n      calldatasize\n      sub\n      dup2\n      add\n      swap1\n      tag_31\n      swap2\n      swap1\n      tag_32\n      jump\t// in\n    tag_31:\n      tag_33\n      jump\t// in\n    tag_30:\n      stop\n        /* \"contracts/Donee.sol\":862:971  function donationCount() public view returns(uint256) {... */\n    tag_5:\n      callvalue\n      dup1\n      iszero\n      tag_34\n      jumpi\n      0x00\n      dup1\n      revert\n    tag_34:\n      pop\n      tag_35\n      tag_36\n      jump\t// in\n    tag_35:\n      mload(0x40)\n      tag_37\n      swap2\n      swap1\n      tag_28\n      jump\t// in\n    tag_37:\n      mload(0x40)\n      dup1\n      swap2\n      sub\n      swap1\n      return\n        /* \"contracts/Donee.sol\":1753:1923  function withdraw() public onlyOwner {... */\n    tag_6:\n      callvalue\n      dup1\n      iszero\n      tag_38\n      jumpi\n      0x00\n      dup1\n      revert\n    tag_38:\n      pop\n      tag_39\n      tag_40\n      jump\t// in\n    tag_39:\n      stop\n        /* \"contracts/Donee.sol\":540:576  address payable public donee_address */\n    tag_7:\n      callvalue\n      dup1\n      iszero\n      tag_41\n      jumpi\n      0x00\n      dup1\n      revert\n    tag_41:\n      pop\n      tag_42\n      tag_43\n      jump\t// in\n    tag_42:\n      mload(0x40)\n      tag_44\n      swap2\n      swap1\n      tag_45\n      jump\t// in\n    tag_44:\n      mload(0x40)\n      dup1\n      swap2\n      sub\n      swap1\n      return\n        /* \"@openzeppelin/contracts/access/Ownable.sol\":2293:2394  function renounceOwnership() public virtual onlyOwner {... */\n    tag_8:\n      callvalue\n      dup1\n      iszero\n      tag_46\n      jumpi\n      0x00\n      dup1\n      revert\n    tag_46:\n      pop\n      tag_47\n      tag_48\n      jump\t// in\n    tag_47:\n      stop\n        /* \"contracts/Donee.sol\":482:507  string public description */\n    tag_9:\n      callvalue\n      dup1\n      iszero\n      tag_49\n      jumpi\n      0x00\n      dup1\n      revert\n    tag_49:\n      pop\n      tag_50\n      tag_51\n      jump\t// in\n    tag_50:\n      mload(0x40)\n      tag_52\n      swap2\n      swap1\n      tag_23\n      jump\t// in\n    tag_52:\n      mload(0x40)\n      dup1\n      swap2\n      sub\n      swap1\n      return\n        /* \"@openzeppelin/contracts/access/Ownable.sol\":1638:1723  function owner() public view virtual returns (address) {... */\n    tag_10:\n      callvalue\n      dup1\n      iszero\n      tag_53\n      jumpi\n      0x00\n      dup1\n      revert\n    tag_53:\n      pop\n      tag_54\n      tag_55\n      jump\t// in\n    tag_54:\n      mload(0x40)\n      tag_56\n      swap2\n      swap1\n      tag_57\n      jump\t// in\n    tag_56:\n      mload(0x40)\n      dup1\n      swap2\n      sub\n      swap1\n      return\n        /* \"contracts/Donee.sol\":979:1274  function donate() public payable {... */\n    tag_11:\n      tag_58\n      tag_59\n      jump\t// in\n    tag_58:\n      stop\n        /* \"contracts/Donee.sol\":282:303  uint256 public raised */\n    tag_12:\n      callvalue\n      dup1\n      iszero\n      tag_60\n      jumpi\n      0x00\n      dup1\n      revert\n    tag_60:\n      pop\n      tag_61\n      tag_62\n      jump\t// in\n    tag_61:\n      mload(0x40)\n      tag_63\n      swap2\n      swap1\n      tag_28\n      jump\t// in\n    tag_63:\n      mload(0x40)\n      dup1\n      swap2\n      sub\n      swap1\n      return\n        /* \"@openzeppelin/contracts/access/Ownable.sol\":2543:2758  function transferOwnership(address newOwner) public virtual onlyOwner {... */\n    tag_13:\n      callvalue\n      dup1\n      iszero\n      tag_64\n      jumpi\n      0x00\n      dup1\n      revert\n    tag_64:\n      pop\n      tag_65\n      0x04\n      dup1\n      calldatasize\n      sub\n      dup2\n      add\n      swap1\n      tag_66\n      swap2\n      swap1\n      tag_67\n      jump\t// in\n    tag_66:\n      tag_68\n      jump\t// in\n    tag_65:\n      stop\n        /* \"contracts/Donee.sol\":514:533  string public image */\n    tag_14:\n      callvalue\n      dup1\n      iszero\n      tag_69\n      jumpi\n      0x00\n      dup1\n      revert\n    tag_69:\n      pop\n      tag_70\n      tag_71\n      jump\t// in\n    tag_70:\n      mload(0x40)\n      tag_72\n      swap2\n      swap1\n      tag_23\n      jump\t// in\n    tag_72:\n      mload(0x40)\n      dup1\n      swap2\n      sub\n      swap1\n      return\n        /* \"contracts/Donee.sol\":1282:1745  function myHistory() public view returns (uint256[] memory values, uint256[] memory dates) {... */\n    tag_15:\n      callvalue\n      dup1\n      iszero\n      tag_73\n      jumpi\n      0x00\n      dup1\n      revert\n    tag_73:\n      pop\n      tag_74\n      tag_75\n      jump\t// in\n    tag_74:\n      mload(0x40)\n      tag_76\n      swap3\n      swap2\n      swap1\n      tag_77\n      jump\t// in\n    tag_76:\n      mload(0x40)\n      dup1\n      swap2\n      sub\n      swap1\n      return\n        /* \"contracts/Donee.sol\":457:475  string public name */\n    tag_21:\n      0x04\n      dup1\n      sload\n      tag_78\n      swap1\n      tag_79\n      jump\t// in\n    tag_78:\n      dup1\n      0x1f\n      add\n      0x20\n      dup1\n      swap2\n      div\n      mul\n      0x20\n      add\n      mload(0x40)\n      swap1\n      dup2\n      add\n      0x40\n      mstore\n      dup1\n      swap3\n      swap2\n      swap1\n      dup2\n      dup2\n      mstore\n      0x20\n      add\n      dup3\n      dup1\n      sload\n      tag_80\n      swap1\n      tag_79\n      jump\t// in\n    tag_80:\n      dup1\n      iszero\n      tag_81\n      jumpi\n      dup1\n      0x1f\n      lt\n      tag_82\n      jumpi\n      0x0100\n      dup1\n      dup4\n      sload\n      div\n      mul\n      dup4\n      mstore\n      swap2\n      0x20\n      add\n      swap2\n      jump(tag_81)\n    tag_82:\n      dup3\n      add\n      swap2\n      swap1\n      0x00\n      mstore\n      keccak256(0x00, 0x20)\n      swap1\n    tag_83:\n      dup2\n      sload\n      dup2\n      mstore\n      swap1\n      0x01\n      add\n      swap1\n      0x20\n      add\n      dup1\n      dup4\n      gt\n      tag_83\n      jumpi\n      dup3\n      swap1\n      sub\n      0x1f\n      and\n      dup3\n      add\n      swap2\n    tag_81:\n      pop\n      pop\n      pop\n      pop\n      pop\n      dup2\n      jump\t// out\n        /* \"contracts/Donee.sol\":310:343  uint256 public totalDonationCount */\n    tag_26:\n      sload(0x03)\n      dup2\n      jump\t// out\n        /* \"contracts/Donee.sol\":1931:2053  function setWithdrawalAddress(address payable new_address) public onlyOwner {... */\n    tag_33:\n        /* \"@openzeppelin/contracts/access/Ownable.sol\":1531:1544  _checkOwner() */\n      tag_85\n        /* \"@openzeppelin/contracts/access/Ownable.sol\":1531:1542  _checkOwner */\n      tag_86\n        /* \"@openzeppelin/contracts/access/Ownable.sol\":1531:1544  _checkOwner() */\n      jump\t// in\n    tag_85:\n        /* \"contracts/Donee.sol\":2034:2045  new_address */\n      dup1\n        /* \"contracts/Donee.sol\":2018:2031  donee_address */\n      0x07\n      0x00\n        /* \"contracts/Donee.sol\":2018:2045  donee_address = new_address */\n      0x0100\n      exp\n      dup2\n      sload\n      dup2\n      0xffffffffffffffffffffffffffffffffffffffff\n      mul\n      not\n      and\n      swap1\n      dup4\n      0xffffffffffffffffffffffffffffffffffffffff\n      and\n      mul\n      or\n      swap1\n      sstore\n      pop\n        /* \"contracts/Donee.sol\":1931:2053  function setWithdrawalAddress(address payable new_address) public onlyOwner {... */\n      pop\n      jump\t// out\n        /* \"contracts/Donee.sol\":862:971  function donationCount() public view returns(uint256) {... */\n    tag_36:\n        /* \"contracts/Donee.sol\":907:914  uint256 */\n      0x00\n        /* \"contracts/Donee.sol\":934:944  _donations */\n      0x01\n        /* \"contracts/Donee.sol\":934:956  _donations[msg.sender] */\n      0x00\n        /* \"contracts/Donee.sol\":945:955  msg.sender */\n      caller\n        /* \"contracts/Donee.sol\":934:956  _donations[msg.sender] */\n      0xffffffffffffffffffffffffffffffffffffffff\n      and\n      0xffffffffffffffffffffffffffffffffffffffff\n      and\n      dup2\n      mstore\n      0x20\n      add\n      swap1\n      dup2\n      mstore\n      0x20\n      add\n      0x00\n      keccak256\n        /* \"contracts/Donee.sol\":934:963  _donations[msg.sender].length */\n      dup1\n      sload\n      swap1\n      pop\n        /* \"contracts/Donee.sol\":927:963  return _donations[msg.sender].length */\n      swap1\n      pop\n        /* \"contracts/Donee.sol\":862:971  function donationCount() public view returns(uint256) {... */\n      swap1\n      jump\t// out\n        /* \"contracts/Donee.sol\":1753:1923  function withdraw() public onlyOwner {... */\n    tag_40:\n        /* \"@openzeppelin/contracts/access/Ownable.sol\":1531:1544  _checkOwner() */\n      tag_90\n        /* \"@openzeppelin/contracts/access/Ownable.sol\":1531:1542  _checkOwner */\n      tag_86\n        /* \"@openzeppelin/contracts/access/Ownable.sol\":1531:1544  _checkOwner() */\n      jump\t// in\n    tag_90:\n        /* \"contracts/Donee.sol\":1801:1816  uint256 balance */\n      0x00\n        /* \"contracts/Donee.sol\":1819:1840  address(this).balance */\n      selfbalance\n        /* \"contracts/Donee.sol\":1801:1840  uint256 balance = address(this).balance */\n      swap1\n      pop\n        /* \"contracts/Donee.sol\":1851:1864  donee_address */\n      0x07\n      0x00\n      swap1\n      sload\n      swap1\n      0x0100\n      exp\n      swap1\n      div\n      0xffffffffffffffffffffffffffffffffffffffff\n      and\n        /* \"contracts/Donee.sol\":1851:1873  donee_address.transfer */\n      0xffffffffffffffffffffffffffffffffffffffff\n      and\n        /* \"contracts/Donee.sol\":1851:1882  donee_address.transfer(balance) */\n      0x08fc\n        /* \"contracts/Donee.sol\":1874:1881  balance */\n      dup3\n        /* \"contracts/Donee.sol\":1851:1882  donee_address.transfer(balance) */\n      swap1\n      dup2\n      iszero\n      mul\n      swap1\n      mload(0x40)\n      0x00\n      mload(0x40)\n      dup1\n      dup4\n      sub\n      dup2\n      dup6\n      dup9\n      dup9\n      call\n      swap4\n      pop\n      pop\n      pop\n      pop\n      iszero\n      dup1\n      iszero\n      tag_93\n      jumpi\n      returndatasize\n      0x00\n      dup1\n      returndatacopy\n      revert(0x00, returndatasize)\n    tag_93:\n      pop\n        /* \"contracts/Donee.sol\":1898:1915  Withdraw(balance) */\n      0x5b6b431d4476a211bb7d41c20d1aab9ae2321deee0d20be3d9fc9b1093fa6e3d\n        /* \"contracts/Donee.sol\":1907:1914  balance */\n      dup2\n        /* \"contracts/Donee.sol\":1898:1915  Withdraw(balance) */\n      mload(0x40)\n      tag_94\n      swap2\n      swap1\n      tag_28\n      jump\t// in\n    tag_94:\n      mload(0x40)\n      dup1\n      swap2\n      sub\n      swap1\n      log1\n        /* \"contracts/Donee.sol\":1790:1923  {... */\n      pop\n        /* \"contracts/Donee.sol\":1753:1923  function withdraw() public onlyOwner {... */\n      jump\t// out\n        /* \"contracts/Donee.sol\":540:576  address payable public donee_address */\n    tag_43:\n      0x07\n      0x00\n      swap1\n      sload\n      swap1\n      0x0100\n      exp\n      swap1\n      div\n      0xffffffffffffffffffffffffffffffffffffffff\n      and\n      dup2\n      jump\t// out\n        /* \"@openzeppelin/contracts/access/Ownable.sol\":2293:2394  function renounceOwnership() public virtual onlyOwner {... */\n    tag_48:\n        /* \"@openzeppelin/contracts/access/Ownable.sol\":1531:1544  _checkOwner() */\n      tag_96\n        /* \"@openzeppelin/contracts/access/Ownable.sol\":1531:1542  _checkOwner */\n      tag_86\n        /* \"@openzeppelin/contracts/access/Ownable.sol\":1531:1544  _checkOwner() */\n      jump\t// in\n    tag_96:\n        /* \"@openzeppelin/contracts/access/Ownable.sol\":2357:2387  _transferOwnership(address(0)) */\n      tag_98\n        /* \"@openzeppelin/contracts/access/Ownable.sol\":2384:2385  0 */\n      0x00\n        /* \"@openzeppelin/contracts/access/Ownable.sol\":2357:2375  _transferOwnership */\n      tag_99\n        /* \"@openzeppelin/contracts/access/Ownable.sol\":2357:2387  _transferOwnership(address(0)) */\n      jump\t// in\n    tag_98:\n        /* \"@openzeppelin/contracts/access/Ownable.sol\":2293:2394  function renounceOwnership() public virtual onlyOwner {... */\n      jump\t// out\n        /* \"contracts/Donee.sol\":482:507  string public description */\n    tag_51:\n      0x05\n      dup1\n      sload\n      tag_100\n      swap1\n      tag_79\n      jump\t// in\n    tag_100:\n      dup1\n      0x1f\n      add\n      0x20\n      dup1\n      swap2\n      div\n      mul\n      0x20\n      add\n      mload(0x40)\n      swap1\n      dup2\n      add\n      0x40\n      mstore\n      dup1\n      swap3\n      swap2\n      swap1\n      dup2\n      dup2\n      mstore\n      0x20\n      add\n      dup3\n      dup1\n      sload\n      tag_101\n      swap1\n      tag_79\n      jump\t// in\n    tag_101:\n      dup1\n      iszero\n      tag_102\n      jumpi\n      dup1\n      0x1f\n      lt\n      tag_103\n      jumpi\n      0x0100\n      dup1\n      dup4\n      sload\n      div\n      mul\n      dup4\n      mstore\n      swap2\n      0x20\n      add\n      swap2\n      jump(tag_102)\n    tag_103:\n      dup3\n      add\n      swap2\n      swap1\n      0x00\n      mstore\n      keccak256(0x00, 0x20)\n      swap1\n    tag_104:\n      dup2\n      sload\n      dup2\n      mstore\n      swap1\n      0x01\n      add\n      swap1\n      0x20\n      add\n      dup1\n      dup4\n      gt\n      tag_104\n      jumpi\n      dup3\n      swap1\n      sub\n      0x1f\n      and\n      dup3\n      add\n      swap2\n    tag_102:\n      pop\n      pop\n      pop\n      pop\n      pop\n      dup2\n      jump\t// out\n        /* \"@openzeppelin/contracts/access/Ownable.sol\":1638:1723  function owner() public view virtual returns (address) {... */\n    tag_55:\n        /* \"@openzeppelin/contracts/access/Ownable.sol\":1684:1691  address */\n      0x00\n        /* \"@openzeppelin/contracts/access/Ownable.sol\":1710:1716  _owner */\n      dup1\n      0x00\n      swap1\n      sload\n      swap1\n      0x0100\n      exp\n      swap1\n      div\n      0xffffffffffffffffffffffffffffffffffffffff\n      and\n        /* \"@openzeppelin/contracts/access/Ownable.sol\":1703:1716  return _owner */\n      swap1\n      pop\n        /* \"@openzeppelin/contracts/access/Ownable.sol\":1638:1723  function owner() public view virtual returns (address) {... */\n      swap1\n      jump\t// out\n        /* \"contracts/Donee.sol\":979:1274  function donate() public payable {... */\n    tag_59:\n        /* \"contracts/Donee.sol\":1023:1047  Donation memory donation */\n      0x00\n        /* \"contracts/Donee.sol\":1050:1099  Donation({value:msg.value, date:block.timestamp}) */\n      mload(0x40)\n      dup1\n      0x40\n      add\n      0x40\n      mstore\n      dup1\n        /* \"contracts/Donee.sol\":1066:1075  msg.value */\n      callvalue\n        /* \"contracts/Donee.sol\":1050:1099  Donation({value:msg.value, date:block.timestamp}) */\n      dup2\n      mstore\n      0x20\n      add\n        /* \"contracts/Donee.sol\":1082:1097  block.timestamp */\n      timestamp\n        /* \"contracts/Donee.sol\":1050:1099  Donation({value:msg.value, date:block.timestamp}) */\n      dup2\n      mstore\n      pop\n        /* \"contracts/Donee.sol\":1023:1099  Donation memory donation = Donation({value:msg.value, date:block.timestamp}) */\n      swap1\n      pop\n        /* \"contracts/Donee.sol\":1110:1120  _donations */\n      0x01\n        /* \"contracts/Donee.sol\":1110:1132  _donations[msg.sender] */\n      0x00\n        /* \"contracts/Donee.sol\":1121:1131  msg.sender */\n      caller\n        /* \"contracts/Donee.sol\":1110:1132  _donations[msg.sender] */\n      0xffffffffffffffffffffffffffffffffffffffff\n      and\n      0xffffffffffffffffffffffffffffffffffffffff\n      and\n      dup2\n      mstore\n      0x20\n      add\n      swap1\n      dup2\n      mstore\n      0x20\n      add\n      0x00\n      keccak256\n        /* \"contracts/Donee.sol\":1138:1146  donation */\n      dup2\n        /* \"contracts/Donee.sol\":1110:1147  _donations[msg.sender].push(donation) */\n      swap1\n      dup1\n      0x01\n      dup2\n      sload\n      add\n      dup1\n      dup3\n      sstore\n      dup1\n      swap2\n      pop\n      pop\n      0x01\n      swap1\n      sub\n      swap1\n      0x00\n      mstore\n      keccak256(0x00, 0x20)\n      swap1\n      0x02\n      mul\n      add\n      0x00\n      swap1\n      swap2\n      swap1\n      swap2\n      swap1\n      swap2\n      pop\n      0x00\n      dup3\n      add\n      mload\n      dup2\n      0x00\n      add\n      sstore\n      0x20\n      dup3\n      add\n      mload\n      dup2\n      0x01\n      add\n      sstore\n      pop\n      pop\n        /* \"contracts/Donee.sol\":1168:1177  msg.value */\n      callvalue\n        /* \"contracts/Donee.sol\":1158:1164  raised */\n      0x02\n      0x00\n        /* \"contracts/Donee.sol\":1158:1177  raised += msg.value */\n      dup3\n      dup3\n      sload\n      tag_108\n      swap2\n      swap1\n      tag_109\n      jump\t// in\n    tag_108:\n      swap3\n      pop\n      pop\n      dup2\n      swap1\n      sstore\n      pop\n        /* \"contracts/Donee.sol\":1210:1211  1 */\n      0x01\n        /* \"contracts/Donee.sol\":1188:1206  totalDonationCount */\n      0x03\n      0x00\n        /* \"contracts/Donee.sol\":1188:1211  totalDonationCount += 1 */\n      dup3\n      dup3\n      sload\n      tag_110\n      swap2\n      swap1\n      tag_109\n      jump\t// in\n    tag_110:\n      swap3\n      pop\n      pop\n      dup2\n      swap1\n      sstore\n      pop\n        /* \"contracts/Donee.sol\":1244:1254  msg.sender */\n      caller\n        /* \"contracts/Donee.sol\":1227:1266  donationReceived(msg.sender, msg.value) */\n      0xffffffffffffffffffffffffffffffffffffffff\n      and\n      0xe2639ef551ad89950da1145fe1fd600e818336d6e8aa88426efe387c49accebb\n        /* \"contracts/Donee.sol\":1256:1265  msg.value */\n      callvalue\n        /* \"contracts/Donee.sol\":1227:1266  donationReceived(msg.sender, msg.value) */\n      mload(0x40)\n      tag_111\n      swap2\n      swap1\n      tag_28\n      jump\t// in\n    tag_111:\n      mload(0x40)\n      dup1\n      swap2\n      sub\n      swap1\n      log2\n        /* \"contracts/Donee.sol\":1012:1274  {... */\n      pop\n        /* \"contracts/Donee.sol\":979:1274  function donate() public payable {... */\n      jump\t// out\n        /* \"contracts/Donee.sol\":282:303  uint256 public raised */\n    tag_62:\n      sload(0x02)\n      dup2\n      jump\t// out\n        /* \"@openzeppelin/contracts/access/Ownable.sol\":2543:2758  function transferOwnership(address newOwner) public virtual onlyOwner {... */\n    tag_68:\n        /* \"@openzeppelin/contracts/access/Ownable.sol\":1531:1544  _checkOwner() */\n      tag_113\n        /* \"@openzeppelin/contracts/access/Ownable.sol\":1531:1542  _checkOwner */\n      tag_86\n        /* \"@openzeppelin/contracts/access/Ownable.sol\":1531:1544  _checkOwner() */\n      jump\t// in\n    tag_113:\n        /* \"@openzeppelin/contracts/access/Ownable.sol\":2647:2648  0 */\n      0x00\n        /* \"@openzeppelin/contracts/access/Ownable.sol\":2627:2649  newOwner == address(0) */\n      0xffffffffffffffffffffffffffffffffffffffff\n      and\n        /* \"@openzeppelin/contracts/access/Ownable.sol\":2627:2635  newOwner */\n      dup2\n        /* \"@openzeppelin/contracts/access/Ownable.sol\":2627:2649  newOwner == address(0) */\n      0xffffffffffffffffffffffffffffffffffffffff\n      and\n      sub\n        /* \"@openzeppelin/contracts/access/Ownable.sol\":2623:2714  if (newOwner == address(0)) {... */\n      tag_115\n      jumpi\n        /* \"@openzeppelin/contracts/access/Ownable.sol\":2700:2701  0 */\n      0x00\n        /* \"@openzeppelin/contracts/access/Ownable.sol\":2672:2703  OwnableInvalidOwner(address(0)) */\n      mload(0x40)\n      0x1e4fbdf700000000000000000000000000000000000000000000000000000000\n      dup2\n      mstore\n      0x04\n      add\n      tag_116\n      swap2\n      swap1\n      tag_57\n      jump\t// in\n    tag_116:\n      mload(0x40)\n      dup1\n      swap2\n      sub\n      swap1\n      revert\n        /* \"@openzeppelin/contracts/access/Ownable.sol\":2623:2714  if (newOwner == address(0)) {... */\n    tag_115:\n        /* \"@openzeppelin/contracts/access/Ownable.sol\":2723:2751  _transferOwnership(newOwner) */\n      tag_117\n        /* \"@openzeppelin/contracts/access/Ownable.sol\":2742:2750  newOwner */\n      dup2\n        /* \"@openzeppelin/contracts/access/Ownable.sol\":2723:2741  _transferOwnership */\n      tag_99\n        /* \"@openzeppelin/contracts/access/Ownable.sol\":2723:2751  _transferOwnership(newOwner) */\n      jump\t// in\n    tag_117:\n        /* \"@openzeppelin/contracts/access/Ownable.sol\":2543:2758  function transferOwnership(address newOwner) public virtual onlyOwner {... */\n      pop\n      jump\t// out\n        /* \"contracts/Donee.sol\":514:533  string public image */\n    tag_71:\n      0x06\n      dup1\n      sload\n      tag_118\n      swap1\n      tag_79\n      jump\t// in\n    tag_118:\n      dup1\n      0x1f\n      add\n      0x20\n      dup1\n      swap2\n      div\n      mul\n      0x20\n      add\n      mload(0x40)\n      swap1\n      dup2\n      add\n      0x40\n      mstore\n      dup1\n      swap3\n      swap2\n      swap1\n      dup2\n      dup2\n      mstore\n      0x20\n      add\n      dup3\n      dup1\n      sload\n      tag_119\n      swap1\n      tag_79\n      jump\t// in\n    tag_119:\n      dup1\n      iszero\n      tag_120\n      jumpi\n      dup1\n      0x1f\n      lt\n      tag_121\n      jumpi\n      0x0100\n      dup1\n      dup4\n      sload\n      div\n      mul\n      dup4\n      mstore\n      swap2\n      0x20\n      add\n      swap2\n      jump(tag_120)\n    tag_121:\n      dup3\n      add\n      swap2\n      swap1\n      0x00\n      mstore\n      keccak256(0x00, 0x20)\n      swap1\n    tag_122:\n      dup2\n      sload\n      dup2\n      mstore\n      swap1\n      0x01\n      add\n      swap1\n      0x20\n      add\n      dup1\n      dup4\n      gt\n      tag_122\n      jumpi\n      dup3\n      swap1\n      sub\n      0x1f\n      and\n      dup3\n      add\n      swap2\n    tag_120:\n      pop\n      pop\n      pop\n      pop\n      pop\n      dup2\n      jump\t// out\n        /* \"contracts/Donee.sol\":1282:1745  function myHistory() public view returns (uint256[] memory values, uint256[] memory dates) {... */\n    tag_75:\n        /* \"contracts/Donee.sol\":1324:1347  uint256[] memory values */\n      0x60\n        /* \"contracts/Donee.sol\":1349:1371  uint256[] memory dates */\n      dup1\n        /* \"contracts/Donee.sol\":1384:1397  uint256 count */\n      0x00\n        /* \"contracts/Donee.sol\":1400:1415  donationCount() */\n      tag_124\n        /* \"contracts/Donee.sol\":1400:1413  donationCount */\n      tag_36\n        /* \"contracts/Donee.sol\":1400:1415  donationCount() */\n      jump\t// in\n    tag_124:\n        /* \"contracts/Donee.sol\":1384:1415  uint256 count = donationCount() */\n      swap1\n      pop\n        /* \"contracts/Donee.sol\":1449:1454  count */\n      dup1\n        /* \"contracts/Donee.sol\":1435:1455  new uint256[](count) */\n      0xffffffffffffffff\n      dup2\n      gt\n      iszero\n      tag_125\n      jumpi\n      tag_126\n      tag_127\n      jump\t// in\n    tag_126:\n    tag_125:\n      mload(0x40)\n      swap1\n      dup1\n      dup3\n      mstore\n      dup1\n      0x20\n      mul\n      0x20\n      add\n      dup3\n      add\n      0x40\n      mstore\n      dup1\n      iszero\n      tag_128\n      jumpi\n      dup2\n      0x20\n      add\n      0x20\n      dup3\n      mul\n      dup1\n      calldatasize\n      dup4\n      calldatacopy\n      dup1\n      dup3\n      add\n      swap2\n      pop\n      pop\n      swap1\n      pop\n    tag_128:\n      pop\n        /* \"contracts/Donee.sol\":1426:1455  values = new uint256[](count) */\n      swap3\n      pop\n        /* \"contracts/Donee.sol\":1488:1493  count */\n      dup1\n        /* \"contracts/Donee.sol\":1474:1494  new uint256[](count) */\n      0xffffffffffffffff\n      dup2\n      gt\n      iszero\n      tag_129\n      jumpi\n      tag_130\n      tag_127\n      jump\t// in\n    tag_130:\n    tag_129:\n      mload(0x40)\n      swap1\n      dup1\n      dup3\n      mstore\n      dup1\n      0x20\n      mul\n      0x20\n      add\n      dup3\n      add\n      0x40\n      mstore\n      dup1\n      iszero\n      tag_131\n      jumpi\n      dup2\n      0x20\n      add\n      0x20\n      dup3\n      mul\n      dup1\n      calldatasize\n      dup4\n      calldatacopy\n      dup1\n      dup3\n      add\n      swap2\n      pop\n      pop\n      swap1\n      pop\n    tag_131:\n      pop\n        /* \"contracts/Donee.sol\":1466:1494  dates = new uint256[](count) */\n      swap2\n      pop\n        /* \"contracts/Donee.sol\":1512:1521  uint256 i */\n      0x00\n        /* \"contracts/Donee.sol\":1507:1703  for (uint256 i = 0; i < count; i++) {... */\n    tag_132:\n        /* \"contracts/Donee.sol\":1531:1536  count */\n      dup2\n        /* \"contracts/Donee.sol\":1527:1528  i */\n      dup2\n        /* \"contracts/Donee.sol\":1527:1536  i < count */\n      lt\n        /* \"contracts/Donee.sol\":1507:1703  for (uint256 i = 0; i < count; i++) {... */\n      iszero\n      tag_133\n      jumpi\n        /* \"contracts/Donee.sol\":1558:1583  Donation storage donation */\n      0x00\n        /* \"contracts/Donee.sol\":1586:1596  _donations */\n      0x01\n        /* \"contracts/Donee.sol\":1586:1608  _donations[msg.sender] */\n      0x00\n        /* \"contracts/Donee.sol\":1597:1607  msg.sender */\n      caller\n        /* \"contracts/Donee.sol\":1586:1608  _donations[msg.sender] */\n      0xffffffffffffffffffffffffffffffffffffffff\n      and\n      0xffffffffffffffffffffffffffffffffffffffff\n      and\n      dup2\n      mstore\n      0x20\n      add\n      swap1\n      dup2\n      mstore\n      0x20\n      add\n      0x00\n      keccak256\n        /* \"contracts/Donee.sol\":1609:1610  i */\n      dup3\n        /* \"contracts/Donee.sol\":1586:1611  _donations[msg.sender][i] */\n      dup2\n      sload\n      dup2\n      lt\n      tag_135\n      jumpi\n      tag_136\n      tag_137\n      jump\t// in\n    tag_136:\n    tag_135:\n      swap1\n      0x00\n      mstore\n      keccak256(0x00, 0x20)\n      swap1\n      0x02\n      mul\n      add\n        /* \"contracts/Donee.sol\":1558:1611  Donation storage donation = _donations[msg.sender][i] */\n      swap1\n      pop\n        /* \"contracts/Donee.sol\":1638:1646  donation */\n      dup1\n        /* \"contracts/Donee.sol\":1638:1652  donation.value */\n      0x00\n      add\n      sload\n        /* \"contracts/Donee.sol\":1626:1632  values */\n      dup6\n        /* \"contracts/Donee.sol\":1633:1634  i */\n      dup4\n        /* \"contracts/Donee.sol\":1626:1635  values[i] */\n      dup2\n      mload\n      dup2\n      lt\n      tag_139\n      jumpi\n      tag_140\n      tag_137\n      jump\t// in\n    tag_140:\n    tag_139:\n      0x20\n      mul\n      0x20\n      add\n      add\n        /* \"contracts/Donee.sol\":1626:1652  values[i] = donation.value */\n      dup2\n      dup2\n      mstore\n      pop\n      pop\n        /* \"contracts/Donee.sol\":1678:1686  donation */\n      dup1\n        /* \"contracts/Donee.sol\":1678:1691  donation.date */\n      0x01\n      add\n      sload\n        /* \"contracts/Donee.sol\":1667:1672  dates */\n      dup5\n        /* \"contracts/Donee.sol\":1673:1674  i */\n      dup4\n        /* \"contracts/Donee.sol\":1667:1675  dates[i] */\n      dup2\n      mload\n      dup2\n      lt\n      tag_141\n      jumpi\n      tag_142\n      tag_137\n      jump\t// in\n    tag_142:\n    tag_141:\n      0x20\n      mul\n      0x20\n      add\n      add\n        /* \"contracts/Donee.sol\":1667:1691  dates[i] = donation.date */\n      dup2\n      dup2\n      mstore\n      pop\n      pop\n        /* \"contracts/Donee.sol\":1543:1703  {... */\n      pop\n        /* \"contracts/Donee.sol\":1538:1541  i++ */\n      dup1\n      dup1\n      0x01\n      add\n      swap2\n      pop\n      pop\n        /* \"contracts/Donee.sol\":1507:1703  for (uint256 i = 0; i < count; i++) {... */\n      jump(tag_132)\n    tag_133:\n      pop\n        /* \"contracts/Donee.sol\":1715:1737  return (values, dates) */\n      pop\n        /* \"contracts/Donee.sol\":1282:1745  function myHistory() public view returns (uint256[] memory values, uint256[] memory dates) {... */\n      swap1\n      swap2\n      jump\t// out\n        /* \"@openzeppelin/contracts/access/Ownable.sol\":1796:1958  function _checkOwner() internal view virtual {... */\n    tag_86:\n        /* \"@openzeppelin/contracts/access/Ownable.sol\":1866:1878  _msgSender() */\n      tag_144\n        /* \"@openzeppelin/contracts/access/Ownable.sol\":1866:1876  _msgSender */\n      tag_145\n        /* \"@openzeppelin/contracts/access/Ownable.sol\":1866:1878  _msgSender() */\n      jump\t// in\n    tag_144:\n        /* \"@openzeppelin/contracts/access/Ownable.sol\":1855:1878  owner() != _msgSender() */\n      0xffffffffffffffffffffffffffffffffffffffff\n      and\n        /* \"@openzeppelin/contracts/access/Ownable.sol\":1855:1862  owner() */\n      tag_146\n        /* \"@openzeppelin/contracts/access/Ownable.sol\":1855:1860  owner */\n      tag_55\n        /* \"@openzeppelin/contracts/access/Ownable.sol\":1855:1862  owner() */\n      jump\t// in\n    tag_146:\n        /* \"@openzeppelin/contracts/access/Ownable.sol\":1855:1878  owner() != _msgSender() */\n      0xffffffffffffffffffffffffffffffffffffffff\n      and\n      eq\n        /* \"@openzeppelin/contracts/access/Ownable.sol\":1851:1952  if (owner() != _msgSender()) {... */\n      tag_147\n      jumpi\n        /* \"@openzeppelin/contracts/access/Ownable.sol\":1928:1940  _msgSender() */\n      tag_148\n        /* \"@openzeppelin/contracts/access/Ownable.sol\":1928:1938  _msgSender */\n      tag_145\n        /* \"@openzeppelin/contracts/access/Ownable.sol\":1928:1940  _msgSender() */\n      jump\t// in\n    tag_148:\n        /* \"@openzeppelin/contracts/access/Ownable.sol\":1901:1941  OwnableUnauthorizedAccount(_msgSender()) */\n      mload(0x40)\n      0x118cdaa700000000000000000000000000000000000000000000000000000000\n      dup2\n      mstore\n      0x04\n      add\n      tag_149\n      swap2\n      swap1\n      tag_57\n      jump\t// in\n    tag_149:\n      mload(0x40)\n      dup1\n      swap2\n      sub\n      swap1\n      revert\n        /* \"@openzeppelin/contracts/access/Ownable.sol\":1851:1952  if (owner() != _msgSender()) {... */\n    tag_147:\n        /* \"@openzeppelin/contracts/access/Ownable.sol\":1796:1958  function _checkOwner() internal view virtual {... */\n      jump\t// out\n        /* \"@openzeppelin/contracts/access/Ownable.sol\":2912:3099  function _transferOwnership(address newOwner) internal virtual {... */\n    tag_99:\n        /* \"@openzeppelin/contracts/access/Ownable.sol\":2985:3001  address oldOwner */\n      0x00\n        /* \"@openzeppelin/contracts/access/Ownable.sol\":3004:3010  _owner */\n      dup1\n      0x00\n      swap1\n      sload\n      swap1\n      0x0100\n      exp\n      swap1\n      div\n      0xffffffffffffffffffffffffffffffffffffffff\n      and\n        /* \"@openzeppelin/contracts/access/Ownable.sol\":2985:3010  address oldOwner = _owner */\n      swap1\n      pop\n        /* \"@openzeppelin/contracts/access/Ownable.sol\":3029:3037  newOwner */\n      dup2\n        /* \"@openzeppelin/contracts/access/Ownable.sol\":3020:3026  _owner */\n      0x00\n      dup1\n        /* \"@openzeppelin/contracts/access/Ownable.sol\":3020:3037  _owner = newOwner */\n      0x0100\n      exp\n      dup2\n      sload\n      dup2\n      0xffffffffffffffffffffffffffffffffffffffff\n      mul\n      not\n      and\n      swap1\n      dup4\n      0xffffffffffffffffffffffffffffffffffffffff\n      and\n      mul\n      or\n      swap1\n      sstore\n      pop\n        /* \"@openzeppelin/contracts/access/Ownable.sol\":3083:3091  newOwner */\n      dup2\n        /* \"@openzeppelin/contracts/access/Ownable.sol\":3052:3092  OwnershipTransferred(oldOwner, newOwner) */\n      0xffffffffffffffffffffffffffffffffffffffff\n      and\n        /* \"@openzeppelin/contracts/access/Ownable.sol\":3073:3081  oldOwner */\n      dup2\n        /* \"@openzeppelin/contracts/access/Ownable.sol\":3052:3092  OwnershipTransferred(oldOwner, newOwner) */\n      0xffffffffffffffffffffffffffffffffffffffff\n      and\n      0x8be0079c531659141344cd1fd0a4f28419497f9722a3daafe3b4186f6b6457e0\n      mload(0x40)\n      mload(0x40)\n      dup1\n      swap2\n      sub\n      swap1\n      log3\n        /* \"@openzeppelin/contracts/access/Ownable.sol\":2975:3099  {... */\n      pop\n        /* \"@openzeppelin/contracts/access/Ownable.sol\":2912:3099  function _transferOwnership(address newOwner) internal virtual {... */\n      pop\n      jump\t// out\n        /* \"@openzeppelin/contracts/utils/Context.sol\":656:752  function _msgSender() internal view virtual returns (address) {... */\n    tag_145:\n        /* \"@openzeppelin/contracts/utils/Context.sol\":709:716  address */\n      0x00\n        /* \"@openzeppelin/contracts/utils/Context.sol\":735:745  msg.sender */\n      caller\n        /* \"@openzeppelin/contracts/utils/Context.sol\":728:745  return msg.sender */\n      swap1\n      pop\n        /* \"@openzeppelin/contracts/utils/Context.sol\":656:752  function _msgSender() internal view virtual returns (address) {... */\n      swap1\n      jump\t// out\n        /* \"#utility.yul\":7:106   */\n    tag_152:\n        /* \"#utility.yul\":59:65   */\n      0x00\n        /* \"#utility.yul\":93:98   */\n      dup2\n        /* \"#utility.yul\":87:99   */\n      mload\n        /* \"#utility.yul\":77:99   */\n      swap1\n      pop\n        /* \"#utility.yul\":7:106   */\n      swap2\n      swap1\n      pop\n      jump\t// out\n        /* \"#utility.yul\":112:281   */\n    tag_153:\n        /* \"#utility.yul\":196:207   */\n      0x00\n        /* \"#utility.yul\":230:236   */\n      dup3\n        /* \"#utility.yul\":225:228   */\n      dup3\n        /* \"#utility.yul\":218:237   */\n      mstore\n        /* \"#utility.yul\":270:274   */\n      0x20\n        /* \"#utility.yul\":265:268   */\n      dup3\n        /* \"#utility.yul\":261:275   */\n      add\n        /* \"#utility.yul\":246:275   */\n      swap1\n      pop\n        /* \"#utility.yul\":112:281   */\n      swap3\n      swap2\n      pop\n      pop\n      jump\t// out\n        /* \"#utility.yul\":287:533   */\n    tag_154:\n        /* \"#utility.yul\":368:369   */\n      0x00\n        /* \"#utility.yul\":378:491   */\n    tag_184:\n        /* \"#utility.yul\":392:398   */\n      dup4\n        /* \"#utility.yul\":389:390   */\n      dup2\n        /* \"#utility.yul\":386:399   */\n      lt\n        /* \"#utility.yul\":378:491   */\n      iszero\n      tag_186\n      jumpi\n        /* \"#utility.yul\":477:478   */\n      dup1\n        /* \"#utility.yul\":472:475   */\n      dup3\n        /* \"#utility.yul\":468:479   */\n      add\n        /* \"#utility.yul\":462:480   */\n      mload\n        /* \"#utility.yul\":458:459   */\n      dup2\n        /* \"#utility.yul\":453:456   */\n      dup5\n        /* \"#utility.yul\":449:460   */\n      add\n        /* \"#utility.yul\":442:481   */\n      mstore\n        /* \"#utility.yul\":414:416   */\n      0x20\n        /* \"#utility.yul\":411:412   */\n      dup2\n        /* \"#utility.yul\":407:417   */\n      add\n        /* \"#utility.yul\":402:417   */\n      swap1\n      pop\n        /* \"#utility.yul\":378:491   */\n      jump(tag_184)\n    tag_186:\n        /* \"#utility.yul\":525:526   */\n      0x00\n        /* \"#utility.yul\":516:522   */\n      dup5\n        /* \"#utility.yul\":511:514   */\n      dup5\n        /* \"#utility.yul\":507:523   */\n      add\n        /* \"#utility.yul\":500:527   */\n      mstore\n        /* \"#utility.yul\":349:533   */\n      pop\n        /* \"#utility.yul\":287:533   */\n      pop\n      pop\n      pop\n      jump\t// out\n        /* \"#utility.yul\":539:641   */\n    tag_155:\n        /* \"#utility.yul\":580:586   */\n      0x00\n        /* \"#utility.yul\":631:633   */\n      0x1f\n        /* \"#utility.yul\":627:634   */\n      not\n        /* \"#utility.yul\":622:624   */\n      0x1f\n        /* \"#utility.yul\":615:620   */\n      dup4\n        /* \"#utility.yul\":611:625   */\n      add\n        /* \"#utility.yul\":607:635   */\n      and\n        /* \"#utility.yul\":597:635   */\n      swap1\n      pop\n        /* \"#utility.yul\":539:641   */\n      swap2\n      swap1\n      pop\n      jump\t// out\n        /* \"#utility.yul\":647:1024   */\n    tag_156:\n        /* \"#utility.yul\":735:738   */\n      0x00\n        /* \"#utility.yul\":763:802   */\n      tag_189\n        /* \"#utility.yul\":796:801   */\n      dup3\n        /* \"#utility.yul\":763:802   */\n      tag_152\n      jump\t// in\n    tag_189:\n        /* \"#utility.yul\":818:889   */\n      tag_190\n        /* \"#utility.yul\":882:888   */\n      dup2\n        /* \"#utility.yul\":877:880   */\n      dup6\n        /* \"#utility.yul\":818:889   */\n      tag_153\n      jump\t// in\n    tag_190:\n        /* \"#utility.yul\":811:889   */\n      swap4\n      pop\n        /* \"#utility.yul\":898:963   */\n      tag_191\n        /* \"#utility.yul\":956:962   */\n      dup2\n        /* \"#utility.yul\":951:954   */\n      dup6\n        /* \"#utility.yul\":944:948   */\n      0x20\n        /* \"#utility.yul\":937:942   */\n      dup7\n        /* \"#utility.yul\":933:949   */\n      add\n        /* \"#utility.yul\":898:963   */\n      tag_154\n      jump\t// in\n    tag_191:\n        /* \"#utility.yul\":988:1017   */\n      tag_192\n        /* \"#utility.yul\":1010:1016   */\n      dup2\n        /* \"#utility.yul\":988:1017   */\n      tag_155\n      jump\t// in\n    tag_192:\n        /* \"#utility.yul\":983:986   */\n      dup5\n        /* \"#utility.yul\":979:1018   */\n      add\n        /* \"#utility.yul\":972:1018   */\n      swap2\n      pop\n        /* \"#utility.yul\":739:1024   */\n      pop\n        /* \"#utility.yul\":647:1024   */\n      swap3\n      swap2\n      pop\n      pop\n      jump\t// out\n        /* \"#utility.yul\":1030:1343   */\n    tag_23:\n        /* \"#utility.yul\":1143:1147   */\n      0x00\n        /* \"#utility.yul\":1181:1183   */\n      0x20\n        /* \"#utility.yul\":1170:1179   */\n      dup3\n        /* \"#utility.yul\":1166:1184   */\n      add\n        /* \"#utility.yul\":1158:1184   */\n      swap1\n      pop\n        /* \"#utility.yul\":1230:1239   */\n      dup2\n        /* \"#utility.yul\":1224:1228   */\n      dup2\n        /* \"#utility.yul\":1220:1240   */\n      sub\n        /* \"#utility.yul\":1216:1217   */\n      0x00\n        /* \"#utility.yul\":1205:1214   */\n      dup4\n        /* \"#utility.yul\":1201:1218   */\n      add\n        /* \"#utility.yul\":1194:1241   */\n      mstore\n        /* \"#utility.yul\":1258:1336   */\n      tag_194\n        /* \"#utility.yul\":1331:1335   */\n      dup2\n        /* \"#utility.yul\":1322:1328   */\n      dup5\n        /* \"#utility.yul\":1258:1336   */\n      tag_156\n      jump\t// in\n    tag_194:\n        /* \"#utility.yul\":1250:1336   */\n      swap1\n      pop\n        /* \"#utility.yul\":1030:1343   */\n      swap3\n      swap2\n      pop\n      pop\n      jump\t// out\n        /* \"#utility.yul\":1349:1426   */\n    tag_157:\n        /* \"#utility.yul\":1386:1393   */\n      0x00\n        /* \"#utility.yul\":1415:1420   */\n      dup2\n        /* \"#utility.yul\":1404:1420   */\n      swap1\n      pop\n        /* \"#utility.yul\":1349:1426   */\n      swap2\n      swap1\n      pop\n      jump\t// out\n        /* \"#utility.yul\":1432:1550   */\n    tag_158:\n        /* \"#utility.yul\":1519:1543   */\n      tag_197\n        /* \"#utility.yul\":1537:1542   */\n      dup2\n        /* \"#utility.yul\":1519:1543   */\n      tag_157\n      jump\t// in\n    tag_197:\n        /* \"#utility.yul\":1514:1517   */\n      dup3\n        /* \"#utility.yul\":1507:1544   */\n      mstore\n        /* \"#utility.yul\":1432:1550   */\n      pop\n      pop\n      jump\t// out\n        /* \"#utility.yul\":1556:1778   */\n    tag_28:\n        /* \"#utility.yul\":1649:1653   */\n      0x00\n        /* \"#utility.yul\":1687:1689   */\n      0x20\n        /* \"#utility.yul\":1676:1685   */\n      dup3\n        /* \"#utility.yul\":1672:1690   */\n      add\n        /* \"#utility.yul\":1664:1690   */\n      swap1\n      pop\n        /* \"#utility.yul\":1700:1771   */\n      tag_199\n        /* \"#utility.yul\":1768:1769   */\n      0x00\n        /* \"#utility.yul\":1757:1766   */\n      dup4\n        /* \"#utility.yul\":1753:1770   */\n      add\n        /* \"#utility.yul\":1744:1750   */\n      dup5\n        /* \"#utility.yul\":1700:1771   */\n      tag_158\n      jump\t// in\n    tag_199:\n        /* \"#utility.yul\":1556:1778   */\n      swap3\n      swap2\n      pop\n      pop\n      jump\t// out\n        /* \"#utility.yul\":1865:1982   */\n    tag_160:\n        /* \"#utility.yul\":1974:1975   */\n      0x00\n        /* \"#utility.yul\":1971:1972   */\n      dup1\n        /* \"#utility.yul\":1964:1976   */\n      revert\n        /* \"#utility.yul\":2111:2237   */\n    tag_162:\n        /* \"#utility.yul\":2148:2155   */\n      0x00\n        /* \"#utility.yul\":2188:2230   */\n      0xffffffffffffffffffffffffffffffffffffffff\n        /* \"#utility.yul\":2181:2186   */\n      dup3\n        /* \"#utility.yul\":2177:2231   */\n      and\n        /* \"#utility.yul\":2166:2231   */\n      swap1\n      pop\n        /* \"#utility.yul\":2111:2237   */\n      swap2\n      swap1\n      pop\n      jump\t// out\n        /* \"#utility.yul\":2243:2347   */\n    tag_163:\n        /* \"#utility.yul\":2288:2295   */\n      0x00\n        /* \"#utility.yul\":2317:2341   */\n      tag_205\n        /* \"#utility.yul\":2335:2340   */\n      dup3\n        /* \"#utility.yul\":2317:2341   */\n      tag_162\n      jump\t// in\n    tag_205:\n        /* \"#utility.yul\":2306:2341   */\n      swap1\n      pop\n        /* \"#utility.yul\":2243:2347   */\n      swap2\n      swap1\n      pop\n      jump\t// out\n        /* \"#utility.yul\":2353:2491   */\n    tag_164:\n        /* \"#utility.yul\":2434:2466   */\n      tag_207\n        /* \"#utility.yul\":2460:2465   */\n      dup2\n        /* \"#utility.yul\":2434:2466   */\n      tag_163\n      jump\t// in\n    tag_207:\n        /* \"#utility.yul\":2427:2432   */\n      dup2\n        /* \"#utility.yul\":2424:2467   */\n      eq\n        /* \"#utility.yul\":2414:2485   */\n      tag_208\n      jumpi\n        /* \"#utility.yul\":2481:2482   */\n      0x00\n        /* \"#utility.yul\":2478:2479   */\n      dup1\n        /* \"#utility.yul\":2471:2483   */\n      revert\n        /* \"#utility.yul\":2414:2485   */\n    tag_208:\n        /* \"#utility.yul\":2353:2491   */\n      pop\n      jump\t// out\n        /* \"#utility.yul\":2497:2652   */\n    tag_165:\n        /* \"#utility.yul\":2551:2556   */\n      0x00\n        /* \"#utility.yul\":2589:2595   */\n      dup2\n        /* \"#utility.yul\":2576:2596   */\n      calldataload\n        /* \"#utility.yul\":2567:2596   */\n      swap1\n      pop\n        /* \"#utility.yul\":2605:2646   */\n      tag_210\n        /* \"#utility.yul\":2640:2645   */\n      dup2\n        /* \"#utility.yul\":2605:2646   */\n      tag_164\n      jump\t// in\n    tag_210:\n        /* \"#utility.yul\":2497:2652   */\n      swap3\n      swap2\n      pop\n      pop\n      jump\t// out\n        /* \"#utility.yul\":2658:3003   */\n    tag_32:\n        /* \"#utility.yul\":2725:2731   */\n      0x00\n        /* \"#utility.yul\":2774:2776   */\n      0x20\n        /* \"#utility.yul\":2762:2771   */\n      dup3\n        /* \"#utility.yul\":2753:2760   */\n      dup5\n        /* \"#utility.yul\":2749:2772   */\n      sub\n        /* \"#utility.yul\":2745:2777   */\n      slt\n        /* \"#utility.yul\":2742:2861   */\n      iszero\n      tag_212\n      jumpi\n        /* \"#utility.yul\":2780:2859   */\n      tag_213\n      tag_160\n      jump\t// in\n    tag_213:\n        /* \"#utility.yul\":2742:2861   */\n    tag_212:\n        /* \"#utility.yul\":2900:2901   */\n      0x00\n        /* \"#utility.yul\":2925:2986   */\n      tag_214\n        /* \"#utility.yul\":2978:2985   */\n      dup5\n        /* \"#utility.yul\":2969:2975   */\n      dup3\n        /* \"#utility.yul\":2958:2967   */\n      dup6\n        /* \"#utility.yul\":2954:2976   */\n      add\n        /* \"#utility.yul\":2925:2986   */\n      tag_165\n      jump\t// in\n    tag_214:\n        /* \"#utility.yul\":2915:2986   */\n      swap2\n      pop\n        /* \"#utility.yul\":2871:2996   */\n      pop\n        /* \"#utility.yul\":2658:3003   */\n      swap3\n      swap2\n      pop\n      pop\n      jump\t// out\n        /* \"#utility.yul\":3009:3151   */\n    tag_166:\n        /* \"#utility.yul\":3112:3144   */\n      tag_216\n        /* \"#utility.yul\":3138:3143   */\n      dup2\n        /* \"#utility.yul\":3112:3144   */\n      tag_163\n      jump\t// in\n    tag_216:\n        /* \"#utility.yul\":3107:3110   */\n      dup3\n        /* \"#utility.yul\":3100:3145   */\n      mstore\n        /* \"#utility.yul\":3009:3151   */\n      pop\n      pop\n      jump\t// out\n        /* \"#utility.yul\":3157:3411   */\n    tag_45:\n        /* \"#utility.yul\":3266:3270   */\n      0x00\n        /* \"#utility.yul\":3304:3306   */\n      0x20\n        /* \"#utility.yul\":3293:3302   */\n      dup3\n        /* \"#utility.yul\":3289:3307   */\n      add\n        /* \"#utility.yul\":3281:3307   */\n      swap1\n      pop\n        /* \"#utility.yul\":3317:3404   */\n      tag_218\n        /* \"#utility.yul\":3401:3402   */\n      0x00\n        /* \"#utility.yul\":3390:3399   */\n      dup4\n        /* \"#utility.yul\":3386:3403   */\n      add\n        /* \"#utility.yul\":3377:3383   */\n      dup5\n        /* \"#utility.yul\":3317:3404   */\n      tag_166\n      jump\t// in\n    tag_218:\n        /* \"#utility.yul\":3157:3411   */\n      swap3\n      swap2\n      pop\n      pop\n      jump\t// out\n        /* \"#utility.yul\":3417:3513   */\n    tag_167:\n        /* \"#utility.yul\":3454:3461   */\n      0x00\n        /* \"#utility.yul\":3483:3507   */\n      tag_220\n        /* \"#utility.yul\":3501:3506   */\n      dup3\n        /* \"#utility.yul\":3483:3507   */\n      tag_162\n      jump\t// in\n    tag_220:\n        /* \"#utility.yul\":3472:3507   */\n      swap1\n      pop\n        /* \"#utility.yul\":3417:3513   */\n      swap2\n      swap1\n      pop\n      jump\t// out\n        /* \"#utility.yul\":3519:3637   */\n    tag_168:\n        /* \"#utility.yul\":3606:3630   */\n      tag_222\n        /* \"#utility.yul\":3624:3629   */\n      dup2\n        /* \"#utility.yul\":3606:3630   */\n      tag_167\n      jump\t// in\n    tag_222:\n        /* \"#utility.yul\":3601:3604   */\n      dup3\n        /* \"#utility.yul\":3594:3631   */\n      mstore\n        /* \"#utility.yul\":3519:3637   */\n      pop\n      pop\n      jump\t// out\n        /* \"#utility.yul\":3643:3865   */\n    tag_57:\n        /* \"#utility.yul\":3736:3740   */\n      0x00\n        /* \"#utility.yul\":3774:3776   */\n      0x20\n        /* \"#utility.yul\":3763:3772   */\n      dup3\n        /* \"#utility.yul\":3759:3777   */\n      add\n        /* \"#utility.yul\":3751:3777   */\n      swap1\n      pop\n        /* \"#utility.yul\":3787:3858   */\n      tag_224\n        /* \"#utility.yul\":3855:3856   */\n      0x00\n        /* \"#utility.yul\":3844:3853   */\n      dup4\n        /* \"#utility.yul\":3840:3857   */\n      add\n        /* \"#utility.yul\":3831:3837   */\n      dup5\n        /* \"#utility.yul\":3787:3858   */\n      tag_168\n      jump\t// in\n    tag_224:\n        /* \"#utility.yul\":3643:3865   */\n      swap3\n      swap2\n      pop\n      pop\n      jump\t// out\n        /* \"#utility.yul\":3871:3993   */\n    tag_169:\n        /* \"#utility.yul\":3944:3968   */\n      tag_226\n        /* \"#utility.yul\":3962:3967   */\n      dup2\n        /* \"#utility.yul\":3944:3968   */\n      tag_167\n      jump\t// in\n    tag_226:\n        /* \"#utility.yul\":3937:3942   */\n      dup2\n        /* \"#utility.yul\":3934:3969   */\n      eq\n        /* \"#utility.yul\":3924:3987   */\n      tag_227\n      jumpi\n        /* \"#utility.yul\":3983:3984   */\n      0x00\n        /* \"#utility.yul\":3980:3981   */\n      dup1\n        /* \"#utility.yul\":3973:3985   */\n      revert\n        /* \"#utility.yul\":3924:3987   */\n    tag_227:\n        /* \"#utility.yul\":3871:3993   */\n      pop\n      jump\t// out\n        /* \"#utility.yul\":3999:4138   */\n    tag_170:\n        /* \"#utility.yul\":4045:4050   */\n      0x00\n        /* \"#utility.yul\":4083:4089   */\n      dup2\n        /* \"#utility.yul\":4070:4090   */\n      calldataload\n        /* \"#utility.yul\":4061:4090   */\n      swap1\n      pop\n        /* \"#utility.yul\":4099:4132   */\n      tag_229\n        /* \"#utility.yul\":4126:4131   */\n      dup2\n        /* \"#utility.yul\":4099:4132   */\n      tag_169\n      jump\t// in\n    tag_229:\n        /* \"#utility.yul\":3999:4138   */\n      swap3\n      swap2\n      pop\n      pop\n      jump\t// out\n        /* \"#utility.yul\":4144:4473   */\n    tag_67:\n        /* \"#utility.yul\":4203:4209   */\n      0x00\n        /* \"#utility.yul\":4252:4254   */\n      0x20\n        /* \"#utility.yul\":4240:4249   */\n      dup3\n        /* \"#utility.yul\":4231:4238   */\n      dup5\n        /* \"#utility.yul\":4227:4250   */\n      sub\n        /* \"#utility.yul\":4223:4255   */\n      slt\n        /* \"#utility.yul\":4220:4339   */\n      iszero\n      tag_231\n      jumpi\n        /* \"#utility.yul\":4258:4337   */\n      tag_232\n      tag_160\n      jump\t// in\n    tag_232:\n        /* \"#utility.yul\":4220:4339   */\n    tag_231:\n        /* \"#utility.yul\":4378:4379   */\n      0x00\n        /* \"#utility.yul\":4403:4456   */\n      tag_233\n        /* \"#utility.yul\":4448:4455   */\n      dup5\n        /* \"#utility.yul\":4439:4445   */\n      dup3\n        /* \"#utility.yul\":4428:4437   */\n      dup6\n        /* \"#utility.yul\":4424:4446   */\n      add\n        /* \"#utility.yul\":4403:4456   */\n      tag_170\n      jump\t// in\n    tag_233:\n        /* \"#utility.yul\":4393:4456   */\n      swap2\n      pop\n        /* \"#utility.yul\":4349:4466   */\n      pop\n        /* \"#utility.yul\":4144:4473   */\n      swap3\n      swap2\n      pop\n      pop\n      jump\t// out\n        /* \"#utility.yul\":4479:4593   */\n    tag_171:\n        /* \"#utility.yul\":4546:4552   */\n      0x00\n        /* \"#utility.yul\":4580:4585   */\n      dup2\n        /* \"#utility.yul\":4574:4586   */\n      mload\n        /* \"#utility.yul\":4564:4586   */\n      swap1\n      pop\n        /* \"#utility.yul\":4479:4593   */\n      swap2\n      swap1\n      pop\n      jump\t// out\n        /* \"#utility.yul\":4599:4783   */\n    tag_172:\n        /* \"#utility.yul\":4698:4709   */\n      0x00\n        /* \"#utility.yul\":4732:4738   */\n      dup3\n        /* \"#utility.yul\":4727:4730   */\n      dup3\n        /* \"#utility.yul\":4720:4739   */\n      mstore\n        /* \"#utility.yul\":4772:4776   */\n      0x20\n        /* \"#utility.yul\":4767:4770   */\n      dup3\n        /* \"#utility.yul\":4763:4777   */\n      add\n        /* \"#utility.yul\":4748:4777   */\n      swap1\n      pop\n        /* \"#utility.yul\":4599:4783   */\n      swap3\n      swap2\n      pop\n      pop\n      jump\t// out\n        /* \"#utility.yul\":4789:4921   */\n    tag_173:\n        /* \"#utility.yul\":4856:4860   */\n      0x00\n        /* \"#utility.yul\":4879:4882   */\n      dup2\n        /* \"#utility.yul\":4871:4882   */\n      swap1\n      pop\n        /* \"#utility.yul\":4909:4913   */\n      0x20\n        /* \"#utility.yul\":4904:4907   */\n      dup3\n        /* \"#utility.yul\":4900:4914   */\n      add\n        /* \"#utility.yul\":4892:4914   */\n      swap1\n      pop\n        /* \"#utility.yul\":4789:4921   */\n      swap2\n      swap1\n      pop\n      jump\t// out\n        /* \"#utility.yul\":4927:5035   */\n    tag_174:\n        /* \"#utility.yul\":5004:5028   */\n      tag_238\n        /* \"#utility.yul\":5022:5027   */\n      dup2\n        /* \"#utility.yul\":5004:5028   */\n      tag_157\n      jump\t// in\n    tag_238:\n        /* \"#utility.yul\":4999:5002   */\n      dup3\n        /* \"#utility.yul\":4992:5029   */\n      mstore\n        /* \"#utility.yul\":4927:5035   */\n      pop\n      pop\n      jump\t// out\n        /* \"#utility.yul\":5041:5220   */\n    tag_175:\n        /* \"#utility.yul\":5110:5120   */\n      0x00\n        /* \"#utility.yul\":5131:5177   */\n      tag_240\n        /* \"#utility.yul\":5173:5176   */\n      dup4\n        /* \"#utility.yul\":5165:5171   */\n      dup4\n        /* \"#utility.yul\":5131:5177   */\n      tag_174\n      jump\t// in\n    tag_240:\n        /* \"#utility.yul\":5209:5213   */\n      0x20\n        /* \"#utility.yul\":5204:5207   */\n      dup4\n        /* \"#utility.yul\":5200:5214   */\n      add\n        /* \"#utility.yul\":5186:5214   */\n      swap1\n      pop\n        /* \"#utility.yul\":5041:5220   */\n      swap3\n      swap2\n      pop\n      pop\n      jump\t// out\n        /* \"#utility.yul\":5226:5339   */\n    tag_176:\n        /* \"#utility.yul\":5296:5300   */\n      0x00\n        /* \"#utility.yul\":5328:5332   */\n      0x20\n        /* \"#utility.yul\":5323:5326   */\n      dup3\n        /* \"#utility.yul\":5319:5333   */\n      add\n        /* \"#utility.yul\":5311:5333   */\n      swap1\n      pop\n        /* \"#utility.yul\":5226:5339   */\n      swap2\n      swap1\n      pop\n      jump\t// out\n        /* \"#utility.yul\":5375:6107   */\n    tag_177:\n        /* \"#utility.yul\":5494:5497   */\n      0x00\n        /* \"#utility.yul\":5523:5577   */\n      tag_243\n        /* \"#utility.yul\":5571:5576   */\n      dup3\n        /* \"#utility.yul\":5523:5577   */\n      tag_171\n      jump\t// in\n    tag_243:\n        /* \"#utility.yul\":5593:5679   */\n      tag_244\n        /* \"#utility.yul\":5672:5678   */\n      dup2\n        /* \"#utility.yul\":5667:5670   */\n      dup6\n        /* \"#utility.yul\":5593:5679   */\n      tag_172\n      jump\t// in\n    tag_244:\n        /* \"#utility.yul\":5586:5679   */\n      swap4\n      pop\n        /* \"#utility.yul\":5703:5759   */\n      tag_245\n        /* \"#utility.yul\":5753:5758   */\n      dup4\n        /* \"#utility.yul\":5703:5759   */\n      tag_173\n      jump\t// in\n    tag_245:\n        /* \"#utility.yul\":5782:5789   */\n      dup1\n        /* \"#utility.yul\":5813:5814   */\n      0x00\n        /* \"#utility.yul\":5798:6082   */\n    tag_246:\n        /* \"#utility.yul\":5823:5829   */\n      dup4\n        /* \"#utility.yul\":5820:5821   */\n      dup2\n        /* \"#utility.yul\":5817:5830   */\n      lt\n        /* \"#utility.yul\":5798:6082   */\n      iszero\n      tag_248\n      jumpi\n        /* \"#utility.yul\":5899:5905   */\n      dup2\n        /* \"#utility.yul\":5893:5906   */\n      mload\n        /* \"#utility.yul\":5926:5989   */\n      tag_249\n        /* \"#utility.yul\":5985:5988   */\n      dup9\n        /* \"#utility.yul\":5970:5983   */\n      dup3\n        /* \"#utility.yul\":5926:5989   */\n      tag_175\n      jump\t// in\n    tag_249:\n        /* \"#utility.yul\":5919:5989   */\n      swap8\n      pop\n        /* \"#utility.yul\":6012:6072   */\n      tag_250\n        /* \"#utility.yul\":6065:6071   */\n      dup4\n        /* \"#utility.yul\":6012:6072   */\n      tag_176\n      jump\t// in\n    tag_250:\n        /* \"#utility.yul\":6002:6072   */\n      swap3\n      pop\n        /* \"#utility.yul\":5858:6082   */\n      pop\n        /* \"#utility.yul\":5845:5846   */\n      0x01\n        /* \"#utility.yul\":5842:5843   */\n      dup2\n        /* \"#utility.yul\":5838:5847   */\n      add\n        /* \"#utility.yul\":5833:5847   */\n      swap1\n      pop\n        /* \"#utility.yul\":5798:6082   */\n      jump(tag_246)\n    tag_248:\n        /* \"#utility.yul\":5802:5816   */\n      pop\n        /* \"#utility.yul\":6098:6101   */\n      dup6\n        /* \"#utility.yul\":6091:6101   */\n      swap4\n      pop\n        /* \"#utility.yul\":5499:6107   */\n      pop\n      pop\n      pop\n        /* \"#utility.yul\":5375:6107   */\n      swap3\n      swap2\n      pop\n      pop\n      jump\t// out\n        /* \"#utility.yul\":6113:6747   */\n    tag_77:\n        /* \"#utility.yul\":6334:6338   */\n      0x00\n        /* \"#utility.yul\":6372:6374   */\n      0x40\n        /* \"#utility.yul\":6361:6370   */\n      dup3\n        /* \"#utility.yul\":6357:6375   */\n      add\n        /* \"#utility.yul\":6349:6375   */\n      swap1\n      pop\n        /* \"#utility.yul\":6421:6430   */\n      dup2\n        /* \"#utility.yul\":6415:6419   */\n      dup2\n        /* \"#utility.yul\":6411:6431   */\n      sub\n        /* \"#utility.yul\":6407:6408   */\n      0x00\n        /* \"#utility.yul\":6396:6405   */\n      dup4\n        /* \"#utility.yul\":6392:6409   */\n      add\n        /* \"#utility.yul\":6385:6432   */\n      mstore\n        /* \"#utility.yul\":6449:6557   */\n      tag_252\n        /* \"#utility.yul\":6552:6556   */\n      dup2\n        /* \"#utility.yul\":6543:6549   */\n      dup6\n        /* \"#utility.yul\":6449:6557   */\n      tag_177\n      jump\t// in\n    tag_252:\n        /* \"#utility.yul\":6441:6557   */\n      swap1\n      pop\n        /* \"#utility.yul\":6604:6613   */\n      dup2\n        /* \"#utility.yul\":6598:6602   */\n      dup2\n        /* \"#utility.yul\":6594:6614   */\n      sub\n        /* \"#utility.yul\":6589:6591   */\n      0x20\n        /* \"#utility.yul\":6578:6587   */\n      dup4\n        /* \"#utility.yul\":6574:6592   */\n      add\n        /* \"#utility.yul\":6567:6615   */\n      mstore\n        /* \"#utility.yul\":6632:6740   */\n      tag_253\n        /* \"#utility.yul\":6735:6739   */\n      dup2\n        /* \"#utility.yul\":6726:6732   */\n      dup5\n        /* \"#utility.yul\":6632:6740   */\n      tag_177\n      jump\t// in\n    tag_253:\n        /* \"#utility.yul\":6624:6740   */\n      swap1\n      pop\n        /* \"#utility.yul\":6113:6747   */\n      swap4\n      swap3\n      pop\n      pop\n      pop\n      jump\t// out\n        /* \"#utility.yul\":6753:6933   */\n    tag_178:\n        /* \"#utility.yul\":6801:6878   */\n      0x4e487b7100000000000000000000000000000000000000000000000000000000\n        /* \"#utility.yul\":6798:6799   */\n      0x00\n        /* \"#utility.yul\":6791:6879   */\n      mstore\n        /* \"#utility.yul\":6898:6902   */\n      0x22\n        /* \"#utility.yul\":6895:6896   */\n      0x04\n        /* \"#utility.yul\":6888:6903   */\n      mstore\n        /* \"#utility.yul\":6922:6926   */\n      0x24\n        /* \"#utility.yul\":6919:6920   */\n      0x00\n        /* \"#utility.yul\":6912:6927   */\n      revert\n        /* \"#utility.yul\":6939:7259   */\n    tag_79:\n        /* \"#utility.yul\":6983:6989   */\n      0x00\n        /* \"#utility.yul\":7020:7021   */\n      0x02\n        /* \"#utility.yul\":7014:7018   */\n      dup3\n        /* \"#utility.yul\":7010:7022   */\n      div\n        /* \"#utility.yul\":7000:7022   */\n      swap1\n      pop\n        /* \"#utility.yul\":7067:7068   */\n      0x01\n        /* \"#utility.yul\":7061:7065   */\n      dup3\n        /* \"#utility.yul\":7057:7069   */\n      and\n        /* \"#utility.yul\":7088:7106   */\n      dup1\n        /* \"#utility.yul\":7078:7159   */\n      tag_256\n      jumpi\n        /* \"#utility.yul\":7144:7148   */\n      0x7f\n        /* \"#utility.yul\":7136:7142   */\n      dup3\n        /* \"#utility.yul\":7132:7149   */\n      and\n        /* \"#utility.yul\":7122:7149   */\n      swap2\n      pop\n        /* \"#utility.yul\":7078:7159   */\n    tag_256:\n        /* \"#utility.yul\":7206:7208   */\n      0x20\n        /* \"#utility.yul\":7198:7204   */\n      dup3\n        /* \"#utility.yul\":7195:7209   */\n      lt\n        /* \"#utility.yul\":7175:7193   */\n      dup2\n        /* \"#utility.yul\":7172:7210   */\n      sub\n        /* \"#utility.yul\":7169:7253   */\n      tag_257\n      jumpi\n        /* \"#utility.yul\":7225:7243   */\n      tag_258\n      tag_178\n      jump\t// in\n    tag_258:\n        /* \"#utility.yul\":7169:7253   */\n    tag_257:\n        /* \"#utility.yul\":6990:7259   */\n      pop\n        /* \"#utility.yul\":6939:7259   */\n      swap2\n      swap1\n      pop\n      jump\t// out\n        /* \"#utility.yul\":7265:7445   */\n    tag_179:\n        /* \"#utility.yul\":7313:7390   */\n      0x4e487b7100000000000000000000000000000000000000000000000000000000\n        /* \"#utility.yul\":7310:7311   */\n      0x00\n        /* \"#utility.yul\":7303:7391   */\n      mstore\n        /* \"#utility.yul\":7410:7414   */\n      0x11\n        /* \"#utility.yul\":7407:7408   */\n      0x04\n        /* \"#utility.yul\":7400:7415   */\n      mstore\n        /* \"#utility.yul\":7434:7438   */\n      0x24\n        /* \"#utility.yul\":7431:7432   */\n      0x00\n        /* \"#utility.yul\":7424:7439   */\n      revert\n        /* \"#utility.yul\":7451:7642   */\n    tag_109:\n        /* \"#utility.yul\":7491:7494   */\n      0x00\n        /* \"#utility.yul\":7510:7530   */\n      tag_261\n        /* \"#utility.yul\":7528:7529   */\n      dup3\n        /* \"#utility.yul\":7510:7530   */\n      tag_157\n      jump\t// in\n    tag_261:\n        /* \"#utility.yul\":7505:7530   */\n      swap2\n      pop\n        /* \"#utility.yul\":7544:7564   */\n      tag_262\n        /* \"#utility.yul\":7562:7563   */\n      dup4\n        /* \"#utility.yul\":7544:7564   */\n      tag_157\n      jump\t// in\n    tag_262:\n        /* \"#utility.yul\":7539:7564   */\n      swap3\n      pop\n        /* \"#utility.yul\":7587:7588   */\n      dup3\n        /* \"#utility.yul\":7584:7585   */\n      dup3\n        /* \"#utility.yul\":7580:7589   */\n      add\n        /* \"#utility.yul\":7573:7589   */\n      swap1\n      pop\n        /* \"#utility.yul\":7608:7611   */\n      dup1\n        /* \"#utility.yul\":7605:7606   */\n      dup3\n        /* \"#utility.yul\":7602:7612   */\n      gt\n        /* \"#utility.yul\":7599:7635   */\n      iszero\n      tag_263\n      jumpi\n        /* \"#utility.yul\":7615:7633   */\n      tag_264\n      tag_179\n      jump\t// in\n    tag_264:\n        /* \"#utility.yul\":7599:7635   */\n    tag_263:\n        /* \"#utility.yul\":7451:7642   */\n      swap3\n      swap2\n      pop\n      pop\n      jump\t// out\n        /* \"#utility.yul\":7648:7828   */\n    tag_127:\n        /* \"#utility.yul\":7696:7773   */\n      0x4e487b7100000000000000000000000000000000000000000000000000000000\n        /* \"#utility.yul\":7693:7694   */\n      0x00\n        /* \"#utility.yul\":7686:7774   */\n      mstore\n        /* \"#utility.yul\":7793:7797   */\n      0x41\n        /* \"#utility.yul\":7790:7791   */\n      0x04\n        /* \"#utility.yul\":7783:7798   */\n      mstore\n        /* \"#utility.yul\":7817:7821   */\n      0x24\n        /* \"#utility.yul\":7814:7815   */\n      0x00\n        /* \"#utility.yul\":7807:7822   */\n      revert\n        /* \"#utility.yul\":7834:8014   */\n    tag_137:\n        /* \"#utility.yul\":7882:7959   */\n      0x4e487b7100000000000000000000000000000000000000000000000000000000\n        /* \"#utility.yul\":7879:7880   */\n      0x00\n        /* \"#utility.yul\":7872:7960   */\n      mstore\n        /* \"#utility.yul\":7979:7983   */\n      0x32\n        /* \"#utility.yul\":7976:7977   */\n      0x04\n        /* \"#utility.yul\":7969:7984   */\n      mstore\n        /* \"#utility.yul\":8003:8007   */\n      0x24\n        /* \"#utility.yul\":8000:8001   */\n      0x00\n        /* \"#utility.yul\":7993:8008   */\n      revert\n\n    auxdata: 0xa2646970667358221220c97b64ce71a06ce9d5f16e08834f0abf76899ee4555b787db20bf5e9149459b264736f6c63430008160033\n}\n",
				"bytecode": {
					"linkReferences": {},
					"object": "608060405234801562000010575f80fd5b50604051620016e3380380620016e38339818101604052810190620000369190620003e3565b335f73ffffffffffffffffffffffffffffffffffffffff168173ffffffffffffffffffffffffffffffffffffffff1603620000aa575f6040517f1e4fbdf7000000000000000000000000000000000000000000000000000000008152600401620000a19190620004d3565b60405180910390fd5b620000bb816200013c60201b60201c565b508360049081620000cd919062000725565b508260059081620000df919062000725565b508160069081620000f1919062000725565b508060075f6101000a81548173ffffffffffffffffffffffffffffffffffffffff021916908373ffffffffffffffffffffffffffffffffffffffff1602179055505050505062000809565b5f805f9054906101000a900473ffffffffffffffffffffffffffffffffffffffff169050815f806101000a81548173ffffffffffffffffffffffffffffffffffffffff021916908373ffffffffffffffffffffffffffffffffffffffff1602179055508173ffffffffffffffffffffffffffffffffffffffff168173ffffffffffffffffffffffffffffffffffffffff167f8be0079c531659141344cd1fd0a4f28419497f9722a3daafe3b4186f6b6457e060405160405180910390a35050565b5f604051905090565b5f80fd5b5f80fd5b5f80fd5b5f80fd5b5f601f19601f8301169050919050565b7f4e487b71000000000000000000000000000000000000000000000000000000005f52604160045260245ffd5b6200025e8262000216565b810181811067ffffffffffffffff8211171562000280576200027f62000226565b5b80604052505050565b5f62000294620001fd565b9050620002a2828262000253565b919050565b5f67ffffffffffffffff821115620002c457620002c362000226565b5b620002cf8262000216565b9050602081019050919050565b5f5b83811015620002fb578082015181840152602081019050620002de565b5f8484015250505050565b5f6200031c6200031684620002a7565b62000289565b9050828152602081018484840111156200033b576200033a62000212565b5b62000348848285620002dc565b509392505050565b5f82601f8301126200036757620003666200020e565b5b81516200037984826020860162000306565b91505092915050565b5f73ffffffffffffffffffffffffffffffffffffffff82169050919050565b5f620003ad8262000382565b9050919050565b620003bf81620003a1565b8114620003ca575f80fd5b50565b5f81519050620003dd81620003b4565b92915050565b5f805f8060808587031215620003fe57620003fd62000206565b5b5f85015167ffffffffffffffff8111156200041e576200041d6200020a565b5b6200042c8782880162000350565b945050602085015167ffffffffffffffff81111562000450576200044f6200020a565b5b6200045e8782880162000350565b935050604085015167ffffffffffffffff8111156200048257620004816200020a565b5b620004908782880162000350565b9250506060620004a387828801620003cd565b91505092959194509250565b5f620004bb8262000382565b9050919050565b620004cd81620004af565b82525050565b5f602082019050620004e85f830184620004c2565b92915050565b5f81519050919050565b7f4e487b71000000000000000000000000000000000000000000000000000000005f52602260045260245ffd5b5f60028204905060018216806200053d57607f821691505b602082108103620005535762000552620004f8565b5b50919050565b5f819050815f5260205f209050919050565b5f6020601f8301049050919050565b5f82821b905092915050565b5f60088302620005b77fffffffffffffffffffffffffffffffffffffffffffffffffffffffffffffffff826200057a565b620005c386836200057a565b95508019841693508086168417925050509392505050565b5f819050919050565b5f819050919050565b5f6200060d620006076200060184620005db565b620005e4565b620005db565b9050919050565b5f819050919050565b6200062883620005ed565b62000640620006378262000614565b84845462000586565b825550505050565b5f90565b6200065662000648565b620006638184846200061d565b505050565b5b818110156200068a576200067e5f826200064c565b60018101905062000669565b5050565b601f821115620006d957620006a38162000559565b620006ae846200056b565b81016020851015620006be578190505b620006d6620006cd856200056b565b83018262000668565b50505b505050565b5f82821c905092915050565b5f620006fb5f1984600802620006de565b1980831691505092915050565b5f620007158383620006ea565b9150826002028217905092915050565b6200073082620004ee565b67ffffffffffffffff8111156200074c576200074b62000226565b5b62000758825462000525565b620007658282856200068e565b5f60209050601f8311600181146200079b575f841562000786578287015190505b62000792858262000708565b86555062000801565b601f198416620007ab8662000559565b5f5b82811015620007d457848901518255600182019150602085019450602081019050620007ad565b86831015620007f45784890151620007f0601f891682620006ea565b8355505b6001600288020188555050505b505050505050565b610ecc80620008175f395ff3fe6080604052600436106100dc575f3560e01c80637284e4161161007e578063f0ea4bfc11610058578063f0ea4bfc1461023a578063f2fde38b14610264578063f3ccaac01461028c578063fea49837146102b6576100dc565b80637284e416146101dc5780638da5cb5b14610206578063ed88c68e14610230576100dc565b80632abfab4d116100ba5780632abfab4d1461015c5780633ccfd60b146101865780636ad9c45c1461019c578063715018a6146101c6576100dc565b806306fdde03146100e05780630b024f871461010a57806321b8092e14610134575b5f80fd5b3480156100eb575f80fd5b506100f46102e1565b6040516101019190610b03565b60405180910390f35b348015610115575f80fd5b5061011e61036d565b60405161012b9190610b3b565b60405180910390f35b34801561013f575f80fd5b5061015a60048036038101906101559190610bb2565b610373565b005b348015610167575f80fd5b506101706103be565b60405161017d9190610b3b565b60405180910390f35b348015610191575f80fd5b5061019a610405565b005b3480156101a7575f80fd5b506101b06104b0565b6040516101bd9190610bec565b60405180910390f35b3480156101d1575f80fd5b506101da6104d5565b005b3480156101e7575f80fd5b506101f06104e8565b6040516101fd9190610b03565b60405180910390f35b348015610211575f80fd5b5061021a610574565b6040516102279190610c25565b60405180910390f35b61023861059b565b005b348015610245575f80fd5b5061024e6106ad565b60405161025b9190610b3b565b60405180910390f35b34801561026f575f80fd5b5061028a60048036038101906102859190610c68565b6106b3565b005b348015610297575f80fd5b506102a0610737565b6040516102ad9190610b03565b60405180910390f35b3480156102c1575f80fd5b506102ca6107c3565b6040516102d8929190610d4a565b60405180910390f35b600480546102ee90610dac565b80601f016020809104026020016040519081016040528092919081815260200182805461031a90610dac565b80156103655780601f1061033c57610100808354040283529160200191610365565b820191905f5260205f20905b81548152906001019060200180831161034857829003601f168201915b505050505081565b60035481565b61037b61092a565b8060075f6101000a81548173ffffffffffffffffffffffffffffffffffffffff021916908373ffffffffffffffffffffffffffffffffffffffff16021790555050565b5f60015f3373ffffffffffffffffffffffffffffffffffffffff1673ffffffffffffffffffffffffffffffffffffffff1681526020019081526020015f2080549050905090565b61040d61092a565b5f47905060075f9054906101000a900473ffffffffffffffffffffffffffffffffffffffff1673ffffffffffffffffffffffffffffffffffffffff166108fc8290811502906040515f60405180830381858888f19350505050158015610475573d5f803e3d5ffd5b507f5b6b431d4476a211bb7d41c20d1aab9ae2321deee0d20be3d9fc9b1093fa6e3d816040516104a59190610b3b565b60405180910390a150565b60075f9054906101000a900473ffffffffffffffffffffffffffffffffffffffff1681565b6104dd61092a565b6104e65f6109b1565b565b600580546104f590610dac565b80601f016020809104026020016040519081016040528092919081815260200182805461052190610dac565b801561056c5780601f106105435761010080835404028352916020019161056c565b820191905f5260205f20905b81548152906001019060200180831161054f57829003601f168201915b505050505081565b5f805f9054906101000a900473ffffffffffffffffffffffffffffffffffffffff16905090565b5f604051806040016040528034815260200142815250905060015f3373ffffffffffffffffffffffffffffffffffffffff1673ffffffffffffffffffffffffffffffffffffffff1681526020019081526020015f2081908060018154018082558091505060019003905f5260205f2090600202015f909190919091505f820151815f01556020820151816001015550503460025f82825461063c9190610e09565b92505081905550600160035f8282546106559190610e09565b925050819055503373ffffffffffffffffffffffffffffffffffffffff167fe2639ef551ad89950da1145fe1fd600e818336d6e8aa88426efe387c49accebb346040516106a29190610b3b565b60405180910390a250565b60025481565b6106bb61092a565b5f73ffffffffffffffffffffffffffffffffffffffff168173ffffffffffffffffffffffffffffffffffffffff160361072b575f6040517f1e4fbdf70000000000000000000000000000000000000000000000000000000081526004016107229190610c25565b60405180910390fd5b610734816109b1565b50565b6006805461074490610dac565b80601f016020809104026020016040519081016040528092919081815260200182805461077090610dac565b80156107bb5780601f10610792576101008083540402835291602001916107bb565b820191905f5260205f20905b81548152906001019060200180831161079e57829003601f168201915b505050505081565b6060805f6107cf6103be565b90508067ffffffffffffffff8111156107eb576107ea610e3c565b5b6040519080825280602002602001820160405280156108195781602001602082028036833780820191505090505b5092508067ffffffffffffffff81111561083657610835610e3c565b5b6040519080825280602002602001820160405280156108645781602001602082028036833780820191505090505b5091505f5b81811015610924575f60015f3373ffffffffffffffffffffffffffffffffffffffff1673ffffffffffffffffffffffffffffffffffffffff1681526020019081526020015f2082815481106108c1576108c0610e69565b5b905f5260205f2090600202019050805f01548583815181106108e6576108e5610e69565b5b602002602001018181525050806001015484838151811061090a57610909610e69565b5b602002602001018181525050508080600101915050610869565b50509091565b610932610a72565b73ffffffffffffffffffffffffffffffffffffffff16610950610574565b73ffffffffffffffffffffffffffffffffffffffff16146109af57610973610a72565b6040517f118cdaa70000000000000000000000000000000000000000000000000000000081526004016109a69190610c25565b60405180910390fd5b565b5f805f9054906101000a900473ffffffffffffffffffffffffffffffffffffffff169050815f806101000a81548173ffffffffffffffffffffffffffffffffffffffff021916908373ffffffffffffffffffffffffffffffffffffffff1602179055508173ffffffffffffffffffffffffffffffffffffffff168173ffffffffffffffffffffffffffffffffffffffff167f8be0079c531659141344cd1fd0a4f28419497f9722a3daafe3b4186f6b6457e060405160405180910390a35050565b5f33905090565b5f81519050919050565b5f82825260208201905092915050565b5f5b83811015610ab0578082015181840152602081019050610a95565b5f8484015250505050565b5f601f19601f8301169050919050565b5f610ad582610a79565b610adf8185610a83565b9350610aef818560208601610a93565b610af881610abb565b840191505092915050565b5f6020820190508181035f830152610b1b8184610acb565b905092915050565b5f819050919050565b610b3581610b23565b82525050565b5f602082019050610b4e5f830184610b2c565b92915050565b5f80fd5b5f73ffffffffffffffffffffffffffffffffffffffff82169050919050565b5f610b8182610b58565b9050919050565b610b9181610b77565b8114610b9b575f80fd5b50565b5f81359050610bac81610b88565b92915050565b5f60208284031215610bc757610bc6610b54565b5b5f610bd484828501610b9e565b91505092915050565b610be681610b77565b82525050565b5f602082019050610bff5f830184610bdd565b92915050565b5f610c0f82610b58565b9050919050565b610c1f81610c05565b82525050565b5f602082019050610c385f830184610c16565b92915050565b610c4781610c05565b8114610c51575f80fd5b50565b5f81359050610c6281610c3e565b92915050565b5f60208284031215610c7d57610c7c610b54565b5b5f610c8a84828501610c54565b91505092915050565b5f81519050919050565b5f82825260208201905092915050565b5f819050602082019050919050565b610cc581610b23565b82525050565b5f610cd68383610cbc565b60208301905092915050565b5f602082019050919050565b5f610cf882610c93565b610d028185610c9d565b9350610d0d83610cad565b805f5b83811015610d3d578151610d248882610ccb565b9750610d2f83610ce2565b925050600181019050610d10565b5085935050505092915050565b5f6040820190508181035f830152610d628185610cee565b90508181036020830152610d768184610cee565b90509392505050565b7f4e487b71000000000000000000000000000000000000000000000000000000005f52602260045260245ffd5b5f6002820490506001821680610dc357607f821691505b602082108103610dd657610dd5610d7f565b5b50919050565b7f4e487b71000000000000000000000000000000000000000000000000000000005f52601160045260245ffd5b5f610e1382610b23565b9150610e1e83610b23565b9250828201905080821115610e3657610e35610ddc565b5b92915050565b7f4e487b71000000000000000000000000000000000000000000000000000000005f52604160045260245ffd5b7f4e487b71000000000000000000000000000000000000000000000000000000005f52603260045260245ffdfea2646970667358221220c97b64ce71a06ce9d5f16e08834f0abf76899ee4555b787db20bf5e9149459b264736f6c63430008160033",
					"opcodes": "PUSH1 0x80 PUSH1 0x40 MSTORE CALLVALUE DUP1 ISZERO PUSH3 0x10 JUMPI PUSH0 DUP1 REVERT JUMPDEST POP PUSH1 0x40 MLOAD PUSH3 0x16E3 CODESIZE SUB DUP1 PUSH3 0x16E3 DUP4 CODECOPY DUP2 DUP2 ADD PUSH1 0x40 MSTORE DUP2 ADD SWAP1 PUSH3 0x36 SWAP2 SWAP1 PUSH3 0x3E3 JUMP JUMPDEST CALLER PUSH0 PUSH20 0xFFFFFFFFFFFFFFFFFFFFFFFFFFFFFFFFFFFFFFFF AND DUP2 PUSH20 0xFFFFFFFFFFFFFFFFFFFFFFFFFFFFFFFFFFFFFFFF AND SUB PUSH3 0xAA JUMPI PUSH0 PUSH1 0x40 MLOAD PUSH32 0x1E4FBDF700000000000000000000000000000000000000000000000000000000 DUP2 MSTORE PUSH1 0x4 ADD PUSH3 0xA1 SWAP2 SWAP1 PUSH3 0x4D3 JUMP JUMPDEST PUSH1 0x40 MLOAD DUP1 SWAP2 SUB SWAP1 REVERT JUMPDEST PUSH3 0xBB DUP2 PUSH3 0x13C PUSH1 0x20 SHL PUSH1 0x20 SHR JUMP JUMPDEST POP DUP4 PUSH1 0x4 SWAP1 DUP2 PUSH3 0xCD SWAP2 SWAP1 PUSH3 0x725 JUMP JUMPDEST POP DUP3 PUSH1 0x5 SWAP1 DUP2 PUSH3 0xDF SWAP2 SWAP1 PUSH3 0x725 JUMP JUMPDEST POP DUP2 PUSH1 0x6 SWAP1 DUP2 PUSH3 0xF1 SWAP2 SWAP1 PUSH3 0x725 JUMP JUMPDEST POP DUP1 PUSH1 0x7 PUSH0 PUSH2 0x100 EXP DUP2 SLOAD DUP2 PUSH20 0xFFFFFFFFFFFFFFFFFFFFFFFFFFFFFFFFFFFFFFFF MUL NOT AND SWAP1 DUP4 PUSH20 0xFFFFFFFFFFFFFFFFFFFFFFFFFFFFFFFFFFFFFFFF AND MUL OR SWAP1 SSTORE POP POP POP POP POP PUSH3 0x809 JUMP JUMPDEST PUSH0 DUP1 PUSH0 SWAP1 SLOAD SWAP1 PUSH2 0x100 EXP SWAP1 DIV PUSH20 0xFFFFFFFFFFFFFFFFFFFFFFFFFFFFFFFFFFFFFFFF AND SWAP1 POP DUP2 PUSH0 DUP1 PUSH2 0x100 EXP DUP2 SLOAD DUP2 PUSH20 0xFFFFFFFFFFFFFFFFFFFFFFFFFFFFFFFFFFFFFFFF MUL NOT AND SWAP1 DUP4 PUSH20 0xFFFFFFFFFFFFFFFFFFFFFFFFFFFFFFFFFFFFFFFF AND MUL OR SWAP1 SSTORE POP DUP2 PUSH20 0xFFFFFFFFFFFFFFFFFFFFFFFFFFFFFFFFFFFFFFFF AND DUP2 PUSH20 0xFFFFFFFFFFFFFFFFFFFFFFFFFFFFFFFFFFFFFFFF AND PUSH32 0x8BE0079C531659141344CD1FD0A4F28419497F9722A3DAAFE3B4186F6B6457E0 PUSH1 0x40 MLOAD PUSH1 0x40 MLOAD DUP1 SWAP2 SUB SWAP1 LOG3 POP POP JUMP JUMPDEST PUSH0 PUSH1 0x40 MLOAD SWAP1 POP SWAP1 JUMP JUMPDEST PUSH0 DUP1 REVERT JUMPDEST PUSH0 DUP1 REVERT JUMPDEST PUSH0 DUP1 REVERT JUMPDEST PUSH0 DUP1 REVERT JUMPDEST PUSH0 PUSH1 0x1F NOT PUSH1 0x1F DUP4 ADD AND SWAP1 POP SWAP2 SWAP1 POP JUMP JUMPDEST PUSH32 0x4E487B7100000000000000000000000000000000000000000000000000000000 PUSH0 MSTORE PUSH1 0x41 PUSH1 0x4 MSTORE PUSH1 0x24 PUSH0 REVERT JUMPDEST PUSH3 0x25E DUP3 PUSH3 0x216 JUMP JUMPDEST DUP2 ADD DUP2 DUP2 LT PUSH8 0xFFFFFFFFFFFFFFFF DUP3 GT OR ISZERO PUSH3 0x280 JUMPI PUSH3 0x27F PUSH3 0x226 JUMP JUMPDEST JUMPDEST DUP1 PUSH1 0x40 MSTORE POP POP POP JUMP JUMPDEST PUSH0 PUSH3 0x294 PUSH3 0x1FD JUMP JUMPDEST SWAP1 POP PUSH3 0x2A2 DUP3 DUP3 PUSH3 0x253 JUMP JUMPDEST SWAP2 SWAP1 POP JUMP JUMPDEST PUSH0 PUSH8 0xFFFFFFFFFFFFFFFF DUP3 GT ISZERO PUSH3 0x2C4 JUMPI PUSH3 0x2C3 PUSH3 0x226 JUMP JUMPDEST JUMPDEST PUSH3 0x2CF DUP3 PUSH3 0x216 JUMP JUMPDEST SWAP1 POP PUSH1 0x20 DUP2 ADD SWAP1 POP SWAP2 SWAP1 POP JUMP JUMPDEST PUSH0 JUMPDEST DUP4 DUP2 LT ISZERO PUSH3 0x2FB JUMPI DUP1 DUP3 ADD MLOAD DUP2 DUP5 ADD MSTORE PUSH1 0x20 DUP2 ADD SWAP1 POP PUSH3 0x2DE JUMP JUMPDEST PUSH0 DUP5 DUP5 ADD MSTORE POP POP POP POP JUMP JUMPDEST PUSH0 PUSH3 0x31C PUSH3 0x316 DUP5 PUSH3 0x2A7 JUMP JUMPDEST PUSH3 0x289 JUMP JUMPDEST SWAP1 POP DUP3 DUP2 MSTORE PUSH1 0x20 DUP2 ADD DUP5 DUP5 DUP5 ADD GT ISZERO PUSH3 0x33B JUMPI PUSH3 0x33A PUSH3 0x212 JUMP JUMPDEST JUMPDEST PUSH3 0x348 DUP5 DUP3 DUP6 PUSH3 0x2DC JUMP JUMPDEST POP SWAP4 SWAP3 POP POP POP JUMP JUMPDEST PUSH0 DUP3 PUSH1 0x1F DUP4 ADD SLT PUSH3 0x367 JUMPI PUSH3 0x366 PUSH3 0x20E JUMP JUMPDEST JUMPDEST DUP2 MLOAD PUSH3 0x379 DUP5 DUP3 PUSH1 0x20 DUP7 ADD PUSH3 0x306 JUMP JUMPDEST SWAP2 POP POP SWAP3 SWAP2 POP POP JUMP JUMPDEST PUSH0 PUSH20 0xFFFFFFFFFFFFFFFFFFFFFFFFFFFFFFFFFFFFFFFF DUP3 AND SWAP1 POP SWAP2 SWAP1 POP JUMP JUMPDEST PUSH0 PUSH3 0x3AD DUP3 PUSH3 0x382 JUMP JUMPDEST SWAP1 POP SWAP2 SWAP1 POP JUMP JUMPDEST PUSH3 0x3BF DUP2 PUSH3 0x3A1 JUMP JUMPDEST DUP2 EQ PUSH3 0x3CA JUMPI PUSH0 DUP1 REVERT JUMPDEST POP JUMP JUMPDEST PUSH0 DUP2 MLOAD SWAP1 POP PUSH3 0x3DD DUP2 PUSH3 0x3B4 JUMP JUMPDEST SWAP3 SWAP2 POP POP JUMP JUMPDEST PUSH0 DUP1 PUSH0 DUP1 PUSH1 0x80 DUP6 DUP8 SUB SLT ISZERO PUSH3 0x3FE JUMPI PUSH3 0x3FD PUSH3 0x206 JUMP JUMPDEST JUMPDEST PUSH0 DUP6 ADD MLOAD PUSH8 0xFFFFFFFFFFFFFFFF DUP2 GT ISZERO PUSH3 0x41E JUMPI PUSH3 0x41D PUSH3 0x20A JUMP JUMPDEST JUMPDEST PUSH3 0x42C DUP8 DUP3 DUP9 ADD PUSH3 0x350 JUMP JUMPDEST SWAP5 POP POP PUSH1 0x20 DUP6 ADD MLOAD PUSH8 0xFFFFFFFFFFFFFFFF DUP2 GT ISZERO PUSH3 0x450 JUMPI PUSH3 0x44F PUSH3 0x20A JUMP JUMPDEST JUMPDEST PUSH3 0x45E DUP8 DUP3 DUP9 ADD PUSH3 0x350 JUMP JUMPDEST SWAP4 POP POP PUSH1 0x40 DUP6 ADD MLOAD PUSH8 0xFFFFFFFFFFFFFFFF DUP2 GT ISZERO PUSH3 0x482 JUMPI PUSH3 0x481 PUSH3 0x20A JUMP JUMPDEST JUMPDEST PUSH3 0x490 DUP8 DUP3 DUP9 ADD PUSH3 0x350 JUMP JUMPDEST SWAP3 POP POP PUSH1 0x60 PUSH3 0x4A3 DUP8 DUP3 DUP9 ADD PUSH3 0x3CD JUMP JUMPDEST SWAP2 POP POP SWAP3 SWAP6 SWAP2 SWAP5 POP SWAP3 POP JUMP JUMPDEST PUSH0 PUSH3 0x4BB DUP3 PUSH3 0x382 JUMP JUMPDEST SWAP1 POP SWAP2 SWAP1 POP JUMP JUMPDEST PUSH3 0x4CD DUP2 PUSH3 0x4AF JUMP JUMPDEST DUP3 MSTORE POP POP JUMP JUMPDEST PUSH0 PUSH1 0x20 DUP3 ADD SWAP1 POP PUSH3 0x4E8 PUSH0 DUP4 ADD DUP5 PUSH3 0x4C2 JUMP JUMPDEST SWAP3 SWAP2 POP POP JUMP JUMPDEST PUSH0 DUP2 MLOAD SWAP1 POP SWAP2 SWAP1 POP JUMP JUMPDEST PUSH32 0x4E487B7100000000000000000000000000000000000000000000000000000000 PUSH0 MSTORE PUSH1 0x22 PUSH1 0x4 MSTORE PUSH1 0x24 PUSH0 REVERT JUMPDEST PUSH0 PUSH1 0x2 DUP3 DIV SWAP1 POP PUSH1 0x1 DUP3 AND DUP1 PUSH3 0x53D JUMPI PUSH1 0x7F DUP3 AND SWAP2 POP JUMPDEST PUSH1 0x20 DUP3 LT DUP2 SUB PUSH3 0x553 JUMPI PUSH3 0x552 PUSH3 0x4F8 JUMP JUMPDEST JUMPDEST POP SWAP2 SWAP1 POP JUMP JUMPDEST PUSH0 DUP2 SWAP1 POP DUP2 PUSH0 MSTORE PUSH1 0x20 PUSH0 KECCAK256 SWAP1 POP SWAP2 SWAP1 POP JUMP JUMPDEST PUSH0 PUSH1 0x20 PUSH1 0x1F DUP4 ADD DIV SWAP1 POP SWAP2 SWAP1 POP JUMP JUMPDEST PUSH0 DUP3 DUP3 SHL SWAP1 POP SWAP3 SWAP2 POP POP JUMP JUMPDEST PUSH0 PUSH1 0x8 DUP4 MUL PUSH3 0x5B7 PUSH32 0xFFFFFFFFFFFFFFFFFFFFFFFFFFFFFFFFFFFFFFFFFFFFFFFFFFFFFFFFFFFFFFFF DUP3 PUSH3 0x57A JUMP JUMPDEST PUSH3 0x5C3 DUP7 DUP4 PUSH3 0x57A JUMP JUMPDEST SWAP6 POP DUP1 NOT DUP5 AND SWAP4 POP DUP1 DUP7 AND DUP5 OR SWAP3 POP POP POP SWAP4 SWAP3 POP POP POP JUMP JUMPDEST PUSH0 DUP2 SWAP1 POP SWAP2 SWAP1 POP JUMP JUMPDEST PUSH0 DUP2 SWAP1 POP SWAP2 SWAP1 POP JUMP JUMPDEST PUSH0 PUSH3 0x60D PUSH3 0x607 PUSH3 0x601 DUP5 PUSH3 0x5DB JUMP JUMPDEST PUSH3 0x5E4 JUMP JUMPDEST PUSH3 0x5DB JUMP JUMPDEST SWAP1 POP SWAP2 SWAP1 POP JUMP JUMPDEST PUSH0 DUP2 SWAP1 POP SWAP2 SWAP1 POP JUMP JUMPDEST PUSH3 0x628 DUP4 PUSH3 0x5ED JUMP JUMPDEST PUSH3 0x640 PUSH3 0x637 DUP3 PUSH3 0x614 JUMP JUMPDEST DUP5 DUP5 SLOAD PUSH3 0x586 JUMP JUMPDEST DUP3 SSTORE POP POP POP POP JUMP JUMPDEST PUSH0 SWAP1 JUMP JUMPDEST PUSH3 0x656 PUSH3 0x648 JUMP JUMPDEST PUSH3 0x663 DUP2 DUP5 DUP5 PUSH3 0x61D JUMP JUMPDEST POP POP POP JUMP JUMPDEST JUMPDEST DUP2 DUP2 LT ISZERO PUSH3 0x68A JUMPI PUSH3 0x67E PUSH0 DUP3 PUSH3 0x64C JUMP JUMPDEST PUSH1 0x1 DUP2 ADD SWAP1 POP PUSH3 0x669 JUMP JUMPDEST POP POP JUMP JUMPDEST PUSH1 0x1F DUP3 GT ISZERO PUSH3 0x6D9 JUMPI PUSH3 0x6A3 DUP2 PUSH3 0x559 JUMP JUMPDEST PUSH3 0x6AE DUP5 PUSH3 0x56B JUMP JUMPDEST DUP2 ADD PUSH1 0x20 DUP6 LT ISZERO PUSH3 0x6BE JUMPI DUP2 SWAP1 POP JUMPDEST PUSH3 0x6D6 PUSH3 0x6CD DUP6 PUSH3 0x56B JUMP JUMPDEST DUP4 ADD DUP3 PUSH3 0x668 JUMP JUMPDEST POP POP JUMPDEST POP POP POP JUMP JUMPDEST PUSH0 DUP3 DUP3 SHR SWAP1 POP SWAP3 SWAP2 POP POP JUMP JUMPDEST PUSH0 PUSH3 0x6FB PUSH0 NOT DUP5 PUSH1 0x8 MUL PUSH3 0x6DE JUMP JUMPDEST NOT DUP1 DUP4 AND SWAP2 POP POP SWAP3 SWAP2 POP POP JUMP JUMPDEST PUSH0 PUSH3 0x715 DUP4 DUP4 PUSH3 0x6EA JUMP JUMPDEST SWAP2 POP DUP3 PUSH1 0x2 MUL DUP3 OR SWAP1 POP SWAP3 SWAP2 POP POP JUMP JUMPDEST PUSH3 0x730 DUP3 PUSH3 0x4EE JUMP JUMPDEST PUSH8 0xFFFFFFFFFFFFFFFF DUP2 GT ISZERO PUSH3 0x74C JUMPI PUSH3 0x74B PUSH3 0x226 JUMP JUMPDEST JUMPDEST PUSH3 0x758 DUP3 SLOAD PUSH3 0x525 JUMP JUMPDEST PUSH3 0x765 DUP3 DUP3 DUP6 PUSH3 0x68E JUMP JUMPDEST PUSH0 PUSH1 0x20 SWAP1 POP PUSH1 0x1F DUP4 GT PUSH1 0x1 DUP2 EQ PUSH3 0x79B JUMPI PUSH0 DUP5 ISZERO PUSH3 0x786 JUMPI DUP3 DUP8 ADD MLOAD SWAP1 POP JUMPDEST PUSH3 0x792 DUP6 DUP3 PUSH3 0x708 JUMP JUMPDEST DUP7 SSTORE POP PUSH3 0x801 JUMP JUMPDEST PUSH1 0x1F NOT DUP5 AND PUSH3 0x7AB DUP7 PUSH3 0x559 JUMP JUMPDEST PUSH0 JUMPDEST DUP3 DUP2 LT ISZERO PUSH3 0x7D4 JUMPI DUP5 DUP10 ADD MLOAD DUP3 SSTORE PUSH1 0x1 DUP3 ADD SWAP2 POP PUSH1 0x20 DUP6 ADD SWAP5 POP PUSH1 0x20 DUP2 ADD SWAP1 POP PUSH3 0x7AD JUMP JUMPDEST DUP7 DUP4 LT ISZERO PUSH3 0x7F4 JUMPI DUP5 DUP10 ADD MLOAD PUSH3 0x7F0 PUSH1 0x1F DUP10 AND DUP3 PUSH3 0x6EA JUMP JUMPDEST DUP4 SSTORE POP JUMPDEST PUSH1 0x1 PUSH1 0x2 DUP9 MUL ADD DUP9 SSTORE POP POP POP JUMPDEST POP POP POP POP POP POP JUMP JUMPDEST PUSH2 0xECC DUP1 PUSH3 0x817 PUSH0 CODECOPY PUSH0 RETURN INVALID PUSH1 0x80 PUSH1 0x40 MSTORE PUSH1 0x4 CALLDATASIZE LT PUSH2 0xDC JUMPI PUSH0 CALLDATALOAD PUSH1 0xE0 SHR DUP1 PUSH4 0x7284E416 GT PUSH2 0x7E JUMPI DUP1 PUSH4 0xF0EA4BFC GT PUSH2 0x58 JUMPI DUP1 PUSH4 0xF0EA4BFC EQ PUSH2 0x23A JUMPI DUP1 PUSH4 0xF2FDE38B EQ PUSH2 0x264 JUMPI DUP1 PUSH4 0xF3CCAAC0 EQ PUSH2 0x28C JUMPI DUP1 PUSH4 0xFEA49837 EQ PUSH2 0x2B6 JUMPI PUSH2 0xDC JUMP JUMPDEST DUP1 PUSH4 0x7284E416 EQ PUSH2 0x1DC JUMPI DUP1 PUSH4 0x8DA5CB5B EQ PUSH2 0x206 JUMPI DUP1 PUSH4 0xED88C68E EQ PUSH2 0x230 JUMPI PUSH2 0xDC JUMP JUMPDEST DUP1 PUSH4 0x2ABFAB4D GT PUSH2 0xBA JUMPI DUP1 PUSH4 0x2ABFAB4D EQ PUSH2 0x15C JUMPI DUP1 PUSH4 0x3CCFD60B EQ PUSH2 0x186 JUMPI DUP1 PUSH4 0x6AD9C45C EQ PUSH2 0x19C JUMPI DUP1 PUSH4 0x715018A6 EQ PUSH2 0x1C6 JUMPI PUSH2 0xDC JUMP JUMPDEST DUP1 PUSH4 0x6FDDE03 EQ PUSH2 0xE0 JUMPI DUP1 PUSH4 0xB024F87 EQ PUSH2 0x10A JUMPI DUP1 PUSH4 0x21B8092E EQ PUSH2 0x134 JUMPI JUMPDEST PUSH0 DUP1 REVERT JUMPDEST CALLVALUE DUP1 ISZERO PUSH2 0xEB JUMPI PUSH0 DUP1 REVERT JUMPDEST POP PUSH2 0xF4 PUSH2 0x2E1 JUMP JUMPDEST PUSH1 0x40 MLOAD PUSH2 0x101 SWAP2 SWAP1 PUSH2 0xB03 JUMP JUMPDEST PUSH1 0x40 MLOAD DUP1 SWAP2 SUB SWAP1 RETURN JUMPDEST CALLVALUE DUP1 ISZERO PUSH2 0x115 JUMPI PUSH0 DUP1 REVERT JUMPDEST POP PUSH2 0x11E PUSH2 0x36D JUMP JUMPDEST PUSH1 0x40 MLOAD PUSH2 0x12B SWAP2 SWAP1 PUSH2 0xB3B JUMP JUMPDEST PUSH1 0x40 MLOAD DUP1 SWAP2 SUB SWAP1 RETURN JUMPDEST CALLVALUE DUP1 ISZERO PUSH2 0x13F JUMPI PUSH0 DUP1 REVERT JUMPDEST POP PUSH2 0x15A PUSH1 0x4 DUP1 CALLDATASIZE SUB DUP2 ADD SWAP1 PUSH2 0x155 SWAP2 SWAP1 PUSH2 0xBB2 JUMP JUMPDEST PUSH2 0x373 JUMP JUMPDEST STOP JUMPDEST CALLVALUE DUP1 ISZERO PUSH2 0x167 JUMPI PUSH0 DUP1 REVERT JUMPDEST POP PUSH2 0x170 PUSH2 0x3BE JUMP JUMPDEST PUSH1 0x40 MLOAD PUSH2 0x17D SWAP2 SWAP1 PUSH2 0xB3B JUMP JUMPDEST PUSH1 0x40 MLOAD DUP1 SWAP2 SUB SWAP1 RETURN JUMPDEST CALLVALUE DUP1 ISZERO PUSH2 0x191 JUMPI PUSH0 DUP1 REVERT JUMPDEST POP PUSH2 0x19A PUSH2 0x405 JUMP JUMPDEST STOP JUMPDEST CALLVALUE DUP1 ISZERO PUSH2 0x1A7 JUMPI PUSH0 DUP1 REVERT JUMPDEST POP PUSH2 0x1B0 PUSH2 0x4B0 JUMP JUMPDEST PUSH1 0x40 MLOAD PUSH2 0x1BD SWAP2 SWAP1 PUSH2 0xBEC JUMP JUMPDEST PUSH1 0x40 MLOAD DUP1 SWAP2 SUB SWAP1 RETURN JUMPDEST CALLVALUE DUP1 ISZERO PUSH2 0x1D1 JUMPI PUSH0 DUP1 REVERT JUMPDEST POP PUSH2 0x1DA PUSH2 0x4D5 JUMP JUMPDEST STOP JUMPDEST CALLVALUE DUP1 ISZERO PUSH2 0x1E7 JUMPI PUSH0 DUP1 REVERT JUMPDEST POP PUSH2 0x1F0 PUSH2 0x4E8 JUMP JUMPDEST PUSH1 0x40 MLOAD PUSH2 0x1FD SWAP2 SWAP1 PUSH2 0xB03 JUMP JUMPDEST PUSH1 0x40 MLOAD DUP1 SWAP2 SUB SWAP1 RETURN JUMPDEST CALLVALUE DUP1 ISZERO PUSH2 0x211 JUMPI PUSH0 DUP1 REVERT JUMPDEST POP PUSH2 0x21A PUSH2 0x574 JUMP JUMPDEST PUSH1 0x40 MLOAD PUSH2 0x227 SWAP2 SWAP1 PUSH2 0xC25 JUMP JUMPDEST PUSH1 0x40 MLOAD DUP1 SWAP2 SUB SWAP1 RETURN JUMPDEST PUSH2 0x238 PUSH2 0x59B JUMP JUMPDEST STOP JUMPDEST CALLVALUE DUP1 ISZERO PUSH2 0x245 JUMPI PUSH0 DUP1 REVERT JUMPDEST POP PUSH2 0x24E PUSH2 0x6AD JUMP JUMPDEST PUSH1 0x40 MLOAD PUSH2 0x25B SWAP2 SWAP1 PUSH2 0xB3B JUMP JUMPDEST PUSH1 0x40 MLOAD DUP1 SWAP2 SUB SWAP1 RETURN JUMPDEST CALLVALUE DUP1 ISZERO PUSH2 0x26F JUMPI PUSH0 DUP1 REVERT JUMPDEST POP PUSH2 0x28A PUSH1 0x4 DUP1 CALLDATASIZE SUB DUP2 ADD SWAP1 PUSH2 0x285 SWAP2 SWAP1 PUSH2 0xC68 JUMP JUMPDEST PUSH2 0x6B3 JUMP JUMPDEST STOP JUMPDEST CALLVALUE DUP1 ISZERO PUSH2 0x297 JUMPI PUSH0 DUP1 REVERT JUMPDEST POP PUSH2 0x2A0 PUSH2 0x737 JUMP JUMPDEST PUSH1 0x40 MLOAD PUSH2 0x2AD SWAP2 SWAP1 PUSH2 0xB03 JUMP JUMPDEST PUSH1 0x40 MLOAD DUP1 SWAP2 SUB SWAP1 RETURN JUMPDEST CALLVALUE DUP1 ISZERO PUSH2 0x2C1 JUMPI PUSH0 DUP1 REVERT JUMPDEST POP PUSH2 0x2CA PUSH2 0x7C3 JUMP JUMPDEST PUSH1 0x40 MLOAD PUSH2 0x2D8 SWAP3 SWAP2 SWAP1 PUSH2 0xD4A JUMP JUMPDEST PUSH1 0x40 MLOAD DUP1 SWAP2 SUB SWAP1 RETURN JUMPDEST PUSH1 0x4 DUP1 SLOAD PUSH2 0x2EE SWAP1 PUSH2 0xDAC JUMP JUMPDEST DUP1 PUSH1 0x1F ADD PUSH1 0x20 DUP1 SWAP2 DIV MUL PUSH1 0x20 ADD PUSH1 0x40 MLOAD SWAP1 DUP2 ADD PUSH1 0x40 MSTORE DUP1 SWAP3 SWAP2 SWAP1 DUP2 DUP2 MSTORE PUSH1 0x20 ADD DUP3 DUP1 SLOAD PUSH2 0x31A SWAP1 PUSH2 0xDAC JUMP JUMPDEST DUP1 ISZERO PUSH2 0x365 JUMPI DUP1 PUSH1 0x1F LT PUSH2 0x33C JUMPI PUSH2 0x100 DUP1 DUP4 SLOAD DIV MUL DUP4 MSTORE SWAP2 PUSH1 0x20 ADD SWAP2 PUSH2 0x365 JUMP JUMPDEST DUP3 ADD SWAP2 SWAP1 PUSH0 MSTORE PUSH1 0x20 PUSH0 KECCAK256 SWAP1 JUMPDEST DUP2 SLOAD DUP2 MSTORE SWAP1 PUSH1 0x1 ADD SWAP1 PUSH1 0x20 ADD DUP1 DUP4 GT PUSH2 0x348 JUMPI DUP3 SWAP1 SUB PUSH1 0x1F AND DUP3 ADD SWAP2 JUMPDEST POP POP POP POP POP DUP2 JUMP JUMPDEST PUSH1 0x3 SLOAD DUP2 JUMP JUMPDEST PUSH2 0x37B PUSH2 0x92A JUMP JUMPDEST DUP1 PUSH1 0x7 PUSH0 PUSH2 0x100 EXP DUP2 SLOAD DUP2 PUSH20 0xFFFFFFFFFFFFFFFFFFFFFFFFFFFFFFFFFFFFFFFF MUL NOT AND SWAP1 DUP4 PUSH20 0xFFFFFFFFFFFFFFFFFFFFFFFFFFFFFFFFFFFFFFFF AND MUL OR SWAP1 SSTORE POP POP JUMP JUMPDEST PUSH0 PUSH1 0x1 PUSH0 CALLER PUSH20 0xFFFFFFFFFFFFFFFFFFFFFFFFFFFFFFFFFFFFFFFF AND PUSH20 0xFFFFFFFFFFFFFFFFFFFFFFFFFFFFFFFFFFFFFFFF AND DUP2 MSTORE PUSH1 0x20 ADD SWAP1 DUP2 MSTORE PUSH1 0x20 ADD PUSH0 KECCAK256 DUP1 SLOAD SWAP1 POP SWAP1 POP SWAP1 JUMP JUMPDEST PUSH2 0x40D PUSH2 0x92A JUMP JUMPDEST PUSH0 SELFBALANCE SWAP1 POP PUSH1 0x7 PUSH0 SWAP1 SLOAD SWAP1 PUSH2 0x100 EXP SWAP1 DIV PUSH20 0xFFFFFFFFFFFFFFFFFFFFFFFFFFFFFFFFFFFFFFFF AND PUSH20 0xFFFFFFFFFFFFFFFFFFFFFFFFFFFFFFFFFFFFFFFF AND PUSH2 0x8FC DUP3 SWAP1 DUP2 ISZERO MUL SWAP1 PUSH1 0x40 MLOAD PUSH0 PUSH1 0x40 MLOAD DUP1 DUP4 SUB DUP2 DUP6 DUP9 DUP9 CALL SWAP4 POP POP POP POP ISZERO DUP1 ISZERO PUSH2 0x475 JUMPI RETURNDATASIZE PUSH0 DUP1 RETURNDATACOPY RETURNDATASIZE PUSH0 REVERT JUMPDEST POP PUSH32 0x5B6B431D4476A211BB7D41C20D1AAB9AE2321DEEE0D20BE3D9FC9B1093FA6E3D DUP2 PUSH1 0x40 MLOAD PUSH2 0x4A5 SWAP2 SWAP1 PUSH2 0xB3B JUMP JUMPDEST PUSH1 0x40 MLOAD DUP1 SWAP2 SUB SWAP1 LOG1 POP JUMP JUMPDEST PUSH1 0x7 PUSH0 SWAP1 SLOAD SWAP1 PUSH2 0x100 EXP SWAP1 DIV PUSH20 0xFFFFFFFFFFFFFFFFFFFFFFFFFFFFFFFFFFFFFFFF AND DUP2 JUMP JUMPDEST PUSH2 0x4DD PUSH2 0x92A JUMP JUMPDEST PUSH2 0x4E6 PUSH0 PUSH2 0x9B1 JUMP JUMPDEST JUMP JUMPDEST PUSH1 0x5 DUP1 SLOAD PUSH2 0x4F5 SWAP1 PUSH2 0xDAC JUMP JUMPDEST DUP1 PUSH1 0x1F ADD PUSH1 0x20 DUP1 SWAP2 DIV MUL PUSH1 0x20 ADD PUSH1 0x40 MLOAD SWAP1 DUP2 ADD PUSH1 0x40 MSTORE DUP1 SWAP3 SWAP2 SWAP1 DUP2 DUP2 MSTORE PUSH1 0x20 ADD DUP3 DUP1 SLOAD PUSH2 0x521 SWAP1 PUSH2 0xDAC JUMP JUMPDEST DUP1 ISZERO PUSH2 0x56C JUMPI DUP1 PUSH1 0x1F LT PUSH2 0x543 JUMPI PUSH2 0x100 DUP1 DUP4 SLOAD DIV MUL DUP4 MSTORE SWAP2 PUSH1 0x20 ADD SWAP2 PUSH2 0x56C JUMP JUMPDEST DUP3 ADD SWAP2 SWAP1 PUSH0 MSTORE PUSH1 0x20 PUSH0 KECCAK256 SWAP1 JUMPDEST DUP2 SLOAD DUP2 MSTORE SWAP1 PUSH1 0x1 ADD SWAP1 PUSH1 0x20 ADD DUP1 DUP4 GT PUSH2 0x54F JUMPI DUP3 SWAP1 SUB PUSH1 0x1F AND DUP3 ADD SWAP2 JUMPDEST POP POP POP POP POP DUP2 JUMP JUMPDEST PUSH0 DUP1 PUSH0 SWAP1 SLOAD SWAP1 PUSH2 0x100 EXP SWAP1 DIV PUSH20 0xFFFFFFFFFFFFFFFFFFFFFFFFFFFFFFFFFFFFFFFF AND SWAP1 POP SWAP1 JUMP JUMPDEST PUSH0 PUSH1 0x40 MLOAD DUP1 PUSH1 0x40 ADD PUSH1 0x40 MSTORE DUP1 CALLVALUE DUP2 MSTORE PUSH1 0x20 ADD TIMESTAMP DUP2 MSTORE POP SWAP1 POP PUSH1 0x1 PUSH0 CALLER PUSH20 0xFFFFFFFFFFFFFFFFFFFFFFFFFFFFFFFFFFFFFFFF AND PUSH20 0xFFFFFFFFFFFFFFFFFFFFFFFFFFFFFFFFFFFFFFFF AND DUP2 MSTORE PUSH1 0x20 ADD SWAP1 DUP2 MSTORE PUSH1 0x20 ADD PUSH0 KECCAK256 DUP2 SWAP1 DUP1 PUSH1 0x1 DUP2 SLOAD ADD DUP1 DUP3 SSTORE DUP1 SWAP2 POP POP PUSH1 0x1 SWAP1 SUB SWAP1 PUSH0 MSTORE PUSH1 0x20 PUSH0 KECCAK256 SWAP1 PUSH1 0x2 MUL ADD PUSH0 SWAP1 SWAP2 SWAP1 SWAP2 SWAP1 SWAP2 POP PUSH0 DUP3 ADD MLOAD DUP2 PUSH0 ADD SSTORE PUSH1 0x20 DUP3 ADD MLOAD DUP2 PUSH1 0x1 ADD SSTORE POP POP CALLVALUE PUSH1 0x2 PUSH0 DUP3 DUP3 SLOAD PUSH2 0x63C SWAP2 SWAP1 PUSH2 0xE09 JUMP JUMPDEST SWAP3 POP POP DUP2 SWAP1 SSTORE POP PUSH1 0x1 PUSH1 0x3 PUSH0 DUP3 DUP3 SLOAD PUSH2 0x655 SWAP2 SWAP1 PUSH2 0xE09 JUMP JUMPDEST SWAP3 POP POP DUP2 SWAP1 SSTORE POP CALLER PUSH20 0xFFFFFFFFFFFFFFFFFFFFFFFFFFFFFFFFFFFFFFFF AND PUSH32 0xE2639EF551AD89950DA1145FE1FD600E818336D6E8AA88426EFE387C49ACCEBB CALLVALUE PUSH1 0x40 MLOAD PUSH2 0x6A2 SWAP2 SWAP1 PUSH2 0xB3B JUMP JUMPDEST PUSH1 0x40 MLOAD DUP1 SWAP2 SUB SWAP1 LOG2 POP JUMP JUMPDEST PUSH1 0x2 SLOAD DUP2 JUMP JUMPDEST PUSH2 0x6BB PUSH2 0x92A JUMP JUMPDEST PUSH0 PUSH20 0xFFFFFFFFFFFFFFFFFFFFFFFFFFFFFFFFFFFFFFFF AND DUP2 PUSH20 0xFFFFFFFFFFFFFFFFFFFFFFFFFFFFFFFFFFFFFFFF AND SUB PUSH2 0x72B JUMPI PUSH0 PUSH1 0x40 MLOAD PUSH32 0x1E4FBDF700000000000000000000000000000000000000000000000000000000 DUP2 MSTORE PUSH1 0x4 ADD PUSH2 0x722 SWAP2 SWAP1 PUSH2 0xC25 JUMP JUMPDEST PUSH1 0x40 MLOAD DUP1 SWAP2 SUB SWAP1 REVERT JUMPDEST PUSH2 0x734 DUP2 PUSH2 0x9B1 JUMP JUMPDEST POP JUMP JUMPDEST PUSH1 0x6 DUP1 SLOAD PUSH2 0x744 SWAP1 PUSH2 0xDAC JUMP JUMPDEST DUP1 PUSH1 0x1F ADD PUSH1 0x20 DUP1 SWAP2 DIV MUL PUSH1 0x20 ADD PUSH1 0x40 MLOAD SWAP1 DUP2 ADD PUSH1 0x40 MSTORE DUP1 SWAP3 SWAP2 SWAP1 DUP2 DUP2 MSTORE PUSH1 0x20 ADD DUP3 DUP1 SLOAD PUSH2 0x770 SWAP1 PUSH2 0xDAC JUMP JUMPDEST DUP1 ISZERO PUSH2 0x7BB JUMPI DUP1 PUSH1 0x1F LT PUSH2 0x792 JUMPI PUSH2 0x100 DUP1 DUP4 SLOAD DIV MUL DUP4 MSTORE SWAP2 PUSH1 0x20 ADD SWAP2 PUSH2 0x7BB JUMP JUMPDEST DUP3 ADD SWAP2 SWAP1 PUSH0 MSTORE PUSH1 0x20 PUSH0 KECCAK256 SWAP1 JUMPDEST DUP2 SLOAD DUP2 MSTORE SWAP1 PUSH1 0x1 ADD SWAP1 PUSH1 0x20 ADD DUP1 DUP4 GT PUSH2 0x79E JUMPI DUP3 SWAP1 SUB PUSH1 0x1F AND DUP3 ADD SWAP2 JUMPDEST POP POP POP POP POP DUP2 JUMP JUMPDEST PUSH1 0x60 DUP1 PUSH0 PUSH2 0x7CF PUSH2 0x3BE JUMP JUMPDEST SWAP1 POP DUP1 PUSH8 0xFFFFFFFFFFFFFFFF DUP2 GT ISZERO PUSH2 0x7EB JUMPI PUSH2 0x7EA PUSH2 0xE3C JUMP JUMPDEST JUMPDEST PUSH1 0x40 MLOAD SWAP1 DUP1 DUP3 MSTORE DUP1 PUSH1 0x20 MUL PUSH1 0x20 ADD DUP3 ADD PUSH1 0x40 MSTORE DUP1 ISZERO PUSH2 0x819 JUMPI DUP2 PUSH1 0x20 ADD PUSH1 0x20 DUP3 MUL DUP1 CALLDATASIZE DUP4 CALLDATACOPY DUP1 DUP3 ADD SWAP2 POP POP SWAP1 POP JUMPDEST POP SWAP3 POP DUP1 PUSH8 0xFFFFFFFFFFFFFFFF DUP2 GT ISZERO PUSH2 0x836 JUMPI PUSH2 0x835 PUSH2 0xE3C JUMP JUMPDEST JUMPDEST PUSH1 0x40 MLOAD SWAP1 DUP1 DUP3 MSTORE DUP1 PUSH1 0x20 MUL PUSH1 0x20 ADD DUP3 ADD PUSH1 0x40 MSTORE DUP1 ISZERO PUSH2 0x864 JUMPI DUP2 PUSH1 0x20 ADD PUSH1 0x20 DUP3 MUL DUP1 CALLDATASIZE DUP4 CALLDATACOPY DUP1 DUP3 ADD SWAP2 POP POP SWAP1 POP JUMPDEST POP SWAP2 POP PUSH0 JUMPDEST DUP2 DUP2 LT ISZERO PUSH2 0x924 JUMPI PUSH0 PUSH1 0x1 PUSH0 CALLER PUSH20 0xFFFFFFFFFFFFFFFFFFFFFFFFFFFFFFFFFFFFFFFF AND PUSH20 0xFFFFFFFFFFFFFFFFFFFFFFFFFFFFFFFFFFFFFFFF AND DUP2 MSTORE PUSH1 0x20 ADD SWAP1 DUP2 MSTORE PUSH1 0x20 ADD PUSH0 KECCAK256 DUP3 DUP2 SLOAD DUP2 LT PUSH2 0x8C1 JUMPI PUSH2 0x8C0 PUSH2 0xE69 JUMP JUMPDEST JUMPDEST SWAP1 PUSH0 MSTORE PUSH1 0x20 PUSH0 KECCAK256 SWAP1 PUSH1 0x2 MUL ADD SWAP1 POP DUP1 PUSH0 ADD SLOAD DUP6 DUP4 DUP2 MLOAD DUP2 LT PUSH2 0x8E6 JUMPI PUSH2 0x8E5 PUSH2 0xE69 JUMP JUMPDEST JUMPDEST PUSH1 0x20 MUL PUSH1 0x20 ADD ADD DUP2 DUP2 MSTORE POP POP DUP1 PUSH1 0x1 ADD SLOAD DUP5 DUP4 DUP2 MLOAD DUP2 LT PUSH2 0x90A JUMPI PUSH2 0x909 PUSH2 0xE69 JUMP JUMPDEST JUMPDEST PUSH1 0x20 MUL PUSH1 0x20 ADD ADD DUP2 DUP2 MSTORE POP POP POP DUP1 DUP1 PUSH1 0x1 ADD SWAP2 POP POP PUSH2 0x869 JUMP JUMPDEST POP POP SWAP1 SWAP2 JUMP JUMPDEST PUSH2 0x932 PUSH2 0xA72 JUMP JUMPDEST PUSH20 0xFFFFFFFFFFFFFFFFFFFFFFFFFFFFFFFFFFFFFFFF AND PUSH2 0x950 PUSH2 0x574 JUMP JUMPDEST PUSH20 0xFFFFFFFFFFFFFFFFFFFFFFFFFFFFFFFFFFFFFFFF AND EQ PUSH2 0x9AF JUMPI PUSH2 0x973 PUSH2 0xA72 JUMP JUMPDEST PUSH1 0x40 MLOAD PUSH32 0x118CDAA700000000000000000000000000000000000000000000000000000000 DUP2 MSTORE PUSH1 0x4 ADD PUSH2 0x9A6 SWAP2 SWAP1 PUSH2 0xC25 JUMP JUMPDEST PUSH1 0x40 MLOAD DUP1 SWAP2 SUB SWAP1 REVERT JUMPDEST JUMP JUMPDEST PUSH0 DUP1 PUSH0 SWAP1 SLOAD SWAP1 PUSH2 0x100 EXP SWAP1 DIV PUSH20 0xFFFFFFFFFFFFFFFFFFFFFFFFFFFFFFFFFFFFFFFF AND SWAP1 POP DUP2 PUSH0 DUP1 PUSH2 0x100 EXP DUP2 SLOAD DUP2 PUSH20 0xFFFFFFFFFFFFFFFFFFFFFFFFFFFFFFFFFFFFFFFF MUL NOT AND SWAP1 DUP4 PUSH20 0xFFFFFFFFFFFFFFFFFFFFFFFFFFFFFFFFFFFFFFFF AND MUL OR SWAP1 SSTORE POP DUP2 PUSH20 0xFFFFFFFFFFFFFFFFFFFFFFFFFFFFFFFFFFFFFFFF AND DUP2 PUSH20 0xFFFFFFFFFFFFFFFFFFFFFFFFFFFFFFFFFFFFFFFF AND PUSH32 0x8BE0079C531659141344CD1FD0A4F28419497F9722A3DAAFE3B4186F6B6457E0 PUSH1 0x40 MLOAD PUSH1 0x40 MLOAD DUP1 SWAP2 SUB SWAP1 LOG3 POP POP JUMP JUMPDEST PUSH0 CALLER SWAP1 POP SWAP1 JUMP JUMPDEST PUSH0 DUP2 MLOAD SWAP1 POP SWAP2 SWAP1 POP JUMP JUMPDEST PUSH0 DUP3 DUP3 MSTORE PUSH1 0x20 DUP3 ADD SWAP1 POP SWAP3 SWAP2 POP POP JUMP JUMPDEST PUSH0 JUMPDEST DUP4 DUP2 LT ISZERO PUSH2 0xAB0 JUMPI DUP1 DUP3 ADD MLOAD DUP2 DUP5 ADD MSTORE PUSH1 0x20 DUP2 ADD SWAP1 POP PUSH2 0xA95 JUMP JUMPDEST PUSH0 DUP5 DUP5 ADD MSTORE POP POP POP POP JUMP JUMPDEST PUSH0 PUSH1 0x1F NOT PUSH1 0x1F DUP4 ADD AND SWAP1 POP SWAP2 SWAP1 POP JUMP JUMPDEST PUSH0 PUSH2 0xAD5 DUP3 PUSH2 0xA79 JUMP JUMPDEST PUSH2 0xADF DUP2 DUP6 PUSH2 0xA83 JUMP JUMPDEST SWAP4 POP PUSH2 0xAEF DUP2 DUP6 PUSH1 0x20 DUP7 ADD PUSH2 0xA93 JUMP JUMPDEST PUSH2 0xAF8 DUP2 PUSH2 0xABB JUMP JUMPDEST DUP5 ADD SWAP2 POP POP SWAP3 SWAP2 POP POP JUMP JUMPDEST PUSH0 PUSH1 0x20 DUP3 ADD SWAP1 POP DUP2 DUP2 SUB PUSH0 DUP4 ADD MSTORE PUSH2 0xB1B DUP2 DUP5 PUSH2 0xACB JUMP JUMPDEST SWAP1 POP SWAP3 SWAP2 POP POP JUMP JUMPDEST PUSH0 DUP2 SWAP1 POP SWAP2 SWAP1 POP JUMP JUMPDEST PUSH2 0xB35 DUP2 PUSH2 0xB23 JUMP JUMPDEST DUP3 MSTORE POP POP JUMP JUMPDEST PUSH0 PUSH1 0x20 DUP3 ADD SWAP1 POP PUSH2 0xB4E PUSH0 DUP4 ADD DUP5 PUSH2 0xB2C JUMP JUMPDEST SWAP3 SWAP2 POP POP JUMP JUMPDEST PUSH0 DUP1 REVERT JUMPDEST PUSH0 PUSH20 0xFFFFFFFFFFFFFFFFFFFFFFFFFFFFFFFFFFFFFFFF DUP3 AND SWAP1 POP SWAP2 SWAP1 POP JUMP JUMPDEST PUSH0 PUSH2 0xB81 DUP3 PUSH2 0xB58 JUMP JUMPDEST SWAP1 POP SWAP2 SWAP1 POP JUMP JUMPDEST PUSH2 0xB91 DUP2 PUSH2 0xB77 JUMP JUMPDEST DUP2 EQ PUSH2 0xB9B JUMPI PUSH0 DUP1 REVERT JUMPDEST POP JUMP JUMPDEST PUSH0 DUP2 CALLDATALOAD SWAP1 POP PUSH2 0xBAC DUP2 PUSH2 0xB88 JUMP JUMPDEST SWAP3 SWAP2 POP POP JUMP JUMPDEST PUSH0 PUSH1 0x20 DUP3 DUP5 SUB SLT ISZERO PUSH2 0xBC7 JUMPI PUSH2 0xBC6 PUSH2 0xB54 JUMP JUMPDEST JUMPDEST PUSH0 PUSH2 0xBD4 DUP5 DUP3 DUP6 ADD PUSH2 0xB9E JUMP JUMPDEST SWAP2 POP POP SWAP3 SWAP2 POP POP JUMP JUMPDEST PUSH2 0xBE6 DUP2 PUSH2 0xB77 JUMP JUMPDEST DUP3 MSTORE POP POP JUMP JUMPDEST PUSH0 PUSH1 0x20 DUP3 ADD SWAP1 POP PUSH2 0xBFF PUSH0 DUP4 ADD DUP5 PUSH2 0xBDD JUMP JUMPDEST SWAP3 SWAP2 POP POP JUMP JUMPDEST PUSH0 PUSH2 0xC0F DUP3 PUSH2 0xB58 JUMP JUMPDEST SWAP1 POP SWAP2 SWAP1 POP JUMP JUMPDEST PUSH2 0xC1F DUP2 PUSH2 0xC05 JUMP JUMPDEST DUP3 MSTORE POP POP JUMP JUMPDEST PUSH0 PUSH1 0x20 DUP3 ADD SWAP1 POP PUSH2 0xC38 PUSH0 DUP4 ADD DUP5 PUSH2 0xC16 JUMP JUMPDEST SWAP3 SWAP2 POP POP JUMP JUMPDEST PUSH2 0xC47 DUP2 PUSH2 0xC05 JUMP JUMPDEST DUP2 EQ PUSH2 0xC51 JUMPI PUSH0 DUP1 REVERT JUMPDEST POP JUMP JUMPDEST PUSH0 DUP2 CALLDATALOAD SWAP1 POP PUSH2 0xC62 DUP2 PUSH2 0xC3E JUMP JUMPDEST SWAP3 SWAP2 POP POP JUMP JUMPDEST PUSH0 PUSH1 0x20 DUP3 DUP5 SUB SLT ISZERO PUSH2 0xC7D JUMPI PUSH2 0xC7C PUSH2 0xB54 JUMP JUMPDEST JUMPDEST PUSH0 PUSH2 0xC8A DUP5 DUP3 DUP6 ADD PUSH2 0xC54 JUMP JUMPDEST SWAP2 POP POP SWAP3 SWAP2 POP POP JUMP JUMPDEST PUSH0 DUP2 MLOAD SWAP1 POP SWAP2 SWAP1 POP JUMP JUMPDEST PUSH0 DUP3 DUP3 MSTORE PUSH1 0x20 DUP3 ADD SWAP1 POP SWAP3 SWAP2 POP POP JUMP JUMPDEST PUSH0 DUP2 SWAP1 POP PUSH1 0x20 DUP3 ADD SWAP1 POP SWAP2 SWAP1 POP JUMP JUMPDEST PUSH2 0xCC5 DUP2 PUSH2 0xB23 JUMP JUMPDEST DUP3 MSTORE POP POP JUMP JUMPDEST PUSH0 PUSH2 0xCD6 DUP4 DUP4 PUSH2 0xCBC JUMP JUMPDEST PUSH1 0x20 DUP4 ADD SWAP1 POP SWAP3 SWAP2 POP POP JUMP JUMPDEST PUSH0 PUSH1 0x20 DUP3 ADD SWAP1 POP SWAP2 SWAP1 POP JUMP JUMPDEST PUSH0 PUSH2 0xCF8 DUP3 PUSH2 0xC93 JUMP JUMPDEST PUSH2 0xD02 DUP2 DUP6 PUSH2 0xC9D JUMP JUMPDEST SWAP4 POP PUSH2 0xD0D DUP4 PUSH2 0xCAD JUMP JUMPDEST DUP1 PUSH0 JUMPDEST DUP4 DUP2 LT ISZERO PUSH2 0xD3D JUMPI DUP2 MLOAD PUSH2 0xD24 DUP9 DUP3 PUSH2 0xCCB JUMP JUMPDEST SWAP8 POP PUSH2 0xD2F DUP4 PUSH2 0xCE2 JUMP JUMPDEST SWAP3 POP POP PUSH1 0x1 DUP2 ADD SWAP1 POP PUSH2 0xD10 JUMP JUMPDEST POP DUP6 SWAP4 POP POP POP POP SWAP3 SWAP2 POP POP JUMP JUMPDEST PUSH0 PUSH1 0x40 DUP3 ADD SWAP1 POP DUP2 DUP2 SUB PUSH0 DUP4 ADD MSTORE PUSH2 0xD62 DUP2 DUP6 PUSH2 0xCEE JUMP JUMPDEST SWAP1 POP DUP2 DUP2 SUB PUSH1 0x20 DUP4 ADD MSTORE PUSH2 0xD76 DUP2 DUP5 PUSH2 0xCEE JUMP JUMPDEST SWAP1 POP SWAP4 SWAP3 POP POP POP JUMP JUMPDEST PUSH32 0x4E487B7100000000000000000000000000000000000000000000000000000000 PUSH0 MSTORE PUSH1 0x22 PUSH1 0x4 MSTORE PUSH1 0x24 PUSH0 REVERT JUMPDEST PUSH0 PUSH1 0x2 DUP3 DIV SWAP1 POP PUSH1 0x1 DUP3 AND DUP1 PUSH2 0xDC3 JUMPI PUSH1 0x7F DUP3 AND SWAP2 POP JUMPDEST PUSH1 0x20 DUP3 LT DUP2 SUB PUSH2 0xDD6 JUMPI PUSH2 0xDD5 PUSH2 0xD7F JUMP JUMPDEST JUMPDEST POP SWAP2 SWAP1 POP JUMP JUMPDEST PUSH32 0x4E487B7100000000000000000000000000000000000000000000000000000000 PUSH0 MSTORE PUSH1 0x11 PUSH1 0x4 MSTORE PUSH1 0x24 PUSH0 REVERT JUMPDEST PUSH0 PUSH2 0xE13 DUP3 PUSH2 0xB23 JUMP JUMPDEST SWAP2 POP PUSH2 0xE1E DUP4 PUSH2 0xB23 JUMP JUMPDEST SWAP3 POP DUP3 DUP3 ADD SWAP1 POP DUP1 DUP3 GT ISZERO PUSH2 0xE36 JUMPI PUSH2 0xE35 PUSH2 0xDDC JUMP JUMPDEST JUMPDEST SWAP3 SWAP2 POP POP JUMP JUMPDEST PUSH32 0x4E487B7100000000000000000000000000000000000000000000000000000000 PUSH0 MSTORE PUSH1 0x41 PUSH1 0x4 MSTORE PUSH1 0x24 PUSH0 REVERT JUMPDEST PUSH32 0x4E487B7100000000000000000000000000000000000000000000000000000000 PUSH0 MSTORE PUSH1 0x32 PUSH1 0x4 MSTORE PUSH1 0x24 PUSH0 REVERT INVALID LOG2 PUSH5 0x6970667358 0x22 SLT KECCAK256 0xC9 PUSH28 0x64CE71A06CE9D5F16E08834F0ABF76899EE4555B787DB20BF5E91494 MSIZE 0xB2 PUSH5 0x736F6C6343 STOP ADDMOD AND STOP CALLER "
				},
				"gasEstimates": {
					"creation": {
						"codeDepositCost": "757600",
						"executionCost": "infinite",
						"totalCost": "infinite"
					},
					"external": {
						"description()": "infinite",
						"donate()": "infinite",
						"donationCount()": "2550",
						"donee_address()": "2575",
						"image()": "infinite",
						"myHistory()": "infinite",
						"name()": "infinite",
						"owner()": "2560",
						"raised()": "2447",
						"renounceOwnership()": "infinite",
						"setWithdrawalAddress(address)": "infinite",
						"totalDonationCount()": "2471",
						"transferOwnership(address)": "infinite",
						"withdraw()": "infinite"
					}
				},
				"methodIdentifiers": {
					"description()": "7284e416",
					"donate()": "ed88c68e",
					"donationCount()": "2abfab4d",
					"donee_address()": "6ad9c45c",
					"image()": "f3ccaac0",
					"myHistory()": "fea49837",
					"name()": "06fdde03",
					"owner()": "8da5cb5b",
					"raised()": "f0ea4bfc",
					"renounceOwnership()": "715018a6",
					"setWithdrawalAddress(address)": "21b8092e",
					"totalDonationCount()": "0b024f87",
					"transferOwnership(address)": "f2fde38b",
					"withdraw()": "3ccfd60b"
				}
			},
			"storageLayout": {
				"storage": [
					{
						"astId": 8,
						"contract": "contracts/Donee.sol:Donee",
						"label": "_owner",
						"offset": 0,
						"slot": "0",
						"type": "t_address"
					},
					{
						"astId": 193,
						"contract": "contracts/Donee.sol:Donee",
						"label": "_donations",
						"offset": 0,
						"slot": "1",
						"type": "t_mapping(t_address,t_array(t_struct(Donation)187_storage)dyn_storage)"
					},
					{
						"astId": 195,
						"contract": "contracts/Donee.sol:Donee",
						"label": "raised",
						"offset": 0,
						"slot": "2",
						"type": "t_uint256"
					},
					{
						"astId": 197,
						"contract": "contracts/Donee.sol:Donee",
						"label": "totalDonationCount",
						"offset": 0,
						"slot": "3",
						"type": "t_uint256"
					},
					{
						"astId": 209,
						"contract": "contracts/Donee.sol:Donee",
						"label": "name",
						"offset": 0,
						"slot": "4",
						"type": "t_string_storage"
					},
					{
						"astId": 211,
						"contract": "contracts/Donee.sol:Donee",
						"label": "description",
						"offset": 0,
						"slot": "5",
						"type": "t_string_storage"
					},
					{
						"astId": 213,
						"contract": "contracts/Donee.sol:Donee",
						"label": "image",
						"offset": 0,
						"slot": "6",
						"type": "t_string_storage"
					},
					{
						"astId": 215,
						"contract": "contracts/Donee.sol:Donee",
						"label": "donee_address",
						"offset": 0,
						"slot": "7",
						"type": "t_address_payable"
					}
				],
				"types": {
					"t_address": {
						"encoding": "inplace",
						"label": "address",
						"numberOfBytes": "20"
					},
					"t_address_payable": {
						"encoding": "inplace",
						"label": "address payable",
						"numberOfBytes": "20"
					},
					"t_array(t_struct(Donation)187_storage)dyn_storage": {
						"base": "t_struct(Donation)187_storage",
						"encoding": "dynamic_array",
						"label": "struct Donee.Donation[]",
						"numberOfBytes": "32"
					},
					"t_mapping(t_address,t_array(t_struct(Donation)187_storage)dyn_storage)": {
						"encoding": "mapping",
						"key": "t_address",
						"label": "mapping(address => struct Donee.Donation[])",
						"numberOfBytes": "32",
						"value": "t_array(t_struct(Donation)187_storage)dyn_storage"
					},
					"t_string_storage": {
						"encoding": "bytes",
						"label": "string",
						"numberOfBytes": "32"
					},
					"t_struct(Donation)187_storage": {
						"encoding": "inplace",
						"label": "struct Donee.Donation",
						"members": [
							{
								"astId": 184,
								"contract": "contracts/Donee.sol:Donee",
								"label": "value",
								"offset": 0,
								"slot": "0",
								"type": "t_uint256"
							},
							{
								"astId": 186,
								"contract": "contracts/Donee.sol:Donee",
								"label": "date",
								"offset": 0,
								"slot": "1",
								"type": "t_uint256"
							}
						],
						"numberOfBytes": "64"
					},
					"t_uint256": {
						"encoding": "inplace",
						"label": "uint256",
						"numberOfBytes": "32"
					}
				}
			},
			"userdoc": {
				"kind": "user",
				"methods": {},
				"version": 1
			}
		}
	}
}