{
	"Donee.sol": {
		"Donee": {
			"abi": [
				{
					"inputs": [
						{
							"internalType": "string",
							"name": "_name",
							"type": "string"
						},
						{
							"internalType": "string",
							"name": "_description",
							"type": "string"
						},
						{
							"internalType": "string",
							"name": "_image",
							"type": "string"
						},
						{
							"internalType": "address payable",
							"name": "_donee_address",
							"type": "address"
						},
						{
							"internalType": "address",
							"name": "creator",
							"type": "address"
						},
						{
							"internalType": "address",
							"name": "_priceFeedAddress",
							"type": "address"
						}
					],
					"stateMutability": "nonpayable",
					"type": "constructor"
				},
				{
					"inputs": [
						{
							"internalType": "address",
							"name": "owner",
							"type": "address"
						}
					],
					"name": "OwnableInvalidOwner",
					"type": "error"
				},
				{
					"inputs": [
						{
							"internalType": "address",
							"name": "account",
							"type": "address"
						}
					],
					"name": "OwnableUnauthorizedAccount",
					"type": "error"
				},
				{
					"anonymous": false,
					"inputs": [
						{
							"indexed": true,
							"internalType": "address",
							"name": "previousOwner",
							"type": "address"
						},
						{
							"indexed": true,
							"internalType": "address",
							"name": "newOwner",
							"type": "address"
						}
					],
					"name": "OwnershipTransferred",
					"type": "event"
				},
				{
					"anonymous": false,
					"inputs": [
						{
							"indexed": false,
							"internalType": "uint256",
							"name": "amount",
							"type": "uint256"
						},
						{
							"indexed": false,
							"internalType": "address",
							"name": "from",
							"type": "address"
						},
						{
							"indexed": false,
							"internalType": "address",
							"name": "to",
							"type": "address"
						}
					],
					"name": "Withdraw",
					"type": "event"
				},
				{
					"anonymous": false,
					"inputs": [
						{
							"indexed": false,
							"internalType": "address",
							"name": "donor",
							"type": "address"
						},
						{
							"indexed": false,
							"internalType": "uint256",
							"name": "value",
							"type": "uint256"
						},
						{
							"indexed": false,
							"internalType": "address",
							"name": "to",
							"type": "address"
						}
					],
					"name": "donationReceived",
					"type": "event"
				},
				{
					"inputs": [],
					"name": "description",
					"outputs": [
						{
							"internalType": "string",
							"name": "",
							"type": "string"
						}
					],
					"stateMutability": "view",
					"type": "function"
				},
				{
					"inputs": [],
					"name": "donate",
					"outputs": [],
					"stateMutability": "payable",
					"type": "function"
				},
				{
					"inputs": [],
					"name": "getLatestPrice",
					"outputs": [
						{
							"internalType": "int256",
							"name": "",
							"type": "int256"
						}
					],
					"stateMutability": "view",
					"type": "function"
				},
				{
					"inputs": [],
					"name": "ipfsImageHash",
					"outputs": [
						{
							"internalType": "string",
							"name": "",
							"type": "string"
						}
					],
					"stateMutability": "view",
					"type": "function"
				},
				{
					"inputs": [],
					"name": "myHistory",
					"outputs": [
						{
							"internalType": "uint256[]",
							"name": "values",
							"type": "uint256[]"
						},
						{
							"internalType": "uint256[]",
							"name": "dates",
							"type": "uint256[]"
						}
					],
					"stateMutability": "view",
					"type": "function"
				},
				{
					"inputs": [],
					"name": "name",
					"outputs": [
						{
							"internalType": "string",
							"name": "",
							"type": "string"
						}
					],
					"stateMutability": "view",
					"type": "function"
				},
				{
					"inputs": [],
					"name": "owner",
					"outputs": [
						{
							"internalType": "address",
							"name": "",
							"type": "address"
						}
					],
					"stateMutability": "view",
					"type": "function"
				},
				{
					"inputs": [],
					"name": "raised",
					"outputs": [
						{
							"internalType": "uint256",
							"name": "",
							"type": "uint256"
						}
					],
					"stateMutability": "view",
					"type": "function"
				},
				{
					"inputs": [],
					"name": "raisedInUSD",
					"outputs": [
						{
							"internalType": "uint256",
							"name": "",
							"type": "uint256"
						}
					],
					"stateMutability": "view",
					"type": "function"
				},
				{
					"inputs": [],
					"name": "renounceOwnership",
					"outputs": [],
					"stateMutability": "nonpayable",
					"type": "function"
				},
				{
					"inputs": [
						{
							"internalType": "address payable",
							"name": "new_address",
							"type": "address"
						}
					],
					"name": "setWithdrawalAddress",
					"outputs": [],
					"stateMutability": "nonpayable",
					"type": "function"
				},
				{
					"inputs": [],
					"name": "totalDonationCount",
					"outputs": [
						{
							"internalType": "uint256",
							"name": "",
							"type": "uint256"
						}
					],
					"stateMutability": "view",
					"type": "function"
				},
				{
					"inputs": [
						{
							"internalType": "address",
							"name": "newOwner",
							"type": "address"
						}
					],
					"name": "transferOwnership",
					"outputs": [],
					"stateMutability": "nonpayable",
					"type": "function"
				},
				{
					"inputs": [],
					"name": "withdraw",
					"outputs": [],
					"stateMutability": "nonpayable",
					"type": "function"
				}
			],
			"devdoc": {
				"errors": {
					"OwnableInvalidOwner(address)": [
						{
							"details": "The owner is not a valid owner account. (eg. `address(0)`)"
						}
					],
					"OwnableUnauthorizedAccount(address)": [
						{
							"details": "The caller account is not authorized to perform an operation."
						}
					]
				},
				"kind": "dev",
				"methods": {
					"owner()": {
						"details": "Returns the address of the current owner."
					},
					"renounceOwnership()": {
						"details": "Leaves the contract without owner. It will not be possible to call `onlyOwner` functions. Can only be called by the current owner. NOTE: Renouncing ownership will leave the contract without an owner, thereby disabling any functionality that is only available to the owner."
					},
					"transferOwnership(address)": {
						"details": "Transfers ownership of the contract to a new account (`newOwner`). Can only be called by the current owner."
					}
				},
				"version": 1
			},
			"evm": {
				"assembly": "    /* \"Donee.sol\":202:3262  contract Donee is Ownable {... */\n  mstore(0x40, 0x80)\n    /* \"Donee.sol\":784:785  0 */\n  0x00\n    /* \"Donee.sol\":758:785  uint private lastCalled = 0 */\n  0x09\n  sstore\n    /* \"Donee.sol\":972:1455  constructor(... */\n  callvalue\n  dup1\n  iszero\n  tag_1\n  jumpi\n  0x00\n  dup1\n  revert\ntag_1:\n  pop\n  mload(0x40)\n  sub(codesize, bytecodeSize)\n  dup1\n  bytecodeSize\n  dup4\n  codecopy\n  dup2\n  dup2\n  add\n  0x40\n  mstore\n  dup2\n  add\n  swap1\n  tag_2\n  swap2\n  swap1\n  tag_3\n  jump\t// in\ntag_2:\n    /* \"Donee.sol\":1200:1210  msg.sender */\n  caller\n    /* \"@openzeppelin/contracts/access/Ownable.sol\":1297:1298  0 */\n  0x00\n    /* \"@openzeppelin/contracts/access/Ownable.sol\":1273:1299  initialOwner == address(0) */\n  0xffffffffffffffffffffffffffffffffffffffff\n  and\n    /* \"@openzeppelin/contracts/access/Ownable.sol\":1273:1285  initialOwner */\n  dup2\n    /* \"@openzeppelin/contracts/access/Ownable.sol\":1273:1299  initialOwner == address(0) */\n  0xffffffffffffffffffffffffffffffffffffffff\n  and\n  sub\n    /* \"@openzeppelin/contracts/access/Ownable.sol\":1269:1364  if (initialOwner == address(0)) {... */\n  tag_7\n  jumpi\n    /* \"@openzeppelin/contracts/access/Ownable.sol\":1350:1351  0 */\n  0x00\n    /* \"@openzeppelin/contracts/access/Ownable.sol\":1322:1353  OwnableInvalidOwner(address(0)) */\n  mload(0x40)\n  0x1e4fbdf700000000000000000000000000000000000000000000000000000000\n  dup2\n  mstore\n  0x04\n  add\n  tag_8\n  swap2\n  swap1\n  tag_9\n  jump\t// in\ntag_8:\n  mload(0x40)\n  dup1\n  swap2\n  sub\n  swap1\n  revert\n    /* \"@openzeppelin/contracts/access/Ownable.sol\":1269:1364  if (initialOwner == address(0)) {... */\ntag_7:\n    /* \"@openzeppelin/contracts/access/Ownable.sol\":1373:1405  _transferOwnership(initialOwner) */\n  tag_10\n    /* \"@openzeppelin/contracts/access/Ownable.sol\":1392:1404  initialOwner */\n  dup2\n    /* \"@openzeppelin/contracts/access/Ownable.sol\":1373:1391  _transferOwnership */\n  shl(0x20, tag_11)\n    /* \"@openzeppelin/contracts/access/Ownable.sol\":1373:1405  _transferOwnership(initialOwner) */\n  0x20\n  shr\n  jump\t// in\ntag_10:\n    /* \"@openzeppelin/contracts/access/Ownable.sol\":1225:1412  constructor(address initialOwner) {... */\n  pop\n    /* \"Donee.sol\":1230:1235  _name */\n  dup6\n    /* \"Donee.sol\":1223:1227  name */\n  0x04\n    /* \"Donee.sol\":1223:1235  name = _name */\n  swap1\n  dup2\n  tag_13\n  swap2\n  swap1\n  tag_14\n  jump\t// in\ntag_13:\n  pop\n    /* \"Donee.sol\":1260:1272  _description */\n  dup5\n    /* \"Donee.sol\":1246:1257  description */\n  0x05\n    /* \"Donee.sol\":1246:1272  description = _description */\n  swap1\n  dup2\n  tag_15\n  swap2\n  swap1\n  tag_14\n  jump\t// in\ntag_15:\n  pop\n    /* \"Donee.sol\":1299:1305  _image */\n  dup4\n    /* \"Donee.sol\":1283:1296  ipfsImageHash */\n  0x06\n    /* \"Donee.sol\":1283:1305  ipfsImageHash = _image */\n  swap1\n  dup2\n  tag_16\n  swap2\n  swap1\n  tag_14\n  jump\t// in\ntag_16:\n  pop\n    /* \"Donee.sol\":1332:1346  _donee_address */\n  dup3\n    /* \"Donee.sol\":1316:1329  donee_address */\n  0x07\n  0x00\n    /* \"Donee.sol\":1316:1346  donee_address = _donee_address */\n  0x0100\n  exp\n  dup2\n  sload\n  dup2\n  0xffffffffffffffffffffffffffffffffffffffff\n  mul\n  not\n  and\n  swap1\n  dup4\n  0xffffffffffffffffffffffffffffffffffffffff\n  and\n  mul\n  or\n  swap1\n  sstore\n  pop\n    /* \"Donee.sol\":1357:1384  _transferOwnership(creator) */\n  tag_17\n    /* \"Donee.sol\":1376:1383  creator */\n  dup3\n    /* \"Donee.sol\":1357:1375  _transferOwnership */\n  shl(0x20, tag_11)\n    /* \"Donee.sol\":1357:1384  _transferOwnership(creator) */\n  0x20\n  shr\n  jump\t// in\ntag_17:\n    /* \"Donee.sol\":1429:1446  _priceFeedAddress */\n  dup1\n    /* \"Donee.sol\":1395:1404  priceFeed */\n  0x08\n  0x00\n    /* \"Donee.sol\":1395:1447  priceFeed = AggregatorV3Interface(_priceFeedAddress) */\n  0x0100\n  exp\n  dup2\n  sload\n  dup2\n  0xffffffffffffffffffffffffffffffffffffffff\n  mul\n  not\n  and\n  swap1\n  dup4\n  0xffffffffffffffffffffffffffffffffffffffff\n  and\n  mul\n  or\n  swap1\n  sstore\n  pop\n    /* \"Donee.sol\":972:1455  constructor(... */\n  pop\n  pop\n  pop\n  pop\n  pop\n  pop\n    /* \"Donee.sol\":202:3262  contract Donee is Ownable {... */\n  jump(tag_18)\n    /* \"@openzeppelin/contracts/access/Ownable.sol\":2912:3099  function _transferOwnership(address newOwner) internal virtual {... */\ntag_11:\n    /* \"@openzeppelin/contracts/access/Ownable.sol\":2985:3001  address oldOwner */\n  0x00\n    /* \"@openzeppelin/contracts/access/Ownable.sol\":3004:3010  _owner */\n  dup1\n  0x00\n  swap1\n  sload\n  swap1\n  0x0100\n  exp\n  swap1\n  div\n  0xffffffffffffffffffffffffffffffffffffffff\n  and\n    /* \"@openzeppelin/contracts/access/Ownable.sol\":2985:3010  address oldOwner = _owner */\n  swap1\n  pop\n    /* \"@openzeppelin/contracts/access/Ownable.sol\":3029:3037  newOwner */\n  dup2\n    /* \"@openzeppelin/contracts/access/Ownable.sol\":3020:3026  _owner */\n  0x00\n  dup1\n    /* \"@openzeppelin/contracts/access/Ownable.sol\":3020:3037  _owner = newOwner */\n  0x0100\n  exp\n  dup2\n  sload\n  dup2\n  0xffffffffffffffffffffffffffffffffffffffff\n  mul\n  not\n  and\n  swap1\n  dup4\n  0xffffffffffffffffffffffffffffffffffffffff\n  and\n  mul\n  or\n  swap1\n  sstore\n  pop\n    /* \"@openzeppelin/contracts/access/Ownable.sol\":3083:3091  newOwner */\n  dup2\n    /* \"@openzeppelin/contracts/access/Ownable.sol\":3052:3092  OwnershipTransferred(oldOwner, newOwner) */\n  0xffffffffffffffffffffffffffffffffffffffff\n  and\n    /* \"@openzeppelin/contracts/access/Ownable.sol\":3073:3081  oldOwner */\n  dup2\n    /* \"@openzeppelin/contracts/access/Ownable.sol\":3052:3092  OwnershipTransferred(oldOwner, newOwner) */\n  0xffffffffffffffffffffffffffffffffffffffff\n  and\n  0x8be0079c531659141344cd1fd0a4f28419497f9722a3daafe3b4186f6b6457e0\n  mload(0x40)\n  mload(0x40)\n  dup1\n  swap2\n  sub\n  swap1\n  log3\n    /* \"@openzeppelin/contracts/access/Ownable.sol\":2975:3099  {... */\n  pop\n    /* \"@openzeppelin/contracts/access/Ownable.sol\":2912:3099  function _transferOwnership(address newOwner) internal virtual {... */\n  pop\n  jump\t// out\n    /* \"#utility.yul\":7:82   */\ntag_20:\n    /* \"#utility.yul\":40:46   */\n  0x00\n    /* \"#utility.yul\":73:75   */\n  0x40\n    /* \"#utility.yul\":67:76   */\n  mload\n    /* \"#utility.yul\":57:76   */\n  swap1\n  pop\n    /* \"#utility.yul\":7:82   */\n  swap1\n  jump\t// out\n    /* \"#utility.yul\":88:205   */\ntag_21:\n    /* \"#utility.yul\":197:198   */\n  0x00\n    /* \"#utility.yul\":194:195   */\n  dup1\n    /* \"#utility.yul\":187:199   */\n  revert\n    /* \"#utility.yul\":211:328   */\ntag_22:\n    /* \"#utility.yul\":320:321   */\n  0x00\n    /* \"#utility.yul\":317:318   */\n  dup1\n    /* \"#utility.yul\":310:322   */\n  revert\n    /* \"#utility.yul\":334:451   */\ntag_23:\n    /* \"#utility.yul\":443:444   */\n  0x00\n    /* \"#utility.yul\":440:441   */\n  dup1\n    /* \"#utility.yul\":433:445   */\n  revert\n    /* \"#utility.yul\":457:574   */\ntag_24:\n    /* \"#utility.yul\":566:567   */\n  0x00\n    /* \"#utility.yul\":563:564   */\n  dup1\n    /* \"#utility.yul\":556:568   */\n  revert\n    /* \"#utility.yul\":580:682   */\ntag_25:\n    /* \"#utility.yul\":621:627   */\n  0x00\n    /* \"#utility.yul\":672:674   */\n  0x1f\n    /* \"#utility.yul\":668:675   */\n  not\n    /* \"#utility.yul\":663:665   */\n  0x1f\n    /* \"#utility.yul\":656:661   */\n  dup4\n    /* \"#utility.yul\":652:666   */\n  add\n    /* \"#utility.yul\":648:676   */\n  and\n    /* \"#utility.yul\":638:676   */\n  swap1\n  pop\n    /* \"#utility.yul\":580:682   */\n  swap2\n  swap1\n  pop\n  jump\t// out\n    /* \"#utility.yul\":688:868   */\ntag_26:\n    /* \"#utility.yul\":736:813   */\n  0x4e487b7100000000000000000000000000000000000000000000000000000000\n    /* \"#utility.yul\":733:734   */\n  0x00\n    /* \"#utility.yul\":726:814   */\n  mstore\n    /* \"#utility.yul\":833:837   */\n  0x41\n    /* \"#utility.yul\":830:831   */\n  0x04\n    /* \"#utility.yul\":823:838   */\n  mstore\n    /* \"#utility.yul\":857:861   */\n  0x24\n    /* \"#utility.yul\":854:855   */\n  0x00\n    /* \"#utility.yul\":847:862   */\n  revert\n    /* \"#utility.yul\":874:1155   */\ntag_27:\n    /* \"#utility.yul\":957:984   */\n  tag_69\n    /* \"#utility.yul\":979:983   */\n  dup3\n    /* \"#utility.yul\":957:984   */\n  tag_25\n  jump\t// in\ntag_69:\n    /* \"#utility.yul\":949:955   */\n  dup2\n    /* \"#utility.yul\":945:985   */\n  add\n    /* \"#utility.yul\":1087:1093   */\n  dup2\n    /* \"#utility.yul\":1075:1085   */\n  dup2\n    /* \"#utility.yul\":1072:1094   */\n  lt\n    /* \"#utility.yul\":1051:1069   */\n  0xffffffffffffffff\n    /* \"#utility.yul\":1039:1049   */\n  dup3\n    /* \"#utility.yul\":1036:1070   */\n  gt\n    /* \"#utility.yul\":1033:1095   */\n  or\n    /* \"#utility.yul\":1030:1118   */\n  iszero\n  tag_70\n  jumpi\n    /* \"#utility.yul\":1098:1116   */\n  tag_71\n  tag_26\n  jump\t// in\ntag_71:\n    /* \"#utility.yul\":1030:1118   */\ntag_70:\n    /* \"#utility.yul\":1138:1148   */\n  dup1\n    /* \"#utility.yul\":1134:1136   */\n  0x40\n    /* \"#utility.yul\":1127:1149   */\n  mstore\n    /* \"#utility.yul\":917:1155   */\n  pop\n    /* \"#utility.yul\":874:1155   */\n  pop\n  pop\n  jump\t// out\n    /* \"#utility.yul\":1161:1290   */\ntag_28:\n    /* \"#utility.yul\":1195:1201   */\n  0x00\n    /* \"#utility.yul\":1222:1242   */\n  tag_73\n  tag_20\n  jump\t// in\ntag_73:\n    /* \"#utility.yul\":1212:1242   */\n  swap1\n  pop\n    /* \"#utility.yul\":1251:1284   */\n  tag_74\n    /* \"#utility.yul\":1279:1283   */\n  dup3\n    /* \"#utility.yul\":1271:1277   */\n  dup3\n    /* \"#utility.yul\":1251:1284   */\n  tag_27\n  jump\t// in\ntag_74:\n    /* \"#utility.yul\":1161:1290   */\n  swap2\n  swap1\n  pop\n  jump\t// out\n    /* \"#utility.yul\":1296:1604   */\ntag_29:\n    /* \"#utility.yul\":1358:1362   */\n  0x00\n    /* \"#utility.yul\":1448:1466   */\n  0xffffffffffffffff\n    /* \"#utility.yul\":1440:1446   */\n  dup3\n    /* \"#utility.yul\":1437:1467   */\n  gt\n    /* \"#utility.yul\":1434:1490   */\n  iszero\n  tag_76\n  jumpi\n    /* \"#utility.yul\":1470:1488   */\n  tag_77\n  tag_26\n  jump\t// in\ntag_77:\n    /* \"#utility.yul\":1434:1490   */\ntag_76:\n    /* \"#utility.yul\":1508:1537   */\n  tag_78\n    /* \"#utility.yul\":1530:1536   */\n  dup3\n    /* \"#utility.yul\":1508:1537   */\n  tag_25\n  jump\t// in\ntag_78:\n    /* \"#utility.yul\":1500:1537   */\n  swap1\n  pop\n    /* \"#utility.yul\":1592:1596   */\n  0x20\n    /* \"#utility.yul\":1586:1590   */\n  dup2\n    /* \"#utility.yul\":1582:1597   */\n  add\n    /* \"#utility.yul\":1574:1597   */\n  swap1\n  pop\n    /* \"#utility.yul\":1296:1604   */\n  swap2\n  swap1\n  pop\n  jump\t// out\n    /* \"#utility.yul\":1610:1856   */\ntag_30:\n    /* \"#utility.yul\":1691:1692   */\n  0x00\n    /* \"#utility.yul\":1701:1814   */\ntag_80:\n    /* \"#utility.yul\":1715:1721   */\n  dup4\n    /* \"#utility.yul\":1712:1713   */\n  dup2\n    /* \"#utility.yul\":1709:1722   */\n  lt\n    /* \"#utility.yul\":1701:1814   */\n  iszero\n  tag_82\n  jumpi\n    /* \"#utility.yul\":1800:1801   */\n  dup1\n    /* \"#utility.yul\":1795:1798   */\n  dup3\n    /* \"#utility.yul\":1791:1802   */\n  add\n    /* \"#utility.yul\":1785:1803   */\n  mload\n    /* \"#utility.yul\":1781:1782   */\n  dup2\n    /* \"#utility.yul\":1776:1779   */\n  dup5\n    /* \"#utility.yul\":1772:1783   */\n  add\n    /* \"#utility.yul\":1765:1804   */\n  mstore\n    /* \"#utility.yul\":1737:1739   */\n  0x20\n    /* \"#utility.yul\":1734:1735   */\n  dup2\n    /* \"#utility.yul\":1730:1740   */\n  add\n    /* \"#utility.yul\":1725:1740   */\n  swap1\n  pop\n    /* \"#utility.yul\":1701:1814   */\n  jump(tag_80)\ntag_82:\n    /* \"#utility.yul\":1848:1849   */\n  0x00\n    /* \"#utility.yul\":1839:1845   */\n  dup5\n    /* \"#utility.yul\":1834:1837   */\n  dup5\n    /* \"#utility.yul\":1830:1846   */\n  add\n    /* \"#utility.yul\":1823:1850   */\n  mstore\n    /* \"#utility.yul\":1672:1856   */\n  pop\n    /* \"#utility.yul\":1610:1856   */\n  pop\n  pop\n  pop\n  jump\t// out\n    /* \"#utility.yul\":1862:2296   */\ntag_31:\n    /* \"#utility.yul\":1951:1956   */\n  0x00\n    /* \"#utility.yul\":1976:2042   */\n  tag_84\n    /* \"#utility.yul\":1992:2041   */\n  tag_85\n    /* \"#utility.yul\":2034:2040   */\n  dup5\n    /* \"#utility.yul\":1992:2041   */\n  tag_29\n  jump\t// in\ntag_85:\n    /* \"#utility.yul\":1976:2042   */\n  tag_28\n  jump\t// in\ntag_84:\n    /* \"#utility.yul\":1967:2042   */\n  swap1\n  pop\n    /* \"#utility.yul\":2065:2071   */\n  dup3\n    /* \"#utility.yul\":2058:2063   */\n  dup2\n    /* \"#utility.yul\":2051:2072   */\n  mstore\n    /* \"#utility.yul\":2103:2107   */\n  0x20\n    /* \"#utility.yul\":2096:2101   */\n  dup2\n    /* \"#utility.yul\":2092:2108   */\n  add\n    /* \"#utility.yul\":2141:2144   */\n  dup5\n    /* \"#utility.yul\":2132:2138   */\n  dup5\n    /* \"#utility.yul\":2127:2130   */\n  dup5\n    /* \"#utility.yul\":2123:2139   */\n  add\n    /* \"#utility.yul\":2120:2145   */\n  gt\n    /* \"#utility.yul\":2117:2229   */\n  iszero\n  tag_86\n  jumpi\n    /* \"#utility.yul\":2148:2227   */\n  tag_87\n  tag_24\n  jump\t// in\ntag_87:\n    /* \"#utility.yul\":2117:2229   */\ntag_86:\n    /* \"#utility.yul\":2238:2290   */\n  tag_88\n    /* \"#utility.yul\":2283:2289   */\n  dup5\n    /* \"#utility.yul\":2278:2281   */\n  dup3\n    /* \"#utility.yul\":2273:2276   */\n  dup6\n    /* \"#utility.yul\":2238:2290   */\n  tag_30\n  jump\t// in\ntag_88:\n    /* \"#utility.yul\":1957:2296   */\n  pop\n    /* \"#utility.yul\":1862:2296   */\n  swap4\n  swap3\n  pop\n  pop\n  pop\n  jump\t// out\n    /* \"#utility.yul\":2316:2671   */\ntag_32:\n    /* \"#utility.yul\":2383:2388   */\n  0x00\n    /* \"#utility.yul\":2432:2435   */\n  dup3\n    /* \"#utility.yul\":2425:2429   */\n  0x1f\n    /* \"#utility.yul\":2417:2423   */\n  dup4\n    /* \"#utility.yul\":2413:2430   */\n  add\n    /* \"#utility.yul\":2409:2436   */\n  slt\n    /* \"#utility.yul\":2399:2521   */\n  tag_90\n  jumpi\n    /* \"#utility.yul\":2440:2519   */\n  tag_91\n  tag_23\n  jump\t// in\ntag_91:\n    /* \"#utility.yul\":2399:2521   */\ntag_90:\n    /* \"#utility.yul\":2550:2556   */\n  dup2\n    /* \"#utility.yul\":2544:2557   */\n  mload\n    /* \"#utility.yul\":2575:2665   */\n  tag_92\n    /* \"#utility.yul\":2661:2664   */\n  dup5\n    /* \"#utility.yul\":2653:2659   */\n  dup3\n    /* \"#utility.yul\":2646:2650   */\n  0x20\n    /* \"#utility.yul\":2638:2644   */\n  dup7\n    /* \"#utility.yul\":2634:2651   */\n  add\n    /* \"#utility.yul\":2575:2665   */\n  tag_31\n  jump\t// in\ntag_92:\n    /* \"#utility.yul\":2566:2665   */\n  swap2\n  pop\n    /* \"#utility.yul\":2389:2671   */\n  pop\n    /* \"#utility.yul\":2316:2671   */\n  swap3\n  swap2\n  pop\n  pop\n  jump\t// out\n    /* \"#utility.yul\":2677:2803   */\ntag_33:\n    /* \"#utility.yul\":2714:2721   */\n  0x00\n    /* \"#utility.yul\":2754:2796   */\n  0xffffffffffffffffffffffffffffffffffffffff\n    /* \"#utility.yul\":2747:2752   */\n  dup3\n    /* \"#utility.yul\":2743:2797   */\n  and\n    /* \"#utility.yul\":2732:2797   */\n  swap1\n  pop\n    /* \"#utility.yul\":2677:2803   */\n  swap2\n  swap1\n  pop\n  jump\t// out\n    /* \"#utility.yul\":2809:2913   */\ntag_34:\n    /* \"#utility.yul\":2854:2861   */\n  0x00\n    /* \"#utility.yul\":2883:2907   */\n  tag_95\n    /* \"#utility.yul\":2901:2906   */\n  dup3\n    /* \"#utility.yul\":2883:2907   */\n  tag_33\n  jump\t// in\ntag_95:\n    /* \"#utility.yul\":2872:2907   */\n  swap1\n  pop\n    /* \"#utility.yul\":2809:2913   */\n  swap2\n  swap1\n  pop\n  jump\t// out\n    /* \"#utility.yul\":2919:3057   */\ntag_35:\n    /* \"#utility.yul\":3000:3032   */\n  tag_97\n    /* \"#utility.yul\":3026:3031   */\n  dup2\n    /* \"#utility.yul\":3000:3032   */\n  tag_34\n  jump\t// in\ntag_97:\n    /* \"#utility.yul\":2993:2998   */\n  dup2\n    /* \"#utility.yul\":2990:3033   */\n  eq\n    /* \"#utility.yul\":2980:3051   */\n  tag_98\n  jumpi\n    /* \"#utility.yul\":3047:3048   */\n  0x00\n    /* \"#utility.yul\":3044:3045   */\n  dup1\n    /* \"#utility.yul\":3037:3049   */\n  revert\n    /* \"#utility.yul\":2980:3051   */\ntag_98:\n    /* \"#utility.yul\":2919:3057   */\n  pop\n  jump\t// out\n    /* \"#utility.yul\":3063:3222   */\ntag_36:\n    /* \"#utility.yul\":3128:3133   */\n  0x00\n    /* \"#utility.yul\":3159:3165   */\n  dup2\n    /* \"#utility.yul\":3153:3166   */\n  mload\n    /* \"#utility.yul\":3144:3166   */\n  swap1\n  pop\n    /* \"#utility.yul\":3175:3216   */\n  tag_100\n    /* \"#utility.yul\":3210:3215   */\n  dup2\n    /* \"#utility.yul\":3175:3216   */\n  tag_35\n  jump\t// in\ntag_100:\n    /* \"#utility.yul\":3063:3222   */\n  swap3\n  swap2\n  pop\n  pop\n  jump\t// out\n    /* \"#utility.yul\":3228:3324   */\ntag_37:\n    /* \"#utility.yul\":3265:3272   */\n  0x00\n    /* \"#utility.yul\":3294:3318   */\n  tag_102\n    /* \"#utility.yul\":3312:3317   */\n  dup3\n    /* \"#utility.yul\":3294:3318   */\n  tag_33\n  jump\t// in\ntag_102:\n    /* \"#utility.yul\":3283:3318   */\n  swap1\n  pop\n    /* \"#utility.yul\":3228:3324   */\n  swap2\n  swap1\n  pop\n  jump\t// out\n    /* \"#utility.yul\":3330:3452   */\ntag_38:\n    /* \"#utility.yul\":3403:3427   */\n  tag_104\n    /* \"#utility.yul\":3421:3426   */\n  dup2\n    /* \"#utility.yul\":3403:3427   */\n  tag_37\n  jump\t// in\ntag_104:\n    /* \"#utility.yul\":3396:3401   */\n  dup2\n    /* \"#utility.yul\":3393:3428   */\n  eq\n    /* \"#utility.yul\":3383:3446   */\n  tag_105\n  jumpi\n    /* \"#utility.yul\":3442:3443   */\n  0x00\n    /* \"#utility.yul\":3439:3440   */\n  dup1\n    /* \"#utility.yul\":3432:3444   */\n  revert\n    /* \"#utility.yul\":3383:3446   */\ntag_105:\n    /* \"#utility.yul\":3330:3452   */\n  pop\n  jump\t// out\n    /* \"#utility.yul\":3458:3601   */\ntag_39:\n    /* \"#utility.yul\":3515:3520   */\n  0x00\n    /* \"#utility.yul\":3546:3552   */\n  dup2\n    /* \"#utility.yul\":3540:3553   */\n  mload\n    /* \"#utility.yul\":3531:3553   */\n  swap1\n  pop\n    /* \"#utility.yul\":3562:3595   */\n  tag_107\n    /* \"#utility.yul\":3589:3594   */\n  dup2\n    /* \"#utility.yul\":3562:3595   */\n  tag_38\n  jump\t// in\ntag_107:\n    /* \"#utility.yul\":3458:3601   */\n  swap3\n  swap2\n  pop\n  pop\n  jump\t// out\n    /* \"#utility.yul\":3607:5276   */\ntag_3:\n    /* \"#utility.yul\":3760:3766   */\n  0x00\n    /* \"#utility.yul\":3768:3774   */\n  dup1\n    /* \"#utility.yul\":3776:3782   */\n  0x00\n    /* \"#utility.yul\":3784:3790   */\n  dup1\n    /* \"#utility.yul\":3792:3798   */\n  0x00\n    /* \"#utility.yul\":3800:3806   */\n  dup1\n    /* \"#utility.yul\":3849:3852   */\n  0xc0\n    /* \"#utility.yul\":3837:3846   */\n  dup8\n    /* \"#utility.yul\":3828:3835   */\n  dup10\n    /* \"#utility.yul\":3824:3847   */\n  sub\n    /* \"#utility.yul\":3820:3853   */\n  slt\n    /* \"#utility.yul\":3817:3937   */\n  iszero\n  tag_109\n  jumpi\n    /* \"#utility.yul\":3856:3935   */\n  tag_110\n  tag_21\n  jump\t// in\ntag_110:\n    /* \"#utility.yul\":3817:3937   */\ntag_109:\n    /* \"#utility.yul\":3997:3998   */\n  0x00\n    /* \"#utility.yul\":3986:3995   */\n  dup8\n    /* \"#utility.yul\":3982:3999   */\n  add\n    /* \"#utility.yul\":3976:4000   */\n  mload\n    /* \"#utility.yul\":4027:4045   */\n  0xffffffffffffffff\n    /* \"#utility.yul\":4019:4025   */\n  dup2\n    /* \"#utility.yul\":4016:4046   */\n  gt\n    /* \"#utility.yul\":4013:4130   */\n  iszero\n  tag_111\n  jumpi\n    /* \"#utility.yul\":4049:4128   */\n  tag_112\n  tag_22\n  jump\t// in\ntag_112:\n    /* \"#utility.yul\":4013:4130   */\ntag_111:\n    /* \"#utility.yul\":4154:4228   */\n  tag_113\n    /* \"#utility.yul\":4220:4227   */\n  dup10\n    /* \"#utility.yul\":4211:4217   */\n  dup3\n    /* \"#utility.yul\":4200:4209   */\n  dup11\n    /* \"#utility.yul\":4196:4218   */\n  add\n    /* \"#utility.yul\":4154:4228   */\n  tag_32\n  jump\t// in\ntag_113:\n    /* \"#utility.yul\":4144:4228   */\n  swap7\n  pop\n    /* \"#utility.yul\":3947:4238   */\n  pop\n    /* \"#utility.yul\":4298:4300   */\n  0x20\n    /* \"#utility.yul\":4287:4296   */\n  dup8\n    /* \"#utility.yul\":4283:4301   */\n  add\n    /* \"#utility.yul\":4277:4302   */\n  mload\n    /* \"#utility.yul\":4329:4347   */\n  0xffffffffffffffff\n    /* \"#utility.yul\":4321:4327   */\n  dup2\n    /* \"#utility.yul\":4318:4348   */\n  gt\n    /* \"#utility.yul\":4315:4432   */\n  iszero\n  tag_114\n  jumpi\n    /* \"#utility.yul\":4351:4430   */\n  tag_115\n  tag_22\n  jump\t// in\ntag_115:\n    /* \"#utility.yul\":4315:4432   */\ntag_114:\n    /* \"#utility.yul\":4456:4530   */\n  tag_116\n    /* \"#utility.yul\":4522:4529   */\n  dup10\n    /* \"#utility.yul\":4513:4519   */\n  dup3\n    /* \"#utility.yul\":4502:4511   */\n  dup11\n    /* \"#utility.yul\":4498:4520   */\n  add\n    /* \"#utility.yul\":4456:4530   */\n  tag_32\n  jump\t// in\ntag_116:\n    /* \"#utility.yul\":4446:4530   */\n  swap6\n  pop\n    /* \"#utility.yul\":4248:4540   */\n  pop\n    /* \"#utility.yul\":4600:4602   */\n  0x40\n    /* \"#utility.yul\":4589:4598   */\n  dup8\n    /* \"#utility.yul\":4585:4603   */\n  add\n    /* \"#utility.yul\":4579:4604   */\n  mload\n    /* \"#utility.yul\":4631:4649   */\n  0xffffffffffffffff\n    /* \"#utility.yul\":4623:4629   */\n  dup2\n    /* \"#utility.yul\":4620:4650   */\n  gt\n    /* \"#utility.yul\":4617:4734   */\n  iszero\n  tag_117\n  jumpi\n    /* \"#utility.yul\":4653:4732   */\n  tag_118\n  tag_22\n  jump\t// in\ntag_118:\n    /* \"#utility.yul\":4617:4734   */\ntag_117:\n    /* \"#utility.yul\":4758:4832   */\n  tag_119\n    /* \"#utility.yul\":4824:4831   */\n  dup10\n    /* \"#utility.yul\":4815:4821   */\n  dup3\n    /* \"#utility.yul\":4804:4813   */\n  dup11\n    /* \"#utility.yul\":4800:4822   */\n  add\n    /* \"#utility.yul\":4758:4832   */\n  tag_32\n  jump\t// in\ntag_119:\n    /* \"#utility.yul\":4748:4832   */\n  swap5\n  pop\n    /* \"#utility.yul\":4550:4842   */\n  pop\n    /* \"#utility.yul\":4881:4883   */\n  0x60\n    /* \"#utility.yul\":4907:4979   */\n  tag_120\n    /* \"#utility.yul\":4971:4978   */\n  dup10\n    /* \"#utility.yul\":4962:4968   */\n  dup3\n    /* \"#utility.yul\":4951:4960   */\n  dup11\n    /* \"#utility.yul\":4947:4969   */\n  add\n    /* \"#utility.yul\":4907:4979   */\n  tag_36\n  jump\t// in\ntag_120:\n    /* \"#utility.yul\":4897:4979   */\n  swap4\n  pop\n    /* \"#utility.yul\":4852:4989   */\n  pop\n    /* \"#utility.yul\":5028:5031   */\n  0x80\n    /* \"#utility.yul\":5055:5119   */\n  tag_121\n    /* \"#utility.yul\":5111:5118   */\n  dup10\n    /* \"#utility.yul\":5102:5108   */\n  dup3\n    /* \"#utility.yul\":5091:5100   */\n  dup11\n    /* \"#utility.yul\":5087:5109   */\n  add\n    /* \"#utility.yul\":5055:5119   */\n  tag_39\n  jump\t// in\ntag_121:\n    /* \"#utility.yul\":5045:5119   */\n  swap3\n  pop\n    /* \"#utility.yul\":4999:5129   */\n  pop\n    /* \"#utility.yul\":5168:5171   */\n  0xa0\n    /* \"#utility.yul\":5195:5259   */\n  tag_122\n    /* \"#utility.yul\":5251:5258   */\n  dup10\n    /* \"#utility.yul\":5242:5248   */\n  dup3\n    /* \"#utility.yul\":5231:5240   */\n  dup11\n    /* \"#utility.yul\":5227:5249   */\n  add\n    /* \"#utility.yul\":5195:5259   */\n  tag_39\n  jump\t// in\ntag_122:\n    /* \"#utility.yul\":5185:5259   */\n  swap2\n  pop\n    /* \"#utility.yul\":5139:5269   */\n  pop\n    /* \"#utility.yul\":3607:5276   */\n  swap3\n  swap6\n  pop\n  swap3\n  swap6\n  pop\n  swap3\n  swap6\n  jump\t// out\n    /* \"#utility.yul\":5282:5400   */\ntag_40:\n    /* \"#utility.yul\":5369:5393   */\n  tag_124\n    /* \"#utility.yul\":5387:5392   */\n  dup2\n    /* \"#utility.yul\":5369:5393   */\n  tag_37\n  jump\t// in\ntag_124:\n    /* \"#utility.yul\":5364:5367   */\n  dup3\n    /* \"#utility.yul\":5357:5394   */\n  mstore\n    /* \"#utility.yul\":5282:5400   */\n  pop\n  pop\n  jump\t// out\n    /* \"#utility.yul\":5406:5628   */\ntag_9:\n    /* \"#utility.yul\":5499:5503   */\n  0x00\n    /* \"#utility.yul\":5537:5539   */\n  0x20\n    /* \"#utility.yul\":5526:5535   */\n  dup3\n    /* \"#utility.yul\":5522:5540   */\n  add\n    /* \"#utility.yul\":5514:5540   */\n  swap1\n  pop\n    /* \"#utility.yul\":5550:5621   */\n  tag_126\n    /* \"#utility.yul\":5618:5619   */\n  0x00\n    /* \"#utility.yul\":5607:5616   */\n  dup4\n    /* \"#utility.yul\":5603:5620   */\n  add\n    /* \"#utility.yul\":5594:5600   */\n  dup5\n    /* \"#utility.yul\":5550:5621   */\n  tag_40\n  jump\t// in\ntag_126:\n    /* \"#utility.yul\":5406:5628   */\n  swap3\n  swap2\n  pop\n  pop\n  jump\t// out\n    /* \"#utility.yul\":5634:5733   */\ntag_41:\n    /* \"#utility.yul\":5686:5692   */\n  0x00\n    /* \"#utility.yul\":5720:5725   */\n  dup2\n    /* \"#utility.yul\":5714:5726   */\n  mload\n    /* \"#utility.yul\":5704:5726   */\n  swap1\n  pop\n    /* \"#utility.yul\":5634:5733   */\n  swap2\n  swap1\n  pop\n  jump\t// out\n    /* \"#utility.yul\":5739:5919   */\ntag_42:\n    /* \"#utility.yul\":5787:5864   */\n  0x4e487b7100000000000000000000000000000000000000000000000000000000\n    /* \"#utility.yul\":5784:5785   */\n  0x00\n    /* \"#utility.yul\":5777:5865   */\n  mstore\n    /* \"#utility.yul\":5884:5888   */\n  0x22\n    /* \"#utility.yul\":5881:5882   */\n  0x04\n    /* \"#utility.yul\":5874:5889   */\n  mstore\n    /* \"#utility.yul\":5908:5912   */\n  0x24\n    /* \"#utility.yul\":5905:5906   */\n  0x00\n    /* \"#utility.yul\":5898:5913   */\n  revert\n    /* \"#utility.yul\":5925:6245   */\ntag_43:\n    /* \"#utility.yul\":5969:5975   */\n  0x00\n    /* \"#utility.yul\":6006:6007   */\n  0x02\n    /* \"#utility.yul\":6000:6004   */\n  dup3\n    /* \"#utility.yul\":5996:6008   */\n  div\n    /* \"#utility.yul\":5986:6008   */\n  swap1\n  pop\n    /* \"#utility.yul\":6053:6054   */\n  0x01\n    /* \"#utility.yul\":6047:6051   */\n  dup3\n    /* \"#utility.yul\":6043:6055   */\n  and\n    /* \"#utility.yul\":6074:6092   */\n  dup1\n    /* \"#utility.yul\":6064:6145   */\n  tag_130\n  jumpi\n    /* \"#utility.yul\":6130:6134   */\n  0x7f\n    /* \"#utility.yul\":6122:6128   */\n  dup3\n    /* \"#utility.yul\":6118:6135   */\n  and\n    /* \"#utility.yul\":6108:6135   */\n  swap2\n  pop\n    /* \"#utility.yul\":6064:6145   */\ntag_130:\n    /* \"#utility.yul\":6192:6194   */\n  0x20\n    /* \"#utility.yul\":6184:6190   */\n  dup3\n    /* \"#utility.yul\":6181:6195   */\n  lt\n    /* \"#utility.yul\":6161:6179   */\n  dup2\n    /* \"#utility.yul\":6158:6196   */\n  sub\n    /* \"#utility.yul\":6155:6239   */\n  tag_131\n  jumpi\n    /* \"#utility.yul\":6211:6229   */\n  tag_132\n  tag_42\n  jump\t// in\ntag_132:\n    /* \"#utility.yul\":6155:6239   */\ntag_131:\n    /* \"#utility.yul\":5976:6245   */\n  pop\n    /* \"#utility.yul\":5925:6245   */\n  swap2\n  swap1\n  pop\n  jump\t// out\n    /* \"#utility.yul\":6251:6392   */\ntag_44:\n    /* \"#utility.yul\":6300:6304   */\n  0x00\n    /* \"#utility.yul\":6323:6326   */\n  dup2\n    /* \"#utility.yul\":6315:6326   */\n  swap1\n  pop\n    /* \"#utility.yul\":6346:6349   */\n  dup2\n    /* \"#utility.yul\":6343:6344   */\n  0x00\n    /* \"#utility.yul\":6336:6350   */\n  mstore\n    /* \"#utility.yul\":6380:6384   */\n  0x20\n    /* \"#utility.yul\":6377:6378   */\n  0x00\n    /* \"#utility.yul\":6367:6385   */\n  keccak256\n    /* \"#utility.yul\":6359:6385   */\n  swap1\n  pop\n    /* \"#utility.yul\":6251:6392   */\n  swap2\n  swap1\n  pop\n  jump\t// out\n    /* \"#utility.yul\":6398:6491   */\ntag_45:\n    /* \"#utility.yul\":6435:6441   */\n  0x00\n    /* \"#utility.yul\":6482:6484   */\n  0x20\n    /* \"#utility.yul\":6477:6479   */\n  0x1f\n    /* \"#utility.yul\":6470:6475   */\n  dup4\n    /* \"#utility.yul\":6466:6480   */\n  add\n    /* \"#utility.yul\":6462:6485   */\n  div\n    /* \"#utility.yul\":6452:6485   */\n  swap1\n  pop\n    /* \"#utility.yul\":6398:6491   */\n  swap2\n  swap1\n  pop\n  jump\t// out\n    /* \"#utility.yul\":6497:6604   */\ntag_46:\n    /* \"#utility.yul\":6541:6549   */\n  0x00\n    /* \"#utility.yul\":6591:6596   */\n  dup3\n    /* \"#utility.yul\":6585:6589   */\n  dup3\n    /* \"#utility.yul\":6581:6597   */\n  shl\n    /* \"#utility.yul\":6560:6597   */\n  swap1\n  pop\n    /* \"#utility.yul\":6497:6604   */\n  swap3\n  swap2\n  pop\n  pop\n  jump\t// out\n    /* \"#utility.yul\":6610:7003   */\ntag_47:\n    /* \"#utility.yul\":6679:6685   */\n  0x00\n    /* \"#utility.yul\":6729:6730   */\n  0x08\n    /* \"#utility.yul\":6717:6727   */\n  dup4\n    /* \"#utility.yul\":6713:6731   */\n  mul\n    /* \"#utility.yul\":6752:6849   */\n  tag_137\n    /* \"#utility.yul\":6782:6848   */\n  0xffffffffffffffffffffffffffffffffffffffffffffffffffffffffffffffff\n    /* \"#utility.yul\":6771:6780   */\n  dup3\n    /* \"#utility.yul\":6752:6849   */\n  tag_46\n  jump\t// in\ntag_137:\n    /* \"#utility.yul\":6870:6909   */\n  tag_138\n    /* \"#utility.yul\":6900:6908   */\n  dup7\n    /* \"#utility.yul\":6889:6898   */\n  dup4\n    /* \"#utility.yul\":6870:6909   */\n  tag_46\n  jump\t// in\ntag_138:\n    /* \"#utility.yul\":6858:6909   */\n  swap6\n  pop\n    /* \"#utility.yul\":6942:6946   */\n  dup1\n    /* \"#utility.yul\":6938:6947   */\n  not\n    /* \"#utility.yul\":6931:6936   */\n  dup5\n    /* \"#utility.yul\":6927:6948   */\n  and\n    /* \"#utility.yul\":6918:6948   */\n  swap4\n  pop\n    /* \"#utility.yul\":6991:6995   */\n  dup1\n    /* \"#utility.yul\":6981:6989   */\n  dup7\n    /* \"#utility.yul\":6977:6996   */\n  and\n    /* \"#utility.yul\":6970:6975   */\n  dup5\n    /* \"#utility.yul\":6967:6997   */\n  or\n    /* \"#utility.yul\":6957:6997   */\n  swap3\n  pop\n    /* \"#utility.yul\":6686:7003   */\n  pop\n  pop\n    /* \"#utility.yul\":6610:7003   */\n  swap4\n  swap3\n  pop\n  pop\n  pop\n  jump\t// out\n    /* \"#utility.yul\":7009:7086   */\ntag_48:\n    /* \"#utility.yul\":7046:7053   */\n  0x00\n    /* \"#utility.yul\":7075:7080   */\n  dup2\n    /* \"#utility.yul\":7064:7080   */\n  swap1\n  pop\n    /* \"#utility.yul\":7009:7086   */\n  swap2\n  swap1\n  pop\n  jump\t// out\n    /* \"#utility.yul\":7092:7152   */\ntag_49:\n    /* \"#utility.yul\":7120:7123   */\n  0x00\n    /* \"#utility.yul\":7141:7146   */\n  dup2\n    /* \"#utility.yul\":7134:7146   */\n  swap1\n  pop\n    /* \"#utility.yul\":7092:7152   */\n  swap2\n  swap1\n  pop\n  jump\t// out\n    /* \"#utility.yul\":7158:7300   */\ntag_50:\n    /* \"#utility.yul\":7208:7217   */\n  0x00\n    /* \"#utility.yul\":7241:7294   */\n  tag_142\n    /* \"#utility.yul\":7259:7293   */\n  tag_143\n    /* \"#utility.yul\":7268:7292   */\n  tag_144\n    /* \"#utility.yul\":7286:7291   */\n  dup5\n    /* \"#utility.yul\":7268:7292   */\n  tag_48\n  jump\t// in\ntag_144:\n    /* \"#utility.yul\":7259:7293   */\n  tag_49\n  jump\t// in\ntag_143:\n    /* \"#utility.yul\":7241:7294   */\n  tag_48\n  jump\t// in\ntag_142:\n    /* \"#utility.yul\":7228:7294   */\n  swap1\n  pop\n    /* \"#utility.yul\":7158:7300   */\n  swap2\n  swap1\n  pop\n  jump\t// out\n    /* \"#utility.yul\":7306:7381   */\ntag_51:\n    /* \"#utility.yul\":7349:7352   */\n  0x00\n    /* \"#utility.yul\":7370:7375   */\n  dup2\n    /* \"#utility.yul\":7363:7375   */\n  swap1\n  pop\n    /* \"#utility.yul\":7306:7381   */\n  swap2\n  swap1\n  pop\n  jump\t// out\n    /* \"#utility.yul\":7387:7656   */\ntag_52:\n    /* \"#utility.yul\":7497:7536   */\n  tag_147\n    /* \"#utility.yul\":7528:7535   */\n  dup4\n    /* \"#utility.yul\":7497:7536   */\n  tag_50\n  jump\t// in\ntag_147:\n    /* \"#utility.yul\":7558:7649   */\n  tag_148\n    /* \"#utility.yul\":7607:7648   */\n  tag_149\n    /* \"#utility.yul\":7631:7647   */\n  dup3\n    /* \"#utility.yul\":7607:7648   */\n  tag_51\n  jump\t// in\ntag_149:\n    /* \"#utility.yul\":7599:7605   */\n  dup5\n    /* \"#utility.yul\":7592:7596   */\n  dup5\n    /* \"#utility.yul\":7586:7597   */\n  sload\n    /* \"#utility.yul\":7558:7649   */\n  tag_47\n  jump\t// in\ntag_148:\n    /* \"#utility.yul\":7552:7556   */\n  dup3\n    /* \"#utility.yul\":7545:7650   */\n  sstore\n    /* \"#utility.yul\":7463:7656   */\n  pop\n    /* \"#utility.yul\":7387:7656   */\n  pop\n  pop\n  pop\n  jump\t// out\n    /* \"#utility.yul\":7662:7735   */\ntag_53:\n    /* \"#utility.yul\":7707:7710   */\n  0x00\n    /* \"#utility.yul\":7662:7735   */\n  swap1\n  jump\t// out\n    /* \"#utility.yul\":7741:7930   */\ntag_54:\n    /* \"#utility.yul\":7818:7850   */\n  tag_152\n  tag_53\n  jump\t// in\ntag_152:\n    /* \"#utility.yul\":7859:7924   */\n  tag_153\n    /* \"#utility.yul\":7917:7923   */\n  dup2\n    /* \"#utility.yul\":7909:7915   */\n  dup5\n    /* \"#utility.yul\":7903:7907   */\n  dup5\n    /* \"#utility.yul\":7859:7924   */\n  tag_52\n  jump\t// in\ntag_153:\n    /* \"#utility.yul\":7794:7930   */\n  pop\n    /* \"#utility.yul\":7741:7930   */\n  pop\n  pop\n  jump\t// out\n    /* \"#utility.yul\":7936:8122   */\ntag_55:\n    /* \"#utility.yul\":7996:8116   */\ntag_155:\n    /* \"#utility.yul\":8013:8016   */\n  dup2\n    /* \"#utility.yul\":8006:8011   */\n  dup2\n    /* \"#utility.yul\":8003:8017   */\n  lt\n    /* \"#utility.yul\":7996:8116   */\n  iszero\n  tag_157\n  jumpi\n    /* \"#utility.yul\":8067:8106   */\n  tag_158\n    /* \"#utility.yul\":8104:8105   */\n  0x00\n    /* \"#utility.yul\":8097:8102   */\n  dup3\n    /* \"#utility.yul\":8067:8106   */\n  tag_54\n  jump\t// in\ntag_158:\n    /* \"#utility.yul\":8040:8041   */\n  0x01\n    /* \"#utility.yul\":8033:8038   */\n  dup2\n    /* \"#utility.yul\":8029:8042   */\n  add\n    /* \"#utility.yul\":8020:8042   */\n  swap1\n  pop\n    /* \"#utility.yul\":7996:8116   */\n  jump(tag_155)\ntag_157:\n    /* \"#utility.yul\":7936:8122   */\n  pop\n  pop\n  jump\t// out\n    /* \"#utility.yul\":8128:8671   */\ntag_56:\n    /* \"#utility.yul\":8229:8231   */\n  0x1f\n    /* \"#utility.yul\":8224:8227   */\n  dup3\n    /* \"#utility.yul\":8221:8232   */\n  gt\n    /* \"#utility.yul\":8218:8664   */\n  iszero\n  tag_160\n  jumpi\n    /* \"#utility.yul\":8263:8301   */\n  tag_161\n    /* \"#utility.yul\":8295:8300   */\n  dup2\n    /* \"#utility.yul\":8263:8301   */\n  tag_44\n  jump\t// in\ntag_161:\n    /* \"#utility.yul\":8347:8376   */\n  tag_162\n    /* \"#utility.yul\":8365:8375   */\n  dup5\n    /* \"#utility.yul\":8347:8376   */\n  tag_45\n  jump\t// in\ntag_162:\n    /* \"#utility.yul\":8337:8345   */\n  dup2\n    /* \"#utility.yul\":8333:8377   */\n  add\n    /* \"#utility.yul\":8530:8532   */\n  0x20\n    /* \"#utility.yul\":8518:8528   */\n  dup6\n    /* \"#utility.yul\":8515:8533   */\n  lt\n    /* \"#utility.yul\":8512:8561   */\n  iszero\n  tag_163\n  jumpi\n    /* \"#utility.yul\":8551:8559   */\n  dup2\n    /* \"#utility.yul\":8536:8559   */\n  swap1\n  pop\n    /* \"#utility.yul\":8512:8561   */\ntag_163:\n    /* \"#utility.yul\":8574:8654   */\n  tag_164\n    /* \"#utility.yul\":8630:8652   */\n  tag_165\n    /* \"#utility.yul\":8648:8651   */\n  dup6\n    /* \"#utility.yul\":8630:8652   */\n  tag_45\n  jump\t// in\ntag_165:\n    /* \"#utility.yul\":8620:8628   */\n  dup4\n    /* \"#utility.yul\":8616:8653   */\n  add\n    /* \"#utility.yul\":8603:8614   */\n  dup3\n    /* \"#utility.yul\":8574:8654   */\n  tag_55\n  jump\t// in\ntag_164:\n    /* \"#utility.yul\":8233:8664   */\n  pop\n  pop\n    /* \"#utility.yul\":8218:8664   */\ntag_160:\n    /* \"#utility.yul\":8128:8671   */\n  pop\n  pop\n  pop\n  jump\t// out\n    /* \"#utility.yul\":8677:8794   */\ntag_57:\n    /* \"#utility.yul\":8731:8739   */\n  0x00\n    /* \"#utility.yul\":8781:8786   */\n  dup3\n    /* \"#utility.yul\":8775:8779   */\n  dup3\n    /* \"#utility.yul\":8771:8787   */\n  shr\n    /* \"#utility.yul\":8750:8787   */\n  swap1\n  pop\n    /* \"#utility.yul\":8677:8794   */\n  swap3\n  swap2\n  pop\n  pop\n  jump\t// out\n    /* \"#utility.yul\":8800:8969   */\ntag_58:\n    /* \"#utility.yul\":8844:8850   */\n  0x00\n    /* \"#utility.yul\":8877:8928   */\n  tag_168\n    /* \"#utility.yul\":8925:8926   */\n  0x00\n    /* \"#utility.yul\":8921:8927   */\n  not\n    /* \"#utility.yul\":8913:8918   */\n  dup5\n    /* \"#utility.yul\":8910:8911   */\n  0x08\n    /* \"#utility.yul\":8906:8919   */\n  mul\n    /* \"#utility.yul\":8877:8928   */\n  tag_57\n  jump\t// in\ntag_168:\n    /* \"#utility.yul\":8873:8929   */\n  not\n    /* \"#utility.yul\":8958:8962   */\n  dup1\n    /* \"#utility.yul\":8952:8956   */\n  dup4\n    /* \"#utility.yul\":8948:8963   */\n  and\n    /* \"#utility.yul\":8938:8963   */\n  swap2\n  pop\n    /* \"#utility.yul\":8851:8969   */\n  pop\n    /* \"#utility.yul\":8800:8969   */\n  swap3\n  swap2\n  pop\n  pop\n  jump\t// out\n    /* \"#utility.yul\":8974:9269   */\ntag_59:\n    /* \"#utility.yul\":9050:9054   */\n  0x00\n    /* \"#utility.yul\":9196:9225   */\n  tag_170\n    /* \"#utility.yul\":9221:9224   */\n  dup4\n    /* \"#utility.yul\":9215:9219   */\n  dup4\n    /* \"#utility.yul\":9196:9225   */\n  tag_58\n  jump\t// in\ntag_170:\n    /* \"#utility.yul\":9188:9225   */\n  swap2\n  pop\n    /* \"#utility.yul\":9258:9261   */\n  dup3\n    /* \"#utility.yul\":9255:9256   */\n  0x02\n    /* \"#utility.yul\":9251:9262   */\n  mul\n    /* \"#utility.yul\":9245:9249   */\n  dup3\n    /* \"#utility.yul\":9242:9263   */\n  or\n    /* \"#utility.yul\":9234:9263   */\n  swap1\n  pop\n    /* \"#utility.yul\":8974:9269   */\n  swap3\n  swap2\n  pop\n  pop\n  jump\t// out\n    /* \"#utility.yul\":9274:10669   */\ntag_14:\n    /* \"#utility.yul\":9391:9428   */\n  tag_172\n    /* \"#utility.yul\":9424:9427   */\n  dup3\n    /* \"#utility.yul\":9391:9428   */\n  tag_41\n  jump\t// in\ntag_172:\n    /* \"#utility.yul\":9493:9511   */\n  0xffffffffffffffff\n    /* \"#utility.yul\":9485:9491   */\n  dup2\n    /* \"#utility.yul\":9482:9512   */\n  gt\n    /* \"#utility.yul\":9479:9535   */\n  iszero\n  tag_173\n  jumpi\n    /* \"#utility.yul\":9515:9533   */\n  tag_174\n  tag_26\n  jump\t// in\ntag_174:\n    /* \"#utility.yul\":9479:9535   */\ntag_173:\n    /* \"#utility.yul\":9559:9597   */\n  tag_175\n    /* \"#utility.yul\":9591:9595   */\n  dup3\n    /* \"#utility.yul\":9585:9596   */\n  sload\n    /* \"#utility.yul\":9559:9597   */\n  tag_43\n  jump\t// in\ntag_175:\n    /* \"#utility.yul\":9644:9711   */\n  tag_176\n    /* \"#utility.yul\":9704:9710   */\n  dup3\n    /* \"#utility.yul\":9696:9702   */\n  dup3\n    /* \"#utility.yul\":9690:9694   */\n  dup6\n    /* \"#utility.yul\":9644:9711   */\n  tag_56\n  jump\t// in\ntag_176:\n    /* \"#utility.yul\":9738:9739   */\n  0x00\n    /* \"#utility.yul\":9762:9766   */\n  0x20\n    /* \"#utility.yul\":9749:9766   */\n  swap1\n  pop\n    /* \"#utility.yul\":9794:9796   */\n  0x1f\n    /* \"#utility.yul\":9786:9792   */\n  dup4\n    /* \"#utility.yul\":9783:9797   */\n  gt\n    /* \"#utility.yul\":9811:9812   */\n  0x01\n    /* \"#utility.yul\":9806:10424   */\n  dup2\n  eq\n  tag_178\n  jumpi\n    /* \"#utility.yul\":10468:10469   */\n  0x00\n    /* \"#utility.yul\":10485:10491   */\n  dup5\n    /* \"#utility.yul\":10482:10559   */\n  iszero\n  tag_179\n  jumpi\n    /* \"#utility.yul\":10534:10543   */\n  dup3\n    /* \"#utility.yul\":10529:10532   */\n  dup8\n    /* \"#utility.yul\":10525:10544   */\n  add\n    /* \"#utility.yul\":10519:10545   */\n  mload\n    /* \"#utility.yul\":10510:10545   */\n  swap1\n  pop\n    /* \"#utility.yul\":10482:10559   */\ntag_179:\n    /* \"#utility.yul\":10585:10652   */\n  tag_180\n    /* \"#utility.yul\":10645:10651   */\n  dup6\n    /* \"#utility.yul\":10638:10643   */\n  dup3\n    /* \"#utility.yul\":10585:10652   */\n  tag_59\n  jump\t// in\ntag_180:\n    /* \"#utility.yul\":10579:10583   */\n  dup7\n    /* \"#utility.yul\":10572:10653   */\n  sstore\n    /* \"#utility.yul\":10441:10663   */\n  pop\n    /* \"#utility.yul\":9776:10663   */\n  jump(tag_177)\n    /* \"#utility.yul\":9806:10424   */\ntag_178:\n    /* \"#utility.yul\":9858:9862   */\n  0x1f\n    /* \"#utility.yul\":9854:9863   */\n  not\n    /* \"#utility.yul\":9846:9852   */\n  dup5\n    /* \"#utility.yul\":9842:9864   */\n  and\n    /* \"#utility.yul\":9892:9929   */\n  tag_181\n    /* \"#utility.yul\":9924:9928   */\n  dup7\n    /* \"#utility.yul\":9892:9929   */\n  tag_44\n  jump\t// in\ntag_181:\n    /* \"#utility.yul\":9951:9952   */\n  0x00\n    /* \"#utility.yul\":9965:10173   */\ntag_182:\n    /* \"#utility.yul\":9979:9986   */\n  dup3\n    /* \"#utility.yul\":9976:9977   */\n  dup2\n    /* \"#utility.yul\":9973:9987   */\n  lt\n    /* \"#utility.yul\":9965:10173   */\n  iszero\n  tag_184\n  jumpi\n    /* \"#utility.yul\":10058:10067   */\n  dup5\n    /* \"#utility.yul\":10053:10056   */\n  dup10\n    /* \"#utility.yul\":10049:10068   */\n  add\n    /* \"#utility.yul\":10043:10069   */\n  mload\n    /* \"#utility.yul\":10035:10041   */\n  dup3\n    /* \"#utility.yul\":10028:10070   */\n  sstore\n    /* \"#utility.yul\":10109:10110   */\n  0x01\n    /* \"#utility.yul\":10101:10107   */\n  dup3\n    /* \"#utility.yul\":10097:10111   */\n  add\n    /* \"#utility.yul\":10087:10111   */\n  swap2\n  pop\n    /* \"#utility.yul\":10156:10158   */\n  0x20\n    /* \"#utility.yul\":10145:10154   */\n  dup6\n    /* \"#utility.yul\":10141:10159   */\n  add\n    /* \"#utility.yul\":10128:10159   */\n  swap5\n  pop\n    /* \"#utility.yul\":10002:10006   */\n  0x20\n    /* \"#utility.yul\":9999:10000   */\n  dup2\n    /* \"#utility.yul\":9995:10007   */\n  add\n    /* \"#utility.yul\":9990:10007   */\n  swap1\n  pop\n    /* \"#utility.yul\":9965:10173   */\n  jump(tag_182)\ntag_184:\n    /* \"#utility.yul\":10201:10207   */\n  dup7\n    /* \"#utility.yul\":10192:10199   */\n  dup4\n    /* \"#utility.yul\":10189:10208   */\n  lt\n    /* \"#utility.yul\":10186:10365   */\n  iszero\n  tag_185\n  jumpi\n    /* \"#utility.yul\":10259:10268   */\n  dup5\n    /* \"#utility.yul\":10254:10257   */\n  dup10\n    /* \"#utility.yul\":10250:10269   */\n  add\n    /* \"#utility.yul\":10244:10270   */\n  mload\n    /* \"#utility.yul\":10302:10350   */\n  tag_186\n    /* \"#utility.yul\":10344:10348   */\n  0x1f\n    /* \"#utility.yul\":10336:10342   */\n  dup10\n    /* \"#utility.yul\":10332:10349   */\n  and\n    /* \"#utility.yul\":10321:10330   */\n  dup3\n    /* \"#utility.yul\":10302:10350   */\n  tag_58\n  jump\t// in\ntag_186:\n    /* \"#utility.yul\":10294:10300   */\n  dup4\n    /* \"#utility.yul\":10287:10351   */\n  sstore\n    /* \"#utility.yul\":10209:10365   */\n  pop\n    /* \"#utility.yul\":10186:10365   */\ntag_185:\n    /* \"#utility.yul\":10411:10412   */\n  0x01\n    /* \"#utility.yul\":10407:10408   */\n  0x02\n    /* \"#utility.yul\":10399:10405   */\n  dup9\n    /* \"#utility.yul\":10395:10409   */\n  mul\n    /* \"#utility.yul\":10391:10413   */\n  add\n    /* \"#utility.yul\":10385:10389   */\n  dup9\n    /* \"#utility.yul\":10378:10414   */\n  sstore\n    /* \"#utility.yul\":9813:10424   */\n  pop\n  pop\n  pop\n    /* \"#utility.yul\":9776:10663   */\ntag_177:\n  pop\n    /* \"#utility.yul\":9366:10669   */\n  pop\n  pop\n  pop\n    /* \"#utility.yul\":9274:10669   */\n  pop\n  pop\n  jump\t// out\n    /* \"Donee.sol\":202:3262  contract Donee is Ownable {... */\ntag_18:\n  dataSize(sub_0)\n  dup1\n  dataOffset(sub_0)\n  0x00\n  codecopy\n  0x00\n  return\nstop\n\nsub_0: assembly {\n        /* \"Donee.sol\":202:3262  contract Donee is Ownable {... */\n      mstore(0x40, 0x80)\n      jumpi(tag_1, lt(calldatasize, 0x04))\n      shr(0xe0, calldataload(0x00))\n      dup1\n      0x7284e416\n      gt\n      tag_16\n      jumpi\n      dup1\n      0xed88c68e\n      gt\n      tag_17\n      jumpi\n      dup1\n      0xed88c68e\n      eq\n      tag_12\n      jumpi\n      dup1\n      0xf0ea4bfc\n      eq\n      tag_13\n      jumpi\n      dup1\n      0xf2fde38b\n      eq\n      tag_14\n      jumpi\n      dup1\n      0xfea49837\n      eq\n      tag_15\n      jumpi\n      jump(tag_1)\n    tag_17:\n      dup1\n      0x7284e416\n      eq\n      tag_9\n      jumpi\n      dup1\n      0x8da5cb5b\n      eq\n      tag_10\n      jumpi\n      dup1\n      0x8e15f473\n      eq\n      tag_11\n      jumpi\n      jump(tag_1)\n    tag_16:\n      dup1\n      0x254b9def\n      gt\n      tag_18\n      jumpi\n      dup1\n      0x254b9def\n      eq\n      tag_5\n      jumpi\n      dup1\n      0x2b6bd172\n      eq\n      tag_6\n      jumpi\n      dup1\n      0x3ccfd60b\n      eq\n      tag_7\n      jumpi\n      dup1\n      0x715018a6\n      eq\n      tag_8\n      jumpi\n      jump(tag_1)\n    tag_18:\n      dup1\n      0x06fdde03\n      eq\n      tag_2\n      jumpi\n      dup1\n      0x0b024f87\n      eq\n      tag_3\n      jumpi\n      dup1\n      0x21b8092e\n      eq\n      tag_4\n      jumpi\n    tag_1:\n      0x00\n      dup1\n      revert\n        /* \"Donee.sol\":574:592  string public name */\n    tag_2:\n      callvalue\n      dup1\n      iszero\n      tag_19\n      jumpi\n      0x00\n      dup1\n      revert\n    tag_19:\n      pop\n      tag_20\n      tag_21\n      jump\t// in\n    tag_20:\n      mload(0x40)\n      tag_22\n      swap2\n      swap1\n      tag_23\n      jump\t// in\n    tag_22:\n      mload(0x40)\n      dup1\n      swap2\n      sub\n      swap1\n      return\n        /* \"Donee.sol\":398:431  uint256 public totalDonationCount */\n    tag_3:\n      callvalue\n      dup1\n      iszero\n      tag_24\n      jumpi\n      0x00\n      dup1\n      revert\n    tag_24:\n      pop\n      tag_25\n      tag_26\n      jump\t// in\n    tag_25:\n      mload(0x40)\n      tag_27\n      swap2\n      swap1\n      tag_28\n      jump\t// in\n    tag_27:\n      mload(0x40)\n      dup1\n      swap2\n      sub\n      swap1\n      return\n        /* \"Donee.sol\":2589:2727  function setWithdrawalAddress(address payable new_address) external onlyOwner rateLimit(60) {... */\n    tag_4:\n      callvalue\n      dup1\n      iszero\n      tag_29\n      jumpi\n      0x00\n      dup1\n      revert\n    tag_29:\n      pop\n      tag_30\n      0x04\n      dup1\n      calldatasize\n      sub\n      dup2\n      add\n      swap1\n      tag_31\n      swap2\n      swap1\n      tag_32\n      jump\t// in\n    tag_31:\n      tag_33\n      jump\t// in\n    tag_30:\n      stop\n        /* \"Donee.sol\":3050:3259  function raisedInUSD() public view returns (uint256) {... */\n    tag_5:\n      callvalue\n      dup1\n      iszero\n      tag_34\n      jumpi\n      0x00\n      dup1\n      revert\n    tag_34:\n      pop\n      tag_35\n      tag_36\n      jump\t// in\n    tag_35:\n      mload(0x40)\n      tag_37\n      swap2\n      swap1\n      tag_28\n      jump\t// in\n    tag_37:\n      mload(0x40)\n      dup1\n      swap2\n      sub\n      swap1\n      return\n        /* \"Donee.sol\":631:658  string public ipfsImageHash */\n    tag_6:\n      callvalue\n      dup1\n      iszero\n      tag_38\n      jumpi\n      0x00\n      dup1\n      revert\n    tag_38:\n      pop\n      tag_39\n      tag_40\n      jump\t// in\n    tag_39:\n      mload(0x40)\n      tag_41\n      swap2\n      swap1\n      tag_23\n      jump\t// in\n    tag_41:\n      mload(0x40)\n      dup1\n      swap2\n      sub\n      swap1\n      return\n        /* \"Donee.sol\":2379:2581  function withdraw() external onlyOwner {... */\n    tag_7:\n      callvalue\n      dup1\n      iszero\n      tag_42\n      jumpi\n      0x00\n      dup1\n      revert\n    tag_42:\n      pop\n      tag_43\n      tag_44\n      jump\t// in\n    tag_43:\n      stop\n        /* \"@openzeppelin/contracts/access/Ownable.sol\":2293:2394  function renounceOwnership() public virtual onlyOwner {... */\n    tag_8:\n      callvalue\n      dup1\n      iszero\n      tag_45\n      jumpi\n      0x00\n      dup1\n      revert\n    tag_45:\n      pop\n      tag_46\n      tag_47\n      jump\t// in\n    tag_46:\n      stop\n        /* \"Donee.sol\":599:624  string public description */\n    tag_9:\n      callvalue\n      dup1\n      iszero\n      tag_48\n      jumpi\n      0x00\n      dup1\n      revert\n    tag_48:\n      pop\n      tag_49\n      tag_50\n      jump\t// in\n    tag_49:\n      mload(0x40)\n      tag_51\n      swap2\n      swap1\n      tag_23\n      jump\t// in\n    tag_51:\n      mload(0x40)\n      dup1\n      swap2\n      sub\n      swap1\n      return\n        /* \"@openzeppelin/contracts/access/Ownable.sol\":1638:1723  function owner() public view virtual returns (address) {... */\n    tag_10:\n      callvalue\n      dup1\n      iszero\n      tag_52\n      jumpi\n      0x00\n      dup1\n      revert\n    tag_52:\n      pop\n      tag_53\n      tag_54\n      jump\t// in\n    tag_53:\n      mload(0x40)\n      tag_55\n      swap2\n      swap1\n      tag_56\n      jump\t// in\n    tag_55:\n      mload(0x40)\n      dup1\n      swap2\n      sub\n      swap1\n      return\n        /* \"Donee.sol\":2735:3042  function getLatestPrice() public view returns (int) {... */\n    tag_11:\n      callvalue\n      dup1\n      iszero\n      tag_57\n      jumpi\n      0x00\n      dup1\n      revert\n    tag_57:\n      pop\n      tag_58\n      tag_59\n      jump\t// in\n    tag_58:\n      mload(0x40)\n      tag_60\n      swap2\n      swap1\n      tag_61\n      jump\t// in\n    tag_60:\n      mload(0x40)\n      dup1\n      swap2\n      sub\n      swap1\n      return\n        /* \"Donee.sol\":1582:1898  function donate() external payable {... */\n    tag_12:\n      tag_62\n      tag_63\n      jump\t// in\n    tag_62:\n      stop\n        /* \"Donee.sol\":370:391  uint256 public raised */\n    tag_13:\n      callvalue\n      dup1\n      iszero\n      tag_64\n      jumpi\n      0x00\n      dup1\n      revert\n    tag_64:\n      pop\n      tag_65\n      tag_66\n      jump\t// in\n    tag_65:\n      mload(0x40)\n      tag_67\n      swap2\n      swap1\n      tag_28\n      jump\t// in\n    tag_67:\n      mload(0x40)\n      dup1\n      swap2\n      sub\n      swap1\n      return\n        /* \"@openzeppelin/contracts/access/Ownable.sol\":2543:2758  function transferOwnership(address newOwner) public virtual onlyOwner {... */\n    tag_14:\n      callvalue\n      dup1\n      iszero\n      tag_68\n      jumpi\n      0x00\n      dup1\n      revert\n    tag_68:\n      pop\n      tag_69\n      0x04\n      dup1\n      calldatasize\n      sub\n      dup2\n      add\n      swap1\n      tag_70\n      swap2\n      swap1\n      tag_71\n      jump\t// in\n    tag_70:\n      tag_72\n      jump\t// in\n    tag_69:\n      stop\n        /* \"Donee.sol\":1906:2371  function myHistory() external view returns (uint256[] memory values, uint256[] memory dates) {... */\n    tag_15:\n      callvalue\n      dup1\n      iszero\n      tag_73\n      jumpi\n      0x00\n      dup1\n      revert\n    tag_73:\n      pop\n      tag_74\n      tag_75\n      jump\t// in\n    tag_74:\n      mload(0x40)\n      tag_76\n      swap3\n      swap2\n      swap1\n      tag_77\n      jump\t// in\n    tag_76:\n      mload(0x40)\n      dup1\n      swap2\n      sub\n      swap1\n      return\n        /* \"Donee.sol\":574:592  string public name */\n    tag_21:\n      0x04\n      dup1\n      sload\n      tag_78\n      swap1\n      tag_79\n      jump\t// in\n    tag_78:\n      dup1\n      0x1f\n      add\n      0x20\n      dup1\n      swap2\n      div\n      mul\n      0x20\n      add\n      mload(0x40)\n      swap1\n      dup2\n      add\n      0x40\n      mstore\n      dup1\n      swap3\n      swap2\n      swap1\n      dup2\n      dup2\n      mstore\n      0x20\n      add\n      dup3\n      dup1\n      sload\n      tag_80\n      swap1\n      tag_79\n      jump\t// in\n    tag_80:\n      dup1\n      iszero\n      tag_81\n      jumpi\n      dup1\n      0x1f\n      lt\n      tag_82\n      jumpi\n      0x0100\n      dup1\n      dup4\n      sload\n      div\n      mul\n      dup4\n      mstore\n      swap2\n      0x20\n      add\n      swap2\n      jump(tag_81)\n    tag_82:\n      dup3\n      add\n      swap2\n      swap1\n      0x00\n      mstore\n      keccak256(0x00, 0x20)\n      swap1\n    tag_83:\n      dup2\n      sload\n      dup2\n      mstore\n      swap1\n      0x01\n      add\n      swap1\n      0x20\n      add\n      dup1\n      dup4\n      gt\n      tag_83\n      jumpi\n      dup3\n      swap1\n      sub\n      0x1f\n      and\n      dup3\n      add\n      swap2\n    tag_81:\n      pop\n      pop\n      pop\n      pop\n      pop\n      dup2\n      jump\t// out\n        /* \"Donee.sol\":398:431  uint256 public totalDonationCount */\n    tag_26:\n      sload(0x03)\n      dup2\n      jump\t// out\n        /* \"Donee.sol\":2589:2727  function setWithdrawalAddress(address payable new_address) external onlyOwner rateLimit(60) {... */\n    tag_33:\n        /* \"@openzeppelin/contracts/access/Ownable.sol\":1531:1544  _checkOwner() */\n      tag_85\n        /* \"@openzeppelin/contracts/access/Ownable.sol\":1531:1542  _checkOwner */\n      tag_86\n        /* \"@openzeppelin/contracts/access/Ownable.sol\":1531:1544  _checkOwner() */\n      jump\t// in\n    tag_85:\n        /* \"Donee.sol\":2677:2679  60 */\n      0x3c\n        /* \"Donee.sol\":875:880  _time */\n      dup1\n        /* \"Donee.sol\":862:872  lastCalled */\n      sload(0x09)\n        /* \"Donee.sol\":862:880  lastCalled + _time */\n      tag_88\n      swap2\n      swap1\n      tag_89\n      jump\t// in\n    tag_88:\n        /* \"Donee.sol\":844:859  block.timestamp */\n      timestamp\n        /* \"Donee.sol\":844:880  block.timestamp > lastCalled + _time */\n      gt\n        /* \"Donee.sol\":836:905  require(block.timestamp > lastCalled + _time, \"Rate limit exceeded.\") */\n      tag_90\n      jumpi\n      mload(0x40)\n      0x08c379a000000000000000000000000000000000000000000000000000000000\n      dup2\n      mstore\n      0x04\n      add\n      tag_91\n      swap1\n      tag_92\n      jump\t// in\n    tag_91:\n      mload(0x40)\n      dup1\n      swap2\n      sub\n      swap1\n      revert\n    tag_90:\n        /* \"Donee.sol\":929:944  block.timestamp */\n      timestamp\n        /* \"Donee.sol\":916:926  lastCalled */\n      0x09\n        /* \"Donee.sol\":916:944  lastCalled = block.timestamp */\n      dup2\n      swap1\n      sstore\n      pop\n        /* \"Donee.sol\":2708:2719  new_address */\n      dup2\n        /* \"Donee.sol\":2692:2705  donee_address */\n      0x07\n      0x00\n        /* \"Donee.sol\":2692:2719  donee_address = new_address */\n      0x0100\n      exp\n      dup2\n      sload\n      dup2\n      0xffffffffffffffffffffffffffffffffffffffff\n      mul\n      not\n      and\n      swap1\n      dup4\n      0xffffffffffffffffffffffffffffffffffffffff\n      and\n      mul\n      or\n      swap1\n      sstore\n      pop\n        /* \"@openzeppelin/contracts/access/Ownable.sol\":1554:1555  _ */\n      pop\n        /* \"Donee.sol\":2589:2727  function setWithdrawalAddress(address payable new_address) external onlyOwner rateLimit(60) {... */\n      pop\n      jump\t// out\n        /* \"Donee.sol\":3050:3259  function raisedInUSD() public view returns (uint256) {... */\n    tag_36:\n        /* \"Donee.sol\":3094:3101  uint256 */\n      0x00\n        /* \"Donee.sol\":3114:3126  int ethPrice */\n      dup1\n        /* \"Donee.sol\":3129:3145  getLatestPrice() */\n      tag_95\n        /* \"Donee.sol\":3129:3143  getLatestPrice */\n      tag_59\n        /* \"Donee.sol\":3129:3145  getLatestPrice() */\n      jump\t// in\n    tag_95:\n        /* \"Donee.sol\":3114:3145  int ethPrice = getLatestPrice() */\n      swap1\n      pop\n        /* \"Donee.sol\":3175:3176  0 */\n      0x00\n        /* \"Donee.sol\":3164:3172  ethPrice */\n      dup2\n        /* \"Donee.sol\":3164:3176  ethPrice > 0 */\n      sgt\n        /* \"Donee.sol\":3156:3199  require(ethPrice > 0, \"Invalid price data\") */\n      tag_96\n      jumpi\n      mload(0x40)\n      0x08c379a000000000000000000000000000000000000000000000000000000000\n      dup2\n      mstore\n      0x04\n      add\n      tag_97\n      swap1\n      tag_98\n      jump\t// in\n    tag_97:\n      mload(0x40)\n      dup1\n      swap2\n      sub\n      swap1\n      revert\n    tag_96:\n        /* \"Donee.sol\":3248:3251  1e8 */\n      0x05f5e100\n        /* \"Donee.sol\":3235:3243  ethPrice */\n      dup2\n        /* \"Donee.sol\":3218:3224  raised */\n      sload(0x02)\n        /* \"Donee.sol\":3218:3244  raised * uint256(ethPrice) */\n      tag_99\n      swap2\n      swap1\n      tag_100\n      jump\t// in\n    tag_99:\n        /* \"Donee.sol\":3217:3251  (raised * uint256(ethPrice)) / 1e8 */\n      tag_101\n      swap2\n      swap1\n      tag_102\n      jump\t// in\n    tag_101:\n        /* \"Donee.sol\":3210:3251  return (raised * uint256(ethPrice)) / 1e8 */\n      swap2\n      pop\n      pop\n        /* \"Donee.sol\":3050:3259  function raisedInUSD() public view returns (uint256) {... */\n      swap1\n      jump\t// out\n        /* \"Donee.sol\":631:658  string public ipfsImageHash */\n    tag_40:\n      0x06\n      dup1\n      sload\n      tag_103\n      swap1\n      tag_79\n      jump\t// in\n    tag_103:\n      dup1\n      0x1f\n      add\n      0x20\n      dup1\n      swap2\n      div\n      mul\n      0x20\n      add\n      mload(0x40)\n      swap1\n      dup2\n      add\n      0x40\n      mstore\n      dup1\n      swap3\n      swap2\n      swap1\n      dup2\n      dup2\n      mstore\n      0x20\n      add\n      dup3\n      dup1\n      sload\n      tag_104\n      swap1\n      tag_79\n      jump\t// in\n    tag_104:\n      dup1\n      iszero\n      tag_105\n      jumpi\n      dup1\n      0x1f\n      lt\n      tag_106\n      jumpi\n      0x0100\n      dup1\n      dup4\n      sload\n      div\n      mul\n      dup4\n      mstore\n      swap2\n      0x20\n      add\n      swap2\n      jump(tag_105)\n    tag_106:\n      dup3\n      add\n      swap2\n      swap1\n      0x00\n      mstore\n      keccak256(0x00, 0x20)\n      swap1\n    tag_107:\n      dup2\n      sload\n      dup2\n      mstore\n      swap1\n      0x01\n      add\n      swap1\n      0x20\n      add\n      dup1\n      dup4\n      gt\n      tag_107\n      jumpi\n      dup3\n      swap1\n      sub\n      0x1f\n      and\n      dup3\n      add\n      swap2\n    tag_105:\n      pop\n      pop\n      pop\n      pop\n      pop\n      dup2\n      jump\t// out\n        /* \"Donee.sol\":2379:2581  function withdraw() external onlyOwner {... */\n    tag_44:\n        /* \"@openzeppelin/contracts/access/Ownable.sol\":1531:1544  _checkOwner() */\n      tag_109\n        /* \"@openzeppelin/contracts/access/Ownable.sol\":1531:1542  _checkOwner */\n      tag_86\n        /* \"@openzeppelin/contracts/access/Ownable.sol\":1531:1544  _checkOwner() */\n      jump\t// in\n    tag_109:\n        /* \"Donee.sol\":2429:2444  uint256 balance */\n      0x00\n        /* \"Donee.sol\":2447:2468  address(this).balance */\n      selfbalance\n        /* \"Donee.sol\":2429:2468  uint256 balance = address(this).balance */\n      swap1\n      pop\n        /* \"Donee.sol\":2479:2492  donee_address */\n      0x07\n      0x00\n      swap1\n      sload\n      swap1\n      0x0100\n      exp\n      swap1\n      div\n      0xffffffffffffffffffffffffffffffffffffffff\n      and\n        /* \"Donee.sol\":2479:2501  donee_address.transfer */\n      0xffffffffffffffffffffffffffffffffffffffff\n      and\n        /* \"Donee.sol\":2479:2510  donee_address.transfer(balance) */\n      0x08fc\n        /* \"Donee.sol\":2502:2509  balance */\n      dup3\n        /* \"Donee.sol\":2479:2510  donee_address.transfer(balance) */\n      swap1\n      dup2\n      iszero\n      mul\n      swap1\n      mload(0x40)\n      0x00\n      mload(0x40)\n      dup1\n      dup4\n      sub\n      dup2\n      dup6\n      dup9\n      dup9\n      call\n      swap4\n      pop\n      pop\n      pop\n      pop\n      iszero\n      dup1\n      iszero\n      tag_112\n      jumpi\n      returndatasize\n      0x00\n      dup1\n      returndatacopy\n      revert(0x00, returndatasize)\n    tag_112:\n      pop\n        /* \"Donee.sol\":2526:2573  Withdraw(balance, address(this), donee_address) */\n      0xa51bb7c2c2049ab09fbff5561211a4ee34b3b4cee74c42f1bce5461cd4ef3f8d\n        /* \"Donee.sol\":2535:2542  balance */\n      dup2\n        /* \"Donee.sol\":2552:2556  this */\n      address\n        /* \"Donee.sol\":2559:2572  donee_address */\n      0x07\n      0x00\n      swap1\n      sload\n      swap1\n      0x0100\n      exp\n      swap1\n      div\n      0xffffffffffffffffffffffffffffffffffffffff\n      and\n        /* \"Donee.sol\":2526:2573  Withdraw(balance, address(this), donee_address) */\n      mload(0x40)\n      tag_113\n      swap4\n      swap3\n      swap2\n      swap1\n      tag_114\n      jump\t// in\n    tag_113:\n      mload(0x40)\n      dup1\n      swap2\n      sub\n      swap1\n      log1\n        /* \"Donee.sol\":2418:2581  {... */\n      pop\n        /* \"Donee.sol\":2379:2581  function withdraw() external onlyOwner {... */\n      jump\t// out\n        /* \"@openzeppelin/contracts/access/Ownable.sol\":2293:2394  function renounceOwnership() public virtual onlyOwner {... */\n    tag_47:\n        /* \"@openzeppelin/contracts/access/Ownable.sol\":1531:1544  _checkOwner() */\n      tag_116\n        /* \"@openzeppelin/contracts/access/Ownable.sol\":1531:1542  _checkOwner */\n      tag_86\n        /* \"@openzeppelin/contracts/access/Ownable.sol\":1531:1544  _checkOwner() */\n      jump\t// in\n    tag_116:\n        /* \"@openzeppelin/contracts/access/Ownable.sol\":2357:2387  _transferOwnership(address(0)) */\n      tag_118\n        /* \"@openzeppelin/contracts/access/Ownable.sol\":2384:2385  0 */\n      0x00\n        /* \"@openzeppelin/contracts/access/Ownable.sol\":2357:2375  _transferOwnership */\n      tag_119\n        /* \"@openzeppelin/contracts/access/Ownable.sol\":2357:2387  _transferOwnership(address(0)) */\n      jump\t// in\n    tag_118:\n        /* \"@openzeppelin/contracts/access/Ownable.sol\":2293:2394  function renounceOwnership() public virtual onlyOwner {... */\n      jump\t// out\n        /* \"Donee.sol\":599:624  string public description */\n    tag_50:\n      0x05\n      dup1\n      sload\n      tag_120\n      swap1\n      tag_79\n      jump\t// in\n    tag_120:\n      dup1\n      0x1f\n      add\n      0x20\n      dup1\n      swap2\n      div\n      mul\n      0x20\n      add\n      mload(0x40)\n      swap1\n      dup2\n      add\n      0x40\n      mstore\n      dup1\n      swap3\n      swap2\n      swap1\n      dup2\n      dup2\n      mstore\n      0x20\n      add\n      dup3\n      dup1\n      sload\n      tag_121\n      swap1\n      tag_79\n      jump\t// in\n    tag_121:\n      dup1\n      iszero\n      tag_122\n      jumpi\n      dup1\n      0x1f\n      lt\n      tag_123\n      jumpi\n      0x0100\n      dup1\n      dup4\n      sload\n      div\n      mul\n      dup4\n      mstore\n      swap2\n      0x20\n      add\n      swap2\n      jump(tag_122)\n    tag_123:\n      dup3\n      add\n      swap2\n      swap1\n      0x00\n      mstore\n      keccak256(0x00, 0x20)\n      swap1\n    tag_124:\n      dup2\n      sload\n      dup2\n      mstore\n      swap1\n      0x01\n      add\n      swap1\n      0x20\n      add\n      dup1\n      dup4\n      gt\n      tag_124\n      jumpi\n      dup3\n      swap1\n      sub\n      0x1f\n      and\n      dup3\n      add\n      swap2\n    tag_122:\n      pop\n      pop\n      pop\n      pop\n      pop\n      dup2\n      jump\t// out\n        /* \"@openzeppelin/contracts/access/Ownable.sol\":1638:1723  function owner() public view virtual returns (address) {... */\n    tag_54:\n        /* \"@openzeppelin/contracts/access/Ownable.sol\":1684:1691  address */\n      0x00\n        /* \"@openzeppelin/contracts/access/Ownable.sol\":1710:1716  _owner */\n      dup1\n      0x00\n      swap1\n      sload\n      swap1\n      0x0100\n      exp\n      swap1\n      div\n      0xffffffffffffffffffffffffffffffffffffffff\n      and\n        /* \"@openzeppelin/contracts/access/Ownable.sol\":1703:1716  return _owner */\n      swap1\n      pop\n        /* \"@openzeppelin/contracts/access/Ownable.sol\":1638:1723  function owner() public view virtual returns (address) {... */\n      swap1\n      jump\t// out\n        /* \"Donee.sol\":2735:3042  function getLatestPrice() public view returns (int) {... */\n    tag_59:\n        /* \"Donee.sol\":2782:2785  int */\n      0x00\n        /* \"Donee.sol\":2848:2857  int price */\n      dup1\n        /* \"Donee.sol\":2984:2993  priceFeed */\n      0x08\n      0x00\n      swap1\n      sload\n      swap1\n      0x0100\n      exp\n      swap1\n      div\n      0xffffffffffffffffffffffffffffffffffffffff\n      and\n        /* \"Donee.sol\":2984:3009  priceFeed.latestRoundData */\n      0xffffffffffffffffffffffffffffffffffffffff\n      and\n      0xfeaf968c\n        /* \"Donee.sol\":2984:3011  priceFeed.latestRoundData() */\n      mload(0x40)\n      dup2\n      0xffffffff\n      and\n      0xe0\n      shl\n      dup2\n      mstore\n      0x04\n      add\n      0xa0\n      mload(0x40)\n      dup1\n      dup4\n      sub\n      dup2\n      dup7\n      gas\n      staticcall\n      iszero\n      dup1\n      iszero\n      tag_128\n      jumpi\n      returndatasize\n      0x00\n      dup1\n      returndatacopy\n      revert(0x00, returndatasize)\n    tag_128:\n      pop\n      pop\n      pop\n      pop\n      mload(0x40)\n      returndatasize\n      not(0x1f)\n      0x1f\n      dup3\n      add\n      and\n      dup3\n      add\n      dup1\n      0x40\n      mstore\n      pop\n      dup2\n      add\n      swap1\n      tag_129\n      swap2\n      swap1\n      tag_130\n      jump\t// in\n    tag_129:\n        /* \"Donee.sol\":2798:3011  (... */\n      pop\n      pop\n      pop\n      swap2\n      pop\n      pop\n        /* \"Donee.sol\":3029:3034  price */\n      dup1\n        /* \"Donee.sol\":3022:3034  return price */\n      swap2\n      pop\n      pop\n        /* \"Donee.sol\":2735:3042  function getLatestPrice() public view returns (int) {... */\n      swap1\n      jump\t// out\n        /* \"Donee.sol\":1582:1898  function donate() external payable {... */\n    tag_63:\n        /* \"Donee.sol\":1628:1652  Donation memory donation */\n      0x00\n        /* \"Donee.sol\":1655:1708  Donation({ value: msg.value, date: block.timestamp }) */\n      mload(0x40)\n      dup1\n      0x40\n      add\n      0x40\n      mstore\n      dup1\n        /* \"Donee.sol\":1673:1682  msg.value */\n      callvalue\n        /* \"Donee.sol\":1655:1708  Donation({ value: msg.value, date: block.timestamp }) */\n      dup2\n      mstore\n      0x20\n      add\n        /* \"Donee.sol\":1690:1705  block.timestamp */\n      timestamp\n        /* \"Donee.sol\":1655:1708  Donation({ value: msg.value, date: block.timestamp }) */\n      dup2\n      mstore\n      pop\n        /* \"Donee.sol\":1628:1708  Donation memory donation = Donation({ value: msg.value, date: block.timestamp }) */\n      swap1\n      pop\n        /* \"Donee.sol\":1719:1729  _donations */\n      0x01\n        /* \"Donee.sol\":1719:1741  _donations[msg.sender] */\n      0x00\n        /* \"Donee.sol\":1730:1740  msg.sender */\n      caller\n        /* \"Donee.sol\":1719:1741  _donations[msg.sender] */\n      0xffffffffffffffffffffffffffffffffffffffff\n      and\n      0xffffffffffffffffffffffffffffffffffffffff\n      and\n      dup2\n      mstore\n      0x20\n      add\n      swap1\n      dup2\n      mstore\n      0x20\n      add\n      0x00\n      keccak256\n        /* \"Donee.sol\":1747:1755  donation */\n      dup2\n        /* \"Donee.sol\":1719:1756  _donations[msg.sender].push(donation) */\n      swap1\n      dup1\n      0x01\n      dup2\n      sload\n      add\n      dup1\n      dup3\n      sstore\n      dup1\n      swap2\n      pop\n      pop\n      0x01\n      swap1\n      sub\n      swap1\n      0x00\n      mstore\n      keccak256(0x00, 0x20)\n      swap1\n      0x02\n      mul\n      add\n      0x00\n      swap1\n      swap2\n      swap1\n      swap2\n      swap1\n      swap2\n      pop\n      0x00\n      dup3\n      add\n      mload\n      dup2\n      0x00\n      add\n      sstore\n      0x20\n      dup3\n      add\n      mload\n      dup2\n      0x01\n      add\n      sstore\n      pop\n      pop\n        /* \"Donee.sol\":1777:1786  msg.value */\n      callvalue\n        /* \"Donee.sol\":1767:1773  raised */\n      0x02\n      0x00\n        /* \"Donee.sol\":1767:1786  raised += msg.value */\n      dup3\n      dup3\n      sload\n      tag_133\n      swap2\n      swap1\n      tag_89\n      jump\t// in\n    tag_133:\n      swap3\n      pop\n      pop\n      dup2\n      swap1\n      sstore\n      pop\n        /* \"Donee.sol\":1819:1820  1 */\n      0x01\n        /* \"Donee.sol\":1797:1815  totalDonationCount */\n      0x03\n      0x00\n        /* \"Donee.sol\":1797:1820  totalDonationCount += 1 */\n      dup3\n      dup3\n      sload\n      tag_134\n      swap2\n      swap1\n      tag_89\n      jump\t// in\n    tag_134:\n      swap3\n      pop\n      pop\n      dup2\n      swap1\n      sstore\n      pop\n        /* \"Donee.sol\":1836:1890  donationReceived(msg.sender, msg.value, address(this)) */\n      0x3f9463701f02c04940786052d9e8b9aabc9b0405f93ff6ef189265f5f51ee089\n        /* \"Donee.sol\":1853:1863  msg.sender */\n      caller\n        /* \"Donee.sol\":1865:1874  msg.value */\n      callvalue\n        /* \"Donee.sol\":1884:1888  this */\n      address\n        /* \"Donee.sol\":1836:1890  donationReceived(msg.sender, msg.value, address(this)) */\n      mload(0x40)\n      tag_135\n      swap4\n      swap3\n      swap2\n      swap1\n      tag_136\n      jump\t// in\n    tag_135:\n      mload(0x40)\n      dup1\n      swap2\n      sub\n      swap1\n      log1\n        /* \"Donee.sol\":1617:1898  {... */\n      pop\n        /* \"Donee.sol\":1582:1898  function donate() external payable {... */\n      jump\t// out\n        /* \"Donee.sol\":370:391  uint256 public raised */\n    tag_66:\n      sload(0x02)\n      dup2\n      jump\t// out\n        /* \"@openzeppelin/contracts/access/Ownable.sol\":2543:2758  function transferOwnership(address newOwner) public virtual onlyOwner {... */\n    tag_72:\n        /* \"@openzeppelin/contracts/access/Ownable.sol\":1531:1544  _checkOwner() */\n      tag_138\n        /* \"@openzeppelin/contracts/access/Ownable.sol\":1531:1542  _checkOwner */\n      tag_86\n        /* \"@openzeppelin/contracts/access/Ownable.sol\":1531:1544  _checkOwner() */\n      jump\t// in\n    tag_138:\n        /* \"@openzeppelin/contracts/access/Ownable.sol\":2647:2648  0 */\n      0x00\n        /* \"@openzeppelin/contracts/access/Ownable.sol\":2627:2649  newOwner == address(0) */\n      0xffffffffffffffffffffffffffffffffffffffff\n      and\n        /* \"@openzeppelin/contracts/access/Ownable.sol\":2627:2635  newOwner */\n      dup2\n        /* \"@openzeppelin/contracts/access/Ownable.sol\":2627:2649  newOwner == address(0) */\n      0xffffffffffffffffffffffffffffffffffffffff\n      and\n      sub\n        /* \"@openzeppelin/contracts/access/Ownable.sol\":2623:2714  if (newOwner == address(0)) {... */\n      tag_140\n      jumpi\n        /* \"@openzeppelin/contracts/access/Ownable.sol\":2700:2701  0 */\n      0x00\n        /* \"@openzeppelin/contracts/access/Ownable.sol\":2672:2703  OwnableInvalidOwner(address(0)) */\n      mload(0x40)\n      0x1e4fbdf700000000000000000000000000000000000000000000000000000000\n      dup2\n      mstore\n      0x04\n      add\n      tag_141\n      swap2\n      swap1\n      tag_56\n      jump\t// in\n    tag_141:\n      mload(0x40)\n      dup1\n      swap2\n      sub\n      swap1\n      revert\n        /* \"@openzeppelin/contracts/access/Ownable.sol\":2623:2714  if (newOwner == address(0)) {... */\n    tag_140:\n        /* \"@openzeppelin/contracts/access/Ownable.sol\":2723:2751  _transferOwnership(newOwner) */\n      tag_142\n        /* \"@openzeppelin/contracts/access/Ownable.sol\":2742:2750  newOwner */\n      dup2\n        /* \"@openzeppelin/contracts/access/Ownable.sol\":2723:2741  _transferOwnership */\n      tag_119\n        /* \"@openzeppelin/contracts/access/Ownable.sol\":2723:2751  _transferOwnership(newOwner) */\n      jump\t// in\n    tag_142:\n        /* \"@openzeppelin/contracts/access/Ownable.sol\":2543:2758  function transferOwnership(address newOwner) public virtual onlyOwner {... */\n      pop\n      jump\t// out\n        /* \"Donee.sol\":1906:2371  function myHistory() external view returns (uint256[] memory values, uint256[] memory dates) {... */\n    tag_75:\n        /* \"Donee.sol\":1950:1973  uint256[] memory values */\n      0x60\n        /* \"Donee.sol\":1975:1997  uint256[] memory dates */\n      dup1\n        /* \"Donee.sol\":2010:2023  uint256 count */\n      0x00\n        /* \"Donee.sol\":2026:2041  donationCount() */\n      tag_144\n        /* \"Donee.sol\":2026:2039  donationCount */\n      tag_145\n        /* \"Donee.sol\":2026:2041  donationCount() */\n      jump\t// in\n    tag_144:\n        /* \"Donee.sol\":2010:2041  uint256 count = donationCount() */\n      swap1\n      pop\n        /* \"Donee.sol\":2075:2080  count */\n      dup1\n        /* \"Donee.sol\":2061:2081  new uint256[](count) */\n      0xffffffffffffffff\n      dup2\n      gt\n      iszero\n      tag_146\n      jumpi\n      tag_147\n      tag_148\n      jump\t// in\n    tag_147:\n    tag_146:\n      mload(0x40)\n      swap1\n      dup1\n      dup3\n      mstore\n      dup1\n      0x20\n      mul\n      0x20\n      add\n      dup3\n      add\n      0x40\n      mstore\n      dup1\n      iszero\n      tag_149\n      jumpi\n      dup2\n      0x20\n      add\n      0x20\n      dup3\n      mul\n      dup1\n      calldatasize\n      dup4\n      calldatacopy\n      dup1\n      dup3\n      add\n      swap2\n      pop\n      pop\n      swap1\n      pop\n    tag_149:\n      pop\n        /* \"Donee.sol\":2052:2081  values = new uint256[](count) */\n      swap3\n      pop\n        /* \"Donee.sol\":2114:2119  count */\n      dup1\n        /* \"Donee.sol\":2100:2120  new uint256[](count) */\n      0xffffffffffffffff\n      dup2\n      gt\n      iszero\n      tag_150\n      jumpi\n      tag_151\n      tag_148\n      jump\t// in\n    tag_151:\n    tag_150:\n      mload(0x40)\n      swap1\n      dup1\n      dup3\n      mstore\n      dup1\n      0x20\n      mul\n      0x20\n      add\n      dup3\n      add\n      0x40\n      mstore\n      dup1\n      iszero\n      tag_152\n      jumpi\n      dup2\n      0x20\n      add\n      0x20\n      dup3\n      mul\n      dup1\n      calldatasize\n      dup4\n      calldatacopy\n      dup1\n      dup3\n      add\n      swap2\n      pop\n      pop\n      swap1\n      pop\n    tag_152:\n      pop\n        /* \"Donee.sol\":2092:2120  dates = new uint256[](count) */\n      swap2\n      pop\n        /* \"Donee.sol\":2138:2147  uint256 i */\n      0x00\n        /* \"Donee.sol\":2133:2329  for (uint256 i = 0; i < count; i++) {... */\n    tag_153:\n        /* \"Donee.sol\":2157:2162  count */\n      dup2\n        /* \"Donee.sol\":2153:2154  i */\n      dup2\n        /* \"Donee.sol\":2153:2162  i < count */\n      lt\n        /* \"Donee.sol\":2133:2329  for (uint256 i = 0; i < count; i++) {... */\n      iszero\n      tag_154\n      jumpi\n        /* \"Donee.sol\":2184:2209  Donation storage donation */\n      0x00\n        /* \"Donee.sol\":2212:2222  _donations */\n      0x01\n        /* \"Donee.sol\":2212:2234  _donations[msg.sender] */\n      0x00\n        /* \"Donee.sol\":2223:2233  msg.sender */\n      caller\n        /* \"Donee.sol\":2212:2234  _donations[msg.sender] */\n      0xffffffffffffffffffffffffffffffffffffffff\n      and\n      0xffffffffffffffffffffffffffffffffffffffff\n      and\n      dup2\n      mstore\n      0x20\n      add\n      swap1\n      dup2\n      mstore\n      0x20\n      add\n      0x00\n      keccak256\n        /* \"Donee.sol\":2235:2236  i */\n      dup3\n        /* \"Donee.sol\":2212:2237  _donations[msg.sender][i] */\n      dup2\n      sload\n      dup2\n      lt\n      tag_156\n      jumpi\n      tag_157\n      tag_158\n      jump\t// in\n    tag_157:\n    tag_156:\n      swap1\n      0x00\n      mstore\n      keccak256(0x00, 0x20)\n      swap1\n      0x02\n      mul\n      add\n        /* \"Donee.sol\":2184:2237  Donation storage donation = _donations[msg.sender][i] */\n      swap1\n      pop\n        /* \"Donee.sol\":2264:2272  donation */\n      dup1\n        /* \"Donee.sol\":2264:2278  donation.value */\n      0x00\n      add\n      sload\n        /* \"Donee.sol\":2252:2258  values */\n      dup6\n        /* \"Donee.sol\":2259:2260  i */\n      dup4\n        /* \"Donee.sol\":2252:2261  values[i] */\n      dup2\n      mload\n      dup2\n      lt\n      tag_160\n      jumpi\n      tag_161\n      tag_158\n      jump\t// in\n    tag_161:\n    tag_160:\n      0x20\n      mul\n      0x20\n      add\n      add\n        /* \"Donee.sol\":2252:2278  values[i] = donation.value */\n      dup2\n      dup2\n      mstore\n      pop\n      pop\n        /* \"Donee.sol\":2304:2312  donation */\n      dup1\n        /* \"Donee.sol\":2304:2317  donation.date */\n      0x01\n      add\n      sload\n        /* \"Donee.sol\":2293:2298  dates */\n      dup5\n        /* \"Donee.sol\":2299:2300  i */\n      dup4\n        /* \"Donee.sol\":2293:2301  dates[i] */\n      dup2\n      mload\n      dup2\n      lt\n      tag_162\n      jumpi\n      tag_163\n      tag_158\n      jump\t// in\n    tag_163:\n    tag_162:\n      0x20\n      mul\n      0x20\n      add\n      add\n        /* \"Donee.sol\":2293:2317  dates[i] = donation.date */\n      dup2\n      dup2\n      mstore\n      pop\n      pop\n        /* \"Donee.sol\":2169:2329  {... */\n      pop\n        /* \"Donee.sol\":2164:2167  i++ */\n      dup1\n      dup1\n      0x01\n      add\n      swap2\n      pop\n      pop\n        /* \"Donee.sol\":2133:2329  for (uint256 i = 0; i < count; i++) {... */\n      jump(tag_153)\n    tag_154:\n      pop\n        /* \"Donee.sol\":2341:2363  return (values, dates) */\n      pop\n        /* \"Donee.sol\":1906:2371  function myHistory() external view returns (uint256[] memory values, uint256[] memory dates) {... */\n      swap1\n      swap2\n      jump\t// out\n        /* \"@openzeppelin/contracts/access/Ownable.sol\":1796:1958  function _checkOwner() internal view virtual {... */\n    tag_86:\n        /* \"@openzeppelin/contracts/access/Ownable.sol\":1866:1878  _msgSender() */\n      tag_165\n        /* \"@openzeppelin/contracts/access/Ownable.sol\":1866:1876  _msgSender */\n      tag_166\n        /* \"@openzeppelin/contracts/access/Ownable.sol\":1866:1878  _msgSender() */\n      jump\t// in\n    tag_165:\n        /* \"@openzeppelin/contracts/access/Ownable.sol\":1855:1878  owner() != _msgSender() */\n      0xffffffffffffffffffffffffffffffffffffffff\n      and\n        /* \"@openzeppelin/contracts/access/Ownable.sol\":1855:1862  owner() */\n      tag_167\n        /* \"@openzeppelin/contracts/access/Ownable.sol\":1855:1860  owner */\n      tag_54\n        /* \"@openzeppelin/contracts/access/Ownable.sol\":1855:1862  owner() */\n      jump\t// in\n    tag_167:\n        /* \"@openzeppelin/contracts/access/Ownable.sol\":1855:1878  owner() != _msgSender() */\n      0xffffffffffffffffffffffffffffffffffffffff\n      and\n      eq\n        /* \"@openzeppelin/contracts/access/Ownable.sol\":1851:1952  if (owner() != _msgSender()) {... */\n      tag_168\n      jumpi\n        /* \"@openzeppelin/contracts/access/Ownable.sol\":1928:1940  _msgSender() */\n      tag_169\n        /* \"@openzeppelin/contracts/access/Ownable.sol\":1928:1938  _msgSender */\n      tag_166\n        /* \"@openzeppelin/contracts/access/Ownable.sol\":1928:1940  _msgSender() */\n      jump\t// in\n    tag_169:\n        /* \"@openzeppelin/contracts/access/Ownable.sol\":1901:1941  OwnableUnauthorizedAccount(_msgSender()) */\n      mload(0x40)\n      0x118cdaa700000000000000000000000000000000000000000000000000000000\n      dup2\n      mstore\n      0x04\n      add\n      tag_170\n      swap2\n      swap1\n      tag_56\n      jump\t// in\n    tag_170:\n      mload(0x40)\n      dup1\n      swap2\n      sub\n      swap1\n      revert\n        /* \"@openzeppelin/contracts/access/Ownable.sol\":1851:1952  if (owner() != _msgSender()) {... */\n    tag_168:\n        /* \"@openzeppelin/contracts/access/Ownable.sol\":1796:1958  function _checkOwner() internal view virtual {... */\n      jump\t// out\n        /* \"@openzeppelin/contracts/access/Ownable.sol\":2912:3099  function _transferOwnership(address newOwner) internal virtual {... */\n    tag_119:\n        /* \"@openzeppelin/contracts/access/Ownable.sol\":2985:3001  address oldOwner */\n      0x00\n        /* \"@openzeppelin/contracts/access/Ownable.sol\":3004:3010  _owner */\n      dup1\n      0x00\n      swap1\n      sload\n      swap1\n      0x0100\n      exp\n      swap1\n      div\n      0xffffffffffffffffffffffffffffffffffffffff\n      and\n        /* \"@openzeppelin/contracts/access/Ownable.sol\":2985:3010  address oldOwner = _owner */\n      swap1\n      pop\n        /* \"@openzeppelin/contracts/access/Ownable.sol\":3029:3037  newOwner */\n      dup2\n        /* \"@openzeppelin/contracts/access/Ownable.sol\":3020:3026  _owner */\n      0x00\n      dup1\n        /* \"@openzeppelin/contracts/access/Ownable.sol\":3020:3037  _owner = newOwner */\n      0x0100\n      exp\n      dup2\n      sload\n      dup2\n      0xffffffffffffffffffffffffffffffffffffffff\n      mul\n      not\n      and\n      swap1\n      dup4\n      0xffffffffffffffffffffffffffffffffffffffff\n      and\n      mul\n      or\n      swap1\n      sstore\n      pop\n        /* \"@openzeppelin/contracts/access/Ownable.sol\":3083:3091  newOwner */\n      dup2\n        /* \"@openzeppelin/contracts/access/Ownable.sol\":3052:3092  OwnershipTransferred(oldOwner, newOwner) */\n      0xffffffffffffffffffffffffffffffffffffffff\n      and\n        /* \"@openzeppelin/contracts/access/Ownable.sol\":3073:3081  oldOwner */\n      dup2\n        /* \"@openzeppelin/contracts/access/Ownable.sol\":3052:3092  OwnershipTransferred(oldOwner, newOwner) */\n      0xffffffffffffffffffffffffffffffffffffffff\n      and\n      0x8be0079c531659141344cd1fd0a4f28419497f9722a3daafe3b4186f6b6457e0\n      mload(0x40)\n      mload(0x40)\n      dup1\n      swap2\n      sub\n      swap1\n      log3\n        /* \"@openzeppelin/contracts/access/Ownable.sol\":2975:3099  {... */\n      pop\n        /* \"@openzeppelin/contracts/access/Ownable.sol\":2912:3099  function _transferOwnership(address newOwner) internal virtual {... */\n      pop\n      jump\t// out\n        /* \"Donee.sol\":1463:1574  function donationCount() private view returns (uint256) {... */\n    tag_145:\n        /* \"Donee.sol\":1510:1517  uint256 */\n      0x00\n        /* \"Donee.sol\":1537:1547  _donations */\n      0x01\n        /* \"Donee.sol\":1537:1559  _donations[msg.sender] */\n      0x00\n        /* \"Donee.sol\":1548:1558  msg.sender */\n      caller\n        /* \"Donee.sol\":1537:1559  _donations[msg.sender] */\n      0xffffffffffffffffffffffffffffffffffffffff\n      and\n      0xffffffffffffffffffffffffffffffffffffffff\n      and\n      dup2\n      mstore\n      0x20\n      add\n      swap1\n      dup2\n      mstore\n      0x20\n      add\n      0x00\n      keccak256\n        /* \"Donee.sol\":1537:1566  _donations[msg.sender].length */\n      dup1\n      sload\n      swap1\n      pop\n        /* \"Donee.sol\":1530:1566  return _donations[msg.sender].length */\n      swap1\n      pop\n        /* \"Donee.sol\":1463:1574  function donationCount() private view returns (uint256) {... */\n      swap1\n      jump\t// out\n        /* \"@openzeppelin/contracts/utils/Context.sol\":656:752  function _msgSender() internal view virtual returns (address) {... */\n    tag_166:\n        /* \"@openzeppelin/contracts/utils/Context.sol\":709:716  address */\n      0x00\n        /* \"@openzeppelin/contracts/utils/Context.sol\":735:745  msg.sender */\n      caller\n        /* \"@openzeppelin/contracts/utils/Context.sol\":728:745  return msg.sender */\n      swap1\n      pop\n        /* \"@openzeppelin/contracts/utils/Context.sol\":656:752  function _msgSender() internal view virtual returns (address) {... */\n      swap1\n      jump\t// out\n        /* \"#utility.yul\":7:106   */\n    tag_174:\n        /* \"#utility.yul\":59:65   */\n      0x00\n        /* \"#utility.yul\":93:98   */\n      dup2\n        /* \"#utility.yul\":87:99   */\n      mload\n        /* \"#utility.yul\":77:99   */\n      swap1\n      pop\n        /* \"#utility.yul\":7:106   */\n      swap2\n      swap1\n      pop\n      jump\t// out\n        /* \"#utility.yul\":112:281   */\n    tag_175:\n        /* \"#utility.yul\":196:207   */\n      0x00\n        /* \"#utility.yul\":230:236   */\n      dup3\n        /* \"#utility.yul\":225:228   */\n      dup3\n        /* \"#utility.yul\":218:237   */\n      mstore\n        /* \"#utility.yul\":270:274   */\n      0x20\n        /* \"#utility.yul\":265:268   */\n      dup3\n        /* \"#utility.yul\":261:275   */\n      add\n        /* \"#utility.yul\":246:275   */\n      swap1\n      pop\n        /* \"#utility.yul\":112:281   */\n      swap3\n      swap2\n      pop\n      pop\n      jump\t// out\n        /* \"#utility.yul\":287:533   */\n    tag_176:\n        /* \"#utility.yul\":368:369   */\n      0x00\n        /* \"#utility.yul\":378:491   */\n    tag_224:\n        /* \"#utility.yul\":392:398   */\n      dup4\n        /* \"#utility.yul\":389:390   */\n      dup2\n        /* \"#utility.yul\":386:399   */\n      lt\n        /* \"#utility.yul\":378:491   */\n      iszero\n      tag_226\n      jumpi\n        /* \"#utility.yul\":477:478   */\n      dup1\n        /* \"#utility.yul\":472:475   */\n      dup3\n        /* \"#utility.yul\":468:479   */\n      add\n        /* \"#utility.yul\":462:480   */\n      mload\n        /* \"#utility.yul\":458:459   */\n      dup2\n        /* \"#utility.yul\":453:456   */\n      dup5\n        /* \"#utility.yul\":449:460   */\n      add\n        /* \"#utility.yul\":442:481   */\n      mstore\n        /* \"#utility.yul\":414:416   */\n      0x20\n        /* \"#utility.yul\":411:412   */\n      dup2\n        /* \"#utility.yul\":407:417   */\n      add\n        /* \"#utility.yul\":402:417   */\n      swap1\n      pop\n        /* \"#utility.yul\":378:491   */\n      jump(tag_224)\n    tag_226:\n        /* \"#utility.yul\":525:526   */\n      0x00\n        /* \"#utility.yul\":516:522   */\n      dup5\n        /* \"#utility.yul\":511:514   */\n      dup5\n        /* \"#utility.yul\":507:523   */\n      add\n        /* \"#utility.yul\":500:527   */\n      mstore\n        /* \"#utility.yul\":349:533   */\n      pop\n        /* \"#utility.yul\":287:533   */\n      pop\n      pop\n      pop\n      jump\t// out\n        /* \"#utility.yul\":539:641   */\n    tag_177:\n        /* \"#utility.yul\":580:586   */\n      0x00\n        /* \"#utility.yul\":631:633   */\n      0x1f\n        /* \"#utility.yul\":627:634   */\n      not\n        /* \"#utility.yul\":622:624   */\n      0x1f\n        /* \"#utility.yul\":615:620   */\n      dup4\n        /* \"#utility.yul\":611:625   */\n      add\n        /* \"#utility.yul\":607:635   */\n      and\n        /* \"#utility.yul\":597:635   */\n      swap1\n      pop\n        /* \"#utility.yul\":539:641   */\n      swap2\n      swap1\n      pop\n      jump\t// out\n        /* \"#utility.yul\":647:1024   */\n    tag_178:\n        /* \"#utility.yul\":735:738   */\n      0x00\n        /* \"#utility.yul\":763:802   */\n      tag_229\n        /* \"#utility.yul\":796:801   */\n      dup3\n        /* \"#utility.yul\":763:802   */\n      tag_174\n      jump\t// in\n    tag_229:\n        /* \"#utility.yul\":818:889   */\n      tag_230\n        /* \"#utility.yul\":882:888   */\n      dup2\n        /* \"#utility.yul\":877:880   */\n      dup6\n        /* \"#utility.yul\":818:889   */\n      tag_175\n      jump\t// in\n    tag_230:\n        /* \"#utility.yul\":811:889   */\n      swap4\n      pop\n        /* \"#utility.yul\":898:963   */\n      tag_231\n        /* \"#utility.yul\":956:962   */\n      dup2\n        /* \"#utility.yul\":951:954   */\n      dup6\n        /* \"#utility.yul\":944:948   */\n      0x20\n        /* \"#utility.yul\":937:942   */\n      dup7\n        /* \"#utility.yul\":933:949   */\n      add\n        /* \"#utility.yul\":898:963   */\n      tag_176\n      jump\t// in\n    tag_231:\n        /* \"#utility.yul\":988:1017   */\n      tag_232\n        /* \"#utility.yul\":1010:1016   */\n      dup2\n        /* \"#utility.yul\":988:1017   */\n      tag_177\n      jump\t// in\n    tag_232:\n        /* \"#utility.yul\":983:986   */\n      dup5\n        /* \"#utility.yul\":979:1018   */\n      add\n        /* \"#utility.yul\":972:1018   */\n      swap2\n      pop\n        /* \"#utility.yul\":739:1024   */\n      pop\n        /* \"#utility.yul\":647:1024   */\n      swap3\n      swap2\n      pop\n      pop\n      jump\t// out\n        /* \"#utility.yul\":1030:1343   */\n    tag_23:\n        /* \"#utility.yul\":1143:1147   */\n      0x00\n        /* \"#utility.yul\":1181:1183   */\n      0x20\n        /* \"#utility.yul\":1170:1179   */\n      dup3\n        /* \"#utility.yul\":1166:1184   */\n      add\n        /* \"#utility.yul\":1158:1184   */\n      swap1\n      pop\n        /* \"#utility.yul\":1230:1239   */\n      dup2\n        /* \"#utility.yul\":1224:1228   */\n      dup2\n        /* \"#utility.yul\":1220:1240   */\n      sub\n        /* \"#utility.yul\":1216:1217   */\n      0x00\n        /* \"#utility.yul\":1205:1214   */\n      dup4\n        /* \"#utility.yul\":1201:1218   */\n      add\n        /* \"#utility.yul\":1194:1241   */\n      mstore\n        /* \"#utility.yul\":1258:1336   */\n      tag_234\n        /* \"#utility.yul\":1331:1335   */\n      dup2\n        /* \"#utility.yul\":1322:1328   */\n      dup5\n        /* \"#utility.yul\":1258:1336   */\n      tag_178\n      jump\t// in\n    tag_234:\n        /* \"#utility.yul\":1250:1336   */\n      swap1\n      pop\n        /* \"#utility.yul\":1030:1343   */\n      swap3\n      swap2\n      pop\n      pop\n      jump\t// out\n        /* \"#utility.yul\":1349:1426   */\n    tag_179:\n        /* \"#utility.yul\":1386:1393   */\n      0x00\n        /* \"#utility.yul\":1415:1420   */\n      dup2\n        /* \"#utility.yul\":1404:1420   */\n      swap1\n      pop\n        /* \"#utility.yul\":1349:1426   */\n      swap2\n      swap1\n      pop\n      jump\t// out\n        /* \"#utility.yul\":1432:1550   */\n    tag_180:\n        /* \"#utility.yul\":1519:1543   */\n      tag_237\n        /* \"#utility.yul\":1537:1542   */\n      dup2\n        /* \"#utility.yul\":1519:1543   */\n      tag_179\n      jump\t// in\n    tag_237:\n        /* \"#utility.yul\":1514:1517   */\n      dup3\n        /* \"#utility.yul\":1507:1544   */\n      mstore\n        /* \"#utility.yul\":1432:1550   */\n      pop\n      pop\n      jump\t// out\n        /* \"#utility.yul\":1556:1778   */\n    tag_28:\n        /* \"#utility.yul\":1649:1653   */\n      0x00\n        /* \"#utility.yul\":1687:1689   */\n      0x20\n        /* \"#utility.yul\":1676:1685   */\n      dup3\n        /* \"#utility.yul\":1672:1690   */\n      add\n        /* \"#utility.yul\":1664:1690   */\n      swap1\n      pop\n        /* \"#utility.yul\":1700:1771   */\n      tag_239\n        /* \"#utility.yul\":1768:1769   */\n      0x00\n        /* \"#utility.yul\":1757:1766   */\n      dup4\n        /* \"#utility.yul\":1753:1770   */\n      add\n        /* \"#utility.yul\":1744:1750   */\n      dup5\n        /* \"#utility.yul\":1700:1771   */\n      tag_180\n      jump\t// in\n    tag_239:\n        /* \"#utility.yul\":1556:1778   */\n      swap3\n      swap2\n      pop\n      pop\n      jump\t// out\n        /* \"#utility.yul\":1865:1982   */\n    tag_182:\n        /* \"#utility.yul\":1974:1975   */\n      0x00\n        /* \"#utility.yul\":1971:1972   */\n      dup1\n        /* \"#utility.yul\":1964:1976   */\n      revert\n        /* \"#utility.yul\":2111:2237   */\n    tag_184:\n        /* \"#utility.yul\":2148:2155   */\n      0x00\n        /* \"#utility.yul\":2188:2230   */\n      0xffffffffffffffffffffffffffffffffffffffff\n        /* \"#utility.yul\":2181:2186   */\n      dup3\n        /* \"#utility.yul\":2177:2231   */\n      and\n        /* \"#utility.yul\":2166:2231   */\n      swap1\n      pop\n        /* \"#utility.yul\":2111:2237   */\n      swap2\n      swap1\n      pop\n      jump\t// out\n        /* \"#utility.yul\":2243:2347   */\n    tag_185:\n        /* \"#utility.yul\":2288:2295   */\n      0x00\n        /* \"#utility.yul\":2317:2341   */\n      tag_245\n        /* \"#utility.yul\":2335:2340   */\n      dup3\n        /* \"#utility.yul\":2317:2341   */\n      tag_184\n      jump\t// in\n    tag_245:\n        /* \"#utility.yul\":2306:2341   */\n      swap1\n      pop\n        /* \"#utility.yul\":2243:2347   */\n      swap2\n      swap1\n      pop\n      jump\t// out\n        /* \"#utility.yul\":2353:2491   */\n    tag_186:\n        /* \"#utility.yul\":2434:2466   */\n      tag_247\n        /* \"#utility.yul\":2460:2465   */\n      dup2\n        /* \"#utility.yul\":2434:2466   */\n      tag_185\n      jump\t// in\n    tag_247:\n        /* \"#utility.yul\":2427:2432   */\n      dup2\n        /* \"#utility.yul\":2424:2467   */\n      eq\n        /* \"#utility.yul\":2414:2485   */\n      tag_248\n      jumpi\n        /* \"#utility.yul\":2481:2482   */\n      0x00\n        /* \"#utility.yul\":2478:2479   */\n      dup1\n        /* \"#utility.yul\":2471:2483   */\n      revert\n        /* \"#utility.yul\":2414:2485   */\n    tag_248:\n        /* \"#utility.yul\":2353:2491   */\n      pop\n      jump\t// out\n        /* \"#utility.yul\":2497:2652   */\n    tag_187:\n        /* \"#utility.yul\":2551:2556   */\n      0x00\n        /* \"#utility.yul\":2589:2595   */\n      dup2\n        /* \"#utility.yul\":2576:2596   */\n      calldataload\n        /* \"#utility.yul\":2567:2596   */\n      swap1\n      pop\n        /* \"#utility.yul\":2605:2646   */\n      tag_250\n        /* \"#utility.yul\":2640:2645   */\n      dup2\n        /* \"#utility.yul\":2605:2646   */\n      tag_186\n      jump\t// in\n    tag_250:\n        /* \"#utility.yul\":2497:2652   */\n      swap3\n      swap2\n      pop\n      pop\n      jump\t// out\n        /* \"#utility.yul\":2658:3003   */\n    tag_32:\n        /* \"#utility.yul\":2725:2731   */\n      0x00\n        /* \"#utility.yul\":2774:2776   */\n      0x20\n        /* \"#utility.yul\":2762:2771   */\n      dup3\n        /* \"#utility.yul\":2753:2760   */\n      dup5\n        /* \"#utility.yul\":2749:2772   */\n      sub\n        /* \"#utility.yul\":2745:2777   */\n      slt\n        /* \"#utility.yul\":2742:2861   */\n      iszero\n      tag_252\n      jumpi\n        /* \"#utility.yul\":2780:2859   */\n      tag_253\n      tag_182\n      jump\t// in\n    tag_253:\n        /* \"#utility.yul\":2742:2861   */\n    tag_252:\n        /* \"#utility.yul\":2900:2901   */\n      0x00\n        /* \"#utility.yul\":2925:2986   */\n      tag_254\n        /* \"#utility.yul\":2978:2985   */\n      dup5\n        /* \"#utility.yul\":2969:2975   */\n      dup3\n        /* \"#utility.yul\":2958:2967   */\n      dup6\n        /* \"#utility.yul\":2954:2976   */\n      add\n        /* \"#utility.yul\":2925:2986   */\n      tag_187\n      jump\t// in\n    tag_254:\n        /* \"#utility.yul\":2915:2986   */\n      swap2\n      pop\n        /* \"#utility.yul\":2871:2996   */\n      pop\n        /* \"#utility.yul\":2658:3003   */\n      swap3\n      swap2\n      pop\n      pop\n      jump\t// out\n        /* \"#utility.yul\":3009:3105   */\n    tag_188:\n        /* \"#utility.yul\":3046:3053   */\n      0x00\n        /* \"#utility.yul\":3075:3099   */\n      tag_256\n        /* \"#utility.yul\":3093:3098   */\n      dup3\n        /* \"#utility.yul\":3075:3099   */\n      tag_184\n      jump\t// in\n    tag_256:\n        /* \"#utility.yul\":3064:3099   */\n      swap1\n      pop\n        /* \"#utility.yul\":3009:3105   */\n      swap2\n      swap1\n      pop\n      jump\t// out\n        /* \"#utility.yul\":3111:3229   */\n    tag_189:\n        /* \"#utility.yul\":3198:3222   */\n      tag_258\n        /* \"#utility.yul\":3216:3221   */\n      dup2\n        /* \"#utility.yul\":3198:3222   */\n      tag_188\n      jump\t// in\n    tag_258:\n        /* \"#utility.yul\":3193:3196   */\n      dup3\n        /* \"#utility.yul\":3186:3223   */\n      mstore\n        /* \"#utility.yul\":3111:3229   */\n      pop\n      pop\n      jump\t// out\n        /* \"#utility.yul\":3235:3457   */\n    tag_56:\n        /* \"#utility.yul\":3328:3332   */\n      0x00\n        /* \"#utility.yul\":3366:3368   */\n      0x20\n        /* \"#utility.yul\":3355:3364   */\n      dup3\n        /* \"#utility.yul\":3351:3369   */\n      add\n        /* \"#utility.yul\":3343:3369   */\n      swap1\n      pop\n        /* \"#utility.yul\":3379:3450   */\n      tag_260\n        /* \"#utility.yul\":3447:3448   */\n      0x00\n        /* \"#utility.yul\":3436:3445   */\n      dup4\n        /* \"#utility.yul\":3432:3449   */\n      add\n        /* \"#utility.yul\":3423:3429   */\n      dup5\n        /* \"#utility.yul\":3379:3450   */\n      tag_189\n      jump\t// in\n    tag_260:\n        /* \"#utility.yul\":3235:3457   */\n      swap3\n      swap2\n      pop\n      pop\n      jump\t// out\n        /* \"#utility.yul\":3463:3539   */\n    tag_190:\n        /* \"#utility.yul\":3499:3506   */\n      0x00\n        /* \"#utility.yul\":3528:3533   */\n      dup2\n        /* \"#utility.yul\":3517:3533   */\n      swap1\n      pop\n        /* \"#utility.yul\":3463:3539   */\n      swap2\n      swap1\n      pop\n      jump\t// out\n        /* \"#utility.yul\":3545:3660   */\n    tag_191:\n        /* \"#utility.yul\":3630:3653   */\n      tag_263\n        /* \"#utility.yul\":3647:3652   */\n      dup2\n        /* \"#utility.yul\":3630:3653   */\n      tag_190\n      jump\t// in\n    tag_263:\n        /* \"#utility.yul\":3625:3628   */\n      dup3\n        /* \"#utility.yul\":3618:3654   */\n      mstore\n        /* \"#utility.yul\":3545:3660   */\n      pop\n      pop\n      jump\t// out\n        /* \"#utility.yul\":3666:3884   */\n    tag_61:\n        /* \"#utility.yul\":3757:3761   */\n      0x00\n        /* \"#utility.yul\":3795:3797   */\n      0x20\n        /* \"#utility.yul\":3784:3793   */\n      dup3\n        /* \"#utility.yul\":3780:3798   */\n      add\n        /* \"#utility.yul\":3772:3798   */\n      swap1\n      pop\n        /* \"#utility.yul\":3808:3877   */\n      tag_265\n        /* \"#utility.yul\":3874:3875   */\n      0x00\n        /* \"#utility.yul\":3863:3872   */\n      dup4\n        /* \"#utility.yul\":3859:3876   */\n      add\n        /* \"#utility.yul\":3850:3856   */\n      dup5\n        /* \"#utility.yul\":3808:3877   */\n      tag_191\n      jump\t// in\n    tag_265:\n        /* \"#utility.yul\":3666:3884   */\n      swap3\n      swap2\n      pop\n      pop\n      jump\t// out\n        /* \"#utility.yul\":3890:4012   */\n    tag_192:\n        /* \"#utility.yul\":3963:3987   */\n      tag_267\n        /* \"#utility.yul\":3981:3986   */\n      dup2\n        /* \"#utility.yul\":3963:3987   */\n      tag_188\n      jump\t// in\n    tag_267:\n        /* \"#utility.yul\":3956:3961   */\n      dup2\n        /* \"#utility.yul\":3953:3988   */\n      eq\n        /* \"#utility.yul\":3943:4006   */\n      tag_268\n      jumpi\n        /* \"#utility.yul\":4002:4003   */\n      0x00\n        /* \"#utility.yul\":3999:4000   */\n      dup1\n        /* \"#utility.yul\":3992:4004   */\n      revert\n        /* \"#utility.yul\":3943:4006   */\n    tag_268:\n        /* \"#utility.yul\":3890:4012   */\n      pop\n      jump\t// out\n        /* \"#utility.yul\":4018:4157   */\n    tag_193:\n        /* \"#utility.yul\":4064:4069   */\n      0x00\n        /* \"#utility.yul\":4102:4108   */\n      dup2\n        /* \"#utility.yul\":4089:4109   */\n      calldataload\n        /* \"#utility.yul\":4080:4109   */\n      swap1\n      pop\n        /* \"#utility.yul\":4118:4151   */\n      tag_270\n        /* \"#utility.yul\":4145:4150   */\n      dup2\n        /* \"#utility.yul\":4118:4151   */\n      tag_192\n      jump\t// in\n    tag_270:\n        /* \"#utility.yul\":4018:4157   */\n      swap3\n      swap2\n      pop\n      pop\n      jump\t// out\n        /* \"#utility.yul\":4163:4492   */\n    tag_71:\n        /* \"#utility.yul\":4222:4228   */\n      0x00\n        /* \"#utility.yul\":4271:4273   */\n      0x20\n        /* \"#utility.yul\":4259:4268   */\n      dup3\n        /* \"#utility.yul\":4250:4257   */\n      dup5\n        /* \"#utility.yul\":4246:4269   */\n      sub\n        /* \"#utility.yul\":4242:4274   */\n      slt\n        /* \"#utility.yul\":4239:4358   */\n      iszero\n      tag_272\n      jumpi\n        /* \"#utility.yul\":4277:4356   */\n      tag_273\n      tag_182\n      jump\t// in\n    tag_273:\n        /* \"#utility.yul\":4239:4358   */\n    tag_272:\n        /* \"#utility.yul\":4397:4398   */\n      0x00\n        /* \"#utility.yul\":4422:4475   */\n      tag_274\n        /* \"#utility.yul\":4467:4474   */\n      dup5\n        /* \"#utility.yul\":4458:4464   */\n      dup3\n        /* \"#utility.yul\":4447:4456   */\n      dup6\n        /* \"#utility.yul\":4443:4465   */\n      add\n        /* \"#utility.yul\":4422:4475   */\n      tag_193\n      jump\t// in\n    tag_274:\n        /* \"#utility.yul\":4412:4475   */\n      swap2\n      pop\n        /* \"#utility.yul\":4368:4485   */\n      pop\n        /* \"#utility.yul\":4163:4492   */\n      swap3\n      swap2\n      pop\n      pop\n      jump\t// out\n        /* \"#utility.yul\":4498:4612   */\n    tag_194:\n        /* \"#utility.yul\":4565:4571   */\n      0x00\n        /* \"#utility.yul\":4599:4604   */\n      dup2\n        /* \"#utility.yul\":4593:4605   */\n      mload\n        /* \"#utility.yul\":4583:4605   */\n      swap1\n      pop\n        /* \"#utility.yul\":4498:4612   */\n      swap2\n      swap1\n      pop\n      jump\t// out\n        /* \"#utility.yul\":4618:4802   */\n    tag_195:\n        /* \"#utility.yul\":4717:4728   */\n      0x00\n        /* \"#utility.yul\":4751:4757   */\n      dup3\n        /* \"#utility.yul\":4746:4749   */\n      dup3\n        /* \"#utility.yul\":4739:4758   */\n      mstore\n        /* \"#utility.yul\":4791:4795   */\n      0x20\n        /* \"#utility.yul\":4786:4789   */\n      dup3\n        /* \"#utility.yul\":4782:4796   */\n      add\n        /* \"#utility.yul\":4767:4796   */\n      swap1\n      pop\n        /* \"#utility.yul\":4618:4802   */\n      swap3\n      swap2\n      pop\n      pop\n      jump\t// out\n        /* \"#utility.yul\":4808:4940   */\n    tag_196:\n        /* \"#utility.yul\":4875:4879   */\n      0x00\n        /* \"#utility.yul\":4898:4901   */\n      dup2\n        /* \"#utility.yul\":4890:4901   */\n      swap1\n      pop\n        /* \"#utility.yul\":4928:4932   */\n      0x20\n        /* \"#utility.yul\":4923:4926   */\n      dup3\n        /* \"#utility.yul\":4919:4933   */\n      add\n        /* \"#utility.yul\":4911:4933   */\n      swap1\n      pop\n        /* \"#utility.yul\":4808:4940   */\n      swap2\n      swap1\n      pop\n      jump\t// out\n        /* \"#utility.yul\":4946:5054   */\n    tag_197:\n        /* \"#utility.yul\":5023:5047   */\n      tag_279\n        /* \"#utility.yul\":5041:5046   */\n      dup2\n        /* \"#utility.yul\":5023:5047   */\n      tag_179\n      jump\t// in\n    tag_279:\n        /* \"#utility.yul\":5018:5021   */\n      dup3\n        /* \"#utility.yul\":5011:5048   */\n      mstore\n        /* \"#utility.yul\":4946:5054   */\n      pop\n      pop\n      jump\t// out\n        /* \"#utility.yul\":5060:5239   */\n    tag_198:\n        /* \"#utility.yul\":5129:5139   */\n      0x00\n        /* \"#utility.yul\":5150:5196   */\n      tag_281\n        /* \"#utility.yul\":5192:5195   */\n      dup4\n        /* \"#utility.yul\":5184:5190   */\n      dup4\n        /* \"#utility.yul\":5150:5196   */\n      tag_197\n      jump\t// in\n    tag_281:\n        /* \"#utility.yul\":5228:5232   */\n      0x20\n        /* \"#utility.yul\":5223:5226   */\n      dup4\n        /* \"#utility.yul\":5219:5233   */\n      add\n        /* \"#utility.yul\":5205:5233   */\n      swap1\n      pop\n        /* \"#utility.yul\":5060:5239   */\n      swap3\n      swap2\n      pop\n      pop\n      jump\t// out\n        /* \"#utility.yul\":5245:5358   */\n    tag_199:\n        /* \"#utility.yul\":5315:5319   */\n      0x00\n        /* \"#utility.yul\":5347:5351   */\n      0x20\n        /* \"#utility.yul\":5342:5345   */\n      dup3\n        /* \"#utility.yul\":5338:5352   */\n      add\n        /* \"#utility.yul\":5330:5352   */\n      swap1\n      pop\n        /* \"#utility.yul\":5245:5358   */\n      swap2\n      swap1\n      pop\n      jump\t// out\n        /* \"#utility.yul\":5394:6126   */\n    tag_200:\n        /* \"#utility.yul\":5513:5516   */\n      0x00\n        /* \"#utility.yul\":5542:5596   */\n      tag_284\n        /* \"#utility.yul\":5590:5595   */\n      dup3\n        /* \"#utility.yul\":5542:5596   */\n      tag_194\n      jump\t// in\n    tag_284:\n        /* \"#utility.yul\":5612:5698   */\n      tag_285\n        /* \"#utility.yul\":5691:5697   */\n      dup2\n        /* \"#utility.yul\":5686:5689   */\n      dup6\n        /* \"#utility.yul\":5612:5698   */\n      tag_195\n      jump\t// in\n    tag_285:\n        /* \"#utility.yul\":5605:5698   */\n      swap4\n      pop\n        /* \"#utility.yul\":5722:5778   */\n      tag_286\n        /* \"#utility.yul\":5772:5777   */\n      dup4\n        /* \"#utility.yul\":5722:5778   */\n      tag_196\n      jump\t// in\n    tag_286:\n        /* \"#utility.yul\":5801:5808   */\n      dup1\n        /* \"#utility.yul\":5832:5833   */\n      0x00\n        /* \"#utility.yul\":5817:6101   */\n    tag_287:\n        /* \"#utility.yul\":5842:5848   */\n      dup4\n        /* \"#utility.yul\":5839:5840   */\n      dup2\n        /* \"#utility.yul\":5836:5849   */\n      lt\n        /* \"#utility.yul\":5817:6101   */\n      iszero\n      tag_289\n      jumpi\n        /* \"#utility.yul\":5918:5924   */\n      dup2\n        /* \"#utility.yul\":5912:5925   */\n      mload\n        /* \"#utility.yul\":5945:6008   */\n      tag_290\n        /* \"#utility.yul\":6004:6007   */\n      dup9\n        /* \"#utility.yul\":5989:6002   */\n      dup3\n        /* \"#utility.yul\":5945:6008   */\n      tag_198\n      jump\t// in\n    tag_290:\n        /* \"#utility.yul\":5938:6008   */\n      swap8\n      pop\n        /* \"#utility.yul\":6031:6091   */\n      tag_291\n        /* \"#utility.yul\":6084:6090   */\n      dup4\n        /* \"#utility.yul\":6031:6091   */\n      tag_199\n      jump\t// in\n    tag_291:\n        /* \"#utility.yul\":6021:6091   */\n      swap3\n      pop\n        /* \"#utility.yul\":5877:6101   */\n      pop\n        /* \"#utility.yul\":5864:5865   */\n      0x01\n        /* \"#utility.yul\":5861:5862   */\n      dup2\n        /* \"#utility.yul\":5857:5866   */\n      add\n        /* \"#utility.yul\":5852:5866   */\n      swap1\n      pop\n        /* \"#utility.yul\":5817:6101   */\n      jump(tag_287)\n    tag_289:\n        /* \"#utility.yul\":5821:5835   */\n      pop\n        /* \"#utility.yul\":6117:6120   */\n      dup6\n        /* \"#utility.yul\":6110:6120   */\n      swap4\n      pop\n        /* \"#utility.yul\":5518:6126   */\n      pop\n      pop\n      pop\n        /* \"#utility.yul\":5394:6126   */\n      swap3\n      swap2\n      pop\n      pop\n      jump\t// out\n        /* \"#utility.yul\":6132:6766   */\n    tag_77:\n        /* \"#utility.yul\":6353:6357   */\n      0x00\n        /* \"#utility.yul\":6391:6393   */\n      0x40\n        /* \"#utility.yul\":6380:6389   */\n      dup3\n        /* \"#utility.yul\":6376:6394   */\n      add\n        /* \"#utility.yul\":6368:6394   */\n      swap1\n      pop\n        /* \"#utility.yul\":6440:6449   */\n      dup2\n        /* \"#utility.yul\":6434:6438   */\n      dup2\n        /* \"#utility.yul\":6430:6450   */\n      sub\n        /* \"#utility.yul\":6426:6427   */\n      0x00\n        /* \"#utility.yul\":6415:6424   */\n      dup4\n        /* \"#utility.yul\":6411:6428   */\n      add\n        /* \"#utility.yul\":6404:6451   */\n      mstore\n        /* \"#utility.yul\":6468:6576   */\n      tag_293\n        /* \"#utility.yul\":6571:6575   */\n      dup2\n        /* \"#utility.yul\":6562:6568   */\n      dup6\n        /* \"#utility.yul\":6468:6576   */\n      tag_200\n      jump\t// in\n    tag_293:\n        /* \"#utility.yul\":6460:6576   */\n      swap1\n      pop\n        /* \"#utility.yul\":6623:6632   */\n      dup2\n        /* \"#utility.yul\":6617:6621   */\n      dup2\n        /* \"#utility.yul\":6613:6633   */\n      sub\n        /* \"#utility.yul\":6608:6610   */\n      0x20\n        /* \"#utility.yul\":6597:6606   */\n      dup4\n        /* \"#utility.yul\":6593:6611   */\n      add\n        /* \"#utility.yul\":6586:6634   */\n      mstore\n        /* \"#utility.yul\":6651:6759   */\n      tag_294\n        /* \"#utility.yul\":6754:6758   */\n      dup2\n        /* \"#utility.yul\":6745:6751   */\n      dup5\n        /* \"#utility.yul\":6651:6759   */\n      tag_200\n      jump\t// in\n    tag_294:\n        /* \"#utility.yul\":6643:6759   */\n      swap1\n      pop\n        /* \"#utility.yul\":6132:6766   */\n      swap4\n      swap3\n      pop\n      pop\n      pop\n      jump\t// out\n        /* \"#utility.yul\":6772:6952   */\n    tag_201:\n        /* \"#utility.yul\":6820:6897   */\n      0x4e487b7100000000000000000000000000000000000000000000000000000000\n        /* \"#utility.yul\":6817:6818   */\n      0x00\n        /* \"#utility.yul\":6810:6898   */\n      mstore\n        /* \"#utility.yul\":6917:6921   */\n      0x22\n        /* \"#utility.yul\":6914:6915   */\n      0x04\n        /* \"#utility.yul\":6907:6922   */\n      mstore\n        /* \"#utility.yul\":6941:6945   */\n      0x24\n        /* \"#utility.yul\":6938:6939   */\n      0x00\n        /* \"#utility.yul\":6931:6946   */\n      revert\n        /* \"#utility.yul\":6958:7278   */\n    tag_79:\n        /* \"#utility.yul\":7002:7008   */\n      0x00\n        /* \"#utility.yul\":7039:7040   */\n      0x02\n        /* \"#utility.yul\":7033:7037   */\n      dup3\n        /* \"#utility.yul\":7029:7041   */\n      div\n        /* \"#utility.yul\":7019:7041   */\n      swap1\n      pop\n        /* \"#utility.yul\":7086:7087   */\n      0x01\n        /* \"#utility.yul\":7080:7084   */\n      dup3\n        /* \"#utility.yul\":7076:7088   */\n      and\n        /* \"#utility.yul\":7107:7125   */\n      dup1\n        /* \"#utility.yul\":7097:7178   */\n      tag_297\n      jumpi\n        /* \"#utility.yul\":7163:7167   */\n      0x7f\n        /* \"#utility.yul\":7155:7161   */\n      dup3\n        /* \"#utility.yul\":7151:7168   */\n      and\n        /* \"#utility.yul\":7141:7168   */\n      swap2\n      pop\n        /* \"#utility.yul\":7097:7178   */\n    tag_297:\n        /* \"#utility.yul\":7225:7227   */\n      0x20\n        /* \"#utility.yul\":7217:7223   */\n      dup3\n        /* \"#utility.yul\":7214:7228   */\n      lt\n        /* \"#utility.yul\":7194:7212   */\n      dup2\n        /* \"#utility.yul\":7191:7229   */\n      sub\n        /* \"#utility.yul\":7188:7272   */\n      tag_298\n      jumpi\n        /* \"#utility.yul\":7244:7262   */\n      tag_299\n      tag_201\n      jump\t// in\n    tag_299:\n        /* \"#utility.yul\":7188:7272   */\n    tag_298:\n        /* \"#utility.yul\":7009:7278   */\n      pop\n        /* \"#utility.yul\":6958:7278   */\n      swap2\n      swap1\n      pop\n      jump\t// out\n        /* \"#utility.yul\":7284:7464   */\n    tag_202:\n        /* \"#utility.yul\":7332:7409   */\n      0x4e487b7100000000000000000000000000000000000000000000000000000000\n        /* \"#utility.yul\":7329:7330   */\n      0x00\n        /* \"#utility.yul\":7322:7410   */\n      mstore\n        /* \"#utility.yul\":7429:7433   */\n      0x11\n        /* \"#utility.yul\":7426:7427   */\n      0x04\n        /* \"#utility.yul\":7419:7434   */\n      mstore\n        /* \"#utility.yul\":7453:7457   */\n      0x24\n        /* \"#utility.yul\":7450:7451   */\n      0x00\n        /* \"#utility.yul\":7443:7458   */\n      revert\n        /* \"#utility.yul\":7470:7661   */\n    tag_89:\n        /* \"#utility.yul\":7510:7513   */\n      0x00\n        /* \"#utility.yul\":7529:7549   */\n      tag_302\n        /* \"#utility.yul\":7547:7548   */\n      dup3\n        /* \"#utility.yul\":7529:7549   */\n      tag_179\n      jump\t// in\n    tag_302:\n        /* \"#utility.yul\":7524:7549   */\n      swap2\n      pop\n        /* \"#utility.yul\":7563:7583   */\n      tag_303\n        /* \"#utility.yul\":7581:7582   */\n      dup4\n        /* \"#utility.yul\":7563:7583   */\n      tag_179\n      jump\t// in\n    tag_303:\n        /* \"#utility.yul\":7558:7583   */\n      swap3\n      pop\n        /* \"#utility.yul\":7606:7607   */\n      dup3\n        /* \"#utility.yul\":7603:7604   */\n      dup3\n        /* \"#utility.yul\":7599:7608   */\n      add\n        /* \"#utility.yul\":7592:7608   */\n      swap1\n      pop\n        /* \"#utility.yul\":7627:7630   */\n      dup1\n        /* \"#utility.yul\":7624:7625   */\n      dup3\n        /* \"#utility.yul\":7621:7631   */\n      gt\n        /* \"#utility.yul\":7618:7654   */\n      iszero\n      tag_304\n      jumpi\n        /* \"#utility.yul\":7634:7652   */\n      tag_305\n      tag_202\n      jump\t// in\n    tag_305:\n        /* \"#utility.yul\":7618:7654   */\n    tag_304:\n        /* \"#utility.yul\":7470:7661   */\n      swap3\n      swap2\n      pop\n      pop\n      jump\t// out\n        /* \"#utility.yul\":7667:7837   */\n    tag_203:\n        /* \"#utility.yul\":7807:7829   */\n      0x52617465206c696d69742065786365656465642e000000000000000000000000\n        /* \"#utility.yul\":7803:7804   */\n      0x00\n        /* \"#utility.yul\":7795:7801   */\n      dup3\n        /* \"#utility.yul\":7791:7805   */\n      add\n        /* \"#utility.yul\":7784:7830   */\n      mstore\n        /* \"#utility.yul\":7667:7837   */\n      pop\n      jump\t// out\n        /* \"#utility.yul\":7843:8209   */\n    tag_204:\n        /* \"#utility.yul\":7985:7988   */\n      0x00\n        /* \"#utility.yul\":8006:8073   */\n      tag_308\n        /* \"#utility.yul\":8070:8072   */\n      0x14\n        /* \"#utility.yul\":8065:8068   */\n      dup4\n        /* \"#utility.yul\":8006:8073   */\n      tag_175\n      jump\t// in\n    tag_308:\n        /* \"#utility.yul\":7999:8073   */\n      swap2\n      pop\n        /* \"#utility.yul\":8082:8175   */\n      tag_309\n        /* \"#utility.yul\":8171:8174   */\n      dup3\n        /* \"#utility.yul\":8082:8175   */\n      tag_203\n      jump\t// in\n    tag_309:\n        /* \"#utility.yul\":8200:8202   */\n      0x20\n        /* \"#utility.yul\":8195:8198   */\n      dup3\n        /* \"#utility.yul\":8191:8203   */\n      add\n        /* \"#utility.yul\":8184:8203   */\n      swap1\n      pop\n        /* \"#utility.yul\":7843:8209   */\n      swap2\n      swap1\n      pop\n      jump\t// out\n        /* \"#utility.yul\":8215:8634   */\n    tag_92:\n        /* \"#utility.yul\":8381:8385   */\n      0x00\n        /* \"#utility.yul\":8419:8421   */\n      0x20\n        /* \"#utility.yul\":8408:8417   */\n      dup3\n        /* \"#utility.yul\":8404:8422   */\n      add\n        /* \"#utility.yul\":8396:8422   */\n      swap1\n      pop\n        /* \"#utility.yul\":8468:8477   */\n      dup2\n        /* \"#utility.yul\":8462:8466   */\n      dup2\n        /* \"#utility.yul\":8458:8478   */\n      sub\n        /* \"#utility.yul\":8454:8455   */\n      0x00\n        /* \"#utility.yul\":8443:8452   */\n      dup4\n        /* \"#utility.yul\":8439:8456   */\n      add\n        /* \"#utility.yul\":8432:8479   */\n      mstore\n        /* \"#utility.yul\":8496:8627   */\n      tag_311\n        /* \"#utility.yul\":8622:8626   */\n      dup2\n        /* \"#utility.yul\":8496:8627   */\n      tag_204\n      jump\t// in\n    tag_311:\n        /* \"#utility.yul\":8488:8627   */\n      swap1\n      pop\n        /* \"#utility.yul\":8215:8634   */\n      swap2\n      swap1\n      pop\n      jump\t// out\n        /* \"#utility.yul\":8640:8808   */\n    tag_205:\n        /* \"#utility.yul\":8780:8800   */\n      0x496e76616c696420707269636520646174610000000000000000000000000000\n        /* \"#utility.yul\":8776:8777   */\n      0x00\n        /* \"#utility.yul\":8768:8774   */\n      dup3\n        /* \"#utility.yul\":8764:8778   */\n      add\n        /* \"#utility.yul\":8757:8801   */\n      mstore\n        /* \"#utility.yul\":8640:8808   */\n      pop\n      jump\t// out\n        /* \"#utility.yul\":8814:9180   */\n    tag_206:\n        /* \"#utility.yul\":8956:8959   */\n      0x00\n        /* \"#utility.yul\":8977:9044   */\n      tag_314\n        /* \"#utility.yul\":9041:9043   */\n      0x12\n        /* \"#utility.yul\":9036:9039   */\n      dup4\n        /* \"#utility.yul\":8977:9044   */\n      tag_175\n      jump\t// in\n    tag_314:\n        /* \"#utility.yul\":8970:9044   */\n      swap2\n      pop\n        /* \"#utility.yul\":9053:9146   */\n      tag_315\n        /* \"#utility.yul\":9142:9145   */\n      dup3\n        /* \"#utility.yul\":9053:9146   */\n      tag_205\n      jump\t// in\n    tag_315:\n        /* \"#utility.yul\":9171:9173   */\n      0x20\n        /* \"#utility.yul\":9166:9169   */\n      dup3\n        /* \"#utility.yul\":9162:9174   */\n      add\n        /* \"#utility.yul\":9155:9174   */\n      swap1\n      pop\n        /* \"#utility.yul\":8814:9180   */\n      swap2\n      swap1\n      pop\n      jump\t// out\n        /* \"#utility.yul\":9186:9605   */\n    tag_98:\n        /* \"#utility.yul\":9352:9356   */\n      0x00\n        /* \"#utility.yul\":9390:9392   */\n      0x20\n        /* \"#utility.yul\":9379:9388   */\n      dup3\n        /* \"#utility.yul\":9375:9393   */\n      add\n        /* \"#utility.yul\":9367:9393   */\n      swap1\n      pop\n        /* \"#utility.yul\":9439:9448   */\n      dup2\n        /* \"#utility.yul\":9433:9437   */\n      dup2\n        /* \"#utility.yul\":9429:9449   */\n      sub\n        /* \"#utility.yul\":9425:9426   */\n      0x00\n        /* \"#utility.yul\":9414:9423   */\n      dup4\n        /* \"#utility.yul\":9410:9427   */\n      add\n        /* \"#utility.yul\":9403:9450   */\n      mstore\n        /* \"#utility.yul\":9467:9598   */\n      tag_317\n        /* \"#utility.yul\":9593:9597   */\n      dup2\n        /* \"#utility.yul\":9467:9598   */\n      tag_206\n      jump\t// in\n    tag_317:\n        /* \"#utility.yul\":9459:9598   */\n      swap1\n      pop\n        /* \"#utility.yul\":9186:9605   */\n      swap2\n      swap1\n      pop\n      jump\t// out\n        /* \"#utility.yul\":9611:10021   */\n    tag_100:\n        /* \"#utility.yul\":9651:9658   */\n      0x00\n        /* \"#utility.yul\":9674:9694   */\n      tag_319\n        /* \"#utility.yul\":9692:9693   */\n      dup3\n        /* \"#utility.yul\":9674:9694   */\n      tag_179\n      jump\t// in\n    tag_319:\n        /* \"#utility.yul\":9669:9694   */\n      swap2\n      pop\n        /* \"#utility.yul\":9708:9728   */\n      tag_320\n        /* \"#utility.yul\":9726:9727   */\n      dup4\n        /* \"#utility.yul\":9708:9728   */\n      tag_179\n      jump\t// in\n    tag_320:\n        /* \"#utility.yul\":9703:9728   */\n      swap3\n      pop\n        /* \"#utility.yul\":9763:9764   */\n      dup3\n        /* \"#utility.yul\":9760:9761   */\n      dup3\n        /* \"#utility.yul\":9756:9765   */\n      mul\n        /* \"#utility.yul\":9785:9815   */\n      tag_321\n        /* \"#utility.yul\":9803:9814   */\n      dup2\n        /* \"#utility.yul\":9785:9815   */\n      tag_179\n      jump\t// in\n    tag_321:\n        /* \"#utility.yul\":9774:9815   */\n      swap2\n      pop\n        /* \"#utility.yul\":9964:9965   */\n      dup3\n        /* \"#utility.yul\":9955:9962   */\n      dup3\n        /* \"#utility.yul\":9951:9966   */\n      div\n        /* \"#utility.yul\":9948:9949   */\n      dup5\n        /* \"#utility.yul\":9945:9967   */\n      eq\n        /* \"#utility.yul\":9925:9926   */\n      dup4\n        /* \"#utility.yul\":9918:9927   */\n      iszero\n        /* \"#utility.yul\":9898:9981   */\n      or\n        /* \"#utility.yul\":9875:10014   */\n      tag_322\n      jumpi\n        /* \"#utility.yul\":9994:10012   */\n      tag_323\n      tag_202\n      jump\t// in\n    tag_323:\n        /* \"#utility.yul\":9875:10014   */\n    tag_322:\n        /* \"#utility.yul\":9659:10021   */\n      pop\n        /* \"#utility.yul\":9611:10021   */\n      swap3\n      swap2\n      pop\n      pop\n      jump\t// out\n        /* \"#utility.yul\":10027:10207   */\n    tag_207:\n        /* \"#utility.yul\":10075:10152   */\n      0x4e487b7100000000000000000000000000000000000000000000000000000000\n        /* \"#utility.yul\":10072:10073   */\n      0x00\n        /* \"#utility.yul\":10065:10153   */\n      mstore\n        /* \"#utility.yul\":10172:10176   */\n      0x12\n        /* \"#utility.yul\":10169:10170   */\n      0x04\n        /* \"#utility.yul\":10162:10177   */\n      mstore\n        /* \"#utility.yul\":10196:10200   */\n      0x24\n        /* \"#utility.yul\":10193:10194   */\n      0x00\n        /* \"#utility.yul\":10186:10201   */\n      revert\n        /* \"#utility.yul\":10213:10398   */\n    tag_102:\n        /* \"#utility.yul\":10253:10254   */\n      0x00\n        /* \"#utility.yul\":10270:10290   */\n      tag_326\n        /* \"#utility.yul\":10288:10289   */\n      dup3\n        /* \"#utility.yul\":10270:10290   */\n      tag_179\n      jump\t// in\n    tag_326:\n        /* \"#utility.yul\":10265:10290   */\n      swap2\n      pop\n        /* \"#utility.yul\":10304:10324   */\n      tag_327\n        /* \"#utility.yul\":10322:10323   */\n      dup4\n        /* \"#utility.yul\":10304:10324   */\n      tag_179\n      jump\t// in\n    tag_327:\n        /* \"#utility.yul\":10299:10324   */\n      swap3\n      pop\n        /* \"#utility.yul\":10343:10344   */\n      dup3\n        /* \"#utility.yul\":10333:10368   */\n      tag_328\n      jumpi\n        /* \"#utility.yul\":10348:10366   */\n      tag_329\n      tag_207\n      jump\t// in\n    tag_329:\n        /* \"#utility.yul\":10333:10368   */\n    tag_328:\n        /* \"#utility.yul\":10390:10391   */\n      dup3\n        /* \"#utility.yul\":10387:10388   */\n      dup3\n        /* \"#utility.yul\":10383:10392   */\n      div\n        /* \"#utility.yul\":10378:10392   */\n      swap1\n      pop\n        /* \"#utility.yul\":10213:10398   */\n      swap3\n      swap2\n      pop\n      pop\n      jump\t// out\n        /* \"#utility.yul\":10404:10464   */\n    tag_208:\n        /* \"#utility.yul\":10432:10435   */\n      0x00\n        /* \"#utility.yul\":10453:10458   */\n      dup2\n        /* \"#utility.yul\":10446:10458   */\n      swap1\n      pop\n        /* \"#utility.yul\":10404:10464   */\n      swap2\n      swap1\n      pop\n      jump\t// out\n        /* \"#utility.yul\":10470:10612   */\n    tag_209:\n        /* \"#utility.yul\":10520:10529   */\n      0x00\n        /* \"#utility.yul\":10553:10606   */\n      tag_332\n        /* \"#utility.yul\":10571:10605   */\n      tag_333\n        /* \"#utility.yul\":10580:10604   */\n      tag_334\n        /* \"#utility.yul\":10598:10603   */\n      dup5\n        /* \"#utility.yul\":10580:10604   */\n      tag_184\n      jump\t// in\n    tag_334:\n        /* \"#utility.yul\":10571:10605   */\n      tag_208\n      jump\t// in\n    tag_333:\n        /* \"#utility.yul\":10553:10606   */\n      tag_184\n      jump\t// in\n    tag_332:\n        /* \"#utility.yul\":10540:10606   */\n      swap1\n      pop\n        /* \"#utility.yul\":10470:10612   */\n      swap2\n      swap1\n      pop\n      jump\t// out\n        /* \"#utility.yul\":10618:10744   */\n    tag_210:\n        /* \"#utility.yul\":10668:10677   */\n      0x00\n        /* \"#utility.yul\":10701:10738   */\n      tag_336\n        /* \"#utility.yul\":10732:10737   */\n      dup3\n        /* \"#utility.yul\":10701:10738   */\n      tag_209\n      jump\t// in\n    tag_336:\n        /* \"#utility.yul\":10688:10738   */\n      swap1\n      pop\n        /* \"#utility.yul\":10618:10744   */\n      swap2\n      swap1\n      pop\n      jump\t// out\n        /* \"#utility.yul\":10750:10884   */\n    tag_211:\n        /* \"#utility.yul\":10808:10817   */\n      0x00\n        /* \"#utility.yul\":10841:10878   */\n      tag_338\n        /* \"#utility.yul\":10872:10877   */\n      dup3\n        /* \"#utility.yul\":10841:10878   */\n      tag_210\n      jump\t// in\n    tag_338:\n        /* \"#utility.yul\":10828:10878   */\n      swap1\n      pop\n        /* \"#utility.yul\":10750:10884   */\n      swap2\n      swap1\n      pop\n      jump\t// out\n        /* \"#utility.yul\":10890:11037   */\n    tag_212:\n        /* \"#utility.yul\":10985:11030   */\n      tag_340\n        /* \"#utility.yul\":11024:11029   */\n      dup2\n        /* \"#utility.yul\":10985:11030   */\n      tag_211\n      jump\t// in\n    tag_340:\n        /* \"#utility.yul\":10980:10983   */\n      dup3\n        /* \"#utility.yul\":10973:11031   */\n      mstore\n        /* \"#utility.yul\":10890:11037   */\n      pop\n      pop\n      jump\t// out\n        /* \"#utility.yul\":11043:11501   */\n    tag_114:\n        /* \"#utility.yul\":11200:11204   */\n      0x00\n        /* \"#utility.yul\":11238:11240   */\n      0x60\n        /* \"#utility.yul\":11227:11236   */\n      dup3\n        /* \"#utility.yul\":11223:11241   */\n      add\n        /* \"#utility.yul\":11215:11241   */\n      swap1\n      pop\n        /* \"#utility.yul\":11251:11322   */\n      tag_342\n        /* \"#utility.yul\":11319:11320   */\n      0x00\n        /* \"#utility.yul\":11308:11317   */\n      dup4\n        /* \"#utility.yul\":11304:11321   */\n      add\n        /* \"#utility.yul\":11295:11301   */\n      dup7\n        /* \"#utility.yul\":11251:11322   */\n      tag_180\n      jump\t// in\n    tag_342:\n        /* \"#utility.yul\":11332:11404   */\n      tag_343\n        /* \"#utility.yul\":11400:11402   */\n      0x20\n        /* \"#utility.yul\":11389:11398   */\n      dup4\n        /* \"#utility.yul\":11385:11403   */\n      add\n        /* \"#utility.yul\":11376:11382   */\n      dup6\n        /* \"#utility.yul\":11332:11404   */\n      tag_189\n      jump\t// in\n    tag_343:\n        /* \"#utility.yul\":11414:11494   */\n      tag_344\n        /* \"#utility.yul\":11490:11492   */\n      0x40\n        /* \"#utility.yul\":11479:11488   */\n      dup4\n        /* \"#utility.yul\":11475:11493   */\n      add\n        /* \"#utility.yul\":11466:11472   */\n      dup5\n        /* \"#utility.yul\":11414:11494   */\n      tag_212\n      jump\t// in\n    tag_344:\n        /* \"#utility.yul\":11043:11501   */\n      swap5\n      swap4\n      pop\n      pop\n      pop\n      pop\n      jump\t// out\n        /* \"#utility.yul\":11507:11612   */\n    tag_213:\n        /* \"#utility.yul\":11543:11550   */\n      0x00\n        /* \"#utility.yul\":11583:11605   */\n      0xffffffffffffffffffff\n        /* \"#utility.yul\":11576:11581   */\n      dup3\n        /* \"#utility.yul\":11572:11606   */\n      and\n        /* \"#utility.yul\":11561:11606   */\n      swap1\n      pop\n        /* \"#utility.yul\":11507:11612   */\n      swap2\n      swap1\n      pop\n      jump\t// out\n        /* \"#utility.yul\":11618:11738   */\n    tag_214:\n        /* \"#utility.yul\":11690:11713   */\n      tag_347\n        /* \"#utility.yul\":11707:11712   */\n      dup2\n        /* \"#utility.yul\":11690:11713   */\n      tag_213\n      jump\t// in\n    tag_347:\n        /* \"#utility.yul\":11683:11688   */\n      dup2\n        /* \"#utility.yul\":11680:11714   */\n      eq\n        /* \"#utility.yul\":11670:11732   */\n      tag_348\n      jumpi\n        /* \"#utility.yul\":11728:11729   */\n      0x00\n        /* \"#utility.yul\":11725:11726   */\n      dup1\n        /* \"#utility.yul\":11718:11730   */\n      revert\n        /* \"#utility.yul\":11670:11732   */\n    tag_348:\n        /* \"#utility.yul\":11618:11738   */\n      pop\n      jump\t// out\n        /* \"#utility.yul\":11744:11885   */\n    tag_215:\n        /* \"#utility.yul\":11800:11805   */\n      0x00\n        /* \"#utility.yul\":11831:11837   */\n      dup2\n        /* \"#utility.yul\":11825:11838   */\n      mload\n        /* \"#utility.yul\":11816:11838   */\n      swap1\n      pop\n        /* \"#utility.yul\":11847:11879   */\n      tag_350\n        /* \"#utility.yul\":11873:11878   */\n      dup2\n        /* \"#utility.yul\":11847:11879   */\n      tag_214\n      jump\t// in\n    tag_350:\n        /* \"#utility.yul\":11744:11885   */\n      swap3\n      swap2\n      pop\n      pop\n      jump\t// out\n        /* \"#utility.yul\":11891:12011   */\n    tag_216:\n        /* \"#utility.yul\":11963:11986   */\n      tag_352\n        /* \"#utility.yul\":11980:11985   */\n      dup2\n        /* \"#utility.yul\":11963:11986   */\n      tag_190\n      jump\t// in\n    tag_352:\n        /* \"#utility.yul\":11956:11961   */\n      dup2\n        /* \"#utility.yul\":11953:11987   */\n      eq\n        /* \"#utility.yul\":11943:12005   */\n      tag_353\n      jumpi\n        /* \"#utility.yul\":12001:12002   */\n      0x00\n        /* \"#utility.yul\":11998:11999   */\n      dup1\n        /* \"#utility.yul\":11991:12003   */\n      revert\n        /* \"#utility.yul\":11943:12005   */\n    tag_353:\n        /* \"#utility.yul\":11891:12011   */\n      pop\n      jump\t// out\n        /* \"#utility.yul\":12017:12158   */\n    tag_217:\n        /* \"#utility.yul\":12073:12078   */\n      0x00\n        /* \"#utility.yul\":12104:12110   */\n      dup2\n        /* \"#utility.yul\":12098:12111   */\n      mload\n        /* \"#utility.yul\":12089:12111   */\n      swap1\n      pop\n        /* \"#utility.yul\":12120:12152   */\n      tag_355\n        /* \"#utility.yul\":12146:12151   */\n      dup2\n        /* \"#utility.yul\":12120:12152   */\n      tag_216\n      jump\t// in\n    tag_355:\n        /* \"#utility.yul\":12017:12158   */\n      swap3\n      swap2\n      pop\n      pop\n      jump\t// out\n        /* \"#utility.yul\":12164:12286   */\n    tag_218:\n        /* \"#utility.yul\":12237:12261   */\n      tag_357\n        /* \"#utility.yul\":12255:12260   */\n      dup2\n        /* \"#utility.yul\":12237:12261   */\n      tag_179\n      jump\t// in\n    tag_357:\n        /* \"#utility.yul\":12230:12235   */\n      dup2\n        /* \"#utility.yul\":12227:12262   */\n      eq\n        /* \"#utility.yul\":12217:12280   */\n      tag_358\n      jumpi\n        /* \"#utility.yul\":12276:12277   */\n      0x00\n        /* \"#utility.yul\":12273:12274   */\n      dup1\n        /* \"#utility.yul\":12266:12278   */\n      revert\n        /* \"#utility.yul\":12217:12280   */\n    tag_358:\n        /* \"#utility.yul\":12164:12286   */\n      pop\n      jump\t// out\n        /* \"#utility.yul\":12292:12435   */\n    tag_219:\n        /* \"#utility.yul\":12349:12354   */\n      0x00\n        /* \"#utility.yul\":12380:12386   */\n      dup2\n        /* \"#utility.yul\":12374:12387   */\n      mload\n        /* \"#utility.yul\":12365:12387   */\n      swap1\n      pop\n        /* \"#utility.yul\":12396:12429   */\n      tag_360\n        /* \"#utility.yul\":12423:12428   */\n      dup2\n        /* \"#utility.yul\":12396:12429   */\n      tag_218\n      jump\t// in\n    tag_360:\n        /* \"#utility.yul\":12292:12435   */\n      swap3\n      swap2\n      pop\n      pop\n      jump\t// out\n        /* \"#utility.yul\":12441:13412   */\n    tag_130:\n        /* \"#utility.yul\":12544:12550   */\n      0x00\n        /* \"#utility.yul\":12552:12558   */\n      dup1\n        /* \"#utility.yul\":12560:12566   */\n      0x00\n        /* \"#utility.yul\":12568:12574   */\n      dup1\n        /* \"#utility.yul\":12576:12582   */\n      0x00\n        /* \"#utility.yul\":12625:12628   */\n      0xa0\n        /* \"#utility.yul\":12613:12622   */\n      dup7\n        /* \"#utility.yul\":12604:12611   */\n      dup9\n        /* \"#utility.yul\":12600:12623   */\n      sub\n        /* \"#utility.yul\":12596:12629   */\n      slt\n        /* \"#utility.yul\":12593:12713   */\n      iszero\n      tag_362\n      jumpi\n        /* \"#utility.yul\":12632:12711   */\n      tag_363\n      tag_182\n      jump\t// in\n    tag_363:\n        /* \"#utility.yul\":12593:12713   */\n    tag_362:\n        /* \"#utility.yul\":12752:12753   */\n      0x00\n        /* \"#utility.yul\":12777:12840   */\n      tag_364\n        /* \"#utility.yul\":12832:12839   */\n      dup9\n        /* \"#utility.yul\":12823:12829   */\n      dup3\n        /* \"#utility.yul\":12812:12821   */\n      dup10\n        /* \"#utility.yul\":12808:12830   */\n      add\n        /* \"#utility.yul\":12777:12840   */\n      tag_215\n      jump\t// in\n    tag_364:\n        /* \"#utility.yul\":12767:12840   */\n      swap6\n      pop\n        /* \"#utility.yul\":12723:12850   */\n      pop\n        /* \"#utility.yul\":12889:12891   */\n      0x20\n        /* \"#utility.yul\":12915:12978   */\n      tag_365\n        /* \"#utility.yul\":12970:12977   */\n      dup9\n        /* \"#utility.yul\":12961:12967   */\n      dup3\n        /* \"#utility.yul\":12950:12959   */\n      dup10\n        /* \"#utility.yul\":12946:12968   */\n      add\n        /* \"#utility.yul\":12915:12978   */\n      tag_217\n      jump\t// in\n    tag_365:\n        /* \"#utility.yul\":12905:12978   */\n      swap5\n      pop\n        /* \"#utility.yul\":12860:12988   */\n      pop\n        /* \"#utility.yul\":13027:13029   */\n      0x40\n        /* \"#utility.yul\":13053:13117   */\n      tag_366\n        /* \"#utility.yul\":13109:13116   */\n      dup9\n        /* \"#utility.yul\":13100:13106   */\n      dup3\n        /* \"#utility.yul\":13089:13098   */\n      dup10\n        /* \"#utility.yul\":13085:13107   */\n      add\n        /* \"#utility.yul\":13053:13117   */\n      tag_219\n      jump\t// in\n    tag_366:\n        /* \"#utility.yul\":13043:13117   */\n      swap4\n      pop\n        /* \"#utility.yul\":12998:13127   */\n      pop\n        /* \"#utility.yul\":13166:13168   */\n      0x60\n        /* \"#utility.yul\":13192:13256   */\n      tag_367\n        /* \"#utility.yul\":13248:13255   */\n      dup9\n        /* \"#utility.yul\":13239:13245   */\n      dup3\n        /* \"#utility.yul\":13228:13237   */\n      dup10\n        /* \"#utility.yul\":13224:13246   */\n      add\n        /* \"#utility.yul\":13192:13256   */\n      tag_219\n      jump\t// in\n    tag_367:\n        /* \"#utility.yul\":13182:13256   */\n      swap3\n      pop\n        /* \"#utility.yul\":13137:13266   */\n      pop\n        /* \"#utility.yul\":13305:13308   */\n      0x80\n        /* \"#utility.yul\":13332:13395   */\n      tag_368\n        /* \"#utility.yul\":13387:13394   */\n      dup9\n        /* \"#utility.yul\":13378:13384   */\n      dup3\n        /* \"#utility.yul\":13367:13376   */\n      dup10\n        /* \"#utility.yul\":13363:13385   */\n      add\n        /* \"#utility.yul\":13332:13395   */\n      tag_215\n      jump\t// in\n    tag_368:\n        /* \"#utility.yul\":13322:13395   */\n      swap2\n      pop\n        /* \"#utility.yul\":13276:13405   */\n      pop\n        /* \"#utility.yul\":12441:13412   */\n      swap3\n      swap6\n      pop\n      swap3\n      swap6\n      swap1\n      swap4\n      pop\n      jump\t// out\n        /* \"#utility.yul\":13418:13860   */\n    tag_136:\n        /* \"#utility.yul\":13567:13571   */\n      0x00\n        /* \"#utility.yul\":13605:13607   */\n      0x60\n        /* \"#utility.yul\":13594:13603   */\n      dup3\n        /* \"#utility.yul\":13590:13608   */\n      add\n        /* \"#utility.yul\":13582:13608   */\n      swap1\n      pop\n        /* \"#utility.yul\":13618:13689   */\n      tag_370\n        /* \"#utility.yul\":13686:13687   */\n      0x00\n        /* \"#utility.yul\":13675:13684   */\n      dup4\n        /* \"#utility.yul\":13671:13688   */\n      add\n        /* \"#utility.yul\":13662:13668   */\n      dup7\n        /* \"#utility.yul\":13618:13689   */\n      tag_189\n      jump\t// in\n    tag_370:\n        /* \"#utility.yul\":13699:13771   */\n      tag_371\n        /* \"#utility.yul\":13767:13769   */\n      0x20\n        /* \"#utility.yul\":13756:13765   */\n      dup4\n        /* \"#utility.yul\":13752:13770   */\n      add\n        /* \"#utility.yul\":13743:13749   */\n      dup6\n        /* \"#utility.yul\":13699:13771   */\n      tag_180\n      jump\t// in\n    tag_371:\n        /* \"#utility.yul\":13781:13853   */\n      tag_372\n        /* \"#utility.yul\":13849:13851   */\n      0x40\n        /* \"#utility.yul\":13838:13847   */\n      dup4\n        /* \"#utility.yul\":13834:13852   */\n      add\n        /* \"#utility.yul\":13825:13831   */\n      dup5\n        /* \"#utility.yul\":13781:13853   */\n      tag_189\n      jump\t// in\n    tag_372:\n        /* \"#utility.yul\":13418:13860   */\n      swap5\n      swap4\n      pop\n      pop\n      pop\n      pop\n      jump\t// out\n        /* \"#utility.yul\":13866:14046   */\n    tag_148:\n        /* \"#utility.yul\":13914:13991   */\n      0x4e487b7100000000000000000000000000000000000000000000000000000000\n        /* \"#utility.yul\":13911:13912   */\n      0x00\n        /* \"#utility.yul\":13904:13992   */\n      mstore\n        /* \"#utility.yul\":14011:14015   */\n      0x41\n        /* \"#utility.yul\":14008:14009   */\n      0x04\n        /* \"#utility.yul\":14001:14016   */\n      mstore\n        /* \"#utility.yul\":14035:14039   */\n      0x24\n        /* \"#utility.yul\":14032:14033   */\n      0x00\n        /* \"#utility.yul\":14025:14040   */\n      revert\n        /* \"#utility.yul\":14052:14232   */\n    tag_158:\n        /* \"#utility.yul\":14100:14177   */\n      0x4e487b7100000000000000000000000000000000000000000000000000000000\n        /* \"#utility.yul\":14097:14098   */\n      0x00\n        /* \"#utility.yul\":14090:14178   */\n      mstore\n        /* \"#utility.yul\":14197:14201   */\n      0x32\n        /* \"#utility.yul\":14194:14195   */\n      0x04\n        /* \"#utility.yul\":14187:14202   */\n      mstore\n        /* \"#utility.yul\":14221:14225   */\n      0x24\n        /* \"#utility.yul\":14218:14219   */\n      0x00\n        /* \"#utility.yul\":14211:14226   */\n      revert\n\n    auxdata: 0xa264697066735822122076bf8fdb0223bbca1cba22100a6df9680f3e3909e8bb657f8de37f59a852956364736f6c63430008160033\n}\n",
				"bytecode": {
					"linkReferences": {},
					"object": "60806040525f60095534801562000014575f80fd5b5060405162001c2c38038062001c2c83398181016040528101906200003a91906200047c565b335f73ffffffffffffffffffffffffffffffffffffffff168173ffffffffffffffffffffffffffffffffffffffff1603620000ae575f6040517f1e4fbdf7000000000000000000000000000000000000000000000000000000008152600401620000a5919062000582565b60405180910390fd5b620000bf816200019360201b60201c565b508560049081620000d19190620007d4565b508460059081620000e39190620007d4565b508360069081620000f59190620007d4565b508260075f6101000a81548173ffffffffffffffffffffffffffffffffffffffff021916908373ffffffffffffffffffffffffffffffffffffffff16021790555062000147826200019360201b60201c565b8060085f6101000a81548173ffffffffffffffffffffffffffffffffffffffff021916908373ffffffffffffffffffffffffffffffffffffffff160217905550505050505050620008b8565b5f805f9054906101000a900473ffffffffffffffffffffffffffffffffffffffff169050815f806101000a81548173ffffffffffffffffffffffffffffffffffffffff021916908373ffffffffffffffffffffffffffffffffffffffff1602179055508173ffffffffffffffffffffffffffffffffffffffff168173ffffffffffffffffffffffffffffffffffffffff167f8be0079c531659141344cd1fd0a4f28419497f9722a3daafe3b4186f6b6457e060405160405180910390a35050565b5f604051905090565b5f80fd5b5f80fd5b5f80fd5b5f80fd5b5f601f19601f8301169050919050565b7f4e487b71000000000000000000000000000000000000000000000000000000005f52604160045260245ffd5b620002b5826200026d565b810181811067ffffffffffffffff82111715620002d757620002d66200027d565b5b80604052505050565b5f620002eb62000254565b9050620002f98282620002aa565b919050565b5f67ffffffffffffffff8211156200031b576200031a6200027d565b5b62000326826200026d565b9050602081019050919050565b5f5b838110156200035257808201518184015260208101905062000335565b5f8484015250505050565b5f620003736200036d84620002fe565b620002e0565b90508281526020810184848401111562000392576200039162000269565b5b6200039f84828562000333565b509392505050565b5f82601f830112620003be57620003bd62000265565b5b8151620003d08482602086016200035d565b91505092915050565b5f73ffffffffffffffffffffffffffffffffffffffff82169050919050565b5f6200040482620003d9565b9050919050565b6200041681620003f8565b811462000421575f80fd5b50565b5f8151905062000434816200040b565b92915050565b5f6200044682620003d9565b9050919050565b62000458816200043a565b811462000463575f80fd5b50565b5f8151905062000476816200044d565b92915050565b5f805f805f8060c087890312156200049957620004986200025d565b5b5f87015167ffffffffffffffff811115620004b957620004b862000261565b5b620004c789828a01620003a7565b965050602087015167ffffffffffffffff811115620004eb57620004ea62000261565b5b620004f989828a01620003a7565b955050604087015167ffffffffffffffff8111156200051d576200051c62000261565b5b6200052b89828a01620003a7565b94505060606200053e89828a0162000424565b93505060806200055189828a0162000466565b92505060a06200056489828a0162000466565b9150509295509295509295565b6200057c816200043a565b82525050565b5f602082019050620005975f83018462000571565b92915050565b5f81519050919050565b7f4e487b71000000000000000000000000000000000000000000000000000000005f52602260045260245ffd5b5f6002820490506001821680620005ec57607f821691505b602082108103620006025762000601620005a7565b5b50919050565b5f819050815f5260205f209050919050565b5f6020601f8301049050919050565b5f82821b905092915050565b5f60088302620006667fffffffffffffffffffffffffffffffffffffffffffffffffffffffffffffffff8262000629565b62000672868362000629565b95508019841693508086168417925050509392505050565b5f819050919050565b5f819050919050565b5f620006bc620006b6620006b0846200068a565b62000693565b6200068a565b9050919050565b5f819050919050565b620006d7836200069c565b620006ef620006e682620006c3565b84845462000635565b825550505050565b5f90565b62000705620006f7565b62000712818484620006cc565b505050565b5b8181101562000739576200072d5f82620006fb565b60018101905062000718565b5050565b601f8211156200078857620007528162000608565b6200075d846200061a565b810160208510156200076d578190505b620007856200077c856200061a565b83018262000717565b50505b505050565b5f82821c905092915050565b5f620007aa5f19846008026200078d565b1980831691505092915050565b5f620007c4838362000799565b9150826002028217905092915050565b620007df826200059d565b67ffffffffffffffff811115620007fb57620007fa6200027d565b5b620008078254620005d4565b620008148282856200073d565b5f60209050601f8311600181146200084a575f841562000835578287015190505b620008418582620007b7565b865550620008b0565b601f1984166200085a8662000608565b5f5b8281101562000883578489015182556001820191506020850194506020810190506200085c565b86831015620008a357848901516200089f601f89168262000799565b8355505b6001600288020188555050505b505050505050565b61136680620008c65f395ff3fe6080604052600436106100dc575f3560e01c80637284e4161161007e578063ed88c68e11610058578063ed88c68e1461025a578063f0ea4bfc14610264578063f2fde38b1461028e578063fea49837146102b6576100dc565b80637284e416146101dc5780638da5cb5b146102065780638e15f47314610230576100dc565b8063254b9def116100ba578063254b9def1461015c5780632b6bd172146101865780633ccfd60b146101b0578063715018a6146101c6576100dc565b806306fdde03146100e05780630b024f871461010a57806321b8092e14610134575b5f80fd5b3480156100eb575f80fd5b506100f46102e1565b6040516101019190610c57565b60405180910390f35b348015610115575f80fd5b5061011e61036d565b60405161012b9190610c8f565b60405180910390f35b34801561013f575f80fd5b5061015a60048036038101906101559190610d06565b610373565b005b348015610167575f80fd5b50610170610417565b60405161017d9190610c8f565b60405180910390f35b348015610191575f80fd5b5061019a610488565b6040516101a79190610c57565b60405180910390f35b3480156101bb575f80fd5b506101c4610514565b005b3480156101d1575f80fd5b506101da6105e4565b005b3480156101e7575f80fd5b506101f06105f7565b6040516101fd9190610c57565b60405180910390f35b348015610211575f80fd5b5061021a610683565b6040516102279190610d51565b60405180910390f35b34801561023b575f80fd5b506102446106aa565b6040516102519190610d82565b60405180910390f35b610262610747565b005b34801561026f575f80fd5b50610278610846565b6040516102859190610c8f565b60405180910390f35b348015610299575f80fd5b506102b460048036038101906102af9190610dc5565b61084c565b005b3480156102c1575f80fd5b506102ca6108d0565b6040516102d8929190610ea7565b60405180910390f35b600480546102ee90610f09565b80601f016020809104026020016040519081016040528092919081815260200182805461031a90610f09565b80156103655780601f1061033c57610100808354040283529160200191610365565b820191905f5260205f20905b81548152906001019060200180831161034857829003601f168201915b505050505081565b60035481565b61037b610a37565b603c8060095461038b9190610f66565b42116103cc576040517f08c379a00000000000000000000000000000000000000000000000000000000081526004016103c390610fe3565b60405180910390fd5b426009819055508160075f6101000a81548173ffffffffffffffffffffffffffffffffffffffff021916908373ffffffffffffffffffffffffffffffffffffffff1602179055505050565b5f806104216106aa565b90505f8113610465576040517f08c379a000000000000000000000000000000000000000000000000000000000815260040161045c9061104b565b60405180910390fd5b6305f5e100816002546104789190611069565b61048291906110d7565b91505090565b6006805461049590610f09565b80601f01602080910402602001604051908101604052809291908181526020018280546104c190610f09565b801561050c5780601f106104e35761010080835404028352916020019161050c565b820191905f5260205f20905b8154815290600101906020018083116104ef57829003601f168201915b505050505081565b61051c610a37565b5f47905060075f9054906101000a900473ffffffffffffffffffffffffffffffffffffffff1673ffffffffffffffffffffffffffffffffffffffff166108fc8290811502906040515f60405180830381858888f19350505050158015610584573d5f803e3d5ffd5b507fa51bb7c2c2049ab09fbff5561211a4ee34b3b4cee74c42f1bce5461cd4ef3f8d813060075f9054906101000a900473ffffffffffffffffffffffffffffffffffffffff166040516105d993929190611162565b60405180910390a150565b6105ec610a37565b6105f55f610abe565b565b6005805461060490610f09565b80601f016020809104026020016040519081016040528092919081815260200182805461063090610f09565b801561067b5780601f106106525761010080835404028352916020019161067b565b820191905f5260205f20905b81548152906001019060200180831161065e57829003601f168201915b505050505081565b5f805f9054906101000a900473ffffffffffffffffffffffffffffffffffffffff16905090565b5f8060085f9054906101000a900473ffffffffffffffffffffffffffffffffffffffff1673ffffffffffffffffffffffffffffffffffffffff1663feaf968c6040518163ffffffff1660e01b815260040160a060405180830381865afa158015610716573d5f803e3d5ffd5b505050506040513d601f19601f8201168201806040525081019061073a919061122a565b5050509150508091505090565b5f604051806040016040528034815260200142815250905060015f3373ffffffffffffffffffffffffffffffffffffffff1673ffffffffffffffffffffffffffffffffffffffff1681526020019081526020015f2081908060018154018082558091505060019003905f5260205f2090600202015f909190919091505f820151815f01556020820151816001015550503460025f8282546107e89190610f66565b92505081905550600160035f8282546108019190610f66565b925050819055507f3f9463701f02c04940786052d9e8b9aabc9b0405f93ff6ef189265f5f51ee08933343060405161083b939291906112a1565b60405180910390a150565b60025481565b610854610a37565b5f73ffffffffffffffffffffffffffffffffffffffff168173ffffffffffffffffffffffffffffffffffffffff16036108c4575f6040517f1e4fbdf70000000000000000000000000000000000000000000000000000000081526004016108bb9190610d51565b60405180910390fd5b6108cd81610abe565b50565b6060805f6108dc610b7f565b90508067ffffffffffffffff8111156108f8576108f76112d6565b5b6040519080825280602002602001820160405280156109265781602001602082028036833780820191505090505b5092508067ffffffffffffffff811115610943576109426112d6565b5b6040519080825280602002602001820160405280156109715781602001602082028036833780820191505090505b5091505f5b81811015610a31575f60015f3373ffffffffffffffffffffffffffffffffffffffff1673ffffffffffffffffffffffffffffffffffffffff1681526020019081526020015f2082815481106109ce576109cd611303565b5b905f5260205f2090600202019050805f01548583815181106109f3576109f2611303565b5b6020026020010181815250508060010154848381518110610a1757610a16611303565b5b602002602001018181525050508080600101915050610976565b50509091565b610a3f610bc6565b73ffffffffffffffffffffffffffffffffffffffff16610a5d610683565b73ffffffffffffffffffffffffffffffffffffffff1614610abc57610a80610bc6565b6040517f118cdaa7000000000000000000000000000000000000000000000000000000008152600401610ab39190610d51565b60405180910390fd5b565b5f805f9054906101000a900473ffffffffffffffffffffffffffffffffffffffff169050815f806101000a81548173ffffffffffffffffffffffffffffffffffffffff021916908373ffffffffffffffffffffffffffffffffffffffff1602179055508173ffffffffffffffffffffffffffffffffffffffff168173ffffffffffffffffffffffffffffffffffffffff167f8be0079c531659141344cd1fd0a4f28419497f9722a3daafe3b4186f6b6457e060405160405180910390a35050565b5f60015f3373ffffffffffffffffffffffffffffffffffffffff1673ffffffffffffffffffffffffffffffffffffffff1681526020019081526020015f2080549050905090565b5f33905090565b5f81519050919050565b5f82825260208201905092915050565b5f5b83811015610c04578082015181840152602081019050610be9565b5f8484015250505050565b5f601f19601f8301169050919050565b5f610c2982610bcd565b610c338185610bd7565b9350610c43818560208601610be7565b610c4c81610c0f565b840191505092915050565b5f6020820190508181035f830152610c6f8184610c1f565b905092915050565b5f819050919050565b610c8981610c77565b82525050565b5f602082019050610ca25f830184610c80565b92915050565b5f80fd5b5f73ffffffffffffffffffffffffffffffffffffffff82169050919050565b5f610cd582610cac565b9050919050565b610ce581610ccb565b8114610cef575f80fd5b50565b5f81359050610d0081610cdc565b92915050565b5f60208284031215610d1b57610d1a610ca8565b5b5f610d2884828501610cf2565b91505092915050565b5f610d3b82610cac565b9050919050565b610d4b81610d31565b82525050565b5f602082019050610d645f830184610d42565b92915050565b5f819050919050565b610d7c81610d6a565b82525050565b5f602082019050610d955f830184610d73565b92915050565b610da481610d31565b8114610dae575f80fd5b50565b5f81359050610dbf81610d9b565b92915050565b5f60208284031215610dda57610dd9610ca8565b5b5f610de784828501610db1565b91505092915050565b5f81519050919050565b5f82825260208201905092915050565b5f819050602082019050919050565b610e2281610c77565b82525050565b5f610e338383610e19565b60208301905092915050565b5f602082019050919050565b5f610e5582610df0565b610e5f8185610dfa565b9350610e6a83610e0a565b805f5b83811015610e9a578151610e818882610e28565b9750610e8c83610e3f565b925050600181019050610e6d565b5085935050505092915050565b5f6040820190508181035f830152610ebf8185610e4b565b90508181036020830152610ed38184610e4b565b90509392505050565b7f4e487b71000000000000000000000000000000000000000000000000000000005f52602260045260245ffd5b5f6002820490506001821680610f2057607f821691505b602082108103610f3357610f32610edc565b5b50919050565b7f4e487b71000000000000000000000000000000000000000000000000000000005f52601160045260245ffd5b5f610f7082610c77565b9150610f7b83610c77565b9250828201905080821115610f9357610f92610f39565b5b92915050565b7f52617465206c696d69742065786365656465642e0000000000000000000000005f82015250565b5f610fcd601483610bd7565b9150610fd882610f99565b602082019050919050565b5f6020820190508181035f830152610ffa81610fc1565b9050919050565b7f496e76616c6964207072696365206461746100000000000000000000000000005f82015250565b5f611035601283610bd7565b915061104082611001565b602082019050919050565b5f6020820190508181035f83015261106281611029565b9050919050565b5f61107382610c77565b915061107e83610c77565b925082820261108c81610c77565b915082820484148315176110a3576110a2610f39565b5b5092915050565b7f4e487b71000000000000000000000000000000000000000000000000000000005f52601260045260245ffd5b5f6110e182610c77565b91506110ec83610c77565b9250826110fc576110fb6110aa565b5b828204905092915050565b5f819050919050565b5f61112a61112561112084610cac565b611107565b610cac565b9050919050565b5f61113b82611110565b9050919050565b5f61114c82611131565b9050919050565b61115c81611142565b82525050565b5f6060820190506111755f830186610c80565b6111826020830185610d42565b61118f6040830184611153565b949350505050565b5f69ffffffffffffffffffff82169050919050565b6111b581611197565b81146111bf575f80fd5b50565b5f815190506111d0816111ac565b92915050565b6111df81610d6a565b81146111e9575f80fd5b50565b5f815190506111fa816111d6565b92915050565b61120981610c77565b8114611213575f80fd5b50565b5f8151905061122481611200565b92915050565b5f805f805f60a0868803121561124357611242610ca8565b5b5f611250888289016111c2565b9550506020611261888289016111ec565b945050604061127288828901611216565b935050606061128388828901611216565b9250506080611294888289016111c2565b9150509295509295909350565b5f6060820190506112b45f830186610d42565b6112c16020830185610c80565b6112ce6040830184610d42565b949350505050565b7f4e487b71000000000000000000000000000000000000000000000000000000005f52604160045260245ffd5b7f4e487b71000000000000000000000000000000000000000000000000000000005f52603260045260245ffdfea264697066735822122076bf8fdb0223bbca1cba22100a6df9680f3e3909e8bb657f8de37f59a852956364736f6c63430008160033",
					"opcodes": "PUSH1 0x80 PUSH1 0x40 MSTORE PUSH0 PUSH1 0x9 SSTORE CALLVALUE DUP1 ISZERO PUSH3 0x14 JUMPI PUSH0 DUP1 REVERT JUMPDEST POP PUSH1 0x40 MLOAD PUSH3 0x1C2C CODESIZE SUB DUP1 PUSH3 0x1C2C DUP4 CODECOPY DUP2 DUP2 ADD PUSH1 0x40 MSTORE DUP2 ADD SWAP1 PUSH3 0x3A SWAP2 SWAP1 PUSH3 0x47C JUMP JUMPDEST CALLER PUSH0 PUSH20 0xFFFFFFFFFFFFFFFFFFFFFFFFFFFFFFFFFFFFFFFF AND DUP2 PUSH20 0xFFFFFFFFFFFFFFFFFFFFFFFFFFFFFFFFFFFFFFFF AND SUB PUSH3 0xAE JUMPI PUSH0 PUSH1 0x40 MLOAD PUSH32 0x1E4FBDF700000000000000000000000000000000000000000000000000000000 DUP2 MSTORE PUSH1 0x4 ADD PUSH3 0xA5 SWAP2 SWAP1 PUSH3 0x582 JUMP JUMPDEST PUSH1 0x40 MLOAD DUP1 SWAP2 SUB SWAP1 REVERT JUMPDEST PUSH3 0xBF DUP2 PUSH3 0x193 PUSH1 0x20 SHL PUSH1 0x20 SHR JUMP JUMPDEST POP DUP6 PUSH1 0x4 SWAP1 DUP2 PUSH3 0xD1 SWAP2 SWAP1 PUSH3 0x7D4 JUMP JUMPDEST POP DUP5 PUSH1 0x5 SWAP1 DUP2 PUSH3 0xE3 SWAP2 SWAP1 PUSH3 0x7D4 JUMP JUMPDEST POP DUP4 PUSH1 0x6 SWAP1 DUP2 PUSH3 0xF5 SWAP2 SWAP1 PUSH3 0x7D4 JUMP JUMPDEST POP DUP3 PUSH1 0x7 PUSH0 PUSH2 0x100 EXP DUP2 SLOAD DUP2 PUSH20 0xFFFFFFFFFFFFFFFFFFFFFFFFFFFFFFFFFFFFFFFF MUL NOT AND SWAP1 DUP4 PUSH20 0xFFFFFFFFFFFFFFFFFFFFFFFFFFFFFFFFFFFFFFFF AND MUL OR SWAP1 SSTORE POP PUSH3 0x147 DUP3 PUSH3 0x193 PUSH1 0x20 SHL PUSH1 0x20 SHR JUMP JUMPDEST DUP1 PUSH1 0x8 PUSH0 PUSH2 0x100 EXP DUP2 SLOAD DUP2 PUSH20 0xFFFFFFFFFFFFFFFFFFFFFFFFFFFFFFFFFFFFFFFF MUL NOT AND SWAP1 DUP4 PUSH20 0xFFFFFFFFFFFFFFFFFFFFFFFFFFFFFFFFFFFFFFFF AND MUL OR SWAP1 SSTORE POP POP POP POP POP POP POP PUSH3 0x8B8 JUMP JUMPDEST PUSH0 DUP1 PUSH0 SWAP1 SLOAD SWAP1 PUSH2 0x100 EXP SWAP1 DIV PUSH20 0xFFFFFFFFFFFFFFFFFFFFFFFFFFFFFFFFFFFFFFFF AND SWAP1 POP DUP2 PUSH0 DUP1 PUSH2 0x100 EXP DUP2 SLOAD DUP2 PUSH20 0xFFFFFFFFFFFFFFFFFFFFFFFFFFFFFFFFFFFFFFFF MUL NOT AND SWAP1 DUP4 PUSH20 0xFFFFFFFFFFFFFFFFFFFFFFFFFFFFFFFFFFFFFFFF AND MUL OR SWAP1 SSTORE POP DUP2 PUSH20 0xFFFFFFFFFFFFFFFFFFFFFFFFFFFFFFFFFFFFFFFF AND DUP2 PUSH20 0xFFFFFFFFFFFFFFFFFFFFFFFFFFFFFFFFFFFFFFFF AND PUSH32 0x8BE0079C531659141344CD1FD0A4F28419497F9722A3DAAFE3B4186F6B6457E0 PUSH1 0x40 MLOAD PUSH1 0x40 MLOAD DUP1 SWAP2 SUB SWAP1 LOG3 POP POP JUMP JUMPDEST PUSH0 PUSH1 0x40 MLOAD SWAP1 POP SWAP1 JUMP JUMPDEST PUSH0 DUP1 REVERT JUMPDEST PUSH0 DUP1 REVERT JUMPDEST PUSH0 DUP1 REVERT JUMPDEST PUSH0 DUP1 REVERT JUMPDEST PUSH0 PUSH1 0x1F NOT PUSH1 0x1F DUP4 ADD AND SWAP1 POP SWAP2 SWAP1 POP JUMP JUMPDEST PUSH32 0x4E487B7100000000000000000000000000000000000000000000000000000000 PUSH0 MSTORE PUSH1 0x41 PUSH1 0x4 MSTORE PUSH1 0x24 PUSH0 REVERT JUMPDEST PUSH3 0x2B5 DUP3 PUSH3 0x26D JUMP JUMPDEST DUP2 ADD DUP2 DUP2 LT PUSH8 0xFFFFFFFFFFFFFFFF DUP3 GT OR ISZERO PUSH3 0x2D7 JUMPI PUSH3 0x2D6 PUSH3 0x27D JUMP JUMPDEST JUMPDEST DUP1 PUSH1 0x40 MSTORE POP POP POP JUMP JUMPDEST PUSH0 PUSH3 0x2EB PUSH3 0x254 JUMP JUMPDEST SWAP1 POP PUSH3 0x2F9 DUP3 DUP3 PUSH3 0x2AA JUMP JUMPDEST SWAP2 SWAP1 POP JUMP JUMPDEST PUSH0 PUSH8 0xFFFFFFFFFFFFFFFF DUP3 GT ISZERO PUSH3 0x31B JUMPI PUSH3 0x31A PUSH3 0x27D JUMP JUMPDEST JUMPDEST PUSH3 0x326 DUP3 PUSH3 0x26D JUMP JUMPDEST SWAP1 POP PUSH1 0x20 DUP2 ADD SWAP1 POP SWAP2 SWAP1 POP JUMP JUMPDEST PUSH0 JUMPDEST DUP4 DUP2 LT ISZERO PUSH3 0x352 JUMPI DUP1 DUP3 ADD MLOAD DUP2 DUP5 ADD MSTORE PUSH1 0x20 DUP2 ADD SWAP1 POP PUSH3 0x335 JUMP JUMPDEST PUSH0 DUP5 DUP5 ADD MSTORE POP POP POP POP JUMP JUMPDEST PUSH0 PUSH3 0x373 PUSH3 0x36D DUP5 PUSH3 0x2FE JUMP JUMPDEST PUSH3 0x2E0 JUMP JUMPDEST SWAP1 POP DUP3 DUP2 MSTORE PUSH1 0x20 DUP2 ADD DUP5 DUP5 DUP5 ADD GT ISZERO PUSH3 0x392 JUMPI PUSH3 0x391 PUSH3 0x269 JUMP JUMPDEST JUMPDEST PUSH3 0x39F DUP5 DUP3 DUP6 PUSH3 0x333 JUMP JUMPDEST POP SWAP4 SWAP3 POP POP POP JUMP JUMPDEST PUSH0 DUP3 PUSH1 0x1F DUP4 ADD SLT PUSH3 0x3BE JUMPI PUSH3 0x3BD PUSH3 0x265 JUMP JUMPDEST JUMPDEST DUP2 MLOAD PUSH3 0x3D0 DUP5 DUP3 PUSH1 0x20 DUP7 ADD PUSH3 0x35D JUMP JUMPDEST SWAP2 POP POP SWAP3 SWAP2 POP POP JUMP JUMPDEST PUSH0 PUSH20 0xFFFFFFFFFFFFFFFFFFFFFFFFFFFFFFFFFFFFFFFF DUP3 AND SWAP1 POP SWAP2 SWAP1 POP JUMP JUMPDEST PUSH0 PUSH3 0x404 DUP3 PUSH3 0x3D9 JUMP JUMPDEST SWAP1 POP SWAP2 SWAP1 POP JUMP JUMPDEST PUSH3 0x416 DUP2 PUSH3 0x3F8 JUMP JUMPDEST DUP2 EQ PUSH3 0x421 JUMPI PUSH0 DUP1 REVERT JUMPDEST POP JUMP JUMPDEST PUSH0 DUP2 MLOAD SWAP1 POP PUSH3 0x434 DUP2 PUSH3 0x40B JUMP JUMPDEST SWAP3 SWAP2 POP POP JUMP JUMPDEST PUSH0 PUSH3 0x446 DUP3 PUSH3 0x3D9 JUMP JUMPDEST SWAP1 POP SWAP2 SWAP1 POP JUMP JUMPDEST PUSH3 0x458 DUP2 PUSH3 0x43A JUMP JUMPDEST DUP2 EQ PUSH3 0x463 JUMPI PUSH0 DUP1 REVERT JUMPDEST POP JUMP JUMPDEST PUSH0 DUP2 MLOAD SWAP1 POP PUSH3 0x476 DUP2 PUSH3 0x44D JUMP JUMPDEST SWAP3 SWAP2 POP POP JUMP JUMPDEST PUSH0 DUP1 PUSH0 DUP1 PUSH0 DUP1 PUSH1 0xC0 DUP8 DUP10 SUB SLT ISZERO PUSH3 0x499 JUMPI PUSH3 0x498 PUSH3 0x25D JUMP JUMPDEST JUMPDEST PUSH0 DUP8 ADD MLOAD PUSH8 0xFFFFFFFFFFFFFFFF DUP2 GT ISZERO PUSH3 0x4B9 JUMPI PUSH3 0x4B8 PUSH3 0x261 JUMP JUMPDEST JUMPDEST PUSH3 0x4C7 DUP10 DUP3 DUP11 ADD PUSH3 0x3A7 JUMP JUMPDEST SWAP7 POP POP PUSH1 0x20 DUP8 ADD MLOAD PUSH8 0xFFFFFFFFFFFFFFFF DUP2 GT ISZERO PUSH3 0x4EB JUMPI PUSH3 0x4EA PUSH3 0x261 JUMP JUMPDEST JUMPDEST PUSH3 0x4F9 DUP10 DUP3 DUP11 ADD PUSH3 0x3A7 JUMP JUMPDEST SWAP6 POP POP PUSH1 0x40 DUP8 ADD MLOAD PUSH8 0xFFFFFFFFFFFFFFFF DUP2 GT ISZERO PUSH3 0x51D JUMPI PUSH3 0x51C PUSH3 0x261 JUMP JUMPDEST JUMPDEST PUSH3 0x52B DUP10 DUP3 DUP11 ADD PUSH3 0x3A7 JUMP JUMPDEST SWAP5 POP POP PUSH1 0x60 PUSH3 0x53E DUP10 DUP3 DUP11 ADD PUSH3 0x424 JUMP JUMPDEST SWAP4 POP POP PUSH1 0x80 PUSH3 0x551 DUP10 DUP3 DUP11 ADD PUSH3 0x466 JUMP JUMPDEST SWAP3 POP POP PUSH1 0xA0 PUSH3 0x564 DUP10 DUP3 DUP11 ADD PUSH3 0x466 JUMP JUMPDEST SWAP2 POP POP SWAP3 SWAP6 POP SWAP3 SWAP6 POP SWAP3 SWAP6 JUMP JUMPDEST PUSH3 0x57C DUP2 PUSH3 0x43A JUMP JUMPDEST DUP3 MSTORE POP POP JUMP JUMPDEST PUSH0 PUSH1 0x20 DUP3 ADD SWAP1 POP PUSH3 0x597 PUSH0 DUP4 ADD DUP5 PUSH3 0x571 JUMP JUMPDEST SWAP3 SWAP2 POP POP JUMP JUMPDEST PUSH0 DUP2 MLOAD SWAP1 POP SWAP2 SWAP1 POP JUMP JUMPDEST PUSH32 0x4E487B7100000000000000000000000000000000000000000000000000000000 PUSH0 MSTORE PUSH1 0x22 PUSH1 0x4 MSTORE PUSH1 0x24 PUSH0 REVERT JUMPDEST PUSH0 PUSH1 0x2 DUP3 DIV SWAP1 POP PUSH1 0x1 DUP3 AND DUP1 PUSH3 0x5EC JUMPI PUSH1 0x7F DUP3 AND SWAP2 POP JUMPDEST PUSH1 0x20 DUP3 LT DUP2 SUB PUSH3 0x602 JUMPI PUSH3 0x601 PUSH3 0x5A7 JUMP JUMPDEST JUMPDEST POP SWAP2 SWAP1 POP JUMP JUMPDEST PUSH0 DUP2 SWAP1 POP DUP2 PUSH0 MSTORE PUSH1 0x20 PUSH0 KECCAK256 SWAP1 POP SWAP2 SWAP1 POP JUMP JUMPDEST PUSH0 PUSH1 0x20 PUSH1 0x1F DUP4 ADD DIV SWAP1 POP SWAP2 SWAP1 POP JUMP JUMPDEST PUSH0 DUP3 DUP3 SHL SWAP1 POP SWAP3 SWAP2 POP POP JUMP JUMPDEST PUSH0 PUSH1 0x8 DUP4 MUL PUSH3 0x666 PUSH32 0xFFFFFFFFFFFFFFFFFFFFFFFFFFFFFFFFFFFFFFFFFFFFFFFFFFFFFFFFFFFFFFFF DUP3 PUSH3 0x629 JUMP JUMPDEST PUSH3 0x672 DUP7 DUP4 PUSH3 0x629 JUMP JUMPDEST SWAP6 POP DUP1 NOT DUP5 AND SWAP4 POP DUP1 DUP7 AND DUP5 OR SWAP3 POP POP POP SWAP4 SWAP3 POP POP POP JUMP JUMPDEST PUSH0 DUP2 SWAP1 POP SWAP2 SWAP1 POP JUMP JUMPDEST PUSH0 DUP2 SWAP1 POP SWAP2 SWAP1 POP JUMP JUMPDEST PUSH0 PUSH3 0x6BC PUSH3 0x6B6 PUSH3 0x6B0 DUP5 PUSH3 0x68A JUMP JUMPDEST PUSH3 0x693 JUMP JUMPDEST PUSH3 0x68A JUMP JUMPDEST SWAP1 POP SWAP2 SWAP1 POP JUMP JUMPDEST PUSH0 DUP2 SWAP1 POP SWAP2 SWAP1 POP JUMP JUMPDEST PUSH3 0x6D7 DUP4 PUSH3 0x69C JUMP JUMPDEST PUSH3 0x6EF PUSH3 0x6E6 DUP3 PUSH3 0x6C3 JUMP JUMPDEST DUP5 DUP5 SLOAD PUSH3 0x635 JUMP JUMPDEST DUP3 SSTORE POP POP POP POP JUMP JUMPDEST PUSH0 SWAP1 JUMP JUMPDEST PUSH3 0x705 PUSH3 0x6F7 JUMP JUMPDEST PUSH3 0x712 DUP2 DUP5 DUP5 PUSH3 0x6CC JUMP JUMPDEST POP POP POP JUMP JUMPDEST JUMPDEST DUP2 DUP2 LT ISZERO PUSH3 0x739 JUMPI PUSH3 0x72D PUSH0 DUP3 PUSH3 0x6FB JUMP JUMPDEST PUSH1 0x1 DUP2 ADD SWAP1 POP PUSH3 0x718 JUMP JUMPDEST POP POP JUMP JUMPDEST PUSH1 0x1F DUP3 GT ISZERO PUSH3 0x788 JUMPI PUSH3 0x752 DUP2 PUSH3 0x608 JUMP JUMPDEST PUSH3 0x75D DUP5 PUSH3 0x61A JUMP JUMPDEST DUP2 ADD PUSH1 0x20 DUP6 LT ISZERO PUSH3 0x76D JUMPI DUP2 SWAP1 POP JUMPDEST PUSH3 0x785 PUSH3 0x77C DUP6 PUSH3 0x61A JUMP JUMPDEST DUP4 ADD DUP3 PUSH3 0x717 JUMP JUMPDEST POP POP JUMPDEST POP POP POP JUMP JUMPDEST PUSH0 DUP3 DUP3 SHR SWAP1 POP SWAP3 SWAP2 POP POP JUMP JUMPDEST PUSH0 PUSH3 0x7AA PUSH0 NOT DUP5 PUSH1 0x8 MUL PUSH3 0x78D JUMP JUMPDEST NOT DUP1 DUP4 AND SWAP2 POP POP SWAP3 SWAP2 POP POP JUMP JUMPDEST PUSH0 PUSH3 0x7C4 DUP4 DUP4 PUSH3 0x799 JUMP JUMPDEST SWAP2 POP DUP3 PUSH1 0x2 MUL DUP3 OR SWAP1 POP SWAP3 SWAP2 POP POP JUMP JUMPDEST PUSH3 0x7DF DUP3 PUSH3 0x59D JUMP JUMPDEST PUSH8 0xFFFFFFFFFFFFFFFF DUP2 GT ISZERO PUSH3 0x7FB JUMPI PUSH3 0x7FA PUSH3 0x27D JUMP JUMPDEST JUMPDEST PUSH3 0x807 DUP3 SLOAD PUSH3 0x5D4 JUMP JUMPDEST PUSH3 0x814 DUP3 DUP3 DUP6 PUSH3 0x73D JUMP JUMPDEST PUSH0 PUSH1 0x20 SWAP1 POP PUSH1 0x1F DUP4 GT PUSH1 0x1 DUP2 EQ PUSH3 0x84A JUMPI PUSH0 DUP5 ISZERO PUSH3 0x835 JUMPI DUP3 DUP8 ADD MLOAD SWAP1 POP JUMPDEST PUSH3 0x841 DUP6 DUP3 PUSH3 0x7B7 JUMP JUMPDEST DUP7 SSTORE POP PUSH3 0x8B0 JUMP JUMPDEST PUSH1 0x1F NOT DUP5 AND PUSH3 0x85A DUP7 PUSH3 0x608 JUMP JUMPDEST PUSH0 JUMPDEST DUP3 DUP2 LT ISZERO PUSH3 0x883 JUMPI DUP5 DUP10 ADD MLOAD DUP3 SSTORE PUSH1 0x1 DUP3 ADD SWAP2 POP PUSH1 0x20 DUP6 ADD SWAP5 POP PUSH1 0x20 DUP2 ADD SWAP1 POP PUSH3 0x85C JUMP JUMPDEST DUP7 DUP4 LT ISZERO PUSH3 0x8A3 JUMPI DUP5 DUP10 ADD MLOAD PUSH3 0x89F PUSH1 0x1F DUP10 AND DUP3 PUSH3 0x799 JUMP JUMPDEST DUP4 SSTORE POP JUMPDEST PUSH1 0x1 PUSH1 0x2 DUP9 MUL ADD DUP9 SSTORE POP POP POP JUMPDEST POP POP POP POP POP POP JUMP JUMPDEST PUSH2 0x1366 DUP1 PUSH3 0x8C6 PUSH0 CODECOPY PUSH0 RETURN INVALID PUSH1 0x80 PUSH1 0x40 MSTORE PUSH1 0x4 CALLDATASIZE LT PUSH2 0xDC JUMPI PUSH0 CALLDATALOAD PUSH1 0xE0 SHR DUP1 PUSH4 0x7284E416 GT PUSH2 0x7E JUMPI DUP1 PUSH4 0xED88C68E GT PUSH2 0x58 JUMPI DUP1 PUSH4 0xED88C68E EQ PUSH2 0x25A JUMPI DUP1 PUSH4 0xF0EA4BFC EQ PUSH2 0x264 JUMPI DUP1 PUSH4 0xF2FDE38B EQ PUSH2 0x28E JUMPI DUP1 PUSH4 0xFEA49837 EQ PUSH2 0x2B6 JUMPI PUSH2 0xDC JUMP JUMPDEST DUP1 PUSH4 0x7284E416 EQ PUSH2 0x1DC JUMPI DUP1 PUSH4 0x8DA5CB5B EQ PUSH2 0x206 JUMPI DUP1 PUSH4 0x8E15F473 EQ PUSH2 0x230 JUMPI PUSH2 0xDC JUMP JUMPDEST DUP1 PUSH4 0x254B9DEF GT PUSH2 0xBA JUMPI DUP1 PUSH4 0x254B9DEF EQ PUSH2 0x15C JUMPI DUP1 PUSH4 0x2B6BD172 EQ PUSH2 0x186 JUMPI DUP1 PUSH4 0x3CCFD60B EQ PUSH2 0x1B0 JUMPI DUP1 PUSH4 0x715018A6 EQ PUSH2 0x1C6 JUMPI PUSH2 0xDC JUMP JUMPDEST DUP1 PUSH4 0x6FDDE03 EQ PUSH2 0xE0 JUMPI DUP1 PUSH4 0xB024F87 EQ PUSH2 0x10A JUMPI DUP1 PUSH4 0x21B8092E EQ PUSH2 0x134 JUMPI JUMPDEST PUSH0 DUP1 REVERT JUMPDEST CALLVALUE DUP1 ISZERO PUSH2 0xEB JUMPI PUSH0 DUP1 REVERT JUMPDEST POP PUSH2 0xF4 PUSH2 0x2E1 JUMP JUMPDEST PUSH1 0x40 MLOAD PUSH2 0x101 SWAP2 SWAP1 PUSH2 0xC57 JUMP JUMPDEST PUSH1 0x40 MLOAD DUP1 SWAP2 SUB SWAP1 RETURN JUMPDEST CALLVALUE DUP1 ISZERO PUSH2 0x115 JUMPI PUSH0 DUP1 REVERT JUMPDEST POP PUSH2 0x11E PUSH2 0x36D JUMP JUMPDEST PUSH1 0x40 MLOAD PUSH2 0x12B SWAP2 SWAP1 PUSH2 0xC8F JUMP JUMPDEST PUSH1 0x40 MLOAD DUP1 SWAP2 SUB SWAP1 RETURN JUMPDEST CALLVALUE DUP1 ISZERO PUSH2 0x13F JUMPI PUSH0 DUP1 REVERT JUMPDEST POP PUSH2 0x15A PUSH1 0x4 DUP1 CALLDATASIZE SUB DUP2 ADD SWAP1 PUSH2 0x155 SWAP2 SWAP1 PUSH2 0xD06 JUMP JUMPDEST PUSH2 0x373 JUMP JUMPDEST STOP JUMPDEST CALLVALUE DUP1 ISZERO PUSH2 0x167 JUMPI PUSH0 DUP1 REVERT JUMPDEST POP PUSH2 0x170 PUSH2 0x417 JUMP JUMPDEST PUSH1 0x40 MLOAD PUSH2 0x17D SWAP2 SWAP1 PUSH2 0xC8F JUMP JUMPDEST PUSH1 0x40 MLOAD DUP1 SWAP2 SUB SWAP1 RETURN JUMPDEST CALLVALUE DUP1 ISZERO PUSH2 0x191 JUMPI PUSH0 DUP1 REVERT JUMPDEST POP PUSH2 0x19A PUSH2 0x488 JUMP JUMPDEST PUSH1 0x40 MLOAD PUSH2 0x1A7 SWAP2 SWAP1 PUSH2 0xC57 JUMP JUMPDEST PUSH1 0x40 MLOAD DUP1 SWAP2 SUB SWAP1 RETURN JUMPDEST CALLVALUE DUP1 ISZERO PUSH2 0x1BB JUMPI PUSH0 DUP1 REVERT JUMPDEST POP PUSH2 0x1C4 PUSH2 0x514 JUMP JUMPDEST STOP JUMPDEST CALLVALUE DUP1 ISZERO PUSH2 0x1D1 JUMPI PUSH0 DUP1 REVERT JUMPDEST POP PUSH2 0x1DA PUSH2 0x5E4 JUMP JUMPDEST STOP JUMPDEST CALLVALUE DUP1 ISZERO PUSH2 0x1E7 JUMPI PUSH0 DUP1 REVERT JUMPDEST POP PUSH2 0x1F0 PUSH2 0x5F7 JUMP JUMPDEST PUSH1 0x40 MLOAD PUSH2 0x1FD SWAP2 SWAP1 PUSH2 0xC57 JUMP JUMPDEST PUSH1 0x40 MLOAD DUP1 SWAP2 SUB SWAP1 RETURN JUMPDEST CALLVALUE DUP1 ISZERO PUSH2 0x211 JUMPI PUSH0 DUP1 REVERT JUMPDEST POP PUSH2 0x21A PUSH2 0x683 JUMP JUMPDEST PUSH1 0x40 MLOAD PUSH2 0x227 SWAP2 SWAP1 PUSH2 0xD51 JUMP JUMPDEST PUSH1 0x40 MLOAD DUP1 SWAP2 SUB SWAP1 RETURN JUMPDEST CALLVALUE DUP1 ISZERO PUSH2 0x23B JUMPI PUSH0 DUP1 REVERT JUMPDEST POP PUSH2 0x244 PUSH2 0x6AA JUMP JUMPDEST PUSH1 0x40 MLOAD PUSH2 0x251 SWAP2 SWAP1 PUSH2 0xD82 JUMP JUMPDEST PUSH1 0x40 MLOAD DUP1 SWAP2 SUB SWAP1 RETURN JUMPDEST PUSH2 0x262 PUSH2 0x747 JUMP JUMPDEST STOP JUMPDEST CALLVALUE DUP1 ISZERO PUSH2 0x26F JUMPI PUSH0 DUP1 REVERT JUMPDEST POP PUSH2 0x278 PUSH2 0x846 JUMP JUMPDEST PUSH1 0x40 MLOAD PUSH2 0x285 SWAP2 SWAP1 PUSH2 0xC8F JUMP JUMPDEST PUSH1 0x40 MLOAD DUP1 SWAP2 SUB SWAP1 RETURN JUMPDEST CALLVALUE DUP1 ISZERO PUSH2 0x299 JUMPI PUSH0 DUP1 REVERT JUMPDEST POP PUSH2 0x2B4 PUSH1 0x4 DUP1 CALLDATASIZE SUB DUP2 ADD SWAP1 PUSH2 0x2AF SWAP2 SWAP1 PUSH2 0xDC5 JUMP JUMPDEST PUSH2 0x84C JUMP JUMPDEST STOP JUMPDEST CALLVALUE DUP1 ISZERO PUSH2 0x2C1 JUMPI PUSH0 DUP1 REVERT JUMPDEST POP PUSH2 0x2CA PUSH2 0x8D0 JUMP JUMPDEST PUSH1 0x40 MLOAD PUSH2 0x2D8 SWAP3 SWAP2 SWAP1 PUSH2 0xEA7 JUMP JUMPDEST PUSH1 0x40 MLOAD DUP1 SWAP2 SUB SWAP1 RETURN JUMPDEST PUSH1 0x4 DUP1 SLOAD PUSH2 0x2EE SWAP1 PUSH2 0xF09 JUMP JUMPDEST DUP1 PUSH1 0x1F ADD PUSH1 0x20 DUP1 SWAP2 DIV MUL PUSH1 0x20 ADD PUSH1 0x40 MLOAD SWAP1 DUP2 ADD PUSH1 0x40 MSTORE DUP1 SWAP3 SWAP2 SWAP1 DUP2 DUP2 MSTORE PUSH1 0x20 ADD DUP3 DUP1 SLOAD PUSH2 0x31A SWAP1 PUSH2 0xF09 JUMP JUMPDEST DUP1 ISZERO PUSH2 0x365 JUMPI DUP1 PUSH1 0x1F LT PUSH2 0x33C JUMPI PUSH2 0x100 DUP1 DUP4 SLOAD DIV MUL DUP4 MSTORE SWAP2 PUSH1 0x20 ADD SWAP2 PUSH2 0x365 JUMP JUMPDEST DUP3 ADD SWAP2 SWAP1 PUSH0 MSTORE PUSH1 0x20 PUSH0 KECCAK256 SWAP1 JUMPDEST DUP2 SLOAD DUP2 MSTORE SWAP1 PUSH1 0x1 ADD SWAP1 PUSH1 0x20 ADD DUP1 DUP4 GT PUSH2 0x348 JUMPI DUP3 SWAP1 SUB PUSH1 0x1F AND DUP3 ADD SWAP2 JUMPDEST POP POP POP POP POP DUP2 JUMP JUMPDEST PUSH1 0x3 SLOAD DUP2 JUMP JUMPDEST PUSH2 0x37B PUSH2 0xA37 JUMP JUMPDEST PUSH1 0x3C DUP1 PUSH1 0x9 SLOAD PUSH2 0x38B SWAP2 SWAP1 PUSH2 0xF66 JUMP JUMPDEST TIMESTAMP GT PUSH2 0x3CC JUMPI PUSH1 0x40 MLOAD PUSH32 0x8C379A000000000000000000000000000000000000000000000000000000000 DUP2 MSTORE PUSH1 0x4 ADD PUSH2 0x3C3 SWAP1 PUSH2 0xFE3 JUMP JUMPDEST PUSH1 0x40 MLOAD DUP1 SWAP2 SUB SWAP1 REVERT JUMPDEST TIMESTAMP PUSH1 0x9 DUP2 SWAP1 SSTORE POP DUP2 PUSH1 0x7 PUSH0 PUSH2 0x100 EXP DUP2 SLOAD DUP2 PUSH20 0xFFFFFFFFFFFFFFFFFFFFFFFFFFFFFFFFFFFFFFFF MUL NOT AND SWAP1 DUP4 PUSH20 0xFFFFFFFFFFFFFFFFFFFFFFFFFFFFFFFFFFFFFFFF AND MUL OR SWAP1 SSTORE POP POP POP JUMP JUMPDEST PUSH0 DUP1 PUSH2 0x421 PUSH2 0x6AA JUMP JUMPDEST SWAP1 POP PUSH0 DUP2 SGT PUSH2 0x465 JUMPI PUSH1 0x40 MLOAD PUSH32 0x8C379A000000000000000000000000000000000000000000000000000000000 DUP2 MSTORE PUSH1 0x4 ADD PUSH2 0x45C SWAP1 PUSH2 0x104B JUMP JUMPDEST PUSH1 0x40 MLOAD DUP1 SWAP2 SUB SWAP1 REVERT JUMPDEST PUSH4 0x5F5E100 DUP2 PUSH1 0x2 SLOAD PUSH2 0x478 SWAP2 SWAP1 PUSH2 0x1069 JUMP JUMPDEST PUSH2 0x482 SWAP2 SWAP1 PUSH2 0x10D7 JUMP JUMPDEST SWAP2 POP POP SWAP1 JUMP JUMPDEST PUSH1 0x6 DUP1 SLOAD PUSH2 0x495 SWAP1 PUSH2 0xF09 JUMP JUMPDEST DUP1 PUSH1 0x1F ADD PUSH1 0x20 DUP1 SWAP2 DIV MUL PUSH1 0x20 ADD PUSH1 0x40 MLOAD SWAP1 DUP2 ADD PUSH1 0x40 MSTORE DUP1 SWAP3 SWAP2 SWAP1 DUP2 DUP2 MSTORE PUSH1 0x20 ADD DUP3 DUP1 SLOAD PUSH2 0x4C1 SWAP1 PUSH2 0xF09 JUMP JUMPDEST DUP1 ISZERO PUSH2 0x50C JUMPI DUP1 PUSH1 0x1F LT PUSH2 0x4E3 JUMPI PUSH2 0x100 DUP1 DUP4 SLOAD DIV MUL DUP4 MSTORE SWAP2 PUSH1 0x20 ADD SWAP2 PUSH2 0x50C JUMP JUMPDEST DUP3 ADD SWAP2 SWAP1 PUSH0 MSTORE PUSH1 0x20 PUSH0 KECCAK256 SWAP1 JUMPDEST DUP2 SLOAD DUP2 MSTORE SWAP1 PUSH1 0x1 ADD SWAP1 PUSH1 0x20 ADD DUP1 DUP4 GT PUSH2 0x4EF JUMPI DUP3 SWAP1 SUB PUSH1 0x1F AND DUP3 ADD SWAP2 JUMPDEST POP POP POP POP POP DUP2 JUMP JUMPDEST PUSH2 0x51C PUSH2 0xA37 JUMP JUMPDEST PUSH0 SELFBALANCE SWAP1 POP PUSH1 0x7 PUSH0 SWAP1 SLOAD SWAP1 PUSH2 0x100 EXP SWAP1 DIV PUSH20 0xFFFFFFFFFFFFFFFFFFFFFFFFFFFFFFFFFFFFFFFF AND PUSH20 0xFFFFFFFFFFFFFFFFFFFFFFFFFFFFFFFFFFFFFFFF AND PUSH2 0x8FC DUP3 SWAP1 DUP2 ISZERO MUL SWAP1 PUSH1 0x40 MLOAD PUSH0 PUSH1 0x40 MLOAD DUP1 DUP4 SUB DUP2 DUP6 DUP9 DUP9 CALL SWAP4 POP POP POP POP ISZERO DUP1 ISZERO PUSH2 0x584 JUMPI RETURNDATASIZE PUSH0 DUP1 RETURNDATACOPY RETURNDATASIZE PUSH0 REVERT JUMPDEST POP PUSH32 0xA51BB7C2C2049AB09FBFF5561211A4EE34B3B4CEE74C42F1BCE5461CD4EF3F8D DUP2 ADDRESS PUSH1 0x7 PUSH0 SWAP1 SLOAD SWAP1 PUSH2 0x100 EXP SWAP1 DIV PUSH20 0xFFFFFFFFFFFFFFFFFFFFFFFFFFFFFFFFFFFFFFFF AND PUSH1 0x40 MLOAD PUSH2 0x5D9 SWAP4 SWAP3 SWAP2 SWAP1 PUSH2 0x1162 JUMP JUMPDEST PUSH1 0x40 MLOAD DUP1 SWAP2 SUB SWAP1 LOG1 POP JUMP JUMPDEST PUSH2 0x5EC PUSH2 0xA37 JUMP JUMPDEST PUSH2 0x5F5 PUSH0 PUSH2 0xABE JUMP JUMPDEST JUMP JUMPDEST PUSH1 0x5 DUP1 SLOAD PUSH2 0x604 SWAP1 PUSH2 0xF09 JUMP JUMPDEST DUP1 PUSH1 0x1F ADD PUSH1 0x20 DUP1 SWAP2 DIV MUL PUSH1 0x20 ADD PUSH1 0x40 MLOAD SWAP1 DUP2 ADD PUSH1 0x40 MSTORE DUP1 SWAP3 SWAP2 SWAP1 DUP2 DUP2 MSTORE PUSH1 0x20 ADD DUP3 DUP1 SLOAD PUSH2 0x630 SWAP1 PUSH2 0xF09 JUMP JUMPDEST DUP1 ISZERO PUSH2 0x67B JUMPI DUP1 PUSH1 0x1F LT PUSH2 0x652 JUMPI PUSH2 0x100 DUP1 DUP4 SLOAD DIV MUL DUP4 MSTORE SWAP2 PUSH1 0x20 ADD SWAP2 PUSH2 0x67B JUMP JUMPDEST DUP3 ADD SWAP2 SWAP1 PUSH0 MSTORE PUSH1 0x20 PUSH0 KECCAK256 SWAP1 JUMPDEST DUP2 SLOAD DUP2 MSTORE SWAP1 PUSH1 0x1 ADD SWAP1 PUSH1 0x20 ADD DUP1 DUP4 GT PUSH2 0x65E JUMPI DUP3 SWAP1 SUB PUSH1 0x1F AND DUP3 ADD SWAP2 JUMPDEST POP POP POP POP POP DUP2 JUMP JUMPDEST PUSH0 DUP1 PUSH0 SWAP1 SLOAD SWAP1 PUSH2 0x100 EXP SWAP1 DIV PUSH20 0xFFFFFFFFFFFFFFFFFFFFFFFFFFFFFFFFFFFFFFFF AND SWAP1 POP SWAP1 JUMP JUMPDEST PUSH0 DUP1 PUSH1 0x8 PUSH0 SWAP1 SLOAD SWAP1 PUSH2 0x100 EXP SWAP1 DIV PUSH20 0xFFFFFFFFFFFFFFFFFFFFFFFFFFFFFFFFFFFFFFFF AND PUSH20 0xFFFFFFFFFFFFFFFFFFFFFFFFFFFFFFFFFFFFFFFF AND PUSH4 0xFEAF968C PUSH1 0x40 MLOAD DUP2 PUSH4 0xFFFFFFFF AND PUSH1 0xE0 SHL DUP2 MSTORE PUSH1 0x4 ADD PUSH1 0xA0 PUSH1 0x40 MLOAD DUP1 DUP4 SUB DUP2 DUP7 GAS STATICCALL ISZERO DUP1 ISZERO PUSH2 0x716 JUMPI RETURNDATASIZE PUSH0 DUP1 RETURNDATACOPY RETURNDATASIZE PUSH0 REVERT JUMPDEST POP POP POP POP PUSH1 0x40 MLOAD RETURNDATASIZE PUSH1 0x1F NOT PUSH1 0x1F DUP3 ADD AND DUP3 ADD DUP1 PUSH1 0x40 MSTORE POP DUP2 ADD SWAP1 PUSH2 0x73A SWAP2 SWAP1 PUSH2 0x122A JUMP JUMPDEST POP POP POP SWAP2 POP POP DUP1 SWAP2 POP POP SWAP1 JUMP JUMPDEST PUSH0 PUSH1 0x40 MLOAD DUP1 PUSH1 0x40 ADD PUSH1 0x40 MSTORE DUP1 CALLVALUE DUP2 MSTORE PUSH1 0x20 ADD TIMESTAMP DUP2 MSTORE POP SWAP1 POP PUSH1 0x1 PUSH0 CALLER PUSH20 0xFFFFFFFFFFFFFFFFFFFFFFFFFFFFFFFFFFFFFFFF AND PUSH20 0xFFFFFFFFFFFFFFFFFFFFFFFFFFFFFFFFFFFFFFFF AND DUP2 MSTORE PUSH1 0x20 ADD SWAP1 DUP2 MSTORE PUSH1 0x20 ADD PUSH0 KECCAK256 DUP2 SWAP1 DUP1 PUSH1 0x1 DUP2 SLOAD ADD DUP1 DUP3 SSTORE DUP1 SWAP2 POP POP PUSH1 0x1 SWAP1 SUB SWAP1 PUSH0 MSTORE PUSH1 0x20 PUSH0 KECCAK256 SWAP1 PUSH1 0x2 MUL ADD PUSH0 SWAP1 SWAP2 SWAP1 SWAP2 SWAP1 SWAP2 POP PUSH0 DUP3 ADD MLOAD DUP2 PUSH0 ADD SSTORE PUSH1 0x20 DUP3 ADD MLOAD DUP2 PUSH1 0x1 ADD SSTORE POP POP CALLVALUE PUSH1 0x2 PUSH0 DUP3 DUP3 SLOAD PUSH2 0x7E8 SWAP2 SWAP1 PUSH2 0xF66 JUMP JUMPDEST SWAP3 POP POP DUP2 SWAP1 SSTORE POP PUSH1 0x1 PUSH1 0x3 PUSH0 DUP3 DUP3 SLOAD PUSH2 0x801 SWAP2 SWAP1 PUSH2 0xF66 JUMP JUMPDEST SWAP3 POP POP DUP2 SWAP1 SSTORE POP PUSH32 0x3F9463701F02C04940786052D9E8B9AABC9B0405F93FF6EF189265F5F51EE089 CALLER CALLVALUE ADDRESS PUSH1 0x40 MLOAD PUSH2 0x83B SWAP4 SWAP3 SWAP2 SWAP1 PUSH2 0x12A1 JUMP JUMPDEST PUSH1 0x40 MLOAD DUP1 SWAP2 SUB SWAP1 LOG1 POP JUMP JUMPDEST PUSH1 0x2 SLOAD DUP2 JUMP JUMPDEST PUSH2 0x854 PUSH2 0xA37 JUMP JUMPDEST PUSH0 PUSH20 0xFFFFFFFFFFFFFFFFFFFFFFFFFFFFFFFFFFFFFFFF AND DUP2 PUSH20 0xFFFFFFFFFFFFFFFFFFFFFFFFFFFFFFFFFFFFFFFF AND SUB PUSH2 0x8C4 JUMPI PUSH0 PUSH1 0x40 MLOAD PUSH32 0x1E4FBDF700000000000000000000000000000000000000000000000000000000 DUP2 MSTORE PUSH1 0x4 ADD PUSH2 0x8BB SWAP2 SWAP1 PUSH2 0xD51 JUMP JUMPDEST PUSH1 0x40 MLOAD DUP1 SWAP2 SUB SWAP1 REVERT JUMPDEST PUSH2 0x8CD DUP2 PUSH2 0xABE JUMP JUMPDEST POP JUMP JUMPDEST PUSH1 0x60 DUP1 PUSH0 PUSH2 0x8DC PUSH2 0xB7F JUMP JUMPDEST SWAP1 POP DUP1 PUSH8 0xFFFFFFFFFFFFFFFF DUP2 GT ISZERO PUSH2 0x8F8 JUMPI PUSH2 0x8F7 PUSH2 0x12D6 JUMP JUMPDEST JUMPDEST PUSH1 0x40 MLOAD SWAP1 DUP1 DUP3 MSTORE DUP1 PUSH1 0x20 MUL PUSH1 0x20 ADD DUP3 ADD PUSH1 0x40 MSTORE DUP1 ISZERO PUSH2 0x926 JUMPI DUP2 PUSH1 0x20 ADD PUSH1 0x20 DUP3 MUL DUP1 CALLDATASIZE DUP4 CALLDATACOPY DUP1 DUP3 ADD SWAP2 POP POP SWAP1 POP JUMPDEST POP SWAP3 POP DUP1 PUSH8 0xFFFFFFFFFFFFFFFF DUP2 GT ISZERO PUSH2 0x943 JUMPI PUSH2 0x942 PUSH2 0x12D6 JUMP JUMPDEST JUMPDEST PUSH1 0x40 MLOAD SWAP1 DUP1 DUP3 MSTORE DUP1 PUSH1 0x20 MUL PUSH1 0x20 ADD DUP3 ADD PUSH1 0x40 MSTORE DUP1 ISZERO PUSH2 0x971 JUMPI DUP2 PUSH1 0x20 ADD PUSH1 0x20 DUP3 MUL DUP1 CALLDATASIZE DUP4 CALLDATACOPY DUP1 DUP3 ADD SWAP2 POP POP SWAP1 POP JUMPDEST POP SWAP2 POP PUSH0 JUMPDEST DUP2 DUP2 LT ISZERO PUSH2 0xA31 JUMPI PUSH0 PUSH1 0x1 PUSH0 CALLER PUSH20 0xFFFFFFFFFFFFFFFFFFFFFFFFFFFFFFFFFFFFFFFF AND PUSH20 0xFFFFFFFFFFFFFFFFFFFFFFFFFFFFFFFFFFFFFFFF AND DUP2 MSTORE PUSH1 0x20 ADD SWAP1 DUP2 MSTORE PUSH1 0x20 ADD PUSH0 KECCAK256 DUP3 DUP2 SLOAD DUP2 LT PUSH2 0x9CE JUMPI PUSH2 0x9CD PUSH2 0x1303 JUMP JUMPDEST JUMPDEST SWAP1 PUSH0 MSTORE PUSH1 0x20 PUSH0 KECCAK256 SWAP1 PUSH1 0x2 MUL ADD SWAP1 POP DUP1 PUSH0 ADD SLOAD DUP6 DUP4 DUP2 MLOAD DUP2 LT PUSH2 0x9F3 JUMPI PUSH2 0x9F2 PUSH2 0x1303 JUMP JUMPDEST JUMPDEST PUSH1 0x20 MUL PUSH1 0x20 ADD ADD DUP2 DUP2 MSTORE POP POP DUP1 PUSH1 0x1 ADD SLOAD DUP5 DUP4 DUP2 MLOAD DUP2 LT PUSH2 0xA17 JUMPI PUSH2 0xA16 PUSH2 0x1303 JUMP JUMPDEST JUMPDEST PUSH1 0x20 MUL PUSH1 0x20 ADD ADD DUP2 DUP2 MSTORE POP POP POP DUP1 DUP1 PUSH1 0x1 ADD SWAP2 POP POP PUSH2 0x976 JUMP JUMPDEST POP POP SWAP1 SWAP2 JUMP JUMPDEST PUSH2 0xA3F PUSH2 0xBC6 JUMP JUMPDEST PUSH20 0xFFFFFFFFFFFFFFFFFFFFFFFFFFFFFFFFFFFFFFFF AND PUSH2 0xA5D PUSH2 0x683 JUMP JUMPDEST PUSH20 0xFFFFFFFFFFFFFFFFFFFFFFFFFFFFFFFFFFFFFFFF AND EQ PUSH2 0xABC JUMPI PUSH2 0xA80 PUSH2 0xBC6 JUMP JUMPDEST PUSH1 0x40 MLOAD PUSH32 0x118CDAA700000000000000000000000000000000000000000000000000000000 DUP2 MSTORE PUSH1 0x4 ADD PUSH2 0xAB3 SWAP2 SWAP1 PUSH2 0xD51 JUMP JUMPDEST PUSH1 0x40 MLOAD DUP1 SWAP2 SUB SWAP1 REVERT JUMPDEST JUMP JUMPDEST PUSH0 DUP1 PUSH0 SWAP1 SLOAD SWAP1 PUSH2 0x100 EXP SWAP1 DIV PUSH20 0xFFFFFFFFFFFFFFFFFFFFFFFFFFFFFFFFFFFFFFFF AND SWAP1 POP DUP2 PUSH0 DUP1 PUSH2 0x100 EXP DUP2 SLOAD DUP2 PUSH20 0xFFFFFFFFFFFFFFFFFFFFFFFFFFFFFFFFFFFFFFFF MUL NOT AND SWAP1 DUP4 PUSH20 0xFFFFFFFFFFFFFFFFFFFFFFFFFFFFFFFFFFFFFFFF AND MUL OR SWAP1 SSTORE POP DUP2 PUSH20 0xFFFFFFFFFFFFFFFFFFFFFFFFFFFFFFFFFFFFFFFF AND DUP2 PUSH20 0xFFFFFFFFFFFFFFFFFFFFFFFFFFFFFFFFFFFFFFFF AND PUSH32 0x8BE0079C531659141344CD1FD0A4F28419497F9722A3DAAFE3B4186F6B6457E0 PUSH1 0x40 MLOAD PUSH1 0x40 MLOAD DUP1 SWAP2 SUB SWAP1 LOG3 POP POP JUMP JUMPDEST PUSH0 PUSH1 0x1 PUSH0 CALLER PUSH20 0xFFFFFFFFFFFFFFFFFFFFFFFFFFFFFFFFFFFFFFFF AND PUSH20 0xFFFFFFFFFFFFFFFFFFFFFFFFFFFFFFFFFFFFFFFF AND DUP2 MSTORE PUSH1 0x20 ADD SWAP1 DUP2 MSTORE PUSH1 0x20 ADD PUSH0 KECCAK256 DUP1 SLOAD SWAP1 POP SWAP1 POP SWAP1 JUMP JUMPDEST PUSH0 CALLER SWAP1 POP SWAP1 JUMP JUMPDEST PUSH0 DUP2 MLOAD SWAP1 POP SWAP2 SWAP1 POP JUMP JUMPDEST PUSH0 DUP3 DUP3 MSTORE PUSH1 0x20 DUP3 ADD SWAP1 POP SWAP3 SWAP2 POP POP JUMP JUMPDEST PUSH0 JUMPDEST DUP4 DUP2 LT ISZERO PUSH2 0xC04 JUMPI DUP1 DUP3 ADD MLOAD DUP2 DUP5 ADD MSTORE PUSH1 0x20 DUP2 ADD SWAP1 POP PUSH2 0xBE9 JUMP JUMPDEST PUSH0 DUP5 DUP5 ADD MSTORE POP POP POP POP JUMP JUMPDEST PUSH0 PUSH1 0x1F NOT PUSH1 0x1F DUP4 ADD AND SWAP1 POP SWAP2 SWAP1 POP JUMP JUMPDEST PUSH0 PUSH2 0xC29 DUP3 PUSH2 0xBCD JUMP JUMPDEST PUSH2 0xC33 DUP2 DUP6 PUSH2 0xBD7 JUMP JUMPDEST SWAP4 POP PUSH2 0xC43 DUP2 DUP6 PUSH1 0x20 DUP7 ADD PUSH2 0xBE7 JUMP JUMPDEST PUSH2 0xC4C DUP2 PUSH2 0xC0F JUMP JUMPDEST DUP5 ADD SWAP2 POP POP SWAP3 SWAP2 POP POP JUMP JUMPDEST PUSH0 PUSH1 0x20 DUP3 ADD SWAP1 POP DUP2 DUP2 SUB PUSH0 DUP4 ADD MSTORE PUSH2 0xC6F DUP2 DUP5 PUSH2 0xC1F JUMP JUMPDEST SWAP1 POP SWAP3 SWAP2 POP POP JUMP JUMPDEST PUSH0 DUP2 SWAP1 POP SWAP2 SWAP1 POP JUMP JUMPDEST PUSH2 0xC89 DUP2 PUSH2 0xC77 JUMP JUMPDEST DUP3 MSTORE POP POP JUMP JUMPDEST PUSH0 PUSH1 0x20 DUP3 ADD SWAP1 POP PUSH2 0xCA2 PUSH0 DUP4 ADD DUP5 PUSH2 0xC80 JUMP JUMPDEST SWAP3 SWAP2 POP POP JUMP JUMPDEST PUSH0 DUP1 REVERT JUMPDEST PUSH0 PUSH20 0xFFFFFFFFFFFFFFFFFFFFFFFFFFFFFFFFFFFFFFFF DUP3 AND SWAP1 POP SWAP2 SWAP1 POP JUMP JUMPDEST PUSH0 PUSH2 0xCD5 DUP3 PUSH2 0xCAC JUMP JUMPDEST SWAP1 POP SWAP2 SWAP1 POP JUMP JUMPDEST PUSH2 0xCE5 DUP2 PUSH2 0xCCB JUMP JUMPDEST DUP2 EQ PUSH2 0xCEF JUMPI PUSH0 DUP1 REVERT JUMPDEST POP JUMP JUMPDEST PUSH0 DUP2 CALLDATALOAD SWAP1 POP PUSH2 0xD00 DUP2 PUSH2 0xCDC JUMP JUMPDEST SWAP3 SWAP2 POP POP JUMP JUMPDEST PUSH0 PUSH1 0x20 DUP3 DUP5 SUB SLT ISZERO PUSH2 0xD1B JUMPI PUSH2 0xD1A PUSH2 0xCA8 JUMP JUMPDEST JUMPDEST PUSH0 PUSH2 0xD28 DUP5 DUP3 DUP6 ADD PUSH2 0xCF2 JUMP JUMPDEST SWAP2 POP POP SWAP3 SWAP2 POP POP JUMP JUMPDEST PUSH0 PUSH2 0xD3B DUP3 PUSH2 0xCAC JUMP JUMPDEST SWAP1 POP SWAP2 SWAP1 POP JUMP JUMPDEST PUSH2 0xD4B DUP2 PUSH2 0xD31 JUMP JUMPDEST DUP3 MSTORE POP POP JUMP JUMPDEST PUSH0 PUSH1 0x20 DUP3 ADD SWAP1 POP PUSH2 0xD64 PUSH0 DUP4 ADD DUP5 PUSH2 0xD42 JUMP JUMPDEST SWAP3 SWAP2 POP POP JUMP JUMPDEST PUSH0 DUP2 SWAP1 POP SWAP2 SWAP1 POP JUMP JUMPDEST PUSH2 0xD7C DUP2 PUSH2 0xD6A JUMP JUMPDEST DUP3 MSTORE POP POP JUMP JUMPDEST PUSH0 PUSH1 0x20 DUP3 ADD SWAP1 POP PUSH2 0xD95 PUSH0 DUP4 ADD DUP5 PUSH2 0xD73 JUMP JUMPDEST SWAP3 SWAP2 POP POP JUMP JUMPDEST PUSH2 0xDA4 DUP2 PUSH2 0xD31 JUMP JUMPDEST DUP2 EQ PUSH2 0xDAE JUMPI PUSH0 DUP1 REVERT JUMPDEST POP JUMP JUMPDEST PUSH0 DUP2 CALLDATALOAD SWAP1 POP PUSH2 0xDBF DUP2 PUSH2 0xD9B JUMP JUMPDEST SWAP3 SWAP2 POP POP JUMP JUMPDEST PUSH0 PUSH1 0x20 DUP3 DUP5 SUB SLT ISZERO PUSH2 0xDDA JUMPI PUSH2 0xDD9 PUSH2 0xCA8 JUMP JUMPDEST JUMPDEST PUSH0 PUSH2 0xDE7 DUP5 DUP3 DUP6 ADD PUSH2 0xDB1 JUMP JUMPDEST SWAP2 POP POP SWAP3 SWAP2 POP POP JUMP JUMPDEST PUSH0 DUP2 MLOAD SWAP1 POP SWAP2 SWAP1 POP JUMP JUMPDEST PUSH0 DUP3 DUP3 MSTORE PUSH1 0x20 DUP3 ADD SWAP1 POP SWAP3 SWAP2 POP POP JUMP JUMPDEST PUSH0 DUP2 SWAP1 POP PUSH1 0x20 DUP3 ADD SWAP1 POP SWAP2 SWAP1 POP JUMP JUMPDEST PUSH2 0xE22 DUP2 PUSH2 0xC77 JUMP JUMPDEST DUP3 MSTORE POP POP JUMP JUMPDEST PUSH0 PUSH2 0xE33 DUP4 DUP4 PUSH2 0xE19 JUMP JUMPDEST PUSH1 0x20 DUP4 ADD SWAP1 POP SWAP3 SWAP2 POP POP JUMP JUMPDEST PUSH0 PUSH1 0x20 DUP3 ADD SWAP1 POP SWAP2 SWAP1 POP JUMP JUMPDEST PUSH0 PUSH2 0xE55 DUP3 PUSH2 0xDF0 JUMP JUMPDEST PUSH2 0xE5F DUP2 DUP6 PUSH2 0xDFA JUMP JUMPDEST SWAP4 POP PUSH2 0xE6A DUP4 PUSH2 0xE0A JUMP JUMPDEST DUP1 PUSH0 JUMPDEST DUP4 DUP2 LT ISZERO PUSH2 0xE9A JUMPI DUP2 MLOAD PUSH2 0xE81 DUP9 DUP3 PUSH2 0xE28 JUMP JUMPDEST SWAP8 POP PUSH2 0xE8C DUP4 PUSH2 0xE3F JUMP JUMPDEST SWAP3 POP POP PUSH1 0x1 DUP2 ADD SWAP1 POP PUSH2 0xE6D JUMP JUMPDEST POP DUP6 SWAP4 POP POP POP POP SWAP3 SWAP2 POP POP JUMP JUMPDEST PUSH0 PUSH1 0x40 DUP3 ADD SWAP1 POP DUP2 DUP2 SUB PUSH0 DUP4 ADD MSTORE PUSH2 0xEBF DUP2 DUP6 PUSH2 0xE4B JUMP JUMPDEST SWAP1 POP DUP2 DUP2 SUB PUSH1 0x20 DUP4 ADD MSTORE PUSH2 0xED3 DUP2 DUP5 PUSH2 0xE4B JUMP JUMPDEST SWAP1 POP SWAP4 SWAP3 POP POP POP JUMP JUMPDEST PUSH32 0x4E487B7100000000000000000000000000000000000000000000000000000000 PUSH0 MSTORE PUSH1 0x22 PUSH1 0x4 MSTORE PUSH1 0x24 PUSH0 REVERT JUMPDEST PUSH0 PUSH1 0x2 DUP3 DIV SWAP1 POP PUSH1 0x1 DUP3 AND DUP1 PUSH2 0xF20 JUMPI PUSH1 0x7F DUP3 AND SWAP2 POP JUMPDEST PUSH1 0x20 DUP3 LT DUP2 SUB PUSH2 0xF33 JUMPI PUSH2 0xF32 PUSH2 0xEDC JUMP JUMPDEST JUMPDEST POP SWAP2 SWAP1 POP JUMP JUMPDEST PUSH32 0x4E487B7100000000000000000000000000000000000000000000000000000000 PUSH0 MSTORE PUSH1 0x11 PUSH1 0x4 MSTORE PUSH1 0x24 PUSH0 REVERT JUMPDEST PUSH0 PUSH2 0xF70 DUP3 PUSH2 0xC77 JUMP JUMPDEST SWAP2 POP PUSH2 0xF7B DUP4 PUSH2 0xC77 JUMP JUMPDEST SWAP3 POP DUP3 DUP3 ADD SWAP1 POP DUP1 DUP3 GT ISZERO PUSH2 0xF93 JUMPI PUSH2 0xF92 PUSH2 0xF39 JUMP JUMPDEST JUMPDEST SWAP3 SWAP2 POP POP JUMP JUMPDEST PUSH32 0x52617465206C696D69742065786365656465642E000000000000000000000000 PUSH0 DUP3 ADD MSTORE POP JUMP JUMPDEST PUSH0 PUSH2 0xFCD PUSH1 0x14 DUP4 PUSH2 0xBD7 JUMP JUMPDEST SWAP2 POP PUSH2 0xFD8 DUP3 PUSH2 0xF99 JUMP JUMPDEST PUSH1 0x20 DUP3 ADD SWAP1 POP SWAP2 SWAP1 POP JUMP JUMPDEST PUSH0 PUSH1 0x20 DUP3 ADD SWAP1 POP DUP2 DUP2 SUB PUSH0 DUP4 ADD MSTORE PUSH2 0xFFA DUP2 PUSH2 0xFC1 JUMP JUMPDEST SWAP1 POP SWAP2 SWAP1 POP JUMP JUMPDEST PUSH32 0x496E76616C696420707269636520646174610000000000000000000000000000 PUSH0 DUP3 ADD MSTORE POP JUMP JUMPDEST PUSH0 PUSH2 0x1035 PUSH1 0x12 DUP4 PUSH2 0xBD7 JUMP JUMPDEST SWAP2 POP PUSH2 0x1040 DUP3 PUSH2 0x1001 JUMP JUMPDEST PUSH1 0x20 DUP3 ADD SWAP1 POP SWAP2 SWAP1 POP JUMP JUMPDEST PUSH0 PUSH1 0x20 DUP3 ADD SWAP1 POP DUP2 DUP2 SUB PUSH0 DUP4 ADD MSTORE PUSH2 0x1062 DUP2 PUSH2 0x1029 JUMP JUMPDEST SWAP1 POP SWAP2 SWAP1 POP JUMP JUMPDEST PUSH0 PUSH2 0x1073 DUP3 PUSH2 0xC77 JUMP JUMPDEST SWAP2 POP PUSH2 0x107E DUP4 PUSH2 0xC77 JUMP JUMPDEST SWAP3 POP DUP3 DUP3 MUL PUSH2 0x108C DUP2 PUSH2 0xC77 JUMP JUMPDEST SWAP2 POP DUP3 DUP3 DIV DUP5 EQ DUP4 ISZERO OR PUSH2 0x10A3 JUMPI PUSH2 0x10A2 PUSH2 0xF39 JUMP JUMPDEST JUMPDEST POP SWAP3 SWAP2 POP POP JUMP JUMPDEST PUSH32 0x4E487B7100000000000000000000000000000000000000000000000000000000 PUSH0 MSTORE PUSH1 0x12 PUSH1 0x4 MSTORE PUSH1 0x24 PUSH0 REVERT JUMPDEST PUSH0 PUSH2 0x10E1 DUP3 PUSH2 0xC77 JUMP JUMPDEST SWAP2 POP PUSH2 0x10EC DUP4 PUSH2 0xC77 JUMP JUMPDEST SWAP3 POP DUP3 PUSH2 0x10FC JUMPI PUSH2 0x10FB PUSH2 0x10AA JUMP JUMPDEST JUMPDEST DUP3 DUP3 DIV SWAP1 POP SWAP3 SWAP2 POP POP JUMP JUMPDEST PUSH0 DUP2 SWAP1 POP SWAP2 SWAP1 POP JUMP JUMPDEST PUSH0 PUSH2 0x112A PUSH2 0x1125 PUSH2 0x1120 DUP5 PUSH2 0xCAC JUMP JUMPDEST PUSH2 0x1107 JUMP JUMPDEST PUSH2 0xCAC JUMP JUMPDEST SWAP1 POP SWAP2 SWAP1 POP JUMP JUMPDEST PUSH0 PUSH2 0x113B DUP3 PUSH2 0x1110 JUMP JUMPDEST SWAP1 POP SWAP2 SWAP1 POP JUMP JUMPDEST PUSH0 PUSH2 0x114C DUP3 PUSH2 0x1131 JUMP JUMPDEST SWAP1 POP SWAP2 SWAP1 POP JUMP JUMPDEST PUSH2 0x115C DUP2 PUSH2 0x1142 JUMP JUMPDEST DUP3 MSTORE POP POP JUMP JUMPDEST PUSH0 PUSH1 0x60 DUP3 ADD SWAP1 POP PUSH2 0x1175 PUSH0 DUP4 ADD DUP7 PUSH2 0xC80 JUMP JUMPDEST PUSH2 0x1182 PUSH1 0x20 DUP4 ADD DUP6 PUSH2 0xD42 JUMP JUMPDEST PUSH2 0x118F PUSH1 0x40 DUP4 ADD DUP5 PUSH2 0x1153 JUMP JUMPDEST SWAP5 SWAP4 POP POP POP POP JUMP JUMPDEST PUSH0 PUSH10 0xFFFFFFFFFFFFFFFFFFFF DUP3 AND SWAP1 POP SWAP2 SWAP1 POP JUMP JUMPDEST PUSH2 0x11B5 DUP2 PUSH2 0x1197 JUMP JUMPDEST DUP2 EQ PUSH2 0x11BF JUMPI PUSH0 DUP1 REVERT JUMPDEST POP JUMP JUMPDEST PUSH0 DUP2 MLOAD SWAP1 POP PUSH2 0x11D0 DUP2 PUSH2 0x11AC JUMP JUMPDEST SWAP3 SWAP2 POP POP JUMP JUMPDEST PUSH2 0x11DF DUP2 PUSH2 0xD6A JUMP JUMPDEST DUP2 EQ PUSH2 0x11E9 JUMPI PUSH0 DUP1 REVERT JUMPDEST POP JUMP JUMPDEST PUSH0 DUP2 MLOAD SWAP1 POP PUSH2 0x11FA DUP2 PUSH2 0x11D6 JUMP JUMPDEST SWAP3 SWAP2 POP POP JUMP JUMPDEST PUSH2 0x1209 DUP2 PUSH2 0xC77 JUMP JUMPDEST DUP2 EQ PUSH2 0x1213 JUMPI PUSH0 DUP1 REVERT JUMPDEST POP JUMP JUMPDEST PUSH0 DUP2 MLOAD SWAP1 POP PUSH2 0x1224 DUP2 PUSH2 0x1200 JUMP JUMPDEST SWAP3 SWAP2 POP POP JUMP JUMPDEST PUSH0 DUP1 PUSH0 DUP1 PUSH0 PUSH1 0xA0 DUP7 DUP9 SUB SLT ISZERO PUSH2 0x1243 JUMPI PUSH2 0x1242 PUSH2 0xCA8 JUMP JUMPDEST JUMPDEST PUSH0 PUSH2 0x1250 DUP9 DUP3 DUP10 ADD PUSH2 0x11C2 JUMP JUMPDEST SWAP6 POP POP PUSH1 0x20 PUSH2 0x1261 DUP9 DUP3 DUP10 ADD PUSH2 0x11EC JUMP JUMPDEST SWAP5 POP POP PUSH1 0x40 PUSH2 0x1272 DUP9 DUP3 DUP10 ADD PUSH2 0x1216 JUMP JUMPDEST SWAP4 POP POP PUSH1 0x60 PUSH2 0x1283 DUP9 DUP3 DUP10 ADD PUSH2 0x1216 JUMP JUMPDEST SWAP3 POP POP PUSH1 0x80 PUSH2 0x1294 DUP9 DUP3 DUP10 ADD PUSH2 0x11C2 JUMP JUMPDEST SWAP2 POP POP SWAP3 SWAP6 POP SWAP3 SWAP6 SWAP1 SWAP4 POP JUMP JUMPDEST PUSH0 PUSH1 0x60 DUP3 ADD SWAP1 POP PUSH2 0x12B4 PUSH0 DUP4 ADD DUP7 PUSH2 0xD42 JUMP JUMPDEST PUSH2 0x12C1 PUSH1 0x20 DUP4 ADD DUP6 PUSH2 0xC80 JUMP JUMPDEST PUSH2 0x12CE PUSH1 0x40 DUP4 ADD DUP5 PUSH2 0xD42 JUMP JUMPDEST SWAP5 SWAP4 POP POP POP POP JUMP JUMPDEST PUSH32 0x4E487B7100000000000000000000000000000000000000000000000000000000 PUSH0 MSTORE PUSH1 0x41 PUSH1 0x4 MSTORE PUSH1 0x24 PUSH0 REVERT JUMPDEST PUSH32 0x4E487B7100000000000000000000000000000000000000000000000000000000 PUSH0 MSTORE PUSH1 0x32 PUSH1 0x4 MSTORE PUSH1 0x24 PUSH0 REVERT INVALID LOG2 PUSH5 0x6970667358 0x22 SLT KECCAK256 PUSH23 0xBF8FDB0223BBCA1CBA22100A6DF9680F3E3909E8BB657F DUP14 0xE3 PUSH32 0x59A852956364736F6C6343000816003300000000000000000000000000000000 "
				},
				"gasEstimates": {
					"creation": {
						"codeDepositCost": "993200",
						"executionCost": "infinite",
						"totalCost": "infinite"
					},
					"external": {
						"description()": "infinite",
						"donate()": "infinite",
						"getLatestPrice()": "infinite",
						"ipfsImageHash()": "infinite",
						"myHistory()": "infinite",
						"name()": "infinite",
						"owner()": "2560",
						"raised()": "2469",
						"raisedInUSD()": "infinite",
						"renounceOwnership()": "infinite",
						"setWithdrawalAddress(address)": "infinite",
						"totalDonationCount()": "2471",
						"transferOwnership(address)": "infinite",
						"withdraw()": "infinite"
					},
					"internal": {
						"donationCount()": "2223"
					}
				},
				"methodIdentifiers": {
					"description()": "7284e416",
					"donate()": "ed88c68e",
					"getLatestPrice()": "8e15f473",
					"ipfsImageHash()": "2b6bd172",
					"myHistory()": "fea49837",
					"name()": "06fdde03",
					"owner()": "8da5cb5b",
					"raised()": "f0ea4bfc",
					"raisedInUSD()": "254b9def",
					"renounceOwnership()": "715018a6",
					"setWithdrawalAddress(address)": "21b8092e",
					"totalDonationCount()": "0b024f87",
					"transferOwnership(address)": "f2fde38b",
					"withdraw()": "3ccfd60b"
				}
			},
			"storageLayout": {
				"storage": [
					{
						"astId": 54,
						"contract": "Donee.sol:Donee",
						"label": "_owner",
						"offset": 0,
						"slot": "0",
						"type": "t_address"
					},
					{
						"astId": 240,
						"contract": "Donee.sol:Donee",
						"label": "_donations",
						"offset": 0,
						"slot": "1",
						"type": "t_mapping(t_address,t_array(t_struct(Donation)234_storage)dyn_storage)"
					},
					{
						"astId": 242,
						"contract": "Donee.sol:Donee",
						"label": "raised",
						"offset": 0,
						"slot": "2",
						"type": "t_uint256"
					},
					{
						"astId": 244,
						"contract": "Donee.sol:Donee",
						"label": "totalDonationCount",
						"offset": 0,
						"slot": "3",
						"type": "t_uint256"
					},
					{
						"astId": 262,
						"contract": "Donee.sol:Donee",
						"label": "name",
						"offset": 0,
						"slot": "4",
						"type": "t_string_storage"
					},
					{
						"astId": 264,
						"contract": "Donee.sol:Donee",
						"label": "description",
						"offset": 0,
						"slot": "5",
						"type": "t_string_storage"
					},
					{
						"astId": 266,
						"contract": "Donee.sol:Donee",
						"label": "ipfsImageHash",
						"offset": 0,
						"slot": "6",
						"type": "t_string_storage"
					},
					{
						"astId": 268,
						"contract": "Donee.sol:Donee",
						"label": "donee_address",
						"offset": 0,
						"slot": "7",
						"type": "t_address_payable"
					},
					{
						"astId": 271,
						"contract": "Donee.sol:Donee",
						"label": "priceFeed",
						"offset": 0,
						"slot": "8",
						"type": "t_contract(AggregatorV3Interface)45"
					},
					{
						"astId": 274,
						"contract": "Donee.sol:Donee",
						"label": "lastCalled",
						"offset": 0,
						"slot": "9",
						"type": "t_uint256"
					}
				],
				"types": {
					"t_address": {
						"encoding": "inplace",
						"label": "address",
						"numberOfBytes": "20"
					},
					"t_address_payable": {
						"encoding": "inplace",
						"label": "address payable",
						"numberOfBytes": "20"
					},
					"t_array(t_struct(Donation)234_storage)dyn_storage": {
						"base": "t_struct(Donation)234_storage",
						"encoding": "dynamic_array",
						"label": "struct Donee.Donation[]",
						"numberOfBytes": "32"
					},
					"t_contract(AggregatorV3Interface)45": {
						"encoding": "inplace",
						"label": "contract AggregatorV3Interface",
						"numberOfBytes": "20"
					},
					"t_mapping(t_address,t_array(t_struct(Donation)234_storage)dyn_storage)": {
						"encoding": "mapping",
						"key": "t_address",
						"label": "mapping(address => struct Donee.Donation[])",
						"numberOfBytes": "32",
						"value": "t_array(t_struct(Donation)234_storage)dyn_storage"
					},
					"t_string_storage": {
						"encoding": "bytes",
						"label": "string",
						"numberOfBytes": "32"
					},
					"t_struct(Donation)234_storage": {
						"encoding": "inplace",
						"label": "struct Donee.Donation",
						"members": [
							{
								"astId": 231,
								"contract": "Donee.sol:Donee",
								"label": "value",
								"offset": 0,
								"slot": "0",
								"type": "t_uint256"
							},
							{
								"astId": 233,
								"contract": "Donee.sol:Donee",
								"label": "date",
								"offset": 0,
								"slot": "1",
								"type": "t_uint256"
							}
						],
						"numberOfBytes": "64"
					},
					"t_uint256": {
						"encoding": "inplace",
						"label": "uint256",
						"numberOfBytes": "32"
					}
				}
			},
			"userdoc": {
				"kind": "user",
				"methods": {},
				"version": 1
			}
		}
	}
}